{
  "_format": "hh-sol-artifact-1",
  "contractName": "ApprovedCallsBundlePolicy",
  "sourceName": "contracts/policies/ApprovedCallsBundlePolicy.sol",
  "abi": [
    {
      "anonymous": false,
      "inputs": [
        {
          "indexed": true,
          "internalType": "address",
          "name": "previousOwner",
          "type": "address"
        },
        {
          "indexed": true,
          "internalType": "address",
          "name": "newOwner",
          "type": "address"
        }
      ],
      "name": "OwnershipTransferred",
      "type": "event"
    },
    {
      "inputs": [
        {
          "internalType": "bytes32[]",
          "name": "_callHashes",
          "type": "bytes32[]"
        }
      ],
      "name": "approveCalls",
      "outputs": [],
      "stateMutability": "nonpayable",
      "type": "function"
    },
    {
      "inputs": [
        {
          "internalType": "uint256",
          "name": "",
          "type": "uint256"
        }
      ],
      "name": "callHashes",
      "outputs": [
        {
          "internalType": "bytes32",
          "name": "",
          "type": "bytes32"
        }
      ],
      "stateMutability": "view",
      "type": "function"
    },
    {
      "inputs": [],
      "name": "owner",
      "outputs": [
        {
          "internalType": "address",
          "name": "",
          "type": "address"
        }
      ],
      "stateMutability": "view",
      "type": "function"
    },
    {
      "inputs": [
        {
          "internalType": "address",
          "name": "",
          "type": "address"
        },
        {
          "internalType": "address",
          "name": "",
          "type": "address"
        },
        {
          "internalType": "bytes",
          "name": "",
          "type": "bytes"
        },
        {
          "internalType": "uint256",
          "name": "",
          "type": "uint256"
        }
      ],
      "name": "postExecution",
      "outputs": [],
      "stateMutability": "nonpayable",
      "type": "function"
    },
    {
      "inputs": [
        {
          "internalType": "address",
          "name": "consumer",
          "type": "address"
        },
        {
          "internalType": "address",
          "name": "sender",
          "type": "address"
        },
        {
          "internalType": "bytes",
          "name": "data",
          "type": "bytes"
        },
        {
          "internalType": "uint256",
          "name": "value",
          "type": "uint256"
        }
      ],
      "name": "preExecution",
      "outputs": [],
      "stateMutability": "nonpayable",
      "type": "function"
    },
    {
      "inputs": [],
      "name": "renounceOwnership",
      "outputs": [],
      "stateMutability": "nonpayable",
      "type": "function"
    },
    {
      "inputs": [
        {
          "internalType": "address",
          "name": "newOwner",
          "type": "address"
        }
      ],
      "name": "transferOwnership",
      "outputs": [],
      "stateMutability": "nonpayable",
      "type": "function"
    }
  ],
  "bytecode": "0x608060405234801561001057600080fd5b5061001a3361001f565b61006f565b600080546001600160a01b038381166001600160a01b0319831681178455604051919092169283917f8be0079c531659141344cd1fd0a4f28419497f9722a3daafe3b4186f6b6457e09190a35050565b6107218061007e6000396000f3fe608060405234801561001057600080fd5b506004361061007d5760003560e01c806394b131911161005b57806394b13191146100cd578063c6d4328b146100e0578063d9739cda146100f5578063f2fde38b1461010857600080fd5b806350f9b92e14610082578063715018a6146100a85780638da5cb5b146100b2575b600080fd5b6100956100903660046104c8565b61011b565b6040519081526020015b60405180910390f35b6100b061013c565b005b6000546040516001600160a01b03909116815260200161009f565b6100b06100db3660046104e1565b610150565b6100b06100ee366004610572565b5050505050565b6100b0610103366004610572565b610169565b6100b0610116366004610608565b610306565b6001818154811061012b57600080fd5b600091825260209091200154905081565b61014461037f565b61014e60006103d9565b565b61015861037f565b61016460018383610468565b505050565b7f5240afa92511149d1ea75355dd533487007d2505fa7bfdceab11878262a081b6546100ee576001546101f85760405162461bcd60e51b815260206004820152602c60248201527f417070726f76656443616c6c7342756e646c65506f6c6963793a2063616c6c2060448201526b68617368657320656d70747960a01b60648201526084015b60405180910390fd5b600061024086863287878080601f0160208091040260200160405190810160405280939291908181526020018383808284376000920191909152508992504391506104299050565b6001805491925060009161025590829061062a565b8154811061026557610265610651565b906000526020600020015490508082146102d65760405162461bcd60e51b815260206004820152602c60248201527f417070726f76656443616c6c7342756e646c65506f6c6963793a20696e76616c60448201526b0d2c840c6c2d8d840d0c2e6d60a31b60648201526084016101ef565b60018054806102e7576102e7610667565b6001900381819060005260206000200160009055905550505050505050565b61030e61037f565b6001600160a01b0381166103735760405162461bcd60e51b815260206004820152602660248201527f4f776e61626c653a206e6577206f776e657220697320746865207a65726f206160448201526564647265737360d01b60648201526084016101ef565b61037c816103d9565b50565b6000546001600160a01b0316331461014e5760405162461bcd60e51b815260206004820181905260248201527f4f776e61626c653a2063616c6c6572206973206e6f7420746865206f776e657260448201526064016101ef565b600080546001600160a01b038381166001600160a01b0319831681178455604051919092169283917f8be0079c531659141344cd1fd0a4f28419497f9722a3daafe3b4186f6b6457e09190a35050565b60008686868686866040516020016104469695949392919061067d565b6040516020818303038152906040528051906020012090509695505050505050565b8280548282559060005260206000209081019282156104a3579160200282015b828111156104a3578235825591602001919060010190610488565b506104af9291506104b3565b5090565b5b808211156104af57600081556001016104b4565b6000602082840312156104da57600080fd5b5035919050565b600080602083850312156104f457600080fd5b823567ffffffffffffffff8082111561050c57600080fd5b818501915085601f83011261052057600080fd5b81358181111561052f57600080fd5b8660208260051b850101111561054457600080fd5b60209290920196919550909350505050565b80356001600160a01b038116811461056d57600080fd5b919050565b60008060008060006080868803121561058a57600080fd5b61059386610556565b94506105a160208701610556565b9350604086013567ffffffffffffffff808211156105be57600080fd5b818801915088601f8301126105d257600080fd5b8135818111156105e157600080fd5b8960208285010111156105f357600080fd5b96999598505060200195606001359392505050565b60006020828403121561061a57600080fd5b61062382610556565b9392505050565b8181038181111561064b57634e487b7160e01b600052601160045260246000fd5b92915050565b634e487b7160e01b600052603260045260246000fd5b634e487b7160e01b600052603160045260246000fd5b60006bffffffffffffffffffffffff19808960601b168352808860601b166014840152808760601b16602884015250845160005b818110156106ce576020818801810151603c8684010152016106b1565b50909101603c81019390935250605c820152607c0194935050505056fea26469706673582212208aeac5f2181e6c898425e938b86cfc1337b2216c5107a14a11e3119e7be113de64736f6c63430008110033",
  "linkReferences": {},
  "deployedLinkReferences": {}
}