{"contracts/proxy/FirewallProxyIntercept.sol":{"FirewallProxyIntercept":{"abi":[{"inputs":[{"internalType":"address","name":"_logic","type":"address"},{"internalType":"address","name":"admin_","type":"address"},{"internalType":"bytes","name":"_data","type":"bytes"}],"stateMutability":"payable","type":"constructor"},{"anonymous":false,"inputs":[{"indexed":false,"internalType":"address","name":"previousAdmin","type":"address"},{"indexed":false,"internalType":"address","name":"newAdmin","type":"address"}],"name":"AdminChanged","type":"event"},{"anonymous":false,"inputs":[{"indexed":true,"internalType":"address","name":"beacon","type":"address"}],"name":"BeaconUpgraded","type":"event"},{"anonymous":false,"inputs":[],"name":"StaticCallCheck","type":"event"},{"anonymous":false,"inputs":[{"indexed":true,"internalType":"address","name":"implementation","type":"address"}],"name":"Upgraded","type":"event"},{"stateMutability":"payable","type":"fallback"},{"inputs":[{"internalType":"address","name":"_firewall","type":"address"}],"name":"changeFirewall","outputs":[],"stateMutability":"nonpayable","type":"function"},{"inputs":[{"internalType":"address","name":"_firewallAdmin","type":"address"}],"name":"changeFirewallAdmin","outputs":[],"stateMutability":"nonpayable","type":"function"},{"inputs":[],"name":"firewall","outputs":[{"internalType":"address","name":"","type":"address"}],"stateMutability":"nonpayable","type":"function"},{"inputs":[],"name":"firewallAdmin","outputs":[{"internalType":"address","name":"","type":"address"}],"stateMutability":"nonpayable","type":"function"},{"inputs":[{"internalType":"address","name":"_firewall","type":"address"},{"internalType":"address","name":"_firewallAdmin","type":"address"},{"internalType":"address","name":"_logic","type":"address"}],"name":"initialize","outputs":[],"stateMutability":"nonpayable","type":"function"},{"inputs":[],"name":"staticCallCheck","outputs":[],"stateMutability":"nonpayable","type":"function"},{"stateMutability":"payable","type":"receive"}],"evm":{"bytecode":{"linkReferences":{},"object":"6080604052604051620015743803806200157483398101604081905262000026916200049d565b8282828281620000398282600062000053565b506200004790508262000090565b505050505050620005d0565b6200005e83620000eb565b6000825111806200006c5750805b156200008b576200008983836200012d60201b620004681760201c565b505b505050565b7f7e644d79422f17c01e4894b5f4f588d331ebfa28653d42ae832dc59e38c9798f620000bb6200015c565b604080516001600160a01b03928316815291841660208301520160405180910390a1620000e88162000195565b50565b620000f6816200024a565b6040516001600160a01b038216907fbc7cd75a20ee27fd9adebab32041f755214dbc6bffa90cc0225b39da2e5c2d3b90600090a250565b60606200015583836040518060600160405280602781526020016200154d60279139620002fe565b9392505050565b6000620001866000805160206200152d83398151915260001b6200037d60201b620003961760201c565b546001600160a01b0316919050565b6001600160a01b038116620002005760405162461bcd60e51b815260206004820152602660248201527f455243313936373a206e65772061646d696e20697320746865207a65726f206160448201526564647265737360d01b60648201526084015b60405180910390fd5b80620002296000805160206200152d83398151915260001b6200037d60201b620003961760201c565b80546001600160a01b0319166001600160a01b039290921691909117905550565b62000260816200038060201b620004961760201c565b620002c45760405162461bcd60e51b815260206004820152602d60248201527f455243313936373a206e657720696d706c656d656e746174696f6e206973206e60448201526c1bdd08184818dbdb9d1c9858dd609a1b6064820152608401620001f7565b80620002297f360894a13ba1a3210667c828492db98dca3e2076cc3735a920a3ca505d382bbc60001b6200037d60201b620003961760201c565b6060600080856001600160a01b0316856040516200031d91906200057d565b600060405180830381855af49150503d80600081146200035a576040519150601f19603f3d011682016040523d82523d6000602084013e6200035f565b606091505b50909250905062000373868383876200038f565b9695505050505050565b90565b6001600160a01b03163b151590565b6060831562000403578251600003620003fb576001600160a01b0385163b620003fb5760405162461bcd60e51b815260206004820152601d60248201527f416464726573733a2063616c6c20746f206e6f6e2d636f6e74726163740000006044820152606401620001f7565b50816200040f565b6200040f838362000417565b949350505050565b815115620004285781518083602001fd5b8060405162461bcd60e51b8152600401620001f791906200059b565b80516001600160a01b03811681146200045c57600080fd5b919050565b634e487b7160e01b600052604160045260246000fd5b60005b83811015620004945781810151838201526020016200047a565b50506000910152565b600080600060608486031215620004b357600080fd5b620004be8462000444565b9250620004ce6020850162000444565b60408501519092506001600160401b0380821115620004ec57600080fd5b818601915086601f8301126200050157600080fd5b81518181111562000516576200051662000461565b604051601f8201601f19908116603f0116810190838211818310171562000541576200054162000461565b816040528281528960208487010111156200055b57600080fd5b6200056e83602083016020880162000477565b80955050505050509250925092565b600082516200059181846020870162000477565b9190910192915050565b6020815260008251806020840152620005bc81604085016020870162000477565b601f01601f19169190910160400192915050565b610f4d80620005e06000396000f3fe6080604052600436106100595760003560e01c80631e8545ff14610070578063664f285f14610085578063c0c53b8b146100a5578063c22a4a85146100c5578063f05c8582146100f6578063fd9e10601461010b57610068565b366100685761006661012b565b005b61006661012b565b34801561007c57600080fd5b5061006661027d565b34801561009157600080fd5b506100666100a0366004610c9f565b6102a8565b3480156100b157600080fd5b506100666100c0366004610cc3565b610329565b3480156100d157600080fd5b506100da610368565b6040516001600160a01b03909116815260200160405180910390f35b34801561010257600080fd5b506100da610399565b34801561011757600080fd5b50610066610126366004610c9f565b6103f2565b6101336104a5565b6001600160a01b031633036102735760606001600160e01b0319600035166364d3180d60e11b810161016e576101676104d8565b915061026b565b63587086bd60e11b6001600160e01b031982160161018e5761016761052f565b63070d7c6960e41b6001600160e01b03198216016101ae57610167610575565b621eb96f60e61b6001600160e01b03198216016101cd576101676105a6565b63a39f25e560e01b6001600160e01b03198216016101ed576101676105e6565b60405162461bcd60e51b815260206004820152604260248201527f5472616e73706172656e745570677261646561626c6550726f78793a2061646d60448201527f696e2063616e6e6f742066616c6c6261636b20746f2070726f78792074617267606482015261195d60f21b608482015260a4015b60405180910390fd5b815160208301f35b61027b6105fa565b565b6040517f6832e49adbb4121c72b63aad2aafe3e3a25b5e7624a192b19e60a513de6f957090600090a1565b6102b06104a5565b6001600160a01b03163303610321576001600160a01b0381166103155760405162461bcd60e51b815260206004820152601e60248201527f4669726577616c6c436f6e73756d65723a207a65726f206164647265737300006044820152606401610262565b61031e8161060a565b50565b61031e61012b565b6103316104a5565b6001600160a01b03163303610360576103498361065a565b6103528261060a565b61035b81610689565b505050565b61035b61012b565b60006103726104a5565b6001600160a01b0316330361038e576103896106b8565b905090565b61039661012b565b90565b6000806103a46106b8565b905060006103b06104a5565b9050336001600160a01b03831614806103d15750336001600160a01b038216145b156103e5576103de6106e8565b9250505090565b6103ed61012b565b505090565b6103fa6104a5565b6001600160a01b03163303610321576001600160a01b03811661045f5760405162461bcd60e51b815260206004820152601e60248201527f4669726577616c6c436f6e73756d65723a207a65726f206164647265737300006044820152606401610262565b61031e8161065a565b606061048d8383604051806060016040528060278152602001610ef160279139610718565b90505b92915050565b6001600160a01b03163b151590565b60007fb53127684a568b3173ae13b9f8a6016e243e63b6e8ee1178d6a717850b5d61035b546001600160a01b0316919050565b60606104e2610790565b60006104f13660048184610d0e565b8101906104fe9190610c9f565b905061051b8160405180602001604052806000815250600061079b565b505060408051602081019091526000815290565b60606000806105413660048184610d0e565b81019061054e9190610d4e565b9150915061055e8282600161079b565b604051806020016040528060008152509250505090565b606061057f610790565b600061058e3660048184610d0e565b81019061059b9190610c9f565b905061051b816107c6565b60606105b0610790565b60006105ba6104a5565b604080516001600160a01b03831660208201529192500160405160208183030381529060405291505090565b60606105f0610790565b60006105ba61081a565b61027b61060561081a565b610824565b8061063961039660017f29982a6ac507a2a707ced6dee5d76285dd49725db977de83d9702c628c974136610e12565b80546001600160a01b0319166001600160a01b039290921691909117905550565b8061063961039660017f5dd2e3b890564a8f99f7f203f226a27a8aa59aee19a4ece5cf5eaa77ab91f662610e12565b8061063961039660017f9bd5d851ffb033c9f8f50d8e8a94fa51dea2039e8c5fb35e708e43441f88b513610e12565b60006104c961039660017f5dd2e3b890564a8f99f7f203f226a27a8aa59aee19a4ece5cf5eaa77ab91f662610e12565b60006104c961039660017f29982a6ac507a2a707ced6dee5d76285dd49725db977de83d9702c628c974136610e12565b6060600080856001600160a01b0316856040516107359190610e57565b600060405180830381855af49150503d8060008114610770576040519150601f19603f3d011682016040523d82523d6000602084013e610775565b606091505b509150915061078686838387610877565b9695505050505050565b341561027b57600080fd5b6107a4836108f8565b6000825111806107b15750805b1561035b576107c08383610468565b50505050565b7f7e644d79422f17c01e4894b5f4f588d331ebfa28653d42ae832dc59e38c9798f6107ef6104a5565b604080516001600160a01b03928316815291841660208301520160405180910390a161031e81610938565b60006103896109c4565b600061085461039660017f9bd5d851ffb033c9f8f50d8e8a94fa51dea2039e8c5fb35e708e43441f88b513610e12565b546001600160a01b03169050600061086b826109ec565b80519091508060208301f35b606083156108e65782516000036108df576001600160a01b0385163b6108df5760405162461bcd60e51b815260206004820152601d60248201527f416464726573733a2063616c6c20746f206e6f6e2d636f6e74726163740000006044820152606401610262565b50816108f0565b6108f08383610b6e565b949350505050565b61090181610b98565b6040516001600160a01b038216907fbc7cd75a20ee27fd9adebab32041f755214dbc6bffa90cc0225b39da2e5c2d3b90600090a250565b6001600160a01b03811661099d5760405162461bcd60e51b815260206004820152602660248201527f455243313936373a206e65772061646d696e20697320746865207a65726f206160448201526564647265737360d01b6064820152608401610262565b807fb53127684a568b3173ae13b9f8a6016e243e63b6e8ee1178d6a717850b5d6103610639565b60007f360894a13ba1a3210667c828492db98dca3e2076cc3735a920a3ca505d382bbc6104c9565b60606109f6610c2c565b15610a47576000610a3e836000368080601f01602080910402602001604051908101604052809392919081815260200183838082843760009201919091525061046892505050565b9150610b699050565b6000610a516106b8565b604051631bf8659f60e21b815290915034906001600160a01b03831690636fe1967c90610a8990339060009036908790600401610e73565b600060405180830381600087803b158015610aa357600080fd5b505af1158015610ab7573d6000803e3d6000fd5b505050506000610afe856000368080601f01602080910402602001604051908101604052809392919081815260200183838082843760009201919091525061046892505050565b9350506040516393163a9160e01b81526001600160a01b038316906393163a9190610b3490339060009036908790600401610e73565b600060405180830381600087803b158015610b4e57600080fd5b505af1158015610b62573d6000803e3d6000fd5b5050505050505b919050565b815115610b7e5781518083602001fd5b8060405162461bcd60e51b81526004016102629190610ebd565b6001600160a01b0381163b610c055760405162461bcd60e51b815260206004820152602d60248201527f455243313936373a206e657720696d706c656d656e746174696f6e206973206e60448201526c1bdd08184818dbdb9d1c9858dd609a1b6064820152608401610262565b807f360894a13ba1a3210667c828492db98dca3e2076cc3735a920a3ca505d382bbc610639565b6000306001600160a01b0316631e8545ff6040518163ffffffff1660e01b8152600401600060405180830381600087803b158015610c6957600080fd5b505af1925050508015610c7a575060015b610c845750600190565b50600090565b6001600160a01b038116811461031e57600080fd5b600060208284031215610cb157600080fd5b8135610cbc81610c8a565b9392505050565b600080600060608486031215610cd857600080fd5b8335610ce381610c8a565b92506020840135610cf381610c8a565b91506040840135610d0381610c8a565b809150509250925092565b60008085851115610d1e57600080fd5b83861115610d2b57600080fd5b5050820193919092039150565b634e487b7160e01b600052604160045260246000fd5b60008060408385031215610d6157600080fd5b8235610d6c81610c8a565b9150602083013567ffffffffffffffff80821115610d8957600080fd5b818501915085601f830112610d9d57600080fd5b813581811115610daf57610daf610d38565b604051601f8201601f19908116603f01168101908382118183101715610dd757610dd7610d38565b81604052828152886020848701011115610df057600080fd5b8260208601602083013760006020848301015280955050505050509250929050565b8181038181111561049057634e487b7160e01b600052601160045260246000fd5b60005b83811015610e4e578181015183820152602001610e36565b50506000910152565b60008251610e69818460208701610e33565b9190910192915050565b6001600160a01b038516815260606020820181905281018390528284608083013760006080848301015260006080601f19601f860116830101905082604083015295945050505050565b6020815260008251806020840152610edc816040850160208701610e33565b601f01601f1916919091016040019291505056fe416464726573733a206c6f772d6c6576656c2064656c65676174652063616c6c206661696c6564a2646970667358221220e397e3b7dfaebb3608beaf56fce0d893155d43f4e157b30cea4721f8366db27864736f6c63430008110033b53127684a568b3173ae13b9f8a6016e243e63b6e8ee1178d6a717850b5d6103416464726573733a206c6f772d6c6576656c2064656c65676174652063616c6c206661696c6564","opcodes":"PUSH1 0x80 PUSH1 0x40 MSTORE PUSH1 0x40 MLOAD PUSH3 0x1574 CODESIZE SUB DUP1 PUSH3 0x1574 DUP4 CODECOPY DUP2 ADD PUSH1 0x40 DUP2 SWAP1 MSTORE PUSH3 0x26 SWAP2 PUSH3 0x49D JUMP JUMPDEST DUP3 DUP3 DUP3 DUP3 DUP2 PUSH3 0x39 DUP3 DUP3 PUSH1 0x0 PUSH3 0x53 JUMP JUMPDEST POP PUSH3 0x47 SWAP1 POP DUP3 PUSH3 0x90 JUMP JUMPDEST POP POP POP POP POP POP PUSH3 0x5D0 JUMP JUMPDEST PUSH3 0x5E DUP4 PUSH3 0xEB JUMP JUMPDEST PUSH1 0x0 DUP3 MLOAD GT DUP1 PUSH3 0x6C JUMPI POP DUP1 JUMPDEST ISZERO PUSH3 0x8B JUMPI PUSH3 0x89 DUP4 DUP4 PUSH3 0x12D PUSH1 0x20 SHL PUSH3 0x468 OR PUSH1 0x20 SHR JUMP JUMPDEST POP JUMPDEST POP POP POP JUMP JUMPDEST PUSH32 0x7E644D79422F17C01E4894B5F4F588D331EBFA28653D42AE832DC59E38C9798F PUSH3 0xBB PUSH3 0x15C JUMP JUMPDEST PUSH1 0x40 DUP1 MLOAD PUSH1 0x1 PUSH1 0x1 PUSH1 0xA0 SHL SUB SWAP3 DUP4 AND DUP2 MSTORE SWAP2 DUP5 AND PUSH1 0x20 DUP4 ADD MSTORE ADD PUSH1 0x40 MLOAD DUP1 SWAP2 SUB SWAP1 LOG1 PUSH3 0xE8 DUP2 PUSH3 0x195 JUMP JUMPDEST POP JUMP JUMPDEST PUSH3 0xF6 DUP2 PUSH3 0x24A JUMP JUMPDEST PUSH1 0x40 MLOAD PUSH1 0x1 PUSH1 0x1 PUSH1 0xA0 SHL SUB DUP3 AND SWAP1 PUSH32 0xBC7CD75A20EE27FD9ADEBAB32041F755214DBC6BFFA90CC0225B39DA2E5C2D3B SWAP1 PUSH1 0x0 SWAP1 LOG2 POP JUMP JUMPDEST PUSH1 0x60 PUSH3 0x155 DUP4 DUP4 PUSH1 0x40 MLOAD DUP1 PUSH1 0x60 ADD PUSH1 0x40 MSTORE DUP1 PUSH1 0x27 DUP2 MSTORE PUSH1 0x20 ADD PUSH3 0x154D PUSH1 0x27 SWAP2 CODECOPY PUSH3 0x2FE JUMP JUMPDEST SWAP4 SWAP3 POP POP POP JUMP JUMPDEST PUSH1 0x0 PUSH3 0x186 PUSH1 0x0 DUP1 MLOAD PUSH1 0x20 PUSH3 0x152D DUP4 CODECOPY DUP2 MLOAD SWAP2 MSTORE PUSH1 0x0 SHL PUSH3 0x37D PUSH1 0x20 SHL PUSH3 0x396 OR PUSH1 0x20 SHR JUMP JUMPDEST SLOAD PUSH1 0x1 PUSH1 0x1 PUSH1 0xA0 SHL SUB AND SWAP2 SWAP1 POP JUMP JUMPDEST PUSH1 0x1 PUSH1 0x1 PUSH1 0xA0 SHL SUB DUP2 AND PUSH3 0x200 JUMPI PUSH1 0x40 MLOAD PUSH3 0x461BCD PUSH1 0xE5 SHL DUP2 MSTORE PUSH1 0x20 PUSH1 0x4 DUP3 ADD MSTORE PUSH1 0x26 PUSH1 0x24 DUP3 ADD MSTORE PUSH32 0x455243313936373A206E65772061646D696E20697320746865207A65726F2061 PUSH1 0x44 DUP3 ADD MSTORE PUSH6 0x646472657373 PUSH1 0xD0 SHL PUSH1 0x64 DUP3 ADD MSTORE PUSH1 0x84 ADD JUMPDEST PUSH1 0x40 MLOAD DUP1 SWAP2 SUB SWAP1 REVERT JUMPDEST DUP1 PUSH3 0x229 PUSH1 0x0 DUP1 MLOAD PUSH1 0x20 PUSH3 0x152D DUP4 CODECOPY DUP2 MLOAD SWAP2 MSTORE PUSH1 0x0 SHL PUSH3 0x37D PUSH1 0x20 SHL PUSH3 0x396 OR PUSH1 0x20 SHR JUMP JUMPDEST DUP1 SLOAD PUSH1 0x1 PUSH1 0x1 PUSH1 0xA0 SHL SUB NOT AND PUSH1 0x1 PUSH1 0x1 PUSH1 0xA0 SHL SUB SWAP3 SWAP1 SWAP3 AND SWAP2 SWAP1 SWAP2 OR SWAP1 SSTORE POP JUMP JUMPDEST PUSH3 0x260 DUP2 PUSH3 0x380 PUSH1 0x20 SHL PUSH3 0x496 OR PUSH1 0x20 SHR JUMP JUMPDEST PUSH3 0x2C4 JUMPI PUSH1 0x40 MLOAD PUSH3 0x461BCD PUSH1 0xE5 SHL DUP2 MSTORE PUSH1 0x20 PUSH1 0x4 DUP3 ADD MSTORE PUSH1 0x2D PUSH1 0x24 DUP3 ADD MSTORE PUSH32 0x455243313936373A206E657720696D706C656D656E746174696F6E206973206E PUSH1 0x44 DUP3 ADD MSTORE PUSH13 0x1BDD08184818DBDB9D1C9858DD PUSH1 0x9A SHL PUSH1 0x64 DUP3 ADD MSTORE PUSH1 0x84 ADD PUSH3 0x1F7 JUMP JUMPDEST DUP1 PUSH3 0x229 PUSH32 0x360894A13BA1A3210667C828492DB98DCA3E2076CC3735A920A3CA505D382BBC PUSH1 0x0 SHL PUSH3 0x37D PUSH1 0x20 SHL PUSH3 0x396 OR PUSH1 0x20 SHR JUMP JUMPDEST PUSH1 0x60 PUSH1 0x0 DUP1 DUP6 PUSH1 0x1 PUSH1 0x1 PUSH1 0xA0 SHL SUB AND DUP6 PUSH1 0x40 MLOAD PUSH3 0x31D SWAP2 SWAP1 PUSH3 0x57D JUMP JUMPDEST PUSH1 0x0 PUSH1 0x40 MLOAD DUP1 DUP4 SUB DUP2 DUP6 GAS DELEGATECALL SWAP2 POP POP RETURNDATASIZE DUP1 PUSH1 0x0 DUP2 EQ PUSH3 0x35A JUMPI PUSH1 0x40 MLOAD SWAP2 POP PUSH1 0x1F NOT PUSH1 0x3F RETURNDATASIZE ADD AND DUP3 ADD PUSH1 0x40 MSTORE RETURNDATASIZE DUP3 MSTORE RETURNDATASIZE PUSH1 0x0 PUSH1 0x20 DUP5 ADD RETURNDATACOPY PUSH3 0x35F JUMP JUMPDEST PUSH1 0x60 SWAP2 POP JUMPDEST POP SWAP1 SWAP3 POP SWAP1 POP PUSH3 0x373 DUP7 DUP4 DUP4 DUP8 PUSH3 0x38F JUMP JUMPDEST SWAP7 SWAP6 POP POP POP POP POP POP JUMP JUMPDEST SWAP1 JUMP JUMPDEST PUSH1 0x1 PUSH1 0x1 PUSH1 0xA0 SHL SUB AND EXTCODESIZE ISZERO ISZERO SWAP1 JUMP JUMPDEST PUSH1 0x60 DUP4 ISZERO PUSH3 0x403 JUMPI DUP3 MLOAD PUSH1 0x0 SUB PUSH3 0x3FB JUMPI PUSH1 0x1 PUSH1 0x1 PUSH1 0xA0 SHL SUB DUP6 AND EXTCODESIZE PUSH3 0x3FB JUMPI PUSH1 0x40 MLOAD PUSH3 0x461BCD PUSH1 0xE5 SHL DUP2 MSTORE PUSH1 0x20 PUSH1 0x4 DUP3 ADD MSTORE PUSH1 0x1D PUSH1 0x24 DUP3 ADD MSTORE PUSH32 0x416464726573733A2063616C6C20746F206E6F6E2D636F6E7472616374000000 PUSH1 0x44 DUP3 ADD MSTORE PUSH1 0x64 ADD PUSH3 0x1F7 JUMP JUMPDEST POP DUP2 PUSH3 0x40F JUMP JUMPDEST PUSH3 0x40F DUP4 DUP4 PUSH3 0x417 JUMP JUMPDEST SWAP5 SWAP4 POP POP POP POP JUMP JUMPDEST DUP2 MLOAD ISZERO PUSH3 0x428 JUMPI DUP2 MLOAD DUP1 DUP4 PUSH1 0x20 ADD REVERT JUMPDEST DUP1 PUSH1 0x40 MLOAD PUSH3 0x461BCD PUSH1 0xE5 SHL DUP2 MSTORE PUSH1 0x4 ADD PUSH3 0x1F7 SWAP2 SWAP1 PUSH3 0x59B JUMP JUMPDEST DUP1 MLOAD PUSH1 0x1 PUSH1 0x1 PUSH1 0xA0 SHL SUB DUP2 AND DUP2 EQ PUSH3 0x45C JUMPI PUSH1 0x0 DUP1 REVERT JUMPDEST SWAP2 SWAP1 POP JUMP JUMPDEST PUSH4 0x4E487B71 PUSH1 0xE0 SHL PUSH1 0x0 MSTORE PUSH1 0x41 PUSH1 0x4 MSTORE PUSH1 0x24 PUSH1 0x0 REVERT JUMPDEST PUSH1 0x0 JUMPDEST DUP4 DUP2 LT ISZERO PUSH3 0x494 JUMPI DUP2 DUP2 ADD MLOAD DUP4 DUP3 ADD MSTORE PUSH1 0x20 ADD PUSH3 0x47A JUMP JUMPDEST POP POP PUSH1 0x0 SWAP2 ADD MSTORE JUMP JUMPDEST PUSH1 0x0 DUP1 PUSH1 0x0 PUSH1 0x60 DUP5 DUP7 SUB SLT ISZERO PUSH3 0x4B3 JUMPI PUSH1 0x0 DUP1 REVERT JUMPDEST PUSH3 0x4BE DUP5 PUSH3 0x444 JUMP JUMPDEST SWAP3 POP PUSH3 0x4CE PUSH1 0x20 DUP6 ADD PUSH3 0x444 JUMP JUMPDEST PUSH1 0x40 DUP6 ADD MLOAD SWAP1 SWAP3 POP PUSH1 0x1 PUSH1 0x1 PUSH1 0x40 SHL SUB DUP1 DUP3 GT ISZERO PUSH3 0x4EC JUMPI PUSH1 0x0 DUP1 REVERT JUMPDEST DUP2 DUP7 ADD SWAP2 POP DUP7 PUSH1 0x1F DUP4 ADD SLT PUSH3 0x501 JUMPI PUSH1 0x0 DUP1 REVERT JUMPDEST DUP2 MLOAD DUP2 DUP2 GT ISZERO PUSH3 0x516 JUMPI PUSH3 0x516 PUSH3 0x461 JUMP JUMPDEST PUSH1 0x40 MLOAD PUSH1 0x1F DUP3 ADD PUSH1 0x1F NOT SWAP1 DUP2 AND PUSH1 0x3F ADD AND DUP2 ADD SWAP1 DUP4 DUP3 GT DUP2 DUP4 LT OR ISZERO PUSH3 0x541 JUMPI PUSH3 0x541 PUSH3 0x461 JUMP JUMPDEST DUP2 PUSH1 0x40 MSTORE DUP3 DUP2 MSTORE DUP10 PUSH1 0x20 DUP5 DUP8 ADD ADD GT ISZERO PUSH3 0x55B JUMPI PUSH1 0x0 DUP1 REVERT JUMPDEST PUSH3 0x56E DUP4 PUSH1 0x20 DUP4 ADD PUSH1 0x20 DUP9 ADD PUSH3 0x477 JUMP JUMPDEST DUP1 SWAP6 POP POP POP POP POP POP SWAP3 POP SWAP3 POP SWAP3 JUMP JUMPDEST PUSH1 0x0 DUP3 MLOAD PUSH3 0x591 DUP2 DUP5 PUSH1 0x20 DUP8 ADD PUSH3 0x477 JUMP JUMPDEST SWAP2 SWAP1 SWAP2 ADD SWAP3 SWAP2 POP POP JUMP JUMPDEST PUSH1 0x20 DUP2 MSTORE PUSH1 0x0 DUP3 MLOAD DUP1 PUSH1 0x20 DUP5 ADD MSTORE PUSH3 0x5BC DUP2 PUSH1 0x40 DUP6 ADD PUSH1 0x20 DUP8 ADD PUSH3 0x477 JUMP JUMPDEST PUSH1 0x1F ADD PUSH1 0x1F NOT AND SWAP2 SWAP1 SWAP2 ADD PUSH1 0x40 ADD SWAP3 SWAP2 POP POP JUMP JUMPDEST PUSH2 0xF4D DUP1 PUSH3 0x5E0 PUSH1 0x0 CODECOPY PUSH1 0x0 RETURN INVALID PUSH1 0x80 PUSH1 0x40 MSTORE PUSH1 0x4 CALLDATASIZE LT PUSH2 0x59 JUMPI PUSH1 0x0 CALLDATALOAD PUSH1 0xE0 SHR DUP1 PUSH4 0x1E8545FF EQ PUSH2 0x70 JUMPI DUP1 PUSH4 0x664F285F EQ PUSH2 0x85 JUMPI DUP1 PUSH4 0xC0C53B8B EQ PUSH2 0xA5 JUMPI DUP1 PUSH4 0xC22A4A85 EQ PUSH2 0xC5 JUMPI DUP1 PUSH4 0xF05C8582 EQ PUSH2 0xF6 JUMPI DUP1 PUSH4 0xFD9E1060 EQ PUSH2 0x10B JUMPI PUSH2 0x68 JUMP JUMPDEST CALLDATASIZE PUSH2 0x68 JUMPI PUSH2 0x66 PUSH2 0x12B JUMP JUMPDEST STOP JUMPDEST PUSH2 0x66 PUSH2 0x12B JUMP JUMPDEST CALLVALUE DUP1 ISZERO PUSH2 0x7C JUMPI PUSH1 0x0 DUP1 REVERT JUMPDEST POP PUSH2 0x66 PUSH2 0x27D JUMP JUMPDEST CALLVALUE DUP1 ISZERO PUSH2 0x91 JUMPI PUSH1 0x0 DUP1 REVERT JUMPDEST POP PUSH2 0x66 PUSH2 0xA0 CALLDATASIZE PUSH1 0x4 PUSH2 0xC9F JUMP JUMPDEST PUSH2 0x2A8 JUMP JUMPDEST CALLVALUE DUP1 ISZERO PUSH2 0xB1 JUMPI PUSH1 0x0 DUP1 REVERT JUMPDEST POP PUSH2 0x66 PUSH2 0xC0 CALLDATASIZE PUSH1 0x4 PUSH2 0xCC3 JUMP JUMPDEST PUSH2 0x329 JUMP JUMPDEST CALLVALUE DUP1 ISZERO PUSH2 0xD1 JUMPI PUSH1 0x0 DUP1 REVERT JUMPDEST POP PUSH2 0xDA PUSH2 0x368 JUMP JUMPDEST PUSH1 0x40 MLOAD PUSH1 0x1 PUSH1 0x1 PUSH1 0xA0 SHL SUB SWAP1 SWAP2 AND DUP2 MSTORE PUSH1 0x20 ADD PUSH1 0x40 MLOAD DUP1 SWAP2 SUB SWAP1 RETURN JUMPDEST CALLVALUE DUP1 ISZERO PUSH2 0x102 JUMPI PUSH1 0x0 DUP1 REVERT JUMPDEST POP PUSH2 0xDA PUSH2 0x399 JUMP JUMPDEST CALLVALUE DUP1 ISZERO PUSH2 0x117 JUMPI PUSH1 0x0 DUP1 REVERT JUMPDEST POP PUSH2 0x66 PUSH2 0x126 CALLDATASIZE PUSH1 0x4 PUSH2 0xC9F JUMP JUMPDEST PUSH2 0x3F2 JUMP JUMPDEST PUSH2 0x133 PUSH2 0x4A5 JUMP JUMPDEST PUSH1 0x1 PUSH1 0x1 PUSH1 0xA0 SHL SUB AND CALLER SUB PUSH2 0x273 JUMPI PUSH1 0x60 PUSH1 0x1 PUSH1 0x1 PUSH1 0xE0 SHL SUB NOT PUSH1 0x0 CALLDATALOAD AND PUSH4 0x64D3180D PUSH1 0xE1 SHL DUP2 ADD PUSH2 0x16E JUMPI PUSH2 0x167 PUSH2 0x4D8 JUMP JUMPDEST SWAP2 POP PUSH2 0x26B JUMP JUMPDEST PUSH4 0x587086BD PUSH1 0xE1 SHL PUSH1 0x1 PUSH1 0x1 PUSH1 0xE0 SHL SUB NOT DUP3 AND ADD PUSH2 0x18E JUMPI PUSH2 0x167 PUSH2 0x52F JUMP JUMPDEST PUSH4 0x70D7C69 PUSH1 0xE4 SHL PUSH1 0x1 PUSH1 0x1 PUSH1 0xE0 SHL SUB NOT DUP3 AND ADD PUSH2 0x1AE JUMPI PUSH2 0x167 PUSH2 0x575 JUMP JUMPDEST PUSH3 0x1EB96F PUSH1 0xE6 SHL PUSH1 0x1 PUSH1 0x1 PUSH1 0xE0 SHL SUB NOT DUP3 AND ADD PUSH2 0x1CD JUMPI PUSH2 0x167 PUSH2 0x5A6 JUMP JUMPDEST PUSH4 0xA39F25E5 PUSH1 0xE0 SHL PUSH1 0x1 PUSH1 0x1 PUSH1 0xE0 SHL SUB NOT DUP3 AND ADD PUSH2 0x1ED JUMPI PUSH2 0x167 PUSH2 0x5E6 JUMP JUMPDEST PUSH1 0x40 MLOAD PUSH3 0x461BCD PUSH1 0xE5 SHL DUP2 MSTORE PUSH1 0x20 PUSH1 0x4 DUP3 ADD MSTORE PUSH1 0x42 PUSH1 0x24 DUP3 ADD MSTORE PUSH32 0x5472616E73706172656E745570677261646561626C6550726F78793A2061646D PUSH1 0x44 DUP3 ADD MSTORE PUSH32 0x696E2063616E6E6F742066616C6C6261636B20746F2070726F78792074617267 PUSH1 0x64 DUP3 ADD MSTORE PUSH2 0x195D PUSH1 0xF2 SHL PUSH1 0x84 DUP3 ADD MSTORE PUSH1 0xA4 ADD JUMPDEST PUSH1 0x40 MLOAD DUP1 SWAP2 SUB SWAP1 REVERT JUMPDEST DUP2 MLOAD PUSH1 0x20 DUP4 ADD RETURN JUMPDEST PUSH2 0x27B PUSH2 0x5FA JUMP JUMPDEST JUMP JUMPDEST PUSH1 0x40 MLOAD PUSH32 0x6832E49ADBB4121C72B63AAD2AAFE3E3A25B5E7624A192B19E60A513DE6F9570 SWAP1 PUSH1 0x0 SWAP1 LOG1 JUMP JUMPDEST PUSH2 0x2B0 PUSH2 0x4A5 JUMP JUMPDEST PUSH1 0x1 PUSH1 0x1 PUSH1 0xA0 SHL SUB AND CALLER SUB PUSH2 0x321 JUMPI PUSH1 0x1 PUSH1 0x1 PUSH1 0xA0 SHL SUB DUP2 AND PUSH2 0x315 JUMPI PUSH1 0x40 MLOAD PUSH3 0x461BCD PUSH1 0xE5 SHL DUP2 MSTORE PUSH1 0x20 PUSH1 0x4 DUP3 ADD MSTORE PUSH1 0x1E PUSH1 0x24 DUP3 ADD MSTORE PUSH32 0x4669726577616C6C436F6E73756D65723A207A65726F20616464726573730000 PUSH1 0x44 DUP3 ADD MSTORE PUSH1 0x64 ADD PUSH2 0x262 JUMP JUMPDEST PUSH2 0x31E DUP2 PUSH2 0x60A JUMP JUMPDEST POP JUMP JUMPDEST PUSH2 0x31E PUSH2 0x12B JUMP JUMPDEST PUSH2 0x331 PUSH2 0x4A5 JUMP JUMPDEST PUSH1 0x1 PUSH1 0x1 PUSH1 0xA0 SHL SUB AND CALLER SUB PUSH2 0x360 JUMPI PUSH2 0x349 DUP4 PUSH2 0x65A JUMP JUMPDEST PUSH2 0x352 DUP3 PUSH2 0x60A JUMP JUMPDEST PUSH2 0x35B DUP2 PUSH2 0x689 JUMP JUMPDEST POP POP POP JUMP JUMPDEST PUSH2 0x35B PUSH2 0x12B JUMP JUMPDEST PUSH1 0x0 PUSH2 0x372 PUSH2 0x4A5 JUMP JUMPDEST PUSH1 0x1 PUSH1 0x1 PUSH1 0xA0 SHL SUB AND CALLER SUB PUSH2 0x38E JUMPI PUSH2 0x389 PUSH2 0x6B8 JUMP JUMPDEST SWAP1 POP SWAP1 JUMP JUMPDEST PUSH2 0x396 PUSH2 0x12B JUMP JUMPDEST SWAP1 JUMP JUMPDEST PUSH1 0x0 DUP1 PUSH2 0x3A4 PUSH2 0x6B8 JUMP JUMPDEST SWAP1 POP PUSH1 0x0 PUSH2 0x3B0 PUSH2 0x4A5 JUMP JUMPDEST SWAP1 POP CALLER PUSH1 0x1 PUSH1 0x1 PUSH1 0xA0 SHL SUB DUP4 AND EQ DUP1 PUSH2 0x3D1 JUMPI POP CALLER PUSH1 0x1 PUSH1 0x1 PUSH1 0xA0 SHL SUB DUP3 AND EQ JUMPDEST ISZERO PUSH2 0x3E5 JUMPI PUSH2 0x3DE PUSH2 0x6E8 JUMP JUMPDEST SWAP3 POP POP POP SWAP1 JUMP JUMPDEST PUSH2 0x3ED PUSH2 0x12B JUMP JUMPDEST POP POP SWAP1 JUMP JUMPDEST PUSH2 0x3FA PUSH2 0x4A5 JUMP JUMPDEST PUSH1 0x1 PUSH1 0x1 PUSH1 0xA0 SHL SUB AND CALLER SUB PUSH2 0x321 JUMPI PUSH1 0x1 PUSH1 0x1 PUSH1 0xA0 SHL SUB DUP2 AND PUSH2 0x45F JUMPI PUSH1 0x40 MLOAD PUSH3 0x461BCD PUSH1 0xE5 SHL DUP2 MSTORE PUSH1 0x20 PUSH1 0x4 DUP3 ADD MSTORE PUSH1 0x1E PUSH1 0x24 DUP3 ADD MSTORE PUSH32 0x4669726577616C6C436F6E73756D65723A207A65726F20616464726573730000 PUSH1 0x44 DUP3 ADD MSTORE PUSH1 0x64 ADD PUSH2 0x262 JUMP JUMPDEST PUSH2 0x31E DUP2 PUSH2 0x65A JUMP JUMPDEST PUSH1 0x60 PUSH2 0x48D DUP4 DUP4 PUSH1 0x40 MLOAD DUP1 PUSH1 0x60 ADD PUSH1 0x40 MSTORE DUP1 PUSH1 0x27 DUP2 MSTORE PUSH1 0x20 ADD PUSH2 0xEF1 PUSH1 0x27 SWAP2 CODECOPY PUSH2 0x718 JUMP JUMPDEST SWAP1 POP JUMPDEST SWAP3 SWAP2 POP POP JUMP JUMPDEST PUSH1 0x1 PUSH1 0x1 PUSH1 0xA0 SHL SUB AND EXTCODESIZE ISZERO ISZERO SWAP1 JUMP JUMPDEST PUSH1 0x0 PUSH32 0xB53127684A568B3173AE13B9F8A6016E243E63B6E8EE1178D6A717850B5D6103 JUMPDEST SLOAD PUSH1 0x1 PUSH1 0x1 PUSH1 0xA0 SHL SUB AND SWAP2 SWAP1 POP JUMP JUMPDEST PUSH1 0x60 PUSH2 0x4E2 PUSH2 0x790 JUMP JUMPDEST PUSH1 0x0 PUSH2 0x4F1 CALLDATASIZE PUSH1 0x4 DUP2 DUP5 PUSH2 0xD0E JUMP JUMPDEST DUP2 ADD SWAP1 PUSH2 0x4FE SWAP2 SWAP1 PUSH2 0xC9F JUMP JUMPDEST SWAP1 POP PUSH2 0x51B DUP2 PUSH1 0x40 MLOAD DUP1 PUSH1 0x20 ADD PUSH1 0x40 MSTORE DUP1 PUSH1 0x0 DUP2 MSTORE POP PUSH1 0x0 PUSH2 0x79B JUMP JUMPDEST POP POP PUSH1 0x40 DUP1 MLOAD PUSH1 0x20 DUP2 ADD SWAP1 SWAP2 MSTORE PUSH1 0x0 DUP2 MSTORE SWAP1 JUMP JUMPDEST PUSH1 0x60 PUSH1 0x0 DUP1 PUSH2 0x541 CALLDATASIZE PUSH1 0x4 DUP2 DUP5 PUSH2 0xD0E JUMP JUMPDEST DUP2 ADD SWAP1 PUSH2 0x54E SWAP2 SWAP1 PUSH2 0xD4E JUMP JUMPDEST SWAP2 POP SWAP2 POP PUSH2 0x55E DUP3 DUP3 PUSH1 0x1 PUSH2 0x79B JUMP JUMPDEST PUSH1 0x40 MLOAD DUP1 PUSH1 0x20 ADD PUSH1 0x40 MSTORE DUP1 PUSH1 0x0 DUP2 MSTORE POP SWAP3 POP POP POP SWAP1 JUMP JUMPDEST PUSH1 0x60 PUSH2 0x57F PUSH2 0x790 JUMP JUMPDEST PUSH1 0x0 PUSH2 0x58E CALLDATASIZE PUSH1 0x4 DUP2 DUP5 PUSH2 0xD0E JUMP JUMPDEST DUP2 ADD SWAP1 PUSH2 0x59B SWAP2 SWAP1 PUSH2 0xC9F JUMP JUMPDEST SWAP1 POP PUSH2 0x51B DUP2 PUSH2 0x7C6 JUMP JUMPDEST PUSH1 0x60 PUSH2 0x5B0 PUSH2 0x790 JUMP JUMPDEST PUSH1 0x0 PUSH2 0x5BA PUSH2 0x4A5 JUMP JUMPDEST PUSH1 0x40 DUP1 MLOAD PUSH1 0x1 PUSH1 0x1 PUSH1 0xA0 SHL SUB DUP4 AND PUSH1 0x20 DUP3 ADD MSTORE SWAP2 SWAP3 POP ADD PUSH1 0x40 MLOAD PUSH1 0x20 DUP2 DUP4 SUB SUB DUP2 MSTORE SWAP1 PUSH1 0x40 MSTORE SWAP2 POP POP SWAP1 JUMP JUMPDEST PUSH1 0x60 PUSH2 0x5F0 PUSH2 0x790 JUMP JUMPDEST PUSH1 0x0 PUSH2 0x5BA PUSH2 0x81A JUMP JUMPDEST PUSH2 0x27B PUSH2 0x605 PUSH2 0x81A JUMP JUMPDEST PUSH2 0x824 JUMP JUMPDEST DUP1 PUSH2 0x639 PUSH2 0x396 PUSH1 0x1 PUSH32 0x29982A6AC507A2A707CED6DEE5D76285DD49725DB977DE83D9702C628C974136 PUSH2 0xE12 JUMP JUMPDEST DUP1 SLOAD PUSH1 0x1 PUSH1 0x1 PUSH1 0xA0 SHL SUB NOT AND PUSH1 0x1 PUSH1 0x1 PUSH1 0xA0 SHL SUB SWAP3 SWAP1 SWAP3 AND SWAP2 SWAP1 SWAP2 OR SWAP1 SSTORE POP JUMP JUMPDEST DUP1 PUSH2 0x639 PUSH2 0x396 PUSH1 0x1 PUSH32 0x5DD2E3B890564A8F99F7F203F226A27A8AA59AEE19A4ECE5CF5EAA77AB91F662 PUSH2 0xE12 JUMP JUMPDEST DUP1 PUSH2 0x639 PUSH2 0x396 PUSH1 0x1 PUSH32 0x9BD5D851FFB033C9F8F50D8E8A94FA51DEA2039E8C5FB35E708E43441F88B513 PUSH2 0xE12 JUMP JUMPDEST PUSH1 0x0 PUSH2 0x4C9 PUSH2 0x396 PUSH1 0x1 PUSH32 0x5DD2E3B890564A8F99F7F203F226A27A8AA59AEE19A4ECE5CF5EAA77AB91F662 PUSH2 0xE12 JUMP JUMPDEST PUSH1 0x0 PUSH2 0x4C9 PUSH2 0x396 PUSH1 0x1 PUSH32 0x29982A6AC507A2A707CED6DEE5D76285DD49725DB977DE83D9702C628C974136 PUSH2 0xE12 JUMP JUMPDEST PUSH1 0x60 PUSH1 0x0 DUP1 DUP6 PUSH1 0x1 PUSH1 0x1 PUSH1 0xA0 SHL SUB AND DUP6 PUSH1 0x40 MLOAD PUSH2 0x735 SWAP2 SWAP1 PUSH2 0xE57 JUMP JUMPDEST PUSH1 0x0 PUSH1 0x40 MLOAD DUP1 DUP4 SUB DUP2 DUP6 GAS DELEGATECALL SWAP2 POP POP RETURNDATASIZE DUP1 PUSH1 0x0 DUP2 EQ PUSH2 0x770 JUMPI PUSH1 0x40 MLOAD SWAP2 POP PUSH1 0x1F NOT PUSH1 0x3F RETURNDATASIZE ADD AND DUP3 ADD PUSH1 0x40 MSTORE RETURNDATASIZE DUP3 MSTORE RETURNDATASIZE PUSH1 0x0 PUSH1 0x20 DUP5 ADD RETURNDATACOPY PUSH2 0x775 JUMP JUMPDEST PUSH1 0x60 SWAP2 POP JUMPDEST POP SWAP2 POP SWAP2 POP PUSH2 0x786 DUP7 DUP4 DUP4 DUP8 PUSH2 0x877 JUMP JUMPDEST SWAP7 SWAP6 POP POP POP POP POP POP JUMP JUMPDEST CALLVALUE ISZERO PUSH2 0x27B JUMPI PUSH1 0x0 DUP1 REVERT JUMPDEST PUSH2 0x7A4 DUP4 PUSH2 0x8F8 JUMP JUMPDEST PUSH1 0x0 DUP3 MLOAD GT DUP1 PUSH2 0x7B1 JUMPI POP DUP1 JUMPDEST ISZERO PUSH2 0x35B JUMPI PUSH2 0x7C0 DUP4 DUP4 PUSH2 0x468 JUMP JUMPDEST POP POP POP POP JUMP JUMPDEST PUSH32 0x7E644D79422F17C01E4894B5F4F588D331EBFA28653D42AE832DC59E38C9798F PUSH2 0x7EF PUSH2 0x4A5 JUMP JUMPDEST PUSH1 0x40 DUP1 MLOAD PUSH1 0x1 PUSH1 0x1 PUSH1 0xA0 SHL SUB SWAP3 DUP4 AND DUP2 MSTORE SWAP2 DUP5 AND PUSH1 0x20 DUP4 ADD MSTORE ADD PUSH1 0x40 MLOAD DUP1 SWAP2 SUB SWAP1 LOG1 PUSH2 0x31E DUP2 PUSH2 0x938 JUMP JUMPDEST PUSH1 0x0 PUSH2 0x389 PUSH2 0x9C4 JUMP JUMPDEST PUSH1 0x0 PUSH2 0x854 PUSH2 0x396 PUSH1 0x1 PUSH32 0x9BD5D851FFB033C9F8F50D8E8A94FA51DEA2039E8C5FB35E708E43441F88B513 PUSH2 0xE12 JUMP JUMPDEST SLOAD PUSH1 0x1 PUSH1 0x1 PUSH1 0xA0 SHL SUB AND SWAP1 POP PUSH1 0x0 PUSH2 0x86B DUP3 PUSH2 0x9EC JUMP JUMPDEST DUP1 MLOAD SWAP1 SWAP2 POP DUP1 PUSH1 0x20 DUP4 ADD RETURN JUMPDEST PUSH1 0x60 DUP4 ISZERO PUSH2 0x8E6 JUMPI DUP3 MLOAD PUSH1 0x0 SUB PUSH2 0x8DF JUMPI PUSH1 0x1 PUSH1 0x1 PUSH1 0xA0 SHL SUB DUP6 AND EXTCODESIZE PUSH2 0x8DF JUMPI PUSH1 0x40 MLOAD PUSH3 0x461BCD PUSH1 0xE5 SHL DUP2 MSTORE PUSH1 0x20 PUSH1 0x4 DUP3 ADD MSTORE PUSH1 0x1D PUSH1 0x24 DUP3 ADD MSTORE PUSH32 0x416464726573733A2063616C6C20746F206E6F6E2D636F6E7472616374000000 PUSH1 0x44 DUP3 ADD MSTORE PUSH1 0x64 ADD PUSH2 0x262 JUMP JUMPDEST POP DUP2 PUSH2 0x8F0 JUMP JUMPDEST PUSH2 0x8F0 DUP4 DUP4 PUSH2 0xB6E JUMP JUMPDEST SWAP5 SWAP4 POP POP POP POP JUMP JUMPDEST PUSH2 0x901 DUP2 PUSH2 0xB98 JUMP JUMPDEST PUSH1 0x40 MLOAD PUSH1 0x1 PUSH1 0x1 PUSH1 0xA0 SHL SUB DUP3 AND SWAP1 PUSH32 0xBC7CD75A20EE27FD9ADEBAB32041F755214DBC6BFFA90CC0225B39DA2E5C2D3B SWAP1 PUSH1 0x0 SWAP1 LOG2 POP JUMP JUMPDEST PUSH1 0x1 PUSH1 0x1 PUSH1 0xA0 SHL SUB DUP2 AND PUSH2 0x99D JUMPI PUSH1 0x40 MLOAD PUSH3 0x461BCD PUSH1 0xE5 SHL DUP2 MSTORE PUSH1 0x20 PUSH1 0x4 DUP3 ADD MSTORE PUSH1 0x26 PUSH1 0x24 DUP3 ADD MSTORE PUSH32 0x455243313936373A206E65772061646D696E20697320746865207A65726F2061 PUSH1 0x44 DUP3 ADD MSTORE PUSH6 0x646472657373 PUSH1 0xD0 SHL PUSH1 0x64 DUP3 ADD MSTORE PUSH1 0x84 ADD PUSH2 0x262 JUMP JUMPDEST DUP1 PUSH32 0xB53127684A568B3173AE13B9F8A6016E243E63B6E8EE1178D6A717850B5D6103 PUSH2 0x639 JUMP JUMPDEST PUSH1 0x0 PUSH32 0x360894A13BA1A3210667C828492DB98DCA3E2076CC3735A920A3CA505D382BBC PUSH2 0x4C9 JUMP JUMPDEST PUSH1 0x60 PUSH2 0x9F6 PUSH2 0xC2C JUMP JUMPDEST ISZERO PUSH2 0xA47 JUMPI PUSH1 0x0 PUSH2 0xA3E DUP4 PUSH1 0x0 CALLDATASIZE DUP1 DUP1 PUSH1 0x1F ADD PUSH1 0x20 DUP1 SWAP2 DIV MUL PUSH1 0x20 ADD PUSH1 0x40 MLOAD SWAP1 DUP2 ADD PUSH1 0x40 MSTORE DUP1 SWAP4 SWAP3 SWAP2 SWAP1 DUP2 DUP2 MSTORE PUSH1 0x20 ADD DUP4 DUP4 DUP1 DUP3 DUP5 CALLDATACOPY PUSH1 0x0 SWAP3 ADD SWAP2 SWAP1 SWAP2 MSTORE POP PUSH2 0x468 SWAP3 POP POP POP JUMP JUMPDEST SWAP2 POP PUSH2 0xB69 SWAP1 POP JUMP JUMPDEST PUSH1 0x0 PUSH2 0xA51 PUSH2 0x6B8 JUMP JUMPDEST PUSH1 0x40 MLOAD PUSH4 0x1BF8659F PUSH1 0xE2 SHL DUP2 MSTORE SWAP1 SWAP2 POP CALLVALUE SWAP1 PUSH1 0x1 PUSH1 0x1 PUSH1 0xA0 SHL SUB DUP4 AND SWAP1 PUSH4 0x6FE1967C SWAP1 PUSH2 0xA89 SWAP1 CALLER SWAP1 PUSH1 0x0 SWAP1 CALLDATASIZE SWAP1 DUP8 SWAP1 PUSH1 0x4 ADD PUSH2 0xE73 JUMP JUMPDEST PUSH1 0x0 PUSH1 0x40 MLOAD DUP1 DUP4 SUB DUP2 PUSH1 0x0 DUP8 DUP1 EXTCODESIZE ISZERO DUP1 ISZERO PUSH2 0xAA3 JUMPI PUSH1 0x0 DUP1 REVERT JUMPDEST POP GAS CALL ISZERO DUP1 ISZERO PUSH2 0xAB7 JUMPI RETURNDATASIZE PUSH1 0x0 DUP1 RETURNDATACOPY RETURNDATASIZE PUSH1 0x0 REVERT JUMPDEST POP POP POP POP PUSH1 0x0 PUSH2 0xAFE DUP6 PUSH1 0x0 CALLDATASIZE DUP1 DUP1 PUSH1 0x1F ADD PUSH1 0x20 DUP1 SWAP2 DIV MUL PUSH1 0x20 ADD PUSH1 0x40 MLOAD SWAP1 DUP2 ADD PUSH1 0x40 MSTORE DUP1 SWAP4 SWAP3 SWAP2 SWAP1 DUP2 DUP2 MSTORE PUSH1 0x20 ADD DUP4 DUP4 DUP1 DUP3 DUP5 CALLDATACOPY PUSH1 0x0 SWAP3 ADD SWAP2 SWAP1 SWAP2 MSTORE POP PUSH2 0x468 SWAP3 POP POP POP JUMP JUMPDEST SWAP4 POP POP PUSH1 0x40 MLOAD PUSH4 0x93163A91 PUSH1 0xE0 SHL DUP2 MSTORE PUSH1 0x1 PUSH1 0x1 PUSH1 0xA0 SHL SUB DUP4 AND SWAP1 PUSH4 0x93163A91 SWAP1 PUSH2 0xB34 SWAP1 CALLER SWAP1 PUSH1 0x0 SWAP1 CALLDATASIZE SWAP1 DUP8 SWAP1 PUSH1 0x4 ADD PUSH2 0xE73 JUMP JUMPDEST PUSH1 0x0 PUSH1 0x40 MLOAD DUP1 DUP4 SUB DUP2 PUSH1 0x0 DUP8 DUP1 EXTCODESIZE ISZERO DUP1 ISZERO PUSH2 0xB4E JUMPI PUSH1 0x0 DUP1 REVERT JUMPDEST POP GAS CALL ISZERO DUP1 ISZERO PUSH2 0xB62 JUMPI RETURNDATASIZE PUSH1 0x0 DUP1 RETURNDATACOPY RETURNDATASIZE PUSH1 0x0 REVERT JUMPDEST POP POP POP POP POP POP JUMPDEST SWAP2 SWAP1 POP JUMP JUMPDEST DUP2 MLOAD ISZERO PUSH2 0xB7E JUMPI DUP2 MLOAD DUP1 DUP4 PUSH1 0x20 ADD REVERT JUMPDEST DUP1 PUSH1 0x40 MLOAD PUSH3 0x461BCD PUSH1 0xE5 SHL DUP2 MSTORE PUSH1 0x4 ADD PUSH2 0x262 SWAP2 SWAP1 PUSH2 0xEBD JUMP JUMPDEST PUSH1 0x1 PUSH1 0x1 PUSH1 0xA0 SHL SUB DUP2 AND EXTCODESIZE PUSH2 0xC05 JUMPI PUSH1 0x40 MLOAD PUSH3 0x461BCD PUSH1 0xE5 SHL DUP2 MSTORE PUSH1 0x20 PUSH1 0x4 DUP3 ADD MSTORE PUSH1 0x2D PUSH1 0x24 DUP3 ADD MSTORE PUSH32 0x455243313936373A206E657720696D706C656D656E746174696F6E206973206E PUSH1 0x44 DUP3 ADD MSTORE PUSH13 0x1BDD08184818DBDB9D1C9858DD PUSH1 0x9A SHL PUSH1 0x64 DUP3 ADD MSTORE PUSH1 0x84 ADD PUSH2 0x262 JUMP JUMPDEST DUP1 PUSH32 0x360894A13BA1A3210667C828492DB98DCA3E2076CC3735A920A3CA505D382BBC PUSH2 0x639 JUMP JUMPDEST PUSH1 0x0 ADDRESS PUSH1 0x1 PUSH1 0x1 PUSH1 0xA0 SHL SUB AND PUSH4 0x1E8545FF PUSH1 0x40 MLOAD DUP2 PUSH4 0xFFFFFFFF AND PUSH1 0xE0 SHL DUP2 MSTORE PUSH1 0x4 ADD PUSH1 0x0 PUSH1 0x40 MLOAD DUP1 DUP4 SUB DUP2 PUSH1 0x0 DUP8 DUP1 EXTCODESIZE ISZERO DUP1 ISZERO PUSH2 0xC69 JUMPI PUSH1 0x0 DUP1 REVERT JUMPDEST POP GAS CALL SWAP3 POP POP POP DUP1 ISZERO PUSH2 0xC7A JUMPI POP PUSH1 0x1 JUMPDEST PUSH2 0xC84 JUMPI POP PUSH1 0x1 SWAP1 JUMP JUMPDEST POP PUSH1 0x0 SWAP1 JUMP JUMPDEST PUSH1 0x1 PUSH1 0x1 PUSH1 0xA0 SHL SUB DUP2 AND DUP2 EQ PUSH2 0x31E JUMPI PUSH1 0x0 DUP1 REVERT JUMPDEST PUSH1 0x0 PUSH1 0x20 DUP3 DUP5 SUB SLT ISZERO PUSH2 0xCB1 JUMPI PUSH1 0x0 DUP1 REVERT JUMPDEST DUP2 CALLDATALOAD PUSH2 0xCBC DUP2 PUSH2 0xC8A JUMP JUMPDEST SWAP4 SWAP3 POP POP POP JUMP JUMPDEST PUSH1 0x0 DUP1 PUSH1 0x0 PUSH1 0x60 DUP5 DUP7 SUB SLT ISZERO PUSH2 0xCD8 JUMPI PUSH1 0x0 DUP1 REVERT JUMPDEST DUP4 CALLDATALOAD PUSH2 0xCE3 DUP2 PUSH2 0xC8A JUMP JUMPDEST SWAP3 POP PUSH1 0x20 DUP5 ADD CALLDATALOAD PUSH2 0xCF3 DUP2 PUSH2 0xC8A JUMP JUMPDEST SWAP2 POP PUSH1 0x40 DUP5 ADD CALLDATALOAD PUSH2 0xD03 DUP2 PUSH2 0xC8A JUMP JUMPDEST DUP1 SWAP2 POP POP SWAP3 POP SWAP3 POP SWAP3 JUMP JUMPDEST PUSH1 0x0 DUP1 DUP6 DUP6 GT ISZERO PUSH2 0xD1E JUMPI PUSH1 0x0 DUP1 REVERT JUMPDEST DUP4 DUP7 GT ISZERO PUSH2 0xD2B JUMPI PUSH1 0x0 DUP1 REVERT JUMPDEST POP POP DUP3 ADD SWAP4 SWAP2 SWAP1 SWAP3 SUB SWAP2 POP JUMP JUMPDEST PUSH4 0x4E487B71 PUSH1 0xE0 SHL PUSH1 0x0 MSTORE PUSH1 0x41 PUSH1 0x4 MSTORE PUSH1 0x24 PUSH1 0x0 REVERT JUMPDEST PUSH1 0x0 DUP1 PUSH1 0x40 DUP4 DUP6 SUB SLT ISZERO PUSH2 0xD61 JUMPI PUSH1 0x0 DUP1 REVERT JUMPDEST DUP3 CALLDATALOAD PUSH2 0xD6C DUP2 PUSH2 0xC8A JUMP JUMPDEST SWAP2 POP PUSH1 0x20 DUP4 ADD CALLDATALOAD PUSH8 0xFFFFFFFFFFFFFFFF DUP1 DUP3 GT ISZERO PUSH2 0xD89 JUMPI PUSH1 0x0 DUP1 REVERT JUMPDEST DUP2 DUP6 ADD SWAP2 POP DUP6 PUSH1 0x1F DUP4 ADD SLT PUSH2 0xD9D JUMPI PUSH1 0x0 DUP1 REVERT JUMPDEST DUP2 CALLDATALOAD DUP2 DUP2 GT ISZERO PUSH2 0xDAF JUMPI PUSH2 0xDAF PUSH2 0xD38 JUMP JUMPDEST PUSH1 0x40 MLOAD PUSH1 0x1F DUP3 ADD PUSH1 0x1F NOT SWAP1 DUP2 AND PUSH1 0x3F ADD AND DUP2 ADD SWAP1 DUP4 DUP3 GT DUP2 DUP4 LT OR ISZERO PUSH2 0xDD7 JUMPI PUSH2 0xDD7 PUSH2 0xD38 JUMP JUMPDEST DUP2 PUSH1 0x40 MSTORE DUP3 DUP2 MSTORE DUP9 PUSH1 0x20 DUP5 DUP8 ADD ADD GT ISZERO PUSH2 0xDF0 JUMPI PUSH1 0x0 DUP1 REVERT JUMPDEST DUP3 PUSH1 0x20 DUP7 ADD PUSH1 0x20 DUP4 ADD CALLDATACOPY PUSH1 0x0 PUSH1 0x20 DUP5 DUP4 ADD ADD MSTORE DUP1 SWAP6 POP POP POP POP POP POP SWAP3 POP SWAP3 SWAP1 POP JUMP JUMPDEST DUP2 DUP2 SUB DUP2 DUP2 GT ISZERO PUSH2 0x490 JUMPI PUSH4 0x4E487B71 PUSH1 0xE0 SHL PUSH1 0x0 MSTORE PUSH1 0x11 PUSH1 0x4 MSTORE PUSH1 0x24 PUSH1 0x0 REVERT JUMPDEST PUSH1 0x0 JUMPDEST DUP4 DUP2 LT ISZERO PUSH2 0xE4E JUMPI DUP2 DUP2 ADD MLOAD DUP4 DUP3 ADD MSTORE PUSH1 0x20 ADD PUSH2 0xE36 JUMP JUMPDEST POP POP PUSH1 0x0 SWAP2 ADD MSTORE JUMP JUMPDEST PUSH1 0x0 DUP3 MLOAD PUSH2 0xE69 DUP2 DUP5 PUSH1 0x20 DUP8 ADD PUSH2 0xE33 JUMP JUMPDEST SWAP2 SWAP1 SWAP2 ADD SWAP3 SWAP2 POP POP JUMP JUMPDEST PUSH1 0x1 PUSH1 0x1 PUSH1 0xA0 SHL SUB DUP6 AND DUP2 MSTORE PUSH1 0x60 PUSH1 0x20 DUP3 ADD DUP2 SWAP1 MSTORE DUP2 ADD DUP4 SWAP1 MSTORE DUP3 DUP5 PUSH1 0x80 DUP4 ADD CALLDATACOPY PUSH1 0x0 PUSH1 0x80 DUP5 DUP4 ADD ADD MSTORE PUSH1 0x0 PUSH1 0x80 PUSH1 0x1F NOT PUSH1 0x1F DUP7 ADD AND DUP4 ADD ADD SWAP1 POP DUP3 PUSH1 0x40 DUP4 ADD MSTORE SWAP6 SWAP5 POP POP POP POP POP JUMP JUMPDEST PUSH1 0x20 DUP2 MSTORE PUSH1 0x0 DUP3 MLOAD DUP1 PUSH1 0x20 DUP5 ADD MSTORE PUSH2 0xEDC DUP2 PUSH1 0x40 DUP6 ADD PUSH1 0x20 DUP8 ADD PUSH2 0xE33 JUMP JUMPDEST PUSH1 0x1F ADD PUSH1 0x1F NOT AND SWAP2 SWAP1 SWAP2 ADD PUSH1 0x40 ADD SWAP3 SWAP2 POP POP JUMP INVALID COINBASE PUSH5 0x6472657373 GASPRICE KECCAK256 PUSH13 0x6F772D6C6576656C2064656C65 PUSH8 0x6174652063616C6C KECCAK256 PUSH7 0x61696C6564A264 PUSH10 0x70667358221220E397E3 0xB7 0xDF 0xAE 0xBB CALLDATASIZE ADDMOD 0xBE 0xAF JUMP 0xFC 0xE0 0xD8 SWAP4 ISZERO 0x5D NUMBER DELEGATECALL 0xE1 JUMPI 0xB3 0xC 0xEA SELFBALANCE 0x21 0xF8 CALLDATASIZE PUSH14 0xB27864736F6C63430008110033B5 BALANCE 0x27 PUSH9 0x4A568B3173AE13B9F8 0xA6 ADD PUSH15 0x243E63B6E8EE1178D6A717850B5D61 SUB COINBASE PUSH5 0x6472657373 GASPRICE KECCAK256 PUSH13 0x6F772D6C6576656C2064656C65 PUSH8 0x6174652063616C6C KECCAK256 PUSH7 0x61696C65640000 "},"methodIdentifiers":{"changeFirewall(address)":"fd9e1060","changeFirewallAdmin(address)":"664f285f","firewall()":"c22a4a85","firewallAdmin()":"f05c8582","initialize(address,address,address)":"c0c53b8b","staticCallCheck()":"1e8545ff"}},"storageLayout":{"storage":[],"types":null}}}}