{"contracts/gnosis-safe/FirewallGuard.sol":{"FirewallGuard":{"abi":[{"inputs":[{"internalType":"address","name":"_safe","type":"address"},{"internalType":"address","name":"_firewall","type":"address"},{"internalType":"address","name":"_firewallAdmin","type":"address"},{"internalType":"uint256","name":"_bypassGuardWaitTime","type":"uint256"}],"stateMutability":"nonpayable","type":"constructor"},{"inputs":[],"name":"MAX_BYPASS_GUARD_WAIT_TIME","outputs":[{"internalType":"uint256","name":"","type":"uint256"}],"stateMutability":"view","type":"function"},{"inputs":[{"internalType":"address","name":"to","type":"address"},{"internalType":"uint256","name":"value","type":"uint256"},{"internalType":"bytes","name":"data","type":"bytes"},{"internalType":"enum IGuard.Operation","name":"operation","type":"uint8"},{"internalType":"uint256","name":"safeTxGas","type":"uint256"},{"internalType":"uint256","name":"baseGas","type":"uint256"},{"internalType":"uint256","name":"gasPrice","type":"uint256"},{"internalType":"address","name":"gasToken","type":"address"},{"internalType":"address payable","name":"refundReceiver","type":"address"},{"internalType":"bytes","name":"signatures","type":"bytes"}],"name":"bypassGuard","outputs":[],"stateMutability":"nonpayable","type":"function"},{"inputs":[{"internalType":"bytes32","name":"","type":"bytes32"}],"name":"bypassGuardInitTime","outputs":[{"internalType":"uint256","name":"","type":"uint256"}],"stateMutability":"view","type":"function"},{"inputs":[],"name":"bypassGuardWaitTime","outputs":[{"internalType":"uint256","name":"","type":"uint256"}],"stateMutability":"view","type":"function"},{"inputs":[{"internalType":"bytes32","name":"txHash","type":"bytes32"},{"internalType":"bool","name":"","type":"bool"}],"name":"checkAfterExecution","outputs":[],"stateMutability":"nonpayable","type":"function"},{"inputs":[{"internalType":"address","name":"to","type":"address"},{"internalType":"uint256","name":"value","type":"uint256"},{"internalType":"bytes","name":"data","type":"bytes"},{"internalType":"enum IGuard.Operation","name":"operation","type":"uint8"},{"internalType":"uint256","name":"safeTxGas","type":"uint256"},{"internalType":"uint256","name":"baseGas","type":"uint256"},{"internalType":"uint256","name":"gasPrice","type":"uint256"},{"internalType":"address","name":"gasToken","type":"address"},{"internalType":"address payable","name":"refundReceiver","type":"address"},{"internalType":"bytes","name":"signatures","type":"bytes"},{"internalType":"address","name":"msgSender","type":"address"}],"name":"checkTransaction","outputs":[],"stateMutability":"nonpayable","type":"function"},{"inputs":[],"name":"firewall","outputs":[{"internalType":"address","name":"","type":"address"}],"stateMutability":"view","type":"function"},{"inputs":[],"name":"firewallAdmin","outputs":[{"internalType":"address","name":"","type":"address"}],"stateMutability":"view","type":"function"},{"inputs":[],"name":"safe","outputs":[{"internalType":"address","name":"","type":"address"}],"stateMutability":"view","type":"function"},{"inputs":[{"internalType":"bytes4","name":"interfaceId","type":"bytes4"}],"name":"supportsInterface","outputs":[{"internalType":"bool","name":"","type":"bool"}],"stateMutability":"view","type":"function"}],"evm":{"bytecode":{"linkReferences":{},"object":"608060405234801561001057600080fd5b50604051620011573803806200115783398101604081905261003191610167565b6001600160a01b03841661009f5760405162461bcd60e51b815260206004820152602a60248201527f4669726577616c6c47756172643a20736166652063616e6e6f74206265207a65604482015269726f206164647265737360b01b60648201526084015b60405180910390fd5b62093a808111156101065760405162461bcd60e51b815260206004820152602b60248201527f4669726577616c6c47756172643a20627970617373477561726457616974546960448201526a0daca40e8dede40d0d2ced60ab1b6064820152608401610096565b600180546001600160a01b03199081166001600160a01b03968716179091556002805482169486169490941790935560038054909316919093161790556004556101b2565b80516001600160a01b038116811461016257600080fd5b919050565b6000806000806080858703121561017d57600080fd5b6101868561014b565b93506101946020860161014b565b92506101a26040860161014b565b6060959095015193969295505050565b610f9580620001c26000396000f3fe608060405234801561001057600080fd5b506004361061009e5760003560e01c8063cb826af411610066578063cb826af414610131578063d189b0ae14610144578063d99c1a921461015c578063e76f8ae414610165578063f05c85821461018557600080fd5b806301ffc9a7146100a3578063186f0354146100cb57806375f0bb52146100f6578063932713681461010b578063c22a4a851461011e575b600080fd5b6100b66100b1366004610772565b610198565b60405190151581526020015b60405180910390f35b6001546100de906001600160a01b031681565b6040516001600160a01b0390911681526020016100c2565b610109610104366004610893565b6101cf565b005b610109610119366004610978565b61048e565b6002546100de906001600160a01b031681565b61010961013f3660046109ad565b610577565b61014e62093a8081565b6040519081526020016100c2565b61014e60045481565b61014e610173366004610a7c565b60006020819052908152604090205481565b6003546100de906001600160a01b031681565b60006001600160e01b0319821663736bd41d60e11b14806101c957506001600160e01b031982166301ffc9a760e01b145b92915050565b6001546001600160a01b031633146102025760405162461bcd60e51b81526004016101f990610a95565b60405180910390fd5b600080600160009054906101000a90046001600160a01b03166001600160a01b031663affed0e06040518163ffffffff1660e01b8152600401602060405180830381865afa158015610258573d6000803e3d6000fd5b505050506040513d601f19601f8201168201806040525081019061027c9190610ad6565b90506000600160009054906101000a90046001600160a01b03166001600160a01b031663e86637db8f8f8f8f8f8f8f8f8f60018d6102ba9190610b05565b6040518b63ffffffff1660e01b81526004016102df9a99989796959493929190610b8a565b600060405180830381865afa1580156102fc573d6000803e3d6000fd5b505050506040513d6000823e601f3d908101601f191682016040526103249190810190610c00565b80516020918201206000818152918290526040909120549093501580159250905061036957506004546000828152602081905260409020546103669190610c77565b42115b156103745750610481565b6000636a7612028d8d8d8d8d8d8d8d8d8d60405160240161039e9a99989796959493929190610c8a565b60408051601f198184030181529190526020810180516001600160e01b031660e09390931b92909217909152905060056103d88282610d93565b5082600660006101000a8154816001600160a01b0302191690836001600160a01b031602179055508b600781905550600260009054906101000a90046001600160a01b03166001600160a01b0316636fe1967c84838f6040518463ffffffff1660e01b815260040161044c93929190610e53565b600060405180830381600087803b15801561046657600080fd5b505af115801561047a573d6000803e3d6000fd5b5050505050505b5050505050505050505050565b6001546001600160a01b031633146104b85760405162461bcd60e51b81526004016101f990610a95565b600082815260208190526040902054158015906104ef57506004546000838152602081905260409020546104ec9190610c77565b42115b156105065750600090815260208190526040812055565b6002546006546007546040516393163a9160e01b81526001600160a01b03938416936393163a91936105419391169160059190600401610e87565b600060405180830381600087803b15801561055b57600080fd5b505af115801561056f573d6000803e3d6000fd5b505050505050565b6001546040805163057ff68760e51b815290516000926001600160a01b03169163affed0e09160048083019260209291908290030181865afa1580156105c1573d6000803e3d6000fd5b505050506040513d601f19601f820116820180604052508101906105e59190610ad6565b60015460405163e86637db60e01b81529192506000916001600160a01b039091169063e86637db9061062d908f908f908f908f908f908f908f908f908f908e90600401610b8a565b600060405180830381865afa15801561064a573d6000803e3d6000fd5b505050506040513d6000823e601f3d908101601f191682016040526106729190810190610c00565b805160208083019190912060008181529182905260409091205491925090156106ef5760405162461bcd60e51b815260206004820152602960248201527f4669726577616c6c47756172643a20627970617373477561726420616c726561604482015268191e4818d85b1b195960ba1b60648201526084016101f9565b60015460405163934f3a1160e01b81526001600160a01b039091169063934f3a119061072390849086908990600401610f2a565b60006040518083038186803b15801561073b57600080fd5b505afa15801561074f573d6000803e3d6000fd5b505050600091825250602081905260409020429055505050505050505050505050565b60006020828403121561078457600080fd5b81356001600160e01b03198116811461079c57600080fd5b9392505050565b80356001600160a01b03811681146107ba57600080fd5b919050565b634e487b7160e01b600052604160045260246000fd5b604051601f8201601f1916810167ffffffffffffffff811182821017156107fe576107fe6107bf565b604052919050565b600067ffffffffffffffff821115610820576108206107bf565b50601f01601f191660200190565b600082601f83011261083f57600080fd5b813561085261084d82610806565b6107d5565b81815284602083860101111561086757600080fd5b816020850160208301376000918101602001919091529392505050565b8035600281106107ba57600080fd5b60008060008060008060008060008060006101608c8e0312156108b557600080fd5b6108be8c6107a3565b9a5060208c0135995067ffffffffffffffff8060408e013511156108e157600080fd5b6108f18e60408f01358f0161082e565b99506108ff60608e01610884565b985060808d0135975060a08d0135965060c08d0135955061092260e08e016107a3565b94506109316101008e016107a3565b9350806101208e0135111561094557600080fd5b506109578d6101208e01358e0161082e565b91506109666101408d016107a3565b90509295989b509295989b9093969950565b6000806040838503121561098b57600080fd5b82359150602083013580151581146109a257600080fd5b809150509250929050565b6000806000806000806000806000806101408b8d0312156109cd57600080fd5b6109d68b6107a3565b995060208b0135985060408b013567ffffffffffffffff808211156109fa57600080fd5b610a068e838f0161082e565b9950610a1460608e01610884565b985060808d0135975060a08d0135965060c08d01359550610a3760e08e016107a3565b9450610a466101008e016107a3565b93506101208d0135915080821115610a5d57600080fd5b50610a6a8d828e0161082e565b9150509295989b9194979a5092959850565b600060208284031215610a8e57600080fd5b5035919050565b60208082526021908201527f4669726577616c6c47756172643a206f6e6c7920736166652063616e2063616c6040820152601b60fa1b606082015260800190565b600060208284031215610ae857600080fd5b5051919050565b634e487b7160e01b600052601160045260246000fd5b818103818111156101c9576101c9610aef565b60005b83811015610b33578181015183820152602001610b1b565b50506000910152565b60008151808452610b54816020860160208601610b18565b601f01601f19169290920160200192915050565b60028110610b8657634e487b7160e01b600052602160045260246000fd5b9052565b6001600160a01b038b81168252602082018b905261014060408301819052600091610bb78483018d610b3c565b9250610bc6606085018c610b68565b60808401999099525060a082019690965260c081019490945291851660e08401529093166101008201526101200191909152949350505050565b600060208284031215610c1257600080fd5b815167ffffffffffffffff811115610c2957600080fd5b8201601f81018413610c3a57600080fd5b8051610c4861084d82610806565b818152856020838501011115610c5d57600080fd5b610c6e826020830160208601610b18565b95945050505050565b808201808211156101c9576101c9610aef565b6001600160a01b038b81168252602082018b905261014060408301819052600091610cb78483018d610b3c565b9150610cc6606085018c610b68565b8960808501528860a08501528760c085015280871660e085015280861661010085015250828103610120840152610cfd8185610b3c565b9d9c50505050505050505050505050565b600181811c90821680610d2257607f821691505b602082108103610d4257634e487b7160e01b600052602260045260246000fd5b50919050565b601f821115610d8e57600081815260208120601f850160051c81016020861015610d6f5750805b601f850160051c820191505b8181101561056f57828155600101610d7b565b505050565b815167ffffffffffffffff811115610dad57610dad6107bf565b610dc181610dbb8454610d0e565b84610d48565b602080601f831160018114610df65760008415610dde5750858301515b600019600386901b1c1916600185901b17855561056f565b600085815260208120601f198616915b82811015610e2557888601518255948401946001909101908401610e06565b5085821015610e435787850151600019600388901b60f8161c191681555b5050505050600190811b01905550565b6001600160a01b0384168152606060208201819052600090610e7790830185610b3c565b9050826040830152949350505050565b60018060a01b03841681526000602060608184015260008554610ea981610d0e565b8060608701526080600180841660008114610ecb5760018114610ee557610f13565b60ff1985168984015283151560051b890183019550610f13565b8a6000528660002060005b85811015610f0b5781548b8201860152908301908801610ef0565b8a0184019650505b505050505060409390930193909352509392505050565b838152606060208201526000610f436060830185610b3c565b8281036040840152610f558185610b3c565b969550505050505056fea264697066735822122091e531884d1d6622d68d3fd3b7d676743cc96b9d46e32e72b56852ab99d8067264736f6c63430008110033","opcodes":"PUSH1 0x80 PUSH1 0x40 MSTORE CALLVALUE DUP1 ISZERO PUSH2 0x10 JUMPI PUSH1 0x0 DUP1 REVERT JUMPDEST POP PUSH1 0x40 MLOAD PUSH3 0x1157 CODESIZE SUB DUP1 PUSH3 0x1157 DUP4 CODECOPY DUP2 ADD PUSH1 0x40 DUP2 SWAP1 MSTORE PUSH2 0x31 SWAP2 PUSH2 0x167 JUMP JUMPDEST PUSH1 0x1 PUSH1 0x1 PUSH1 0xA0 SHL SUB DUP5 AND PUSH2 0x9F JUMPI PUSH1 0x40 MLOAD PUSH3 0x461BCD PUSH1 0xE5 SHL DUP2 MSTORE PUSH1 0x20 PUSH1 0x4 DUP3 ADD MSTORE PUSH1 0x2A PUSH1 0x24 DUP3 ADD MSTORE PUSH32 0x4669726577616C6C47756172643A20736166652063616E6E6F74206265207A65 PUSH1 0x44 DUP3 ADD MSTORE PUSH10 0x726F2061646472657373 PUSH1 0xB0 SHL PUSH1 0x64 DUP3 ADD MSTORE PUSH1 0x84 ADD JUMPDEST PUSH1 0x40 MLOAD DUP1 SWAP2 SUB SWAP1 REVERT JUMPDEST PUSH3 0x93A80 DUP2 GT ISZERO PUSH2 0x106 JUMPI PUSH1 0x40 MLOAD PUSH3 0x461BCD PUSH1 0xE5 SHL DUP2 MSTORE PUSH1 0x20 PUSH1 0x4 DUP3 ADD MSTORE PUSH1 0x2B PUSH1 0x24 DUP3 ADD MSTORE PUSH32 0x4669726577616C6C47756172643A206279706173734775617264576169745469 PUSH1 0x44 DUP3 ADD MSTORE PUSH11 0xDACA40E8DEDE40D0D2CED PUSH1 0xAB SHL PUSH1 0x64 DUP3 ADD MSTORE PUSH1 0x84 ADD PUSH2 0x96 JUMP JUMPDEST PUSH1 0x1 DUP1 SLOAD PUSH1 0x1 PUSH1 0x1 PUSH1 0xA0 SHL SUB NOT SWAP1 DUP2 AND PUSH1 0x1 PUSH1 0x1 PUSH1 0xA0 SHL SUB SWAP7 DUP8 AND OR SWAP1 SWAP2 SSTORE PUSH1 0x2 DUP1 SLOAD DUP3 AND SWAP5 DUP7 AND SWAP5 SWAP1 SWAP5 OR SWAP1 SWAP4 SSTORE PUSH1 0x3 DUP1 SLOAD SWAP1 SWAP4 AND SWAP2 SWAP1 SWAP4 AND OR SWAP1 SSTORE PUSH1 0x4 SSTORE PUSH2 0x1B2 JUMP JUMPDEST DUP1 MLOAD PUSH1 0x1 PUSH1 0x1 PUSH1 0xA0 SHL SUB DUP2 AND DUP2 EQ PUSH2 0x162 JUMPI PUSH1 0x0 DUP1 REVERT JUMPDEST SWAP2 SWAP1 POP JUMP JUMPDEST PUSH1 0x0 DUP1 PUSH1 0x0 DUP1 PUSH1 0x80 DUP6 DUP8 SUB SLT ISZERO PUSH2 0x17D JUMPI PUSH1 0x0 DUP1 REVERT JUMPDEST PUSH2 0x186 DUP6 PUSH2 0x14B JUMP JUMPDEST SWAP4 POP PUSH2 0x194 PUSH1 0x20 DUP7 ADD PUSH2 0x14B JUMP JUMPDEST SWAP3 POP PUSH2 0x1A2 PUSH1 0x40 DUP7 ADD PUSH2 0x14B JUMP JUMPDEST PUSH1 0x60 SWAP6 SWAP1 SWAP6 ADD MLOAD SWAP4 SWAP7 SWAP3 SWAP6 POP POP POP JUMP JUMPDEST PUSH2 0xF95 DUP1 PUSH3 0x1C2 PUSH1 0x0 CODECOPY PUSH1 0x0 RETURN INVALID PUSH1 0x80 PUSH1 0x40 MSTORE CALLVALUE DUP1 ISZERO PUSH2 0x10 JUMPI PUSH1 0x0 DUP1 REVERT JUMPDEST POP PUSH1 0x4 CALLDATASIZE LT PUSH2 0x9E JUMPI PUSH1 0x0 CALLDATALOAD PUSH1 0xE0 SHR DUP1 PUSH4 0xCB826AF4 GT PUSH2 0x66 JUMPI DUP1 PUSH4 0xCB826AF4 EQ PUSH2 0x131 JUMPI DUP1 PUSH4 0xD189B0AE EQ PUSH2 0x144 JUMPI DUP1 PUSH4 0xD99C1A92 EQ PUSH2 0x15C JUMPI DUP1 PUSH4 0xE76F8AE4 EQ PUSH2 0x165 JUMPI DUP1 PUSH4 0xF05C8582 EQ PUSH2 0x185 JUMPI PUSH1 0x0 DUP1 REVERT JUMPDEST DUP1 PUSH4 0x1FFC9A7 EQ PUSH2 0xA3 JUMPI DUP1 PUSH4 0x186F0354 EQ PUSH2 0xCB JUMPI DUP1 PUSH4 0x75F0BB52 EQ PUSH2 0xF6 JUMPI DUP1 PUSH4 0x93271368 EQ PUSH2 0x10B JUMPI DUP1 PUSH4 0xC22A4A85 EQ PUSH2 0x11E JUMPI JUMPDEST PUSH1 0x0 DUP1 REVERT JUMPDEST PUSH2 0xB6 PUSH2 0xB1 CALLDATASIZE PUSH1 0x4 PUSH2 0x772 JUMP JUMPDEST PUSH2 0x198 JUMP JUMPDEST PUSH1 0x40 MLOAD SWAP1 ISZERO ISZERO DUP2 MSTORE PUSH1 0x20 ADD JUMPDEST PUSH1 0x40 MLOAD DUP1 SWAP2 SUB SWAP1 RETURN JUMPDEST PUSH1 0x1 SLOAD PUSH2 0xDE SWAP1 PUSH1 0x1 PUSH1 0x1 PUSH1 0xA0 SHL SUB AND DUP2 JUMP JUMPDEST PUSH1 0x40 MLOAD PUSH1 0x1 PUSH1 0x1 PUSH1 0xA0 SHL SUB SWAP1 SWAP2 AND DUP2 MSTORE PUSH1 0x20 ADD PUSH2 0xC2 JUMP JUMPDEST PUSH2 0x109 PUSH2 0x104 CALLDATASIZE PUSH1 0x4 PUSH2 0x893 JUMP JUMPDEST PUSH2 0x1CF JUMP JUMPDEST STOP JUMPDEST PUSH2 0x109 PUSH2 0x119 CALLDATASIZE PUSH1 0x4 PUSH2 0x978 JUMP JUMPDEST PUSH2 0x48E JUMP JUMPDEST PUSH1 0x2 SLOAD PUSH2 0xDE SWAP1 PUSH1 0x1 PUSH1 0x1 PUSH1 0xA0 SHL SUB AND DUP2 JUMP JUMPDEST PUSH2 0x109 PUSH2 0x13F CALLDATASIZE PUSH1 0x4 PUSH2 0x9AD JUMP JUMPDEST PUSH2 0x577 JUMP JUMPDEST PUSH2 0x14E PUSH3 0x93A80 DUP2 JUMP JUMPDEST PUSH1 0x40 MLOAD SWAP1 DUP2 MSTORE PUSH1 0x20 ADD PUSH2 0xC2 JUMP JUMPDEST PUSH2 0x14E PUSH1 0x4 SLOAD DUP2 JUMP JUMPDEST PUSH2 0x14E PUSH2 0x173 CALLDATASIZE PUSH1 0x4 PUSH2 0xA7C JUMP JUMPDEST PUSH1 0x0 PUSH1 0x20 DUP2 SWAP1 MSTORE SWAP1 DUP2 MSTORE PUSH1 0x40 SWAP1 KECCAK256 SLOAD DUP2 JUMP JUMPDEST PUSH1 0x3 SLOAD PUSH2 0xDE SWAP1 PUSH1 0x1 PUSH1 0x1 PUSH1 0xA0 SHL SUB AND DUP2 JUMP JUMPDEST PUSH1 0x0 PUSH1 0x1 PUSH1 0x1 PUSH1 0xE0 SHL SUB NOT DUP3 AND PUSH4 0x736BD41D PUSH1 0xE1 SHL EQ DUP1 PUSH2 0x1C9 JUMPI POP PUSH1 0x1 PUSH1 0x1 PUSH1 0xE0 SHL SUB NOT DUP3 AND PUSH4 0x1FFC9A7 PUSH1 0xE0 SHL EQ JUMPDEST SWAP3 SWAP2 POP POP JUMP JUMPDEST PUSH1 0x1 SLOAD PUSH1 0x1 PUSH1 0x1 PUSH1 0xA0 SHL SUB AND CALLER EQ PUSH2 0x202 JUMPI PUSH1 0x40 MLOAD PUSH3 0x461BCD PUSH1 0xE5 SHL DUP2 MSTORE PUSH1 0x4 ADD PUSH2 0x1F9 SWAP1 PUSH2 0xA95 JUMP JUMPDEST PUSH1 0x40 MLOAD DUP1 SWAP2 SUB SWAP1 REVERT JUMPDEST PUSH1 0x0 DUP1 PUSH1 0x1 PUSH1 0x0 SWAP1 SLOAD SWAP1 PUSH2 0x100 EXP SWAP1 DIV PUSH1 0x1 PUSH1 0x1 PUSH1 0xA0 SHL SUB AND PUSH1 0x1 PUSH1 0x1 PUSH1 0xA0 SHL SUB AND PUSH4 0xAFFED0E0 PUSH1 0x40 MLOAD DUP2 PUSH4 0xFFFFFFFF AND PUSH1 0xE0 SHL DUP2 MSTORE PUSH1 0x4 ADD PUSH1 0x20 PUSH1 0x40 MLOAD DUP1 DUP4 SUB DUP2 DUP7 GAS STATICCALL ISZERO DUP1 ISZERO PUSH2 0x258 JUMPI RETURNDATASIZE PUSH1 0x0 DUP1 RETURNDATACOPY RETURNDATASIZE PUSH1 0x0 REVERT JUMPDEST POP POP POP POP PUSH1 0x40 MLOAD RETURNDATASIZE PUSH1 0x1F NOT PUSH1 0x1F DUP3 ADD AND DUP3 ADD DUP1 PUSH1 0x40 MSTORE POP DUP2 ADD SWAP1 PUSH2 0x27C SWAP2 SWAP1 PUSH2 0xAD6 JUMP JUMPDEST SWAP1 POP PUSH1 0x0 PUSH1 0x1 PUSH1 0x0 SWAP1 SLOAD SWAP1 PUSH2 0x100 EXP SWAP1 DIV PUSH1 0x1 PUSH1 0x1 PUSH1 0xA0 SHL SUB AND PUSH1 0x1 PUSH1 0x1 PUSH1 0xA0 SHL SUB AND PUSH4 0xE86637DB DUP16 DUP16 DUP16 DUP16 DUP16 DUP16 DUP16 DUP16 DUP16 PUSH1 0x1 DUP14 PUSH2 0x2BA SWAP2 SWAP1 PUSH2 0xB05 JUMP JUMPDEST PUSH1 0x40 MLOAD DUP12 PUSH4 0xFFFFFFFF AND PUSH1 0xE0 SHL DUP2 MSTORE PUSH1 0x4 ADD PUSH2 0x2DF SWAP11 SWAP10 SWAP9 SWAP8 SWAP7 SWAP6 SWAP5 SWAP4 SWAP3 SWAP2 SWAP1 PUSH2 0xB8A JUMP JUMPDEST PUSH1 0x0 PUSH1 0x40 MLOAD DUP1 DUP4 SUB DUP2 DUP7 GAS STATICCALL ISZERO DUP1 ISZERO PUSH2 0x2FC JUMPI RETURNDATASIZE PUSH1 0x0 DUP1 RETURNDATACOPY RETURNDATASIZE PUSH1 0x0 REVERT JUMPDEST POP POP POP POP PUSH1 0x40 MLOAD RETURNDATASIZE PUSH1 0x0 DUP3 RETURNDATACOPY PUSH1 0x1F RETURNDATASIZE SWAP1 DUP2 ADD PUSH1 0x1F NOT AND DUP3 ADD PUSH1 0x40 MSTORE PUSH2 0x324 SWAP2 SWAP1 DUP2 ADD SWAP1 PUSH2 0xC00 JUMP JUMPDEST DUP1 MLOAD PUSH1 0x20 SWAP2 DUP3 ADD KECCAK256 PUSH1 0x0 DUP2 DUP2 MSTORE SWAP2 DUP3 SWAP1 MSTORE PUSH1 0x40 SWAP1 SWAP2 KECCAK256 SLOAD SWAP1 SWAP4 POP ISZERO DUP1 ISZERO SWAP3 POP SWAP1 POP PUSH2 0x369 JUMPI POP PUSH1 0x4 SLOAD PUSH1 0x0 DUP3 DUP2 MSTORE PUSH1 0x20 DUP2 SWAP1 MSTORE PUSH1 0x40 SWAP1 KECCAK256 SLOAD PUSH2 0x366 SWAP2 SWAP1 PUSH2 0xC77 JUMP JUMPDEST TIMESTAMP GT JUMPDEST ISZERO PUSH2 0x374 JUMPI POP PUSH2 0x481 JUMP JUMPDEST PUSH1 0x0 PUSH4 0x6A761202 DUP14 DUP14 DUP14 DUP14 DUP14 DUP14 DUP14 DUP14 DUP14 DUP14 PUSH1 0x40 MLOAD PUSH1 0x24 ADD PUSH2 0x39E SWAP11 SWAP10 SWAP9 SWAP8 SWAP7 SWAP6 SWAP5 SWAP4 SWAP3 SWAP2 SWAP1 PUSH2 0xC8A JUMP JUMPDEST PUSH1 0x40 DUP1 MLOAD PUSH1 0x1F NOT DUP2 DUP5 SUB ADD DUP2 MSTORE SWAP2 SWAP1 MSTORE PUSH1 0x20 DUP2 ADD DUP1 MLOAD PUSH1 0x1 PUSH1 0x1 PUSH1 0xE0 SHL SUB AND PUSH1 0xE0 SWAP4 SWAP1 SWAP4 SHL SWAP3 SWAP1 SWAP3 OR SWAP1 SWAP2 MSTORE SWAP1 POP PUSH1 0x5 PUSH2 0x3D8 DUP3 DUP3 PUSH2 0xD93 JUMP JUMPDEST POP DUP3 PUSH1 0x6 PUSH1 0x0 PUSH2 0x100 EXP DUP2 SLOAD DUP2 PUSH1 0x1 PUSH1 0x1 PUSH1 0xA0 SHL SUB MUL NOT AND SWAP1 DUP4 PUSH1 0x1 PUSH1 0x1 PUSH1 0xA0 SHL SUB AND MUL OR SWAP1 SSTORE POP DUP12 PUSH1 0x7 DUP2 SWAP1 SSTORE POP PUSH1 0x2 PUSH1 0x0 SWAP1 SLOAD SWAP1 PUSH2 0x100 EXP SWAP1 DIV PUSH1 0x1 PUSH1 0x1 PUSH1 0xA0 SHL SUB AND PUSH1 0x1 PUSH1 0x1 PUSH1 0xA0 SHL SUB AND PUSH4 0x6FE1967C DUP5 DUP4 DUP16 PUSH1 0x40 MLOAD DUP5 PUSH4 0xFFFFFFFF AND PUSH1 0xE0 SHL DUP2 MSTORE PUSH1 0x4 ADD PUSH2 0x44C SWAP4 SWAP3 SWAP2 SWAP1 PUSH2 0xE53 JUMP JUMPDEST PUSH1 0x0 PUSH1 0x40 MLOAD DUP1 DUP4 SUB DUP2 PUSH1 0x0 DUP8 DUP1 EXTCODESIZE ISZERO DUP1 ISZERO PUSH2 0x466 JUMPI PUSH1 0x0 DUP1 REVERT JUMPDEST POP GAS CALL ISZERO DUP1 ISZERO PUSH2 0x47A JUMPI RETURNDATASIZE PUSH1 0x0 DUP1 RETURNDATACOPY RETURNDATASIZE PUSH1 0x0 REVERT JUMPDEST POP POP POP POP POP POP JUMPDEST POP POP POP POP POP POP POP POP POP POP POP JUMP JUMPDEST PUSH1 0x1 SLOAD PUSH1 0x1 PUSH1 0x1 PUSH1 0xA0 SHL SUB AND CALLER EQ PUSH2 0x4B8 JUMPI PUSH1 0x40 MLOAD PUSH3 0x461BCD PUSH1 0xE5 SHL DUP2 MSTORE PUSH1 0x4 ADD PUSH2 0x1F9 SWAP1 PUSH2 0xA95 JUMP JUMPDEST PUSH1 0x0 DUP3 DUP2 MSTORE PUSH1 0x20 DUP2 SWAP1 MSTORE PUSH1 0x40 SWAP1 KECCAK256 SLOAD ISZERO DUP1 ISZERO SWAP1 PUSH2 0x4EF JUMPI POP PUSH1 0x4 SLOAD PUSH1 0x0 DUP4 DUP2 MSTORE PUSH1 0x20 DUP2 SWAP1 MSTORE PUSH1 0x40 SWAP1 KECCAK256 SLOAD PUSH2 0x4EC SWAP2 SWAP1 PUSH2 0xC77 JUMP JUMPDEST TIMESTAMP GT JUMPDEST ISZERO PUSH2 0x506 JUMPI POP PUSH1 0x0 SWAP1 DUP2 MSTORE PUSH1 0x20 DUP2 SWAP1 MSTORE PUSH1 0x40 DUP2 KECCAK256 SSTORE JUMP JUMPDEST PUSH1 0x2 SLOAD PUSH1 0x6 SLOAD PUSH1 0x7 SLOAD PUSH1 0x40 MLOAD PUSH4 0x93163A91 PUSH1 0xE0 SHL DUP2 MSTORE PUSH1 0x1 PUSH1 0x1 PUSH1 0xA0 SHL SUB SWAP4 DUP5 AND SWAP4 PUSH4 0x93163A91 SWAP4 PUSH2 0x541 SWAP4 SWAP2 AND SWAP2 PUSH1 0x5 SWAP2 SWAP1 PUSH1 0x4 ADD PUSH2 0xE87 JUMP JUMPDEST PUSH1 0x0 PUSH1 0x40 MLOAD DUP1 DUP4 SUB DUP2 PUSH1 0x0 DUP8 DUP1 EXTCODESIZE ISZERO DUP1 ISZERO PUSH2 0x55B JUMPI PUSH1 0x0 DUP1 REVERT JUMPDEST POP GAS CALL ISZERO DUP1 ISZERO PUSH2 0x56F JUMPI RETURNDATASIZE PUSH1 0x0 DUP1 RETURNDATACOPY RETURNDATASIZE PUSH1 0x0 REVERT JUMPDEST POP POP POP POP POP POP JUMP JUMPDEST PUSH1 0x1 SLOAD PUSH1 0x40 DUP1 MLOAD PUSH4 0x57FF687 PUSH1 0xE5 SHL DUP2 MSTORE SWAP1 MLOAD PUSH1 0x0 SWAP3 PUSH1 0x1 PUSH1 0x1 PUSH1 0xA0 SHL SUB AND SWAP2 PUSH4 0xAFFED0E0 SWAP2 PUSH1 0x4 DUP1 DUP4 ADD SWAP3 PUSH1 0x20 SWAP3 SWAP2 SWAP1 DUP3 SWAP1 SUB ADD DUP2 DUP7 GAS STATICCALL ISZERO DUP1 ISZERO PUSH2 0x5C1 JUMPI RETURNDATASIZE PUSH1 0x0 DUP1 RETURNDATACOPY RETURNDATASIZE PUSH1 0x0 REVERT JUMPDEST POP POP POP POP PUSH1 0x40 MLOAD RETURNDATASIZE PUSH1 0x1F NOT PUSH1 0x1F DUP3 ADD AND DUP3 ADD DUP1 PUSH1 0x40 MSTORE POP DUP2 ADD SWAP1 PUSH2 0x5E5 SWAP2 SWAP1 PUSH2 0xAD6 JUMP JUMPDEST PUSH1 0x1 SLOAD PUSH1 0x40 MLOAD PUSH4 0xE86637DB PUSH1 0xE0 SHL DUP2 MSTORE SWAP2 SWAP3 POP PUSH1 0x0 SWAP2 PUSH1 0x1 PUSH1 0x1 PUSH1 0xA0 SHL SUB SWAP1 SWAP2 AND SWAP1 PUSH4 0xE86637DB SWAP1 PUSH2 0x62D SWAP1 DUP16 SWAP1 DUP16 SWAP1 DUP16 SWAP1 DUP16 SWAP1 DUP16 SWAP1 DUP16 SWAP1 DUP16 SWAP1 DUP16 SWAP1 DUP16 SWAP1 DUP15 SWAP1 PUSH1 0x4 ADD PUSH2 0xB8A JUMP JUMPDEST PUSH1 0x0 PUSH1 0x40 MLOAD DUP1 DUP4 SUB DUP2 DUP7 GAS STATICCALL ISZERO DUP1 ISZERO PUSH2 0x64A JUMPI RETURNDATASIZE PUSH1 0x0 DUP1 RETURNDATACOPY RETURNDATASIZE PUSH1 0x0 REVERT JUMPDEST POP POP POP POP PUSH1 0x40 MLOAD RETURNDATASIZE PUSH1 0x0 DUP3 RETURNDATACOPY PUSH1 0x1F RETURNDATASIZE SWAP1 DUP2 ADD PUSH1 0x1F NOT AND DUP3 ADD PUSH1 0x40 MSTORE PUSH2 0x672 SWAP2 SWAP1 DUP2 ADD SWAP1 PUSH2 0xC00 JUMP JUMPDEST DUP1 MLOAD PUSH1 0x20 DUP1 DUP4 ADD SWAP2 SWAP1 SWAP2 KECCAK256 PUSH1 0x0 DUP2 DUP2 MSTORE SWAP2 DUP3 SWAP1 MSTORE PUSH1 0x40 SWAP1 SWAP2 KECCAK256 SLOAD SWAP2 SWAP3 POP SWAP1 ISZERO PUSH2 0x6EF JUMPI PUSH1 0x40 MLOAD PUSH3 0x461BCD PUSH1 0xE5 SHL DUP2 MSTORE PUSH1 0x20 PUSH1 0x4 DUP3 ADD MSTORE PUSH1 0x29 PUSH1 0x24 DUP3 ADD MSTORE PUSH32 0x4669726577616C6C47756172643A20627970617373477561726420616C726561 PUSH1 0x44 DUP3 ADD MSTORE PUSH9 0x191E4818D85B1B1959 PUSH1 0xBA SHL PUSH1 0x64 DUP3 ADD MSTORE PUSH1 0x84 ADD PUSH2 0x1F9 JUMP JUMPDEST PUSH1 0x1 SLOAD PUSH1 0x40 MLOAD PUSH4 0x934F3A11 PUSH1 0xE0 SHL DUP2 MSTORE PUSH1 0x1 PUSH1 0x1 PUSH1 0xA0 SHL SUB SWAP1 SWAP2 AND SWAP1 PUSH4 0x934F3A11 SWAP1 PUSH2 0x723 SWAP1 DUP5 SWAP1 DUP7 SWAP1 DUP10 SWAP1 PUSH1 0x4 ADD PUSH2 0xF2A JUMP JUMPDEST PUSH1 0x0 PUSH1 0x40 MLOAD DUP1 DUP4 SUB DUP2 DUP7 DUP1 EXTCODESIZE ISZERO DUP1 ISZERO PUSH2 0x73B JUMPI PUSH1 0x0 DUP1 REVERT JUMPDEST POP GAS STATICCALL ISZERO DUP1 ISZERO PUSH2 0x74F JUMPI RETURNDATASIZE PUSH1 0x0 DUP1 RETURNDATACOPY RETURNDATASIZE PUSH1 0x0 REVERT JUMPDEST POP POP POP PUSH1 0x0 SWAP2 DUP3 MSTORE POP PUSH1 0x20 DUP2 SWAP1 MSTORE PUSH1 0x40 SWAP1 KECCAK256 TIMESTAMP SWAP1 SSTORE POP POP POP POP POP POP POP POP POP POP POP POP JUMP JUMPDEST PUSH1 0x0 PUSH1 0x20 DUP3 DUP5 SUB SLT ISZERO PUSH2 0x784 JUMPI PUSH1 0x0 DUP1 REVERT JUMPDEST DUP2 CALLDATALOAD PUSH1 0x1 PUSH1 0x1 PUSH1 0xE0 SHL SUB NOT DUP2 AND DUP2 EQ PUSH2 0x79C JUMPI PUSH1 0x0 DUP1 REVERT JUMPDEST SWAP4 SWAP3 POP POP POP JUMP JUMPDEST DUP1 CALLDATALOAD PUSH1 0x1 PUSH1 0x1 PUSH1 0xA0 SHL SUB DUP2 AND DUP2 EQ PUSH2 0x7BA JUMPI PUSH1 0x0 DUP1 REVERT JUMPDEST SWAP2 SWAP1 POP JUMP JUMPDEST PUSH4 0x4E487B71 PUSH1 0xE0 SHL PUSH1 0x0 MSTORE PUSH1 0x41 PUSH1 0x4 MSTORE PUSH1 0x24 PUSH1 0x0 REVERT JUMPDEST PUSH1 0x40 MLOAD PUSH1 0x1F DUP3 ADD PUSH1 0x1F NOT AND DUP2 ADD PUSH8 0xFFFFFFFFFFFFFFFF DUP2 GT DUP3 DUP3 LT OR ISZERO PUSH2 0x7FE JUMPI PUSH2 0x7FE PUSH2 0x7BF JUMP JUMPDEST PUSH1 0x40 MSTORE SWAP2 SWAP1 POP JUMP JUMPDEST PUSH1 0x0 PUSH8 0xFFFFFFFFFFFFFFFF DUP3 GT ISZERO PUSH2 0x820 JUMPI PUSH2 0x820 PUSH2 0x7BF JUMP JUMPDEST POP PUSH1 0x1F ADD PUSH1 0x1F NOT AND PUSH1 0x20 ADD SWAP1 JUMP JUMPDEST PUSH1 0x0 DUP3 PUSH1 0x1F DUP4 ADD SLT PUSH2 0x83F JUMPI PUSH1 0x0 DUP1 REVERT JUMPDEST DUP2 CALLDATALOAD PUSH2 0x852 PUSH2 0x84D DUP3 PUSH2 0x806 JUMP JUMPDEST PUSH2 0x7D5 JUMP JUMPDEST DUP2 DUP2 MSTORE DUP5 PUSH1 0x20 DUP4 DUP7 ADD ADD GT ISZERO PUSH2 0x867 JUMPI PUSH1 0x0 DUP1 REVERT JUMPDEST DUP2 PUSH1 0x20 DUP6 ADD PUSH1 0x20 DUP4 ADD CALLDATACOPY PUSH1 0x0 SWAP2 DUP2 ADD PUSH1 0x20 ADD SWAP2 SWAP1 SWAP2 MSTORE SWAP4 SWAP3 POP POP POP JUMP JUMPDEST DUP1 CALLDATALOAD PUSH1 0x2 DUP2 LT PUSH2 0x7BA JUMPI PUSH1 0x0 DUP1 REVERT JUMPDEST PUSH1 0x0 DUP1 PUSH1 0x0 DUP1 PUSH1 0x0 DUP1 PUSH1 0x0 DUP1 PUSH1 0x0 DUP1 PUSH1 0x0 PUSH2 0x160 DUP13 DUP15 SUB SLT ISZERO PUSH2 0x8B5 JUMPI PUSH1 0x0 DUP1 REVERT JUMPDEST PUSH2 0x8BE DUP13 PUSH2 0x7A3 JUMP JUMPDEST SWAP11 POP PUSH1 0x20 DUP13 ADD CALLDATALOAD SWAP10 POP PUSH8 0xFFFFFFFFFFFFFFFF DUP1 PUSH1 0x40 DUP15 ADD CALLDATALOAD GT ISZERO PUSH2 0x8E1 JUMPI PUSH1 0x0 DUP1 REVERT JUMPDEST PUSH2 0x8F1 DUP15 PUSH1 0x40 DUP16 ADD CALLDATALOAD DUP16 ADD PUSH2 0x82E JUMP JUMPDEST SWAP10 POP PUSH2 0x8FF PUSH1 0x60 DUP15 ADD PUSH2 0x884 JUMP JUMPDEST SWAP9 POP PUSH1 0x80 DUP14 ADD CALLDATALOAD SWAP8 POP PUSH1 0xA0 DUP14 ADD CALLDATALOAD SWAP7 POP PUSH1 0xC0 DUP14 ADD CALLDATALOAD SWAP6 POP PUSH2 0x922 PUSH1 0xE0 DUP15 ADD PUSH2 0x7A3 JUMP JUMPDEST SWAP5 POP PUSH2 0x931 PUSH2 0x100 DUP15 ADD PUSH2 0x7A3 JUMP JUMPDEST SWAP4 POP DUP1 PUSH2 0x120 DUP15 ADD CALLDATALOAD GT ISZERO PUSH2 0x945 JUMPI PUSH1 0x0 DUP1 REVERT JUMPDEST POP PUSH2 0x957 DUP14 PUSH2 0x120 DUP15 ADD CALLDATALOAD DUP15 ADD PUSH2 0x82E JUMP JUMPDEST SWAP2 POP PUSH2 0x966 PUSH2 0x140 DUP14 ADD PUSH2 0x7A3 JUMP JUMPDEST SWAP1 POP SWAP3 SWAP6 SWAP9 SWAP12 POP SWAP3 SWAP6 SWAP9 SWAP12 SWAP1 SWAP4 SWAP7 SWAP10 POP JUMP JUMPDEST PUSH1 0x0 DUP1 PUSH1 0x40 DUP4 DUP6 SUB SLT ISZERO PUSH2 0x98B JUMPI PUSH1 0x0 DUP1 REVERT JUMPDEST DUP3 CALLDATALOAD SWAP2 POP PUSH1 0x20 DUP4 ADD CALLDATALOAD DUP1 ISZERO ISZERO DUP2 EQ PUSH2 0x9A2 JUMPI PUSH1 0x0 DUP1 REVERT JUMPDEST DUP1 SWAP2 POP POP SWAP3 POP SWAP3 SWAP1 POP JUMP JUMPDEST PUSH1 0x0 DUP1 PUSH1 0x0 DUP1 PUSH1 0x0 DUP1 PUSH1 0x0 DUP1 PUSH1 0x0 DUP1 PUSH2 0x140 DUP12 DUP14 SUB SLT ISZERO PUSH2 0x9CD JUMPI PUSH1 0x0 DUP1 REVERT JUMPDEST PUSH2 0x9D6 DUP12 PUSH2 0x7A3 JUMP JUMPDEST SWAP10 POP PUSH1 0x20 DUP12 ADD CALLDATALOAD SWAP9 POP PUSH1 0x40 DUP12 ADD CALLDATALOAD PUSH8 0xFFFFFFFFFFFFFFFF DUP1 DUP3 GT ISZERO PUSH2 0x9FA JUMPI PUSH1 0x0 DUP1 REVERT JUMPDEST PUSH2 0xA06 DUP15 DUP4 DUP16 ADD PUSH2 0x82E JUMP JUMPDEST SWAP10 POP PUSH2 0xA14 PUSH1 0x60 DUP15 ADD PUSH2 0x884 JUMP JUMPDEST SWAP9 POP PUSH1 0x80 DUP14 ADD CALLDATALOAD SWAP8 POP PUSH1 0xA0 DUP14 ADD CALLDATALOAD SWAP7 POP PUSH1 0xC0 DUP14 ADD CALLDATALOAD SWAP6 POP PUSH2 0xA37 PUSH1 0xE0 DUP15 ADD PUSH2 0x7A3 JUMP JUMPDEST SWAP5 POP PUSH2 0xA46 PUSH2 0x100 DUP15 ADD PUSH2 0x7A3 JUMP JUMPDEST SWAP4 POP PUSH2 0x120 DUP14 ADD CALLDATALOAD SWAP2 POP DUP1 DUP3 GT ISZERO PUSH2 0xA5D JUMPI PUSH1 0x0 DUP1 REVERT JUMPDEST POP PUSH2 0xA6A DUP14 DUP3 DUP15 ADD PUSH2 0x82E JUMP JUMPDEST SWAP2 POP POP SWAP3 SWAP6 SWAP9 SWAP12 SWAP2 SWAP5 SWAP8 SWAP11 POP SWAP3 SWAP6 SWAP9 POP JUMP JUMPDEST PUSH1 0x0 PUSH1 0x20 DUP3 DUP5 SUB SLT ISZERO PUSH2 0xA8E JUMPI PUSH1 0x0 DUP1 REVERT JUMPDEST POP CALLDATALOAD SWAP2 SWAP1 POP JUMP JUMPDEST PUSH1 0x20 DUP1 DUP3 MSTORE PUSH1 0x21 SWAP1 DUP3 ADD MSTORE PUSH32 0x4669726577616C6C47756172643A206F6E6C7920736166652063616E2063616C PUSH1 0x40 DUP3 ADD MSTORE PUSH1 0x1B PUSH1 0xFA SHL PUSH1 0x60 DUP3 ADD MSTORE PUSH1 0x80 ADD SWAP1 JUMP JUMPDEST PUSH1 0x0 PUSH1 0x20 DUP3 DUP5 SUB SLT ISZERO PUSH2 0xAE8 JUMPI PUSH1 0x0 DUP1 REVERT JUMPDEST POP MLOAD SWAP2 SWAP1 POP JUMP JUMPDEST PUSH4 0x4E487B71 PUSH1 0xE0 SHL PUSH1 0x0 MSTORE PUSH1 0x11 PUSH1 0x4 MSTORE PUSH1 0x24 PUSH1 0x0 REVERT JUMPDEST DUP2 DUP2 SUB DUP2 DUP2 GT ISZERO PUSH2 0x1C9 JUMPI PUSH2 0x1C9 PUSH2 0xAEF JUMP JUMPDEST PUSH1 0x0 JUMPDEST DUP4 DUP2 LT ISZERO PUSH2 0xB33 JUMPI DUP2 DUP2 ADD MLOAD DUP4 DUP3 ADD MSTORE PUSH1 0x20 ADD PUSH2 0xB1B JUMP JUMPDEST POP POP PUSH1 0x0 SWAP2 ADD MSTORE JUMP JUMPDEST PUSH1 0x0 DUP2 MLOAD DUP1 DUP5 MSTORE PUSH2 0xB54 DUP2 PUSH1 0x20 DUP7 ADD PUSH1 0x20 DUP7 ADD PUSH2 0xB18 JUMP JUMPDEST PUSH1 0x1F ADD PUSH1 0x1F NOT AND SWAP3 SWAP1 SWAP3 ADD PUSH1 0x20 ADD SWAP3 SWAP2 POP POP JUMP JUMPDEST PUSH1 0x2 DUP2 LT PUSH2 0xB86 JUMPI PUSH4 0x4E487B71 PUSH1 0xE0 SHL PUSH1 0x0 MSTORE PUSH1 0x21 PUSH1 0x4 MSTORE PUSH1 0x24 PUSH1 0x0 REVERT JUMPDEST SWAP1 MSTORE JUMP JUMPDEST PUSH1 0x1 PUSH1 0x1 PUSH1 0xA0 SHL SUB DUP12 DUP2 AND DUP3 MSTORE PUSH1 0x20 DUP3 ADD DUP12 SWAP1 MSTORE PUSH2 0x140 PUSH1 0x40 DUP4 ADD DUP2 SWAP1 MSTORE PUSH1 0x0 SWAP2 PUSH2 0xBB7 DUP5 DUP4 ADD DUP14 PUSH2 0xB3C JUMP JUMPDEST SWAP3 POP PUSH2 0xBC6 PUSH1 0x60 DUP6 ADD DUP13 PUSH2 0xB68 JUMP JUMPDEST PUSH1 0x80 DUP5 ADD SWAP10 SWAP1 SWAP10 MSTORE POP PUSH1 0xA0 DUP3 ADD SWAP7 SWAP1 SWAP7 MSTORE PUSH1 0xC0 DUP2 ADD SWAP5 SWAP1 SWAP5 MSTORE SWAP2 DUP6 AND PUSH1 0xE0 DUP5 ADD MSTORE SWAP1 SWAP4 AND PUSH2 0x100 DUP3 ADD MSTORE PUSH2 0x120 ADD SWAP2 SWAP1 SWAP2 MSTORE SWAP5 SWAP4 POP POP POP POP JUMP JUMPDEST PUSH1 0x0 PUSH1 0x20 DUP3 DUP5 SUB SLT ISZERO PUSH2 0xC12 JUMPI PUSH1 0x0 DUP1 REVERT JUMPDEST DUP2 MLOAD PUSH8 0xFFFFFFFFFFFFFFFF DUP2 GT ISZERO PUSH2 0xC29 JUMPI PUSH1 0x0 DUP1 REVERT JUMPDEST DUP3 ADD PUSH1 0x1F DUP2 ADD DUP5 SGT PUSH2 0xC3A JUMPI PUSH1 0x0 DUP1 REVERT JUMPDEST DUP1 MLOAD PUSH2 0xC48 PUSH2 0x84D DUP3 PUSH2 0x806 JUMP JUMPDEST DUP2 DUP2 MSTORE DUP6 PUSH1 0x20 DUP4 DUP6 ADD ADD GT ISZERO PUSH2 0xC5D JUMPI PUSH1 0x0 DUP1 REVERT JUMPDEST PUSH2 0xC6E DUP3 PUSH1 0x20 DUP4 ADD PUSH1 0x20 DUP7 ADD PUSH2 0xB18 JUMP JUMPDEST SWAP6 SWAP5 POP POP POP POP POP JUMP JUMPDEST DUP1 DUP3 ADD DUP1 DUP3 GT ISZERO PUSH2 0x1C9 JUMPI PUSH2 0x1C9 PUSH2 0xAEF JUMP JUMPDEST PUSH1 0x1 PUSH1 0x1 PUSH1 0xA0 SHL SUB DUP12 DUP2 AND DUP3 MSTORE PUSH1 0x20 DUP3 ADD DUP12 SWAP1 MSTORE PUSH2 0x140 PUSH1 0x40 DUP4 ADD DUP2 SWAP1 MSTORE PUSH1 0x0 SWAP2 PUSH2 0xCB7 DUP5 DUP4 ADD DUP14 PUSH2 0xB3C JUMP JUMPDEST SWAP2 POP PUSH2 0xCC6 PUSH1 0x60 DUP6 ADD DUP13 PUSH2 0xB68 JUMP JUMPDEST DUP10 PUSH1 0x80 DUP6 ADD MSTORE DUP9 PUSH1 0xA0 DUP6 ADD MSTORE DUP8 PUSH1 0xC0 DUP6 ADD MSTORE DUP1 DUP8 AND PUSH1 0xE0 DUP6 ADD MSTORE DUP1 DUP7 AND PUSH2 0x100 DUP6 ADD MSTORE POP DUP3 DUP2 SUB PUSH2 0x120 DUP5 ADD MSTORE PUSH2 0xCFD DUP2 DUP6 PUSH2 0xB3C JUMP JUMPDEST SWAP14 SWAP13 POP POP POP POP POP POP POP POP POP POP POP POP POP JUMP JUMPDEST PUSH1 0x1 DUP2 DUP2 SHR SWAP1 DUP3 AND DUP1 PUSH2 0xD22 JUMPI PUSH1 0x7F DUP3 AND SWAP2 POP JUMPDEST PUSH1 0x20 DUP3 LT DUP2 SUB PUSH2 0xD42 JUMPI PUSH4 0x4E487B71 PUSH1 0xE0 SHL PUSH1 0x0 MSTORE PUSH1 0x22 PUSH1 0x4 MSTORE PUSH1 0x24 PUSH1 0x0 REVERT JUMPDEST POP SWAP2 SWAP1 POP JUMP JUMPDEST PUSH1 0x1F DUP3 GT ISZERO PUSH2 0xD8E JUMPI PUSH1 0x0 DUP2 DUP2 MSTORE PUSH1 0x20 DUP2 KECCAK256 PUSH1 0x1F DUP6 ADD PUSH1 0x5 SHR DUP2 ADD PUSH1 0x20 DUP7 LT ISZERO PUSH2 0xD6F JUMPI POP DUP1 JUMPDEST PUSH1 0x1F DUP6 ADD PUSH1 0x5 SHR DUP3 ADD SWAP2 POP JUMPDEST DUP2 DUP2 LT ISZERO PUSH2 0x56F JUMPI DUP3 DUP2 SSTORE PUSH1 0x1 ADD PUSH2 0xD7B JUMP JUMPDEST POP POP POP JUMP JUMPDEST DUP2 MLOAD PUSH8 0xFFFFFFFFFFFFFFFF DUP2 GT ISZERO PUSH2 0xDAD JUMPI PUSH2 0xDAD PUSH2 0x7BF JUMP JUMPDEST PUSH2 0xDC1 DUP2 PUSH2 0xDBB DUP5 SLOAD PUSH2 0xD0E JUMP JUMPDEST DUP5 PUSH2 0xD48 JUMP JUMPDEST PUSH1 0x20 DUP1 PUSH1 0x1F DUP4 GT PUSH1 0x1 DUP2 EQ PUSH2 0xDF6 JUMPI PUSH1 0x0 DUP5 ISZERO PUSH2 0xDDE JUMPI POP DUP6 DUP4 ADD MLOAD JUMPDEST PUSH1 0x0 NOT PUSH1 0x3 DUP7 SWAP1 SHL SHR NOT AND PUSH1 0x1 DUP6 SWAP1 SHL OR DUP6 SSTORE PUSH2 0x56F JUMP JUMPDEST PUSH1 0x0 DUP6 DUP2 MSTORE PUSH1 0x20 DUP2 KECCAK256 PUSH1 0x1F NOT DUP7 AND SWAP2 JUMPDEST DUP3 DUP2 LT ISZERO PUSH2 0xE25 JUMPI DUP9 DUP7 ADD MLOAD DUP3 SSTORE SWAP5 DUP5 ADD SWAP5 PUSH1 0x1 SWAP1 SWAP2 ADD SWAP1 DUP5 ADD PUSH2 0xE06 JUMP JUMPDEST POP DUP6 DUP3 LT ISZERO PUSH2 0xE43 JUMPI DUP8 DUP6 ADD MLOAD PUSH1 0x0 NOT PUSH1 0x3 DUP9 SWAP1 SHL PUSH1 0xF8 AND SHR NOT AND DUP2 SSTORE JUMPDEST POP POP POP POP POP PUSH1 0x1 SWAP1 DUP2 SHL ADD SWAP1 SSTORE POP JUMP JUMPDEST PUSH1 0x1 PUSH1 0x1 PUSH1 0xA0 SHL SUB DUP5 AND DUP2 MSTORE PUSH1 0x60 PUSH1 0x20 DUP3 ADD DUP2 SWAP1 MSTORE PUSH1 0x0 SWAP1 PUSH2 0xE77 SWAP1 DUP4 ADD DUP6 PUSH2 0xB3C JUMP JUMPDEST SWAP1 POP DUP3 PUSH1 0x40 DUP4 ADD MSTORE SWAP5 SWAP4 POP POP POP POP JUMP JUMPDEST PUSH1 0x1 DUP1 PUSH1 0xA0 SHL SUB DUP5 AND DUP2 MSTORE PUSH1 0x0 PUSH1 0x20 PUSH1 0x60 DUP2 DUP5 ADD MSTORE PUSH1 0x0 DUP6 SLOAD PUSH2 0xEA9 DUP2 PUSH2 0xD0E JUMP JUMPDEST DUP1 PUSH1 0x60 DUP8 ADD MSTORE PUSH1 0x80 PUSH1 0x1 DUP1 DUP5 AND PUSH1 0x0 DUP2 EQ PUSH2 0xECB JUMPI PUSH1 0x1 DUP2 EQ PUSH2 0xEE5 JUMPI PUSH2 0xF13 JUMP JUMPDEST PUSH1 0xFF NOT DUP6 AND DUP10 DUP5 ADD MSTORE DUP4 ISZERO ISZERO PUSH1 0x5 SHL DUP10 ADD DUP4 ADD SWAP6 POP PUSH2 0xF13 JUMP JUMPDEST DUP11 PUSH1 0x0 MSTORE DUP7 PUSH1 0x0 KECCAK256 PUSH1 0x0 JUMPDEST DUP6 DUP2 LT ISZERO PUSH2 0xF0B JUMPI DUP2 SLOAD DUP12 DUP3 ADD DUP7 ADD MSTORE SWAP1 DUP4 ADD SWAP1 DUP9 ADD PUSH2 0xEF0 JUMP JUMPDEST DUP11 ADD DUP5 ADD SWAP7 POP POP JUMPDEST POP POP POP POP POP PUSH1 0x40 SWAP4 SWAP1 SWAP4 ADD SWAP4 SWAP1 SWAP4 MSTORE POP SWAP4 SWAP3 POP POP POP JUMP JUMPDEST DUP4 DUP2 MSTORE PUSH1 0x60 PUSH1 0x20 DUP3 ADD MSTORE PUSH1 0x0 PUSH2 0xF43 PUSH1 0x60 DUP4 ADD DUP6 PUSH2 0xB3C JUMP JUMPDEST DUP3 DUP2 SUB PUSH1 0x40 DUP5 ADD MSTORE PUSH2 0xF55 DUP2 DUP6 PUSH2 0xB3C JUMP JUMPDEST SWAP7 SWAP6 POP POP POP POP POP POP JUMP INVALID LOG2 PUSH5 0x6970667358 0x22 SLT KECCAK256 SWAP2 0xE5 BALANCE DUP9 0x4D SAR PUSH7 0x22D68D3FD3B7D6 PUSH23 0x743CC96B9D46E32E72B56852AB99D8067264736F6C6343 STOP ADDMOD GT STOP CALLER "},"methodIdentifiers":{"MAX_BYPASS_GUARD_WAIT_TIME()":"d189b0ae","bypassGuard(address,uint256,bytes,uint8,uint256,uint256,uint256,address,address,bytes)":"cb826af4","bypassGuardInitTime(bytes32)":"e76f8ae4","bypassGuardWaitTime()":"d99c1a92","checkAfterExecution(bytes32,bool)":"93271368","checkTransaction(address,uint256,bytes,uint8,uint256,uint256,uint256,address,address,bytes,address)":"75f0bb52","firewall()":"c22a4a85","firewallAdmin()":"f05c8582","safe()":"186f0354","supportsInterface(bytes4)":"01ffc9a7"}},"storageLayout":{"storage":[{"astId":4506,"contract":"contracts/gnosis-safe/FirewallGuard.sol:FirewallGuard","label":"bypassGuardInitTime","offset":0,"slot":"0","type":"t_mapping(t_bytes32,t_uint256)"},{"astId":4511,"contract":"contracts/gnosis-safe/FirewallGuard.sol:FirewallGuard","label":"safe","offset":0,"slot":"1","type":"t_address"},{"astId":4513,"contract":"contracts/gnosis-safe/FirewallGuard.sol:FirewallGuard","label":"firewall","offset":0,"slot":"2","type":"t_address"},{"astId":4515,"contract":"contracts/gnosis-safe/FirewallGuard.sol:FirewallGuard","label":"firewallAdmin","offset":0,"slot":"3","type":"t_address"},{"astId":4517,"contract":"contracts/gnosis-safe/FirewallGuard.sol:FirewallGuard","label":"bypassGuardWaitTime","offset":0,"slot":"4","type":"t_uint256"},{"astId":4519,"contract":"contracts/gnosis-safe/FirewallGuard.sol:FirewallGuard","label":"currentSafeData","offset":0,"slot":"5","type":"t_bytes_storage"},{"astId":4521,"contract":"contracts/gnosis-safe/FirewallGuard.sol:FirewallGuard","label":"currentMsgSender","offset":0,"slot":"6","type":"t_address"},{"astId":4523,"contract":"contracts/gnosis-safe/FirewallGuard.sol:FirewallGuard","label":"currentMsgValue","offset":0,"slot":"7","type":"t_uint256"}],"types":{"t_address":{"encoding":"inplace","label":"address","numberOfBytes":"20"},"t_bytes32":{"encoding":"inplace","label":"bytes32","numberOfBytes":"32"},"t_bytes_storage":{"encoding":"bytes","label":"bytes","numberOfBytes":"32"},"t_mapping(t_bytes32,t_uint256)":{"encoding":"mapping","key":"t_bytes32","label":"mapping(bytes32 => uint256)","numberOfBytes":"32","value":"t_uint256"},"t_uint256":{"encoding":"inplace","label":"uint256","numberOfBytes":"32"}}}}}}