{"contracts/policies/ApprovedCallsWithSignaturePolicy.sol":{"ApprovedCallsWithSignaturePolicy":{"abi":[{"inputs":[],"stateMutability":"nonpayable","type":"constructor"},{"anonymous":false,"inputs":[{"indexed":true,"internalType":"bytes32","name":"role","type":"bytes32"},{"indexed":true,"internalType":"bytes32","name":"previousAdminRole","type":"bytes32"},{"indexed":true,"internalType":"bytes32","name":"newAdminRole","type":"bytes32"}],"name":"RoleAdminChanged","type":"event"},{"anonymous":false,"inputs":[{"indexed":true,"internalType":"bytes32","name":"role","type":"bytes32"},{"indexed":true,"internalType":"address","name":"account","type":"address"},{"indexed":true,"internalType":"address","name":"sender","type":"address"}],"name":"RoleGranted","type":"event"},{"anonymous":false,"inputs":[{"indexed":true,"internalType":"bytes32","name":"role","type":"bytes32"},{"indexed":true,"internalType":"address","name":"account","type":"address"},{"indexed":true,"internalType":"address","name":"sender","type":"address"}],"name":"RoleRevoked","type":"event"},{"inputs":[],"name":"DEFAULT_ADMIN_ROLE","outputs":[{"internalType":"bytes32","name":"","type":"bytes32"}],"stateMutability":"view","type":"function"},{"inputs":[],"name":"SIGNER_ROLE","outputs":[{"internalType":"bytes32","name":"","type":"bytes32"}],"stateMutability":"view","type":"function"},{"inputs":[{"internalType":"bytes32[]","name":"_callHashes","type":"bytes32[]"},{"internalType":"uint256","name":"expiration","type":"uint256"},{"internalType":"address","name":"txOrigin","type":"address"},{"internalType":"address","name":"sender","type":"address"}],"name":"approveCalls","outputs":[],"stateMutability":"nonpayable","type":"function"},{"inputs":[{"internalType":"bytes32[]","name":"_callHashes","type":"bytes32[]"},{"internalType":"uint256","name":"expiration","type":"uint256"},{"internalType":"address","name":"txOrigin","type":"address"},{"internalType":"address","name":"sender","type":"address"},{"internalType":"uint256","name":"nonce","type":"uint256"},{"internalType":"bytes","name":"signature","type":"bytes"}],"name":"approveCallsViaSignature","outputs":[],"stateMutability":"nonpayable","type":"function"},{"inputs":[{"internalType":"address","name":"","type":"address"},{"internalType":"address","name":"","type":"address"},{"internalType":"uint256","name":"","type":"uint256"}],"name":"approvedCalls","outputs":[{"internalType":"bytes32","name":"","type":"bytes32"}],"stateMutability":"view","type":"function"},{"inputs":[{"internalType":"address","name":"","type":"address"},{"internalType":"address","name":"","type":"address"}],"name":"approvedCallsExpiration","outputs":[{"internalType":"uint256","name":"","type":"uint256"}],"stateMutability":"view","type":"function"},{"inputs":[{"internalType":"bytes32","name":"_messageHash","type":"bytes32"}],"name":"getEthSignedMessageHash","outputs":[{"internalType":"bytes32","name":"","type":"bytes32"}],"stateMutability":"pure","type":"function"},{"inputs":[{"internalType":"bytes32","name":"role","type":"bytes32"}],"name":"getRoleAdmin","outputs":[{"internalType":"bytes32","name":"","type":"bytes32"}],"stateMutability":"view","type":"function"},{"inputs":[{"internalType":"bytes32","name":"role","type":"bytes32"},{"internalType":"address","name":"account","type":"address"}],"name":"grantRole","outputs":[],"stateMutability":"nonpayable","type":"function"},{"inputs":[{"internalType":"bytes32","name":"role","type":"bytes32"},{"internalType":"address","name":"account","type":"address"}],"name":"hasRole","outputs":[{"internalType":"bool","name":"","type":"bool"}],"stateMutability":"view","type":"function"},{"inputs":[{"internalType":"address","name":"","type":"address"},{"internalType":"address","name":"","type":"address"}],"name":"nonces","outputs":[{"internalType":"uint256","name":"","type":"uint256"}],"stateMutability":"view","type":"function"},{"inputs":[{"internalType":"address","name":"","type":"address"},{"internalType":"address","name":"","type":"address"},{"internalType":"bytes","name":"","type":"bytes"},{"internalType":"uint256","name":"","type":"uint256"}],"name":"postExecution","outputs":[],"stateMutability":"nonpayable","type":"function"},{"inputs":[{"internalType":"address","name":"consumer","type":"address"},{"internalType":"address","name":"sender","type":"address"},{"internalType":"bytes","name":"data","type":"bytes"},{"internalType":"uint256","name":"value","type":"uint256"}],"name":"preExecution","outputs":[],"stateMutability":"nonpayable","type":"function"},{"inputs":[{"internalType":"bytes32","name":"_ethSignedMessageHash","type":"bytes32"},{"internalType":"bytes","name":"_signature","type":"bytes"}],"name":"recoverSigner","outputs":[{"internalType":"address","name":"","type":"address"}],"stateMutability":"pure","type":"function"},{"inputs":[{"internalType":"bytes32","name":"role","type":"bytes32"},{"internalType":"address","name":"account","type":"address"}],"name":"renounceRole","outputs":[],"stateMutability":"nonpayable","type":"function"},{"inputs":[{"internalType":"bytes32","name":"role","type":"bytes32"},{"internalType":"address","name":"account","type":"address"}],"name":"revokeRole","outputs":[],"stateMutability":"nonpayable","type":"function"},{"inputs":[{"internalType":"bytes","name":"sig","type":"bytes"}],"name":"splitSignature","outputs":[{"internalType":"bytes32","name":"r","type":"bytes32"},{"internalType":"bytes32","name":"s","type":"bytes32"},{"internalType":"uint8","name":"v","type":"uint8"}],"stateMutability":"pure","type":"function"},{"inputs":[{"internalType":"bytes4","name":"interfaceId","type":"bytes4"}],"name":"supportsInterface","outputs":[{"internalType":"bool","name":"","type":"bool"}],"stateMutability":"view","type":"function"}],"evm":{"bytecode":{"linkReferences":{},"object":"608060405234801561001057600080fd5b5061001c600033610021565b6100cd565b61002b828261002f565b5050565b6000828152602081815260408083206001600160a01b038516845290915290205460ff1661002b576000828152602081815260408083206001600160a01b03851684529091529020805460ff191660011790556100893390565b6001600160a01b0316816001600160a01b0316837f2f8788117e7eff1d82e926ec794901d17c78024a50270940304540a733656f0d60405160405180910390a45050565b611461806100dc6000396000f3fe608060405234801561001057600080fd5b50600436106101165760003560e01c8063a1ebf35d116100a2578063d17810b311610071578063d17810b3146102a0578063d547741f146102cb578063d9739cda146102de578063f80bbe8e146102f1578063fa5408011461030457600080fd5b8063a1ebf35d1461022b578063a217fddf14610252578063a7bb58031461025a578063c6d4328b1461028b57600080fd5b806336568abe116100e957806336568abe1461019c57806375d8b80c146101af57806391d14854146101c25780639333fbda146101d557806397aba7f91461020057600080fd5b806301ffc9a71461011b5780631ec0667b14610143578063248a9ca3146101585780632f2ff15d14610189575b600080fd5b61012e610129366004610def565b610317565b60405190151581526020015b60405180910390f35b610156610151366004610f24565b61034e565b005b61017b610166366004610fc5565b60009081526020819052604090206001015490565b60405190815260200161013a565b610156610197366004610fde565b610536565b6101566101aa366004610fde565b610560565b6101566101bd36600461100a565b6105de565b61012e6101d0366004610fde565b610666565b61017b6101e3366004611078565b600360209081526000928352604080842090915290825290205481565b61021361020e3660046110a2565b61068f565b6040516001600160a01b03909116815260200161013a565b61017b7fe2f4eaae4a9751e85a3e4a7b9587827a877f29914755229b07a7b2da98285f7081565b61017b600081565b61026d6102683660046110e9565b61070e565b60408051938452602084019290925260ff169082015260600161013a565b610156610299366004611126565b5050505050565b61017b6102ae366004611078565b600260209081526000928352604080842090915290825290205481565b6101566102d9366004610fde565b610782565b6101566102ec366004611126565b6107a7565b61017b6102ff3660046111bc565b6109be565b61017b610312366004610fc5565b6109fc565b60006001600160e01b03198216637965db0b60e01b148061034857506301ffc9a760e01b6001600160e01b03198316145b92915050565b6001600160a01b0380851660009081526003602090815260408083209387168352929052205482146103cd5760405162461bcd60e51b815260206004820152602f602482015260008051602061140c83398151915260448201526e3a20696e76616c6964206e6f6e636560881b60648201526084015b60405180910390fd5b60008787878787876040516020016103ea969594939291906111f8565b604051602081830303815290604052805190602001209050600061040d826109fc565b9050600061041b828561068f565b90506104477fe2f4eaae4a9751e85a3e4a7b9587827a877f29914755229b07a7b2da98285f7082610666565b61049a5760405162461bcd60e51b8152602060048201526030602482015260008051602061140c83398151915260448201526f1d1034b73b30b634b21039b4b3b732b960811b60648201526084016103c4565b6001600160a01b038088166000908152600160209081526040808320938a168352929052206104ca908b8b610d8f565b506001600160a01b038088166000908152600260209081526040808320938a168352929052208890556104fe856001611266565b6001600160a01b03978816600090815260036020908152604080832099909a1682529790975296909520959095555050505050505050565b60008281526020819052604090206001015461055181610a4f565b61055b8383610a5c565b505050565b6001600160a01b03811633146105d05760405162461bcd60e51b815260206004820152602f60248201527f416363657373436f6e74726f6c3a2063616e206f6e6c792072656e6f756e636560448201526e103937b632b9903337b91039b2b63360891b60648201526084016103c4565b6105da8282610ae0565b5050565b7fe2f4eaae4a9751e85a3e4a7b9587827a877f29914755229b07a7b2da98285f7061060881610a4f565b6001600160a01b038084166000908152600160209081526040808320938616835292905220610638908787610d8f565b50506001600160a01b0391821660009081526002602090815260408083209390941682529190915220555050565b6000918252602082815260408084206001600160a01b0393909316845291905290205460ff1690565b60008060008061069e8561070e565b6040805160008152602081018083528b905260ff8316918101919091526060810184905260808101839052929550909350915060019060a0016020604051602081039080840390855afa1580156106f9573d6000803e3d6000fd5b5050604051601f190151979650505050505050565b600080600083516041146107645760405162461bcd60e51b815260206004820152601860248201527f696e76616c6964207369676e6174757265206c656e677468000000000000000060448201526064016103c4565b50505060208101516040820151606090920151909260009190911a90565b60008281526020819052604090206001015461079d81610a4f565b61055b8383610ae0565b7f5240afa92511149d1ea75355dd533487007d2505fa7bfdceab11878262a081b654610299573260009081526001602090815260408083206001600160a01b0388168452909152902080546108485760405162461bcd60e51b8152602060048201526033602482015260008051602061140c8339815191526044820152723a2063616c6c2068617368657320656d70747960681b60648201526084016103c4565b3260009081526002602090815260408083206001600160a01b03891684529091529020544281116108bb5760405162461bcd60e51b8152602060048201526029602482015260008051602061140c8339815191526044820152680e88195e1c1a5c995960ba1b60648201526084016103c4565b600061090188883289898080601f0160208091040260200160405190810160405280939291908181526020018383808284376000920191909152508b9250610b45915050565b9050600083600185805490506109179190611279565b815481106109275761092761128c565b9060005260206000200154905080821461098d5760405162461bcd60e51b8152602060048201526033602482015260008051602061140c83398151915260448201527207440d2dcecc2d8d2c840c6c2d8d840d0c2e6d606b1b60648201526084016103c4565b8380548061099d5761099d6112a2565b60019003818190600052602060002001600090559055505050505050505050565b600160205282600052604060002060205281600052604060002081815481106109e657600080fd5b9060005260206000200160009250925050505481565b6040517f19457468657265756d205369676e6564204d6573736167653a0a3332000000006020820152603c8101829052600090605c01604051602081830303815290604052805190602001209050919050565b610a598133610b81565b50565b610a668282610666565b6105da576000828152602081815260408083206001600160a01b03851684529091529020805460ff19166001179055610a9c3390565b6001600160a01b0316816001600160a01b0316837f2f8788117e7eff1d82e926ec794901d17c78024a50270940304540a733656f0d60405160405180910390a45050565b610aea8282610666565b156105da576000828152602081815260408083206001600160a01b0385168085529252808320805460ff1916905551339285917ff6391f5c32d9c69d2a47ea670b442974b53935d1edc7fd64eb21e047a839171b9190a45050565b60008585858585604051602001610b609594939291906112dc565b60405160208183030381529060405280519060200120905095945050505050565b610b8b8282610666565b6105da57610b9881610bda565b610ba3836020610bec565b604051602001610bb4929190611335565b60408051601f198184030181529082905262461bcd60e51b82526103c4916004016113aa565b60606103486001600160a01b03831660145b60606000610bfb8360026113dd565b610c06906002611266565b67ffffffffffffffff811115610c1e57610c1e610e81565b6040519080825280601f01601f191660200182016040528015610c48576020820181803683370190505b509050600360fc1b81600081518110610c6357610c6361128c565b60200101906001600160f81b031916908160001a905350600f60fb1b81600181518110610c9257610c9261128c565b60200101906001600160f81b031916908160001a9053506000610cb68460026113dd565b610cc1906001611266565b90505b6001811115610d39576f181899199a1a9b1b9c1cb0b131b232b360811b85600f1660108110610cf557610cf561128c565b1a60f81b828281518110610d0b57610d0b61128c565b60200101906001600160f81b031916908160001a90535060049490941c93610d32816113f4565b9050610cc4565b508315610d885760405162461bcd60e51b815260206004820181905260248201527f537472696e67733a20686578206c656e67746820696e73756666696369656e7460448201526064016103c4565b9392505050565b828054828255906000526020600020908101928215610dca579160200282015b82811115610dca578235825591602001919060010190610daf565b50610dd6929150610dda565b5090565b5b80821115610dd65760008155600101610ddb565b600060208284031215610e0157600080fd5b81356001600160e01b031981168114610d8857600080fd5b60008083601f840112610e2b57600080fd5b50813567ffffffffffffffff811115610e4357600080fd5b6020830191508360208260051b8501011115610e5e57600080fd5b9250929050565b80356001600160a01b0381168114610e7c57600080fd5b919050565b634e487b7160e01b600052604160045260246000fd5b600082601f830112610ea857600080fd5b813567ffffffffffffffff80821115610ec357610ec3610e81565b604051601f8301601f19908116603f01168101908282118183101715610eeb57610eeb610e81565b81604052838152866020858801011115610f0457600080fd5b836020870160208301376000602085830101528094505050505092915050565b600080600080600080600060c0888a031215610f3f57600080fd5b873567ffffffffffffffff80821115610f5757600080fd5b610f638b838c01610e19565b909950975060208a01359650879150610f7e60408b01610e65565b9550610f8c60608b01610e65565b945060808a0135935060a08a0135915080821115610fa957600080fd5b50610fb68a828b01610e97565b91505092959891949750929550565b600060208284031215610fd757600080fd5b5035919050565b60008060408385031215610ff157600080fd5b8235915061100160208401610e65565b90509250929050565b60008060008060006080868803121561102257600080fd5b853567ffffffffffffffff81111561103957600080fd5b61104588828901610e19565b9096509450506020860135925061105e60408701610e65565b915061106c60608701610e65565b90509295509295909350565b6000806040838503121561108b57600080fd5b61109483610e65565b915061100160208401610e65565b600080604083850312156110b557600080fd5b82359150602083013567ffffffffffffffff8111156110d357600080fd5b6110df85828601610e97565b9150509250929050565b6000602082840312156110fb57600080fd5b813567ffffffffffffffff81111561111257600080fd5b61111e84828501610e97565b949350505050565b60008060008060006080868803121561113e57600080fd5b61114786610e65565b945061115560208701610e65565b9350604086013567ffffffffffffffff8082111561117257600080fd5b818801915088601f83011261118657600080fd5b81358181111561119557600080fd5b8960208285010111156111a757600080fd5b96999598505060200195606001359392505050565b6000806000606084860312156111d157600080fd5b6111da84610e65565b92506111e860208501610e65565b9150604084013590509250925092565b60006001600160fb1b0387111561120e57600080fd5b8660051b8089843791909101948552506bffffffffffffffffffffffff19606093841b811660208601529190921b166034830152604882015260680192915050565b634e487b7160e01b600052601160045260246000fd5b8082018082111561034857610348611250565b8181038181111561034857610348611250565b634e487b7160e01b600052603260045260246000fd5b634e487b7160e01b600052603160045260246000fd5b60005b838110156112d35781810151838201526020016112bb565b50506000910152565b60006bffffffffffffffffffffffff19808860601b168352808760601b166014840152808660601b16602884015250835161131e81603c8501602088016112b8565b603c920191820192909252605c0195945050505050565b7f416363657373436f6e74726f6c3a206163636f756e742000000000000000000081526000835161136d8160178501602088016112b8565b7001034b99036b4b9b9b4b733903937b6329607d1b601791840191820152835161139e8160288401602088016112b8565b01602801949350505050565b60208152600082518060208401526113c98160408501602087016112b8565b601f01601f19169190910160400192915050565b808202811582820484141761034857610348611250565b60008161140357611403611250565b50600019019056fe417070726f76656443616c6c73576974685369676e6174757265506f6c696379a26469706673582212206b84092eec47f5c05e11bf19877f5f9f7b1fa81f6354b86bda7e0853f04de1a164736f6c63430008110033","opcodes":"PUSH1 0x80 PUSH1 0x40 MSTORE CALLVALUE DUP1 ISZERO PUSH2 0x10 JUMPI PUSH1 0x0 DUP1 REVERT JUMPDEST POP PUSH2 0x1C PUSH1 0x0 CALLER PUSH2 0x21 JUMP JUMPDEST PUSH2 0xCD JUMP JUMPDEST PUSH2 0x2B DUP3 DUP3 PUSH2 0x2F JUMP JUMPDEST POP POP JUMP JUMPDEST PUSH1 0x0 DUP3 DUP2 MSTORE PUSH1 0x20 DUP2 DUP2 MSTORE PUSH1 0x40 DUP1 DUP4 KECCAK256 PUSH1 0x1 PUSH1 0x1 PUSH1 0xA0 SHL SUB DUP6 AND DUP5 MSTORE SWAP1 SWAP2 MSTORE SWAP1 KECCAK256 SLOAD PUSH1 0xFF AND PUSH2 0x2B JUMPI PUSH1 0x0 DUP3 DUP2 MSTORE PUSH1 0x20 DUP2 DUP2 MSTORE PUSH1 0x40 DUP1 DUP4 KECCAK256 PUSH1 0x1 PUSH1 0x1 PUSH1 0xA0 SHL SUB DUP6 AND DUP5 MSTORE SWAP1 SWAP2 MSTORE SWAP1 KECCAK256 DUP1 SLOAD PUSH1 0xFF NOT AND PUSH1 0x1 OR SWAP1 SSTORE PUSH2 0x89 CALLER SWAP1 JUMP JUMPDEST PUSH1 0x1 PUSH1 0x1 PUSH1 0xA0 SHL SUB AND DUP2 PUSH1 0x1 PUSH1 0x1 PUSH1 0xA0 SHL SUB AND DUP4 PUSH32 0x2F8788117E7EFF1D82E926EC794901D17C78024A50270940304540A733656F0D PUSH1 0x40 MLOAD PUSH1 0x40 MLOAD DUP1 SWAP2 SUB SWAP1 LOG4 POP POP JUMP JUMPDEST PUSH2 0x1461 DUP1 PUSH2 0xDC PUSH1 0x0 CODECOPY PUSH1 0x0 RETURN INVALID PUSH1 0x80 PUSH1 0x40 MSTORE CALLVALUE DUP1 ISZERO PUSH2 0x10 JUMPI PUSH1 0x0 DUP1 REVERT JUMPDEST POP PUSH1 0x4 CALLDATASIZE LT PUSH2 0x116 JUMPI PUSH1 0x0 CALLDATALOAD PUSH1 0xE0 SHR DUP1 PUSH4 0xA1EBF35D GT PUSH2 0xA2 JUMPI DUP1 PUSH4 0xD17810B3 GT PUSH2 0x71 JUMPI DUP1 PUSH4 0xD17810B3 EQ PUSH2 0x2A0 JUMPI DUP1 PUSH4 0xD547741F EQ PUSH2 0x2CB JUMPI DUP1 PUSH4 0xD9739CDA EQ PUSH2 0x2DE JUMPI DUP1 PUSH4 0xF80BBE8E EQ PUSH2 0x2F1 JUMPI DUP1 PUSH4 0xFA540801 EQ PUSH2 0x304 JUMPI PUSH1 0x0 DUP1 REVERT JUMPDEST DUP1 PUSH4 0xA1EBF35D EQ PUSH2 0x22B JUMPI DUP1 PUSH4 0xA217FDDF EQ PUSH2 0x252 JUMPI DUP1 PUSH4 0xA7BB5803 EQ PUSH2 0x25A JUMPI DUP1 PUSH4 0xC6D4328B EQ PUSH2 0x28B JUMPI PUSH1 0x0 DUP1 REVERT JUMPDEST DUP1 PUSH4 0x36568ABE GT PUSH2 0xE9 JUMPI DUP1 PUSH4 0x36568ABE EQ PUSH2 0x19C JUMPI DUP1 PUSH4 0x75D8B80C EQ PUSH2 0x1AF JUMPI DUP1 PUSH4 0x91D14854 EQ PUSH2 0x1C2 JUMPI DUP1 PUSH4 0x9333FBDA EQ PUSH2 0x1D5 JUMPI DUP1 PUSH4 0x97ABA7F9 EQ PUSH2 0x200 JUMPI PUSH1 0x0 DUP1 REVERT JUMPDEST DUP1 PUSH4 0x1FFC9A7 EQ PUSH2 0x11B JUMPI DUP1 PUSH4 0x1EC0667B EQ PUSH2 0x143 JUMPI DUP1 PUSH4 0x248A9CA3 EQ PUSH2 0x158 JUMPI DUP1 PUSH4 0x2F2FF15D EQ PUSH2 0x189 JUMPI JUMPDEST PUSH1 0x0 DUP1 REVERT JUMPDEST PUSH2 0x12E PUSH2 0x129 CALLDATASIZE PUSH1 0x4 PUSH2 0xDEF JUMP JUMPDEST PUSH2 0x317 JUMP JUMPDEST PUSH1 0x40 MLOAD SWAP1 ISZERO ISZERO DUP2 MSTORE PUSH1 0x20 ADD JUMPDEST PUSH1 0x40 MLOAD DUP1 SWAP2 SUB SWAP1 RETURN JUMPDEST PUSH2 0x156 PUSH2 0x151 CALLDATASIZE PUSH1 0x4 PUSH2 0xF24 JUMP JUMPDEST PUSH2 0x34E JUMP JUMPDEST STOP JUMPDEST PUSH2 0x17B PUSH2 0x166 CALLDATASIZE PUSH1 0x4 PUSH2 0xFC5 JUMP JUMPDEST PUSH1 0x0 SWAP1 DUP2 MSTORE PUSH1 0x20 DUP2 SWAP1 MSTORE PUSH1 0x40 SWAP1 KECCAK256 PUSH1 0x1 ADD SLOAD SWAP1 JUMP JUMPDEST PUSH1 0x40 MLOAD SWAP1 DUP2 MSTORE PUSH1 0x20 ADD PUSH2 0x13A JUMP JUMPDEST PUSH2 0x156 PUSH2 0x197 CALLDATASIZE PUSH1 0x4 PUSH2 0xFDE JUMP JUMPDEST PUSH2 0x536 JUMP JUMPDEST PUSH2 0x156 PUSH2 0x1AA CALLDATASIZE PUSH1 0x4 PUSH2 0xFDE JUMP JUMPDEST PUSH2 0x560 JUMP JUMPDEST PUSH2 0x156 PUSH2 0x1BD CALLDATASIZE PUSH1 0x4 PUSH2 0x100A JUMP JUMPDEST PUSH2 0x5DE JUMP JUMPDEST PUSH2 0x12E PUSH2 0x1D0 CALLDATASIZE PUSH1 0x4 PUSH2 0xFDE JUMP JUMPDEST PUSH2 0x666 JUMP JUMPDEST PUSH2 0x17B PUSH2 0x1E3 CALLDATASIZE PUSH1 0x4 PUSH2 0x1078 JUMP JUMPDEST PUSH1 0x3 PUSH1 0x20 SWAP1 DUP2 MSTORE PUSH1 0x0 SWAP3 DUP4 MSTORE PUSH1 0x40 DUP1 DUP5 KECCAK256 SWAP1 SWAP2 MSTORE SWAP1 DUP3 MSTORE SWAP1 KECCAK256 SLOAD DUP2 JUMP JUMPDEST PUSH2 0x213 PUSH2 0x20E CALLDATASIZE PUSH1 0x4 PUSH2 0x10A2 JUMP JUMPDEST PUSH2 0x68F JUMP JUMPDEST PUSH1 0x40 MLOAD PUSH1 0x1 PUSH1 0x1 PUSH1 0xA0 SHL SUB SWAP1 SWAP2 AND DUP2 MSTORE PUSH1 0x20 ADD PUSH2 0x13A JUMP JUMPDEST PUSH2 0x17B PUSH32 0xE2F4EAAE4A9751E85A3E4A7B9587827A877F29914755229B07A7B2DA98285F70 DUP2 JUMP JUMPDEST PUSH2 0x17B PUSH1 0x0 DUP2 JUMP JUMPDEST PUSH2 0x26D PUSH2 0x268 CALLDATASIZE PUSH1 0x4 PUSH2 0x10E9 JUMP JUMPDEST PUSH2 0x70E JUMP JUMPDEST PUSH1 0x40 DUP1 MLOAD SWAP4 DUP5 MSTORE PUSH1 0x20 DUP5 ADD SWAP3 SWAP1 SWAP3 MSTORE PUSH1 0xFF AND SWAP1 DUP3 ADD MSTORE PUSH1 0x60 ADD PUSH2 0x13A JUMP JUMPDEST PUSH2 0x156 PUSH2 0x299 CALLDATASIZE PUSH1 0x4 PUSH2 0x1126 JUMP JUMPDEST POP POP POP POP POP JUMP JUMPDEST PUSH2 0x17B PUSH2 0x2AE CALLDATASIZE PUSH1 0x4 PUSH2 0x1078 JUMP JUMPDEST PUSH1 0x2 PUSH1 0x20 SWAP1 DUP2 MSTORE PUSH1 0x0 SWAP3 DUP4 MSTORE PUSH1 0x40 DUP1 DUP5 KECCAK256 SWAP1 SWAP2 MSTORE SWAP1 DUP3 MSTORE SWAP1 KECCAK256 SLOAD DUP2 JUMP JUMPDEST PUSH2 0x156 PUSH2 0x2D9 CALLDATASIZE PUSH1 0x4 PUSH2 0xFDE JUMP JUMPDEST PUSH2 0x782 JUMP JUMPDEST PUSH2 0x156 PUSH2 0x2EC CALLDATASIZE PUSH1 0x4 PUSH2 0x1126 JUMP JUMPDEST PUSH2 0x7A7 JUMP JUMPDEST PUSH2 0x17B PUSH2 0x2FF CALLDATASIZE PUSH1 0x4 PUSH2 0x11BC JUMP JUMPDEST PUSH2 0x9BE JUMP JUMPDEST PUSH2 0x17B PUSH2 0x312 CALLDATASIZE PUSH1 0x4 PUSH2 0xFC5 JUMP JUMPDEST PUSH2 0x9FC JUMP JUMPDEST PUSH1 0x0 PUSH1 0x1 PUSH1 0x1 PUSH1 0xE0 SHL SUB NOT DUP3 AND PUSH4 0x7965DB0B PUSH1 0xE0 SHL EQ DUP1 PUSH2 0x348 JUMPI POP PUSH4 0x1FFC9A7 PUSH1 0xE0 SHL PUSH1 0x1 PUSH1 0x1 PUSH1 0xE0 SHL SUB NOT DUP4 AND EQ JUMPDEST SWAP3 SWAP2 POP POP JUMP JUMPDEST PUSH1 0x1 PUSH1 0x1 PUSH1 0xA0 SHL SUB DUP1 DUP6 AND PUSH1 0x0 SWAP1 DUP2 MSTORE PUSH1 0x3 PUSH1 0x20 SWAP1 DUP2 MSTORE PUSH1 0x40 DUP1 DUP4 KECCAK256 SWAP4 DUP8 AND DUP4 MSTORE SWAP3 SWAP1 MSTORE KECCAK256 SLOAD DUP3 EQ PUSH2 0x3CD JUMPI PUSH1 0x40 MLOAD PUSH3 0x461BCD PUSH1 0xE5 SHL DUP2 MSTORE PUSH1 0x20 PUSH1 0x4 DUP3 ADD MSTORE PUSH1 0x2F PUSH1 0x24 DUP3 ADD MSTORE PUSH1 0x0 DUP1 MLOAD PUSH1 0x20 PUSH2 0x140C DUP4 CODECOPY DUP2 MLOAD SWAP2 MSTORE PUSH1 0x44 DUP3 ADD MSTORE PUSH15 0x3A20696E76616C6964206E6F6E6365 PUSH1 0x88 SHL PUSH1 0x64 DUP3 ADD MSTORE PUSH1 0x84 ADD JUMPDEST PUSH1 0x40 MLOAD DUP1 SWAP2 SUB SWAP1 REVERT JUMPDEST PUSH1 0x0 DUP8 DUP8 DUP8 DUP8 DUP8 DUP8 PUSH1 0x40 MLOAD PUSH1 0x20 ADD PUSH2 0x3EA SWAP7 SWAP6 SWAP5 SWAP4 SWAP3 SWAP2 SWAP1 PUSH2 0x11F8 JUMP JUMPDEST PUSH1 0x40 MLOAD PUSH1 0x20 DUP2 DUP4 SUB SUB DUP2 MSTORE SWAP1 PUSH1 0x40 MSTORE DUP1 MLOAD SWAP1 PUSH1 0x20 ADD KECCAK256 SWAP1 POP PUSH1 0x0 PUSH2 0x40D DUP3 PUSH2 0x9FC JUMP JUMPDEST SWAP1 POP PUSH1 0x0 PUSH2 0x41B DUP3 DUP6 PUSH2 0x68F JUMP JUMPDEST SWAP1 POP PUSH2 0x447 PUSH32 0xE2F4EAAE4A9751E85A3E4A7B9587827A877F29914755229B07A7B2DA98285F70 DUP3 PUSH2 0x666 JUMP JUMPDEST PUSH2 0x49A JUMPI PUSH1 0x40 MLOAD PUSH3 0x461BCD PUSH1 0xE5 SHL DUP2 MSTORE PUSH1 0x20 PUSH1 0x4 DUP3 ADD MSTORE PUSH1 0x30 PUSH1 0x24 DUP3 ADD MSTORE PUSH1 0x0 DUP1 MLOAD PUSH1 0x20 PUSH2 0x140C DUP4 CODECOPY DUP2 MLOAD SWAP2 MSTORE PUSH1 0x44 DUP3 ADD MSTORE PUSH16 0x1D1034B73B30B634B21039B4B3B732B9 PUSH1 0x81 SHL PUSH1 0x64 DUP3 ADD MSTORE PUSH1 0x84 ADD PUSH2 0x3C4 JUMP JUMPDEST PUSH1 0x1 PUSH1 0x1 PUSH1 0xA0 SHL SUB DUP1 DUP9 AND PUSH1 0x0 SWAP1 DUP2 MSTORE PUSH1 0x1 PUSH1 0x20 SWAP1 DUP2 MSTORE PUSH1 0x40 DUP1 DUP4 KECCAK256 SWAP4 DUP11 AND DUP4 MSTORE SWAP3 SWAP1 MSTORE KECCAK256 PUSH2 0x4CA SWAP1 DUP12 DUP12 PUSH2 0xD8F JUMP JUMPDEST POP PUSH1 0x1 PUSH1 0x1 PUSH1 0xA0 SHL SUB DUP1 DUP9 AND PUSH1 0x0 SWAP1 DUP2 MSTORE PUSH1 0x2 PUSH1 0x20 SWAP1 DUP2 MSTORE PUSH1 0x40 DUP1 DUP4 KECCAK256 SWAP4 DUP11 AND DUP4 MSTORE SWAP3 SWAP1 MSTORE KECCAK256 DUP9 SWAP1 SSTORE PUSH2 0x4FE DUP6 PUSH1 0x1 PUSH2 0x1266 JUMP JUMPDEST PUSH1 0x1 PUSH1 0x1 PUSH1 0xA0 SHL SUB SWAP8 DUP9 AND PUSH1 0x0 SWAP1 DUP2 MSTORE PUSH1 0x3 PUSH1 0x20 SWAP1 DUP2 MSTORE PUSH1 0x40 DUP1 DUP4 KECCAK256 SWAP10 SWAP1 SWAP11 AND DUP3 MSTORE SWAP8 SWAP1 SWAP8 MSTORE SWAP7 SWAP1 SWAP6 KECCAK256 SWAP6 SWAP1 SWAP6 SSTORE POP POP POP POP POP POP POP POP JUMP JUMPDEST PUSH1 0x0 DUP3 DUP2 MSTORE PUSH1 0x20 DUP2 SWAP1 MSTORE PUSH1 0x40 SWAP1 KECCAK256 PUSH1 0x1 ADD SLOAD PUSH2 0x551 DUP2 PUSH2 0xA4F JUMP JUMPDEST PUSH2 0x55B DUP4 DUP4 PUSH2 0xA5C JUMP JUMPDEST POP POP POP JUMP JUMPDEST PUSH1 0x1 PUSH1 0x1 PUSH1 0xA0 SHL SUB DUP2 AND CALLER EQ PUSH2 0x5D0 JUMPI PUSH1 0x40 MLOAD PUSH3 0x461BCD PUSH1 0xE5 SHL DUP2 MSTORE PUSH1 0x20 PUSH1 0x4 DUP3 ADD MSTORE PUSH1 0x2F PUSH1 0x24 DUP3 ADD MSTORE PUSH32 0x416363657373436F6E74726F6C3A2063616E206F6E6C792072656E6F756E6365 PUSH1 0x44 DUP3 ADD MSTORE PUSH15 0x103937B632B9903337B91039B2B633 PUSH1 0x89 SHL PUSH1 0x64 DUP3 ADD MSTORE PUSH1 0x84 ADD PUSH2 0x3C4 JUMP JUMPDEST PUSH2 0x5DA DUP3 DUP3 PUSH2 0xAE0 JUMP JUMPDEST POP POP JUMP JUMPDEST PUSH32 0xE2F4EAAE4A9751E85A3E4A7B9587827A877F29914755229B07A7B2DA98285F70 PUSH2 0x608 DUP2 PUSH2 0xA4F JUMP JUMPDEST PUSH1 0x1 PUSH1 0x1 PUSH1 0xA0 SHL SUB DUP1 DUP5 AND PUSH1 0x0 SWAP1 DUP2 MSTORE PUSH1 0x1 PUSH1 0x20 SWAP1 DUP2 MSTORE PUSH1 0x40 DUP1 DUP4 KECCAK256 SWAP4 DUP7 AND DUP4 MSTORE SWAP3 SWAP1 MSTORE KECCAK256 PUSH2 0x638 SWAP1 DUP8 DUP8 PUSH2 0xD8F JUMP JUMPDEST POP POP PUSH1 0x1 PUSH1 0x1 PUSH1 0xA0 SHL SUB SWAP2 DUP3 AND PUSH1 0x0 SWAP1 DUP2 MSTORE PUSH1 0x2 PUSH1 0x20 SWAP1 DUP2 MSTORE PUSH1 0x40 DUP1 DUP4 KECCAK256 SWAP4 SWAP1 SWAP5 AND DUP3 MSTORE SWAP2 SWAP1 SWAP2 MSTORE KECCAK256 SSTORE POP POP JUMP JUMPDEST PUSH1 0x0 SWAP2 DUP3 MSTORE PUSH1 0x20 DUP3 DUP2 MSTORE PUSH1 0x40 DUP1 DUP5 KECCAK256 PUSH1 0x1 PUSH1 0x1 PUSH1 0xA0 SHL SUB SWAP4 SWAP1 SWAP4 AND DUP5 MSTORE SWAP2 SWAP1 MSTORE SWAP1 KECCAK256 SLOAD PUSH1 0xFF AND SWAP1 JUMP JUMPDEST PUSH1 0x0 DUP1 PUSH1 0x0 DUP1 PUSH2 0x69E DUP6 PUSH2 0x70E JUMP JUMPDEST PUSH1 0x40 DUP1 MLOAD PUSH1 0x0 DUP2 MSTORE PUSH1 0x20 DUP2 ADD DUP1 DUP4 MSTORE DUP12 SWAP1 MSTORE PUSH1 0xFF DUP4 AND SWAP2 DUP2 ADD SWAP2 SWAP1 SWAP2 MSTORE PUSH1 0x60 DUP2 ADD DUP5 SWAP1 MSTORE PUSH1 0x80 DUP2 ADD DUP4 SWAP1 MSTORE SWAP3 SWAP6 POP SWAP1 SWAP4 POP SWAP2 POP PUSH1 0x1 SWAP1 PUSH1 0xA0 ADD PUSH1 0x20 PUSH1 0x40 MLOAD PUSH1 0x20 DUP2 SUB SWAP1 DUP1 DUP5 SUB SWAP1 DUP6 GAS STATICCALL ISZERO DUP1 ISZERO PUSH2 0x6F9 JUMPI RETURNDATASIZE PUSH1 0x0 DUP1 RETURNDATACOPY RETURNDATASIZE PUSH1 0x0 REVERT JUMPDEST POP POP PUSH1 0x40 MLOAD PUSH1 0x1F NOT ADD MLOAD SWAP8 SWAP7 POP POP POP POP POP POP POP JUMP JUMPDEST PUSH1 0x0 DUP1 PUSH1 0x0 DUP4 MLOAD PUSH1 0x41 EQ PUSH2 0x764 JUMPI PUSH1 0x40 MLOAD PUSH3 0x461BCD PUSH1 0xE5 SHL DUP2 MSTORE PUSH1 0x20 PUSH1 0x4 DUP3 ADD MSTORE PUSH1 0x18 PUSH1 0x24 DUP3 ADD MSTORE PUSH32 0x696E76616C6964207369676E6174757265206C656E6774680000000000000000 PUSH1 0x44 DUP3 ADD MSTORE PUSH1 0x64 ADD PUSH2 0x3C4 JUMP JUMPDEST POP POP POP PUSH1 0x20 DUP2 ADD MLOAD PUSH1 0x40 DUP3 ADD MLOAD PUSH1 0x60 SWAP1 SWAP3 ADD MLOAD SWAP1 SWAP3 PUSH1 0x0 SWAP2 SWAP1 SWAP2 BYTE SWAP1 JUMP JUMPDEST PUSH1 0x0 DUP3 DUP2 MSTORE PUSH1 0x20 DUP2 SWAP1 MSTORE PUSH1 0x40 SWAP1 KECCAK256 PUSH1 0x1 ADD SLOAD PUSH2 0x79D DUP2 PUSH2 0xA4F JUMP JUMPDEST PUSH2 0x55B DUP4 DUP4 PUSH2 0xAE0 JUMP JUMPDEST PUSH32 0x5240AFA92511149D1EA75355DD533487007D2505FA7BFDCEAB11878262A081B6 SLOAD PUSH2 0x299 JUMPI ORIGIN PUSH1 0x0 SWAP1 DUP2 MSTORE PUSH1 0x1 PUSH1 0x20 SWAP1 DUP2 MSTORE PUSH1 0x40 DUP1 DUP4 KECCAK256 PUSH1 0x1 PUSH1 0x1 PUSH1 0xA0 SHL SUB DUP9 AND DUP5 MSTORE SWAP1 SWAP2 MSTORE SWAP1 KECCAK256 DUP1 SLOAD PUSH2 0x848 JUMPI PUSH1 0x40 MLOAD PUSH3 0x461BCD PUSH1 0xE5 SHL DUP2 MSTORE PUSH1 0x20 PUSH1 0x4 DUP3 ADD MSTORE PUSH1 0x33 PUSH1 0x24 DUP3 ADD MSTORE PUSH1 0x0 DUP1 MLOAD PUSH1 0x20 PUSH2 0x140C DUP4 CODECOPY DUP2 MLOAD SWAP2 MSTORE PUSH1 0x44 DUP3 ADD MSTORE PUSH19 0x3A2063616C6C2068617368657320656D707479 PUSH1 0x68 SHL PUSH1 0x64 DUP3 ADD MSTORE PUSH1 0x84 ADD PUSH2 0x3C4 JUMP JUMPDEST ORIGIN PUSH1 0x0 SWAP1 DUP2 MSTORE PUSH1 0x2 PUSH1 0x20 SWAP1 DUP2 MSTORE PUSH1 0x40 DUP1 DUP4 KECCAK256 PUSH1 0x1 PUSH1 0x1 PUSH1 0xA0 SHL SUB DUP10 AND DUP5 MSTORE SWAP1 SWAP2 MSTORE SWAP1 KECCAK256 SLOAD TIMESTAMP DUP2 GT PUSH2 0x8BB JUMPI PUSH1 0x40 MLOAD PUSH3 0x461BCD PUSH1 0xE5 SHL DUP2 MSTORE PUSH1 0x20 PUSH1 0x4 DUP3 ADD MSTORE PUSH1 0x29 PUSH1 0x24 DUP3 ADD MSTORE PUSH1 0x0 DUP1 MLOAD PUSH1 0x20 PUSH2 0x140C DUP4 CODECOPY DUP2 MLOAD SWAP2 MSTORE PUSH1 0x44 DUP3 ADD MSTORE PUSH9 0xE88195E1C1A5C9959 PUSH1 0xBA SHL PUSH1 0x64 DUP3 ADD MSTORE PUSH1 0x84 ADD PUSH2 0x3C4 JUMP JUMPDEST PUSH1 0x0 PUSH2 0x901 DUP9 DUP9 ORIGIN DUP10 DUP10 DUP1 DUP1 PUSH1 0x1F ADD PUSH1 0x20 DUP1 SWAP2 DIV MUL PUSH1 0x20 ADD PUSH1 0x40 MLOAD SWAP1 DUP2 ADD PUSH1 0x40 MSTORE DUP1 SWAP4 SWAP3 SWAP2 SWAP1 DUP2 DUP2 MSTORE PUSH1 0x20 ADD DUP4 DUP4 DUP1 DUP3 DUP5 CALLDATACOPY PUSH1 0x0 SWAP3 ADD SWAP2 SWAP1 SWAP2 MSTORE POP DUP12 SWAP3 POP PUSH2 0xB45 SWAP2 POP POP JUMP JUMPDEST SWAP1 POP PUSH1 0x0 DUP4 PUSH1 0x1 DUP6 DUP1 SLOAD SWAP1 POP PUSH2 0x917 SWAP2 SWAP1 PUSH2 0x1279 JUMP JUMPDEST DUP2 SLOAD DUP2 LT PUSH2 0x927 JUMPI PUSH2 0x927 PUSH2 0x128C JUMP JUMPDEST SWAP1 PUSH1 0x0 MSTORE PUSH1 0x20 PUSH1 0x0 KECCAK256 ADD SLOAD SWAP1 POP DUP1 DUP3 EQ PUSH2 0x98D JUMPI PUSH1 0x40 MLOAD PUSH3 0x461BCD PUSH1 0xE5 SHL DUP2 MSTORE PUSH1 0x20 PUSH1 0x4 DUP3 ADD MSTORE PUSH1 0x33 PUSH1 0x24 DUP3 ADD MSTORE PUSH1 0x0 DUP1 MLOAD PUSH1 0x20 PUSH2 0x140C DUP4 CODECOPY DUP2 MLOAD SWAP2 MSTORE PUSH1 0x44 DUP3 ADD MSTORE PUSH19 0x7440D2DCECC2D8D2C840C6C2D8D840D0C2E6D PUSH1 0x6B SHL PUSH1 0x64 DUP3 ADD MSTORE PUSH1 0x84 ADD PUSH2 0x3C4 JUMP JUMPDEST DUP4 DUP1 SLOAD DUP1 PUSH2 0x99D JUMPI PUSH2 0x99D PUSH2 0x12A2 JUMP JUMPDEST PUSH1 0x1 SWAP1 SUB DUP2 DUP2 SWAP1 PUSH1 0x0 MSTORE PUSH1 0x20 PUSH1 0x0 KECCAK256 ADD PUSH1 0x0 SWAP1 SSTORE SWAP1 SSTORE POP POP POP POP POP POP POP POP POP JUMP JUMPDEST PUSH1 0x1 PUSH1 0x20 MSTORE DUP3 PUSH1 0x0 MSTORE PUSH1 0x40 PUSH1 0x0 KECCAK256 PUSH1 0x20 MSTORE DUP2 PUSH1 0x0 MSTORE PUSH1 0x40 PUSH1 0x0 KECCAK256 DUP2 DUP2 SLOAD DUP2 LT PUSH2 0x9E6 JUMPI PUSH1 0x0 DUP1 REVERT JUMPDEST SWAP1 PUSH1 0x0 MSTORE PUSH1 0x20 PUSH1 0x0 KECCAK256 ADD PUSH1 0x0 SWAP3 POP SWAP3 POP POP POP SLOAD DUP2 JUMP JUMPDEST PUSH1 0x40 MLOAD PUSH32 0x19457468657265756D205369676E6564204D6573736167653A0A333200000000 PUSH1 0x20 DUP3 ADD MSTORE PUSH1 0x3C DUP2 ADD DUP3 SWAP1 MSTORE PUSH1 0x0 SWAP1 PUSH1 0x5C ADD PUSH1 0x40 MLOAD PUSH1 0x20 DUP2 DUP4 SUB SUB DUP2 MSTORE SWAP1 PUSH1 0x40 MSTORE DUP1 MLOAD SWAP1 PUSH1 0x20 ADD KECCAK256 SWAP1 POP SWAP2 SWAP1 POP JUMP JUMPDEST PUSH2 0xA59 DUP2 CALLER PUSH2 0xB81 JUMP JUMPDEST POP JUMP JUMPDEST PUSH2 0xA66 DUP3 DUP3 PUSH2 0x666 JUMP JUMPDEST PUSH2 0x5DA JUMPI PUSH1 0x0 DUP3 DUP2 MSTORE PUSH1 0x20 DUP2 DUP2 MSTORE PUSH1 0x40 DUP1 DUP4 KECCAK256 PUSH1 0x1 PUSH1 0x1 PUSH1 0xA0 SHL SUB DUP6 AND DUP5 MSTORE SWAP1 SWAP2 MSTORE SWAP1 KECCAK256 DUP1 SLOAD PUSH1 0xFF NOT AND PUSH1 0x1 OR SWAP1 SSTORE PUSH2 0xA9C CALLER SWAP1 JUMP JUMPDEST PUSH1 0x1 PUSH1 0x1 PUSH1 0xA0 SHL SUB AND DUP2 PUSH1 0x1 PUSH1 0x1 PUSH1 0xA0 SHL SUB AND DUP4 PUSH32 0x2F8788117E7EFF1D82E926EC794901D17C78024A50270940304540A733656F0D PUSH1 0x40 MLOAD PUSH1 0x40 MLOAD DUP1 SWAP2 SUB SWAP1 LOG4 POP POP JUMP JUMPDEST PUSH2 0xAEA DUP3 DUP3 PUSH2 0x666 JUMP JUMPDEST ISZERO PUSH2 0x5DA JUMPI PUSH1 0x0 DUP3 DUP2 MSTORE PUSH1 0x20 DUP2 DUP2 MSTORE PUSH1 0x40 DUP1 DUP4 KECCAK256 PUSH1 0x1 PUSH1 0x1 PUSH1 0xA0 SHL SUB DUP6 AND DUP1 DUP6 MSTORE SWAP3 MSTORE DUP1 DUP4 KECCAK256 DUP1 SLOAD PUSH1 0xFF NOT AND SWAP1 SSTORE MLOAD CALLER SWAP3 DUP6 SWAP2 PUSH32 0xF6391F5C32D9C69D2A47EA670B442974B53935D1EDC7FD64EB21E047A839171B SWAP2 SWAP1 LOG4 POP POP JUMP JUMPDEST PUSH1 0x0 DUP6 DUP6 DUP6 DUP6 DUP6 PUSH1 0x40 MLOAD PUSH1 0x20 ADD PUSH2 0xB60 SWAP6 SWAP5 SWAP4 SWAP3 SWAP2 SWAP1 PUSH2 0x12DC JUMP JUMPDEST PUSH1 0x40 MLOAD PUSH1 0x20 DUP2 DUP4 SUB SUB DUP2 MSTORE SWAP1 PUSH1 0x40 MSTORE DUP1 MLOAD SWAP1 PUSH1 0x20 ADD KECCAK256 SWAP1 POP SWAP6 SWAP5 POP POP POP POP POP JUMP JUMPDEST PUSH2 0xB8B DUP3 DUP3 PUSH2 0x666 JUMP JUMPDEST PUSH2 0x5DA JUMPI PUSH2 0xB98 DUP2 PUSH2 0xBDA JUMP JUMPDEST PUSH2 0xBA3 DUP4 PUSH1 0x20 PUSH2 0xBEC JUMP JUMPDEST PUSH1 0x40 MLOAD PUSH1 0x20 ADD PUSH2 0xBB4 SWAP3 SWAP2 SWAP1 PUSH2 0x1335 JUMP JUMPDEST PUSH1 0x40 DUP1 MLOAD PUSH1 0x1F NOT DUP2 DUP5 SUB ADD DUP2 MSTORE SWAP1 DUP3 SWAP1 MSTORE PUSH3 0x461BCD PUSH1 0xE5 SHL DUP3 MSTORE PUSH2 0x3C4 SWAP2 PUSH1 0x4 ADD PUSH2 0x13AA JUMP JUMPDEST PUSH1 0x60 PUSH2 0x348 PUSH1 0x1 PUSH1 0x1 PUSH1 0xA0 SHL SUB DUP4 AND PUSH1 0x14 JUMPDEST PUSH1 0x60 PUSH1 0x0 PUSH2 0xBFB DUP4 PUSH1 0x2 PUSH2 0x13DD JUMP JUMPDEST PUSH2 0xC06 SWAP1 PUSH1 0x2 PUSH2 0x1266 JUMP JUMPDEST PUSH8 0xFFFFFFFFFFFFFFFF DUP2 GT ISZERO PUSH2 0xC1E JUMPI PUSH2 0xC1E PUSH2 0xE81 JUMP JUMPDEST PUSH1 0x40 MLOAD SWAP1 DUP1 DUP3 MSTORE DUP1 PUSH1 0x1F ADD PUSH1 0x1F NOT AND PUSH1 0x20 ADD DUP3 ADD PUSH1 0x40 MSTORE DUP1 ISZERO PUSH2 0xC48 JUMPI PUSH1 0x20 DUP3 ADD DUP2 DUP1 CALLDATASIZE DUP4 CALLDATACOPY ADD SWAP1 POP JUMPDEST POP SWAP1 POP PUSH1 0x3 PUSH1 0xFC SHL DUP2 PUSH1 0x0 DUP2 MLOAD DUP2 LT PUSH2 0xC63 JUMPI PUSH2 0xC63 PUSH2 0x128C JUMP JUMPDEST PUSH1 0x20 ADD ADD SWAP1 PUSH1 0x1 PUSH1 0x1 PUSH1 0xF8 SHL SUB NOT AND SWAP1 DUP2 PUSH1 0x0 BYTE SWAP1 MSTORE8 POP PUSH1 0xF PUSH1 0xFB SHL DUP2 PUSH1 0x1 DUP2 MLOAD DUP2 LT PUSH2 0xC92 JUMPI PUSH2 0xC92 PUSH2 0x128C JUMP JUMPDEST PUSH1 0x20 ADD ADD SWAP1 PUSH1 0x1 PUSH1 0x1 PUSH1 0xF8 SHL SUB NOT AND SWAP1 DUP2 PUSH1 0x0 BYTE SWAP1 MSTORE8 POP PUSH1 0x0 PUSH2 0xCB6 DUP5 PUSH1 0x2 PUSH2 0x13DD JUMP JUMPDEST PUSH2 0xCC1 SWAP1 PUSH1 0x1 PUSH2 0x1266 JUMP JUMPDEST SWAP1 POP JUMPDEST PUSH1 0x1 DUP2 GT ISZERO PUSH2 0xD39 JUMPI PUSH16 0x181899199A1A9B1B9C1CB0B131B232B3 PUSH1 0x81 SHL DUP6 PUSH1 0xF AND PUSH1 0x10 DUP2 LT PUSH2 0xCF5 JUMPI PUSH2 0xCF5 PUSH2 0x128C JUMP JUMPDEST BYTE PUSH1 0xF8 SHL DUP3 DUP3 DUP2 MLOAD DUP2 LT PUSH2 0xD0B JUMPI PUSH2 0xD0B PUSH2 0x128C JUMP JUMPDEST PUSH1 0x20 ADD ADD SWAP1 PUSH1 0x1 PUSH1 0x1 PUSH1 0xF8 SHL SUB NOT AND SWAP1 DUP2 PUSH1 0x0 BYTE SWAP1 MSTORE8 POP PUSH1 0x4 SWAP5 SWAP1 SWAP5 SHR SWAP4 PUSH2 0xD32 DUP2 PUSH2 0x13F4 JUMP JUMPDEST SWAP1 POP PUSH2 0xCC4 JUMP JUMPDEST POP DUP4 ISZERO PUSH2 0xD88 JUMPI PUSH1 0x40 MLOAD PUSH3 0x461BCD PUSH1 0xE5 SHL DUP2 MSTORE PUSH1 0x20 PUSH1 0x4 DUP3 ADD DUP2 SWAP1 MSTORE PUSH1 0x24 DUP3 ADD MSTORE PUSH32 0x537472696E67733A20686578206C656E67746820696E73756666696369656E74 PUSH1 0x44 DUP3 ADD MSTORE PUSH1 0x64 ADD PUSH2 0x3C4 JUMP JUMPDEST SWAP4 SWAP3 POP POP POP JUMP JUMPDEST DUP3 DUP1 SLOAD DUP3 DUP3 SSTORE SWAP1 PUSH1 0x0 MSTORE PUSH1 0x20 PUSH1 0x0 KECCAK256 SWAP1 DUP2 ADD SWAP3 DUP3 ISZERO PUSH2 0xDCA JUMPI SWAP2 PUSH1 0x20 MUL DUP3 ADD JUMPDEST DUP3 DUP2 GT ISZERO PUSH2 0xDCA JUMPI DUP3 CALLDATALOAD DUP3 SSTORE SWAP2 PUSH1 0x20 ADD SWAP2 SWAP1 PUSH1 0x1 ADD SWAP1 PUSH2 0xDAF JUMP JUMPDEST POP PUSH2 0xDD6 SWAP3 SWAP2 POP PUSH2 0xDDA JUMP JUMPDEST POP SWAP1 JUMP JUMPDEST JUMPDEST DUP1 DUP3 GT ISZERO PUSH2 0xDD6 JUMPI PUSH1 0x0 DUP2 SSTORE PUSH1 0x1 ADD PUSH2 0xDDB JUMP JUMPDEST PUSH1 0x0 PUSH1 0x20 DUP3 DUP5 SUB SLT ISZERO PUSH2 0xE01 JUMPI PUSH1 0x0 DUP1 REVERT JUMPDEST DUP2 CALLDATALOAD PUSH1 0x1 PUSH1 0x1 PUSH1 0xE0 SHL SUB NOT DUP2 AND DUP2 EQ PUSH2 0xD88 JUMPI PUSH1 0x0 DUP1 REVERT JUMPDEST PUSH1 0x0 DUP1 DUP4 PUSH1 0x1F DUP5 ADD SLT PUSH2 0xE2B JUMPI PUSH1 0x0 DUP1 REVERT JUMPDEST POP DUP2 CALLDATALOAD PUSH8 0xFFFFFFFFFFFFFFFF DUP2 GT ISZERO PUSH2 0xE43 JUMPI PUSH1 0x0 DUP1 REVERT JUMPDEST PUSH1 0x20 DUP4 ADD SWAP2 POP DUP4 PUSH1 0x20 DUP3 PUSH1 0x5 SHL DUP6 ADD ADD GT ISZERO PUSH2 0xE5E JUMPI PUSH1 0x0 DUP1 REVERT JUMPDEST SWAP3 POP SWAP3 SWAP1 POP JUMP JUMPDEST DUP1 CALLDATALOAD PUSH1 0x1 PUSH1 0x1 PUSH1 0xA0 SHL SUB DUP2 AND DUP2 EQ PUSH2 0xE7C JUMPI PUSH1 0x0 DUP1 REVERT JUMPDEST SWAP2 SWAP1 POP JUMP JUMPDEST PUSH4 0x4E487B71 PUSH1 0xE0 SHL PUSH1 0x0 MSTORE PUSH1 0x41 PUSH1 0x4 MSTORE PUSH1 0x24 PUSH1 0x0 REVERT JUMPDEST PUSH1 0x0 DUP3 PUSH1 0x1F DUP4 ADD SLT PUSH2 0xEA8 JUMPI PUSH1 0x0 DUP1 REVERT JUMPDEST DUP2 CALLDATALOAD PUSH8 0xFFFFFFFFFFFFFFFF DUP1 DUP3 GT ISZERO PUSH2 0xEC3 JUMPI PUSH2 0xEC3 PUSH2 0xE81 JUMP JUMPDEST PUSH1 0x40 MLOAD PUSH1 0x1F DUP4 ADD PUSH1 0x1F NOT SWAP1 DUP2 AND PUSH1 0x3F ADD AND DUP2 ADD SWAP1 DUP3 DUP3 GT DUP2 DUP4 LT OR ISZERO PUSH2 0xEEB JUMPI PUSH2 0xEEB PUSH2 0xE81 JUMP JUMPDEST DUP2 PUSH1 0x40 MSTORE DUP4 DUP2 MSTORE DUP7 PUSH1 0x20 DUP6 DUP9 ADD ADD GT ISZERO PUSH2 0xF04 JUMPI PUSH1 0x0 DUP1 REVERT JUMPDEST DUP4 PUSH1 0x20 DUP8 ADD PUSH1 0x20 DUP4 ADD CALLDATACOPY PUSH1 0x0 PUSH1 0x20 DUP6 DUP4 ADD ADD MSTORE DUP1 SWAP5 POP POP POP POP POP SWAP3 SWAP2 POP POP JUMP JUMPDEST PUSH1 0x0 DUP1 PUSH1 0x0 DUP1 PUSH1 0x0 DUP1 PUSH1 0x0 PUSH1 0xC0 DUP9 DUP11 SUB SLT ISZERO PUSH2 0xF3F JUMPI PUSH1 0x0 DUP1 REVERT JUMPDEST DUP8 CALLDATALOAD PUSH8 0xFFFFFFFFFFFFFFFF DUP1 DUP3 GT ISZERO PUSH2 0xF57 JUMPI PUSH1 0x0 DUP1 REVERT JUMPDEST PUSH2 0xF63 DUP12 DUP4 DUP13 ADD PUSH2 0xE19 JUMP JUMPDEST SWAP1 SWAP10 POP SWAP8 POP PUSH1 0x20 DUP11 ADD CALLDATALOAD SWAP7 POP DUP8 SWAP2 POP PUSH2 0xF7E PUSH1 0x40 DUP12 ADD PUSH2 0xE65 JUMP JUMPDEST SWAP6 POP PUSH2 0xF8C PUSH1 0x60 DUP12 ADD PUSH2 0xE65 JUMP JUMPDEST SWAP5 POP PUSH1 0x80 DUP11 ADD CALLDATALOAD SWAP4 POP PUSH1 0xA0 DUP11 ADD CALLDATALOAD SWAP2 POP DUP1 DUP3 GT ISZERO PUSH2 0xFA9 JUMPI PUSH1 0x0 DUP1 REVERT JUMPDEST POP PUSH2 0xFB6 DUP11 DUP3 DUP12 ADD PUSH2 0xE97 JUMP JUMPDEST SWAP2 POP POP SWAP3 SWAP6 SWAP9 SWAP2 SWAP5 SWAP8 POP SWAP3 SWAP6 POP JUMP JUMPDEST PUSH1 0x0 PUSH1 0x20 DUP3 DUP5 SUB SLT ISZERO PUSH2 0xFD7 JUMPI PUSH1 0x0 DUP1 REVERT JUMPDEST POP CALLDATALOAD SWAP2 SWAP1 POP JUMP JUMPDEST PUSH1 0x0 DUP1 PUSH1 0x40 DUP4 DUP6 SUB SLT ISZERO PUSH2 0xFF1 JUMPI PUSH1 0x0 DUP1 REVERT JUMPDEST DUP3 CALLDATALOAD SWAP2 POP PUSH2 0x1001 PUSH1 0x20 DUP5 ADD PUSH2 0xE65 JUMP JUMPDEST SWAP1 POP SWAP3 POP SWAP3 SWAP1 POP JUMP JUMPDEST PUSH1 0x0 DUP1 PUSH1 0x0 DUP1 PUSH1 0x0 PUSH1 0x80 DUP7 DUP9 SUB SLT ISZERO PUSH2 0x1022 JUMPI PUSH1 0x0 DUP1 REVERT JUMPDEST DUP6 CALLDATALOAD PUSH8 0xFFFFFFFFFFFFFFFF DUP2 GT ISZERO PUSH2 0x1039 JUMPI PUSH1 0x0 DUP1 REVERT JUMPDEST PUSH2 0x1045 DUP9 DUP3 DUP10 ADD PUSH2 0xE19 JUMP JUMPDEST SWAP1 SWAP7 POP SWAP5 POP POP PUSH1 0x20 DUP7 ADD CALLDATALOAD SWAP3 POP PUSH2 0x105E PUSH1 0x40 DUP8 ADD PUSH2 0xE65 JUMP JUMPDEST SWAP2 POP PUSH2 0x106C PUSH1 0x60 DUP8 ADD PUSH2 0xE65 JUMP JUMPDEST SWAP1 POP SWAP3 SWAP6 POP SWAP3 SWAP6 SWAP1 SWAP4 POP JUMP JUMPDEST PUSH1 0x0 DUP1 PUSH1 0x40 DUP4 DUP6 SUB SLT ISZERO PUSH2 0x108B JUMPI PUSH1 0x0 DUP1 REVERT JUMPDEST PUSH2 0x1094 DUP4 PUSH2 0xE65 JUMP JUMPDEST SWAP2 POP PUSH2 0x1001 PUSH1 0x20 DUP5 ADD PUSH2 0xE65 JUMP JUMPDEST PUSH1 0x0 DUP1 PUSH1 0x40 DUP4 DUP6 SUB SLT ISZERO PUSH2 0x10B5 JUMPI PUSH1 0x0 DUP1 REVERT JUMPDEST DUP3 CALLDATALOAD SWAP2 POP PUSH1 0x20 DUP4 ADD CALLDATALOAD PUSH8 0xFFFFFFFFFFFFFFFF DUP2 GT ISZERO PUSH2 0x10D3 JUMPI PUSH1 0x0 DUP1 REVERT JUMPDEST PUSH2 0x10DF DUP6 DUP3 DUP7 ADD PUSH2 0xE97 JUMP JUMPDEST SWAP2 POP POP SWAP3 POP SWAP3 SWAP1 POP JUMP JUMPDEST PUSH1 0x0 PUSH1 0x20 DUP3 DUP5 SUB SLT ISZERO PUSH2 0x10FB JUMPI PUSH1 0x0 DUP1 REVERT JUMPDEST DUP2 CALLDATALOAD PUSH8 0xFFFFFFFFFFFFFFFF DUP2 GT ISZERO PUSH2 0x1112 JUMPI PUSH1 0x0 DUP1 REVERT JUMPDEST PUSH2 0x111E DUP5 DUP3 DUP6 ADD PUSH2 0xE97 JUMP JUMPDEST SWAP5 SWAP4 POP POP POP POP JUMP JUMPDEST PUSH1 0x0 DUP1 PUSH1 0x0 DUP1 PUSH1 0x0 PUSH1 0x80 DUP7 DUP9 SUB SLT ISZERO PUSH2 0x113E JUMPI PUSH1 0x0 DUP1 REVERT JUMPDEST PUSH2 0x1147 DUP7 PUSH2 0xE65 JUMP JUMPDEST SWAP5 POP PUSH2 0x1155 PUSH1 0x20 DUP8 ADD PUSH2 0xE65 JUMP JUMPDEST SWAP4 POP PUSH1 0x40 DUP7 ADD CALLDATALOAD PUSH8 0xFFFFFFFFFFFFFFFF DUP1 DUP3 GT ISZERO PUSH2 0x1172 JUMPI PUSH1 0x0 DUP1 REVERT JUMPDEST DUP2 DUP9 ADD SWAP2 POP DUP9 PUSH1 0x1F DUP4 ADD SLT PUSH2 0x1186 JUMPI PUSH1 0x0 DUP1 REVERT JUMPDEST DUP2 CALLDATALOAD DUP2 DUP2 GT ISZERO PUSH2 0x1195 JUMPI PUSH1 0x0 DUP1 REVERT JUMPDEST DUP10 PUSH1 0x20 DUP3 DUP6 ADD ADD GT ISZERO PUSH2 0x11A7 JUMPI PUSH1 0x0 DUP1 REVERT JUMPDEST SWAP7 SWAP10 SWAP6 SWAP9 POP POP PUSH1 0x20 ADD SWAP6 PUSH1 0x60 ADD CALLDATALOAD SWAP4 SWAP3 POP POP POP JUMP JUMPDEST PUSH1 0x0 DUP1 PUSH1 0x0 PUSH1 0x60 DUP5 DUP7 SUB SLT ISZERO PUSH2 0x11D1 JUMPI PUSH1 0x0 DUP1 REVERT JUMPDEST PUSH2 0x11DA DUP5 PUSH2 0xE65 JUMP JUMPDEST SWAP3 POP PUSH2 0x11E8 PUSH1 0x20 DUP6 ADD PUSH2 0xE65 JUMP JUMPDEST SWAP2 POP PUSH1 0x40 DUP5 ADD CALLDATALOAD SWAP1 POP SWAP3 POP SWAP3 POP SWAP3 JUMP JUMPDEST PUSH1 0x0 PUSH1 0x1 PUSH1 0x1 PUSH1 0xFB SHL SUB DUP8 GT ISZERO PUSH2 0x120E JUMPI PUSH1 0x0 DUP1 REVERT JUMPDEST DUP7 PUSH1 0x5 SHL DUP1 DUP10 DUP5 CALLDATACOPY SWAP2 SWAP1 SWAP2 ADD SWAP5 DUP6 MSTORE POP PUSH12 0xFFFFFFFFFFFFFFFFFFFFFFFF NOT PUSH1 0x60 SWAP4 DUP5 SHL DUP2 AND PUSH1 0x20 DUP7 ADD MSTORE SWAP2 SWAP1 SWAP3 SHL AND PUSH1 0x34 DUP4 ADD MSTORE PUSH1 0x48 DUP3 ADD MSTORE PUSH1 0x68 ADD SWAP3 SWAP2 POP POP JUMP JUMPDEST PUSH4 0x4E487B71 PUSH1 0xE0 SHL PUSH1 0x0 MSTORE PUSH1 0x11 PUSH1 0x4 MSTORE PUSH1 0x24 PUSH1 0x0 REVERT JUMPDEST DUP1 DUP3 ADD DUP1 DUP3 GT ISZERO PUSH2 0x348 JUMPI PUSH2 0x348 PUSH2 0x1250 JUMP JUMPDEST DUP2 DUP2 SUB DUP2 DUP2 GT ISZERO PUSH2 0x348 JUMPI PUSH2 0x348 PUSH2 0x1250 JUMP JUMPDEST PUSH4 0x4E487B71 PUSH1 0xE0 SHL PUSH1 0x0 MSTORE PUSH1 0x32 PUSH1 0x4 MSTORE PUSH1 0x24 PUSH1 0x0 REVERT JUMPDEST PUSH4 0x4E487B71 PUSH1 0xE0 SHL PUSH1 0x0 MSTORE PUSH1 0x31 PUSH1 0x4 MSTORE PUSH1 0x24 PUSH1 0x0 REVERT JUMPDEST PUSH1 0x0 JUMPDEST DUP4 DUP2 LT ISZERO PUSH2 0x12D3 JUMPI DUP2 DUP2 ADD MLOAD DUP4 DUP3 ADD MSTORE PUSH1 0x20 ADD PUSH2 0x12BB JUMP JUMPDEST POP POP PUSH1 0x0 SWAP2 ADD MSTORE JUMP JUMPDEST PUSH1 0x0 PUSH12 0xFFFFFFFFFFFFFFFFFFFFFFFF NOT DUP1 DUP9 PUSH1 0x60 SHL AND DUP4 MSTORE DUP1 DUP8 PUSH1 0x60 SHL AND PUSH1 0x14 DUP5 ADD MSTORE DUP1 DUP7 PUSH1 0x60 SHL AND PUSH1 0x28 DUP5 ADD MSTORE POP DUP4 MLOAD PUSH2 0x131E DUP2 PUSH1 0x3C DUP6 ADD PUSH1 0x20 DUP9 ADD PUSH2 0x12B8 JUMP JUMPDEST PUSH1 0x3C SWAP3 ADD SWAP2 DUP3 ADD SWAP3 SWAP1 SWAP3 MSTORE PUSH1 0x5C ADD SWAP6 SWAP5 POP POP POP POP POP JUMP JUMPDEST PUSH32 0x416363657373436F6E74726F6C3A206163636F756E7420000000000000000000 DUP2 MSTORE PUSH1 0x0 DUP4 MLOAD PUSH2 0x136D DUP2 PUSH1 0x17 DUP6 ADD PUSH1 0x20 DUP9 ADD PUSH2 0x12B8 JUMP JUMPDEST PUSH17 0x1034B99036B4B9B9B4B733903937B6329 PUSH1 0x7D SHL PUSH1 0x17 SWAP2 DUP5 ADD SWAP2 DUP3 ADD MSTORE DUP4 MLOAD PUSH2 0x139E DUP2 PUSH1 0x28 DUP5 ADD PUSH1 0x20 DUP9 ADD PUSH2 0x12B8 JUMP JUMPDEST ADD PUSH1 0x28 ADD SWAP5 SWAP4 POP POP POP POP JUMP JUMPDEST PUSH1 0x20 DUP2 MSTORE PUSH1 0x0 DUP3 MLOAD DUP1 PUSH1 0x20 DUP5 ADD MSTORE PUSH2 0x13C9 DUP2 PUSH1 0x40 DUP6 ADD PUSH1 0x20 DUP8 ADD PUSH2 0x12B8 JUMP JUMPDEST PUSH1 0x1F ADD PUSH1 0x1F NOT AND SWAP2 SWAP1 SWAP2 ADD PUSH1 0x40 ADD SWAP3 SWAP2 POP POP JUMP JUMPDEST DUP1 DUP3 MUL DUP2 ISZERO DUP3 DUP3 DIV DUP5 EQ OR PUSH2 0x348 JUMPI PUSH2 0x348 PUSH2 0x1250 JUMP JUMPDEST PUSH1 0x0 DUP2 PUSH2 0x1403 JUMPI PUSH2 0x1403 PUSH2 0x1250 JUMP JUMPDEST POP PUSH1 0x0 NOT ADD SWAP1 JUMP INVALID COINBASE PUSH17 0x70726F76656443616C6C73576974685369 PUSH8 0x6E6174757265506F PUSH13 0x696379A2646970667358221220 PUSH12 0x84092EEC47F5C05E11BF1987 PUSH32 0x5F9F7B1FA81F6354B86BDA7E0853F04DE1A164736F6C63430008110033000000 "},"methodIdentifiers":{"DEFAULT_ADMIN_ROLE()":"a217fddf","SIGNER_ROLE()":"a1ebf35d","approveCalls(bytes32[],uint256,address,address)":"75d8b80c","approveCallsViaSignature(bytes32[],uint256,address,address,uint256,bytes)":"1ec0667b","approvedCalls(address,address,uint256)":"f80bbe8e","approvedCallsExpiration(address,address)":"d17810b3","getEthSignedMessageHash(bytes32)":"fa540801","getRoleAdmin(bytes32)":"248a9ca3","grantRole(bytes32,address)":"2f2ff15d","hasRole(bytes32,address)":"91d14854","nonces(address,address)":"9333fbda","postExecution(address,address,bytes,uint256)":"c6d4328b","preExecution(address,address,bytes,uint256)":"d9739cda","recoverSigner(bytes32,bytes)":"97aba7f9","renounceRole(bytes32,address)":"36568abe","revokeRole(bytes32,address)":"d547741f","splitSignature(bytes)":"a7bb5803","supportsInterface(bytes4)":"01ffc9a7"}},"storageLayout":{"storage":[{"astId":697,"contract":"contracts/policies/ApprovedCallsWithSignaturePolicy.sol:ApprovedCallsWithSignaturePolicy","label":"_roles","offset":0,"slot":"0","type":"t_mapping(t_bytes32,t_struct(RoleData)692_storage)"},{"astId":5501,"contract":"contracts/policies/ApprovedCallsWithSignaturePolicy.sol:ApprovedCallsWithSignaturePolicy","label":"approvedCalls","offset":0,"slot":"1","type":"t_mapping(t_address,t_mapping(t_address,t_array(t_bytes32)dyn_storage))"},{"astId":5507,"contract":"contracts/policies/ApprovedCallsWithSignaturePolicy.sol:ApprovedCallsWithSignaturePolicy","label":"approvedCallsExpiration","offset":0,"slot":"2","type":"t_mapping(t_address,t_mapping(t_address,t_uint256))"},{"astId":5513,"contract":"contracts/policies/ApprovedCallsWithSignaturePolicy.sol:ApprovedCallsWithSignaturePolicy","label":"nonces","offset":0,"slot":"3","type":"t_mapping(t_address,t_mapping(t_address,t_uint256))"}],"types":{"t_address":{"encoding":"inplace","label":"address","numberOfBytes":"20"},"t_array(t_bytes32)dyn_storage":{"base":"t_bytes32","encoding":"dynamic_array","label":"bytes32[]","numberOfBytes":"32"},"t_bool":{"encoding":"inplace","label":"bool","numberOfBytes":"1"},"t_bytes32":{"encoding":"inplace","label":"bytes32","numberOfBytes":"32"},"t_mapping(t_address,t_array(t_bytes32)dyn_storage)":{"encoding":"mapping","key":"t_address","label":"mapping(address => bytes32[])","numberOfBytes":"32","value":"t_array(t_bytes32)dyn_storage"},"t_mapping(t_address,t_bool)":{"encoding":"mapping","key":"t_address","label":"mapping(address => bool)","numberOfBytes":"32","value":"t_bool"},"t_mapping(t_address,t_mapping(t_address,t_array(t_bytes32)dyn_storage))":{"encoding":"mapping","key":"t_address","label":"mapping(address => mapping(address => bytes32[]))","numberOfBytes":"32","value":"t_mapping(t_address,t_array(t_bytes32)dyn_storage)"},"t_mapping(t_address,t_mapping(t_address,t_uint256))":{"encoding":"mapping","key":"t_address","label":"mapping(address => mapping(address => uint256))","numberOfBytes":"32","value":"t_mapping(t_address,t_uint256)"},"t_mapping(t_address,t_uint256)":{"encoding":"mapping","key":"t_address","label":"mapping(address => uint256)","numberOfBytes":"32","value":"t_uint256"},"t_mapping(t_bytes32,t_struct(RoleData)692_storage)":{"encoding":"mapping","key":"t_bytes32","label":"mapping(bytes32 => struct AccessControl.RoleData)","numberOfBytes":"32","value":"t_struct(RoleData)692_storage"},"t_struct(RoleData)692_storage":{"encoding":"inplace","label":"struct AccessControl.RoleData","members":[{"astId":689,"contract":"contracts/policies/ApprovedCallsWithSignaturePolicy.sol:ApprovedCallsWithSignaturePolicy","label":"members","offset":0,"slot":"0","type":"t_mapping(t_address,t_bool)"},{"astId":691,"contract":"contracts/policies/ApprovedCallsWithSignaturePolicy.sol:ApprovedCallsWithSignaturePolicy","label":"adminRole","offset":0,"slot":"1","type":"t_bytes32"}],"numberOfBytes":"64"},"t_uint256":{"encoding":"inplace","label":"uint256","numberOfBytes":"32"}}}}}}