{"contracts/proxy/FirewallTransparentUpgradeableProxy.sol":{"FirewallTransparentUpgradeableProxy":{"abi":[{"inputs":[{"internalType":"address","name":"_logic","type":"address"},{"internalType":"address","name":"admin_","type":"address"},{"internalType":"bytes","name":"_data","type":"bytes"},{"internalType":"address","name":"_firewall","type":"address"},{"internalType":"address","name":"_firewallAdmin","type":"address"}],"stateMutability":"payable","type":"constructor"},{"anonymous":false,"inputs":[{"indexed":false,"internalType":"address","name":"previousAdmin","type":"address"},{"indexed":false,"internalType":"address","name":"newAdmin","type":"address"}],"name":"AdminChanged","type":"event"},{"anonymous":false,"inputs":[{"indexed":true,"internalType":"address","name":"beacon","type":"address"}],"name":"BeaconUpgraded","type":"event"},{"anonymous":false,"inputs":[],"name":"StaticCallCheck","type":"event"},{"anonymous":false,"inputs":[{"indexed":true,"internalType":"address","name":"implementation","type":"address"}],"name":"Upgraded","type":"event"},{"stateMutability":"payable","type":"fallback"},{"inputs":[{"internalType":"address","name":"_firewall","type":"address"}],"name":"changeFirewall","outputs":[],"stateMutability":"nonpayable","type":"function"},{"inputs":[{"internalType":"address","name":"_firewallAdmin","type":"address"}],"name":"changeFirewallAdmin","outputs":[],"stateMutability":"nonpayable","type":"function"},{"inputs":[],"name":"firewall","outputs":[{"internalType":"address","name":"","type":"address"}],"stateMutability":"nonpayable","type":"function"},{"inputs":[],"name":"firewallAdmin","outputs":[{"internalType":"address","name":"","type":"address"}],"stateMutability":"nonpayable","type":"function"},{"inputs":[],"name":"staticCallCheck","outputs":[],"stateMutability":"nonpayable","type":"function"},{"stateMutability":"payable","type":"receive"}],"evm":{"bytecode":{"linkReferences":{},"object":"60806040526040516200153538038062001535833981016040819052620000269162000535565b8484848281620000398282600062000071565b5062000047905082620000ae565b5050506200005b826200010960201b60201c565b620000668162000170565b5050505050620006b0565b6200007c83620001a2565b6000825111806200008a5750805b15620000a957620000a78383620001e460201b620003fe1760201c565b505b505050565b7f7e644d79422f17c01e4894b5f4f588d331ebfa28653d42ae832dc59e38c9798f620000d962000215565b604080516001600160a01b03928316815291841660208301520160405180910390a162000106816200024e565b50565b806200014f6200013b60017f5dd2e3b890564a8f99f7f203f226a27a8aa59aee19a4ece5cf5eaa77ab91f6626200063b565b60001b620002e260201b6200032c1760201c565b80546001600160a01b0319166001600160a01b039290921691909117905550565b806200014f6200013b60017f29982a6ac507a2a707ced6dee5d76285dd49725db977de83d9702c628c9741366200063b565b620001ad81620002e5565b6040516001600160a01b038216907fbc7cd75a20ee27fd9adebab32041f755214dbc6bffa90cc0225b39da2e5c2d3b90600090a250565b60606200020c83836040518060600160405280602781526020016200150e6027913962000399565b90505b92915050565b60006200023f600080516020620014ee83398151915260001b620002e260201b6200032c1760201c565b546001600160a01b0316919050565b6001600160a01b038116620002b95760405162461bcd60e51b815260206004820152602660248201527f455243313936373a206e65772061646d696e20697320746865207a65726f206160448201526564647265737360d01b60648201526084015b60405180910390fd5b806200014f600080516020620014ee83398151915260001b620002e260201b6200032c1760201c565b90565b620002fb816200041860201b6200042c1760201c565b6200035f5760405162461bcd60e51b815260206004820152602d60248201527f455243313936373a206e657720696d706c656d656e746174696f6e206973206e60448201526c1bdd08184818dbdb9d1c9858dd609a1b6064820152608401620002b0565b806200014f7f360894a13ba1a3210667c828492db98dca3e2076cc3735a920a3ca505d382bbc60001b620002e260201b6200032c1760201c565b6060600080856001600160a01b031685604051620003b891906200065d565b600060405180830381855af49150503d8060008114620003f5576040519150601f19603f3d011682016040523d82523d6000602084013e620003fa565b606091505b5090925090506200040e8683838762000427565b9695505050505050565b6001600160a01b03163b151590565b606083156200049b57825160000362000493576001600160a01b0385163b620004935760405162461bcd60e51b815260206004820152601d60248201527f416464726573733a2063616c6c20746f206e6f6e2d636f6e74726163740000006044820152606401620002b0565b5081620004a7565b620004a78383620004af565b949350505050565b815115620004c05781518083602001fd5b8060405162461bcd60e51b8152600401620002b091906200067b565b80516001600160a01b0381168114620004f457600080fd5b919050565b634e487b7160e01b600052604160045260246000fd5b60005b838110156200052c57818101518382015260200162000512565b50506000910152565b600080600080600060a086880312156200054e57600080fd5b6200055986620004dc565b94506200056960208701620004dc565b60408701519094506001600160401b03808211156200058757600080fd5b818801915088601f8301126200059c57600080fd5b815181811115620005b157620005b1620004f9565b604051601f8201601f19908116603f01168101908382118183101715620005dc57620005dc620004f9565b816040528281528b6020848701011115620005f657600080fd5b620006098360208301602088016200050f565b80975050505050506200061f60608701620004dc565b91506200062f60808701620004dc565b90509295509295909350565b818103818111156200020f57634e487b7160e01b600052601160045260246000fd5b60008251620006718184602087016200050f565b9190910192915050565b60208152600082518060208401526200069c8160408501602087016200050f565b601f01601f19169190910160400192915050565b610e2e80620006c06000396000f3fe60806040526004361061004e5760003560e01c80631e8545ff14610065578063664f285f1461007a578063c22a4a851461009a578063f05c8582146100cb578063fd9e1060146100e05761005d565b3661005d5761005b610100565b005b61005b610100565b34801561007157600080fd5b5061005b610252565b34801561008657600080fd5b5061005b610095366004610bcb565b61027d565b3480156100a657600080fd5b506100af6102fe565b6040516001600160a01b03909116815260200160405180910390f35b3480156100d757600080fd5b506100af61032f565b3480156100ec57600080fd5b5061005b6100fb366004610bcb565b610388565b61010861043b565b6001600160a01b031633036102485760606001600160e01b0319600035166364d3180d60e11b81016101435761013c61046e565b9150610240565b63587086bd60e11b6001600160e01b03198216016101635761013c6104c5565b63070d7c6960e41b6001600160e01b03198216016101835761013c61050b565b621eb96f60e61b6001600160e01b03198216016101a25761013c61053c565b63a39f25e560e01b6001600160e01b03198216016101c25761013c61057c565b60405162461bcd60e51b815260206004820152604260248201527f5472616e73706172656e745570677261646561626c6550726f78793a2061646d60448201527f696e2063616e6e6f742066616c6c6261636b20746f2070726f78792074617267606482015261195d60f21b608482015260a4015b60405180910390fd5b815160208301f35b610250610590565b565b6040517f6832e49adbb4121c72b63aad2aafe3e3a25b5e7624a192b19e60a513de6f957090600090a1565b61028561043b565b6001600160a01b031633036102f6576001600160a01b0381166102ea5760405162461bcd60e51b815260206004820152601e60248201527f4669726577616c6c436f6e73756d65723a207a65726f206164647265737300006044820152606401610237565b6102f3816105a0565b50565b6102f3610100565b600061030861043b565b6001600160a01b031633036103245761031f6105f0565b905090565b61032c610100565b90565b60008061033a6105f0565b9050600061034661043b565b9050336001600160a01b03831614806103675750336001600160a01b038216145b1561037b57610374610620565b9250505090565b610383610100565b505090565b61039061043b565b6001600160a01b031633036102f6576001600160a01b0381166103f55760405162461bcd60e51b815260206004820152601e60248201527f4669726577616c6c436f6e73756d65723a207a65726f206164647265737300006044820152606401610237565b6102f381610650565b60606104238383604051806060016040528060278152602001610dd26027913961067f565b90505b92915050565b6001600160a01b03163b151590565b60007fb53127684a568b3173ae13b9f8a6016e243e63b6e8ee1178d6a717850b5d61035b546001600160a01b0316919050565b60606104786106f7565b60006104873660048184610bef565b8101906104949190610bcb565b90506104b181604051806020016040528060008152506000610702565b505060408051602081019091526000815290565b60606000806104d73660048184610bef565b8101906104e49190610c2f565b915091506104f482826001610702565b604051806020016040528060008152509250505090565b60606105156106f7565b60006105243660048184610bef565b8101906105319190610bcb565b90506104b18161072e565b60606105466106f7565b600061055061043b565b604080516001600160a01b03831660208201529192500160405160208183030381529060405291505090565b60606105866106f7565b6000610550610782565b61025061059b610782565b61078c565b806105cf61032c60017f29982a6ac507a2a707ced6dee5d76285dd49725db977de83d9702c628c974136610cf3565b80546001600160a01b0319166001600160a01b039290921691909117905550565b600061045f61032c60017f5dd2e3b890564a8f99f7f203f226a27a8aa59aee19a4ece5cf5eaa77ab91f662610cf3565b600061045f61032c60017f29982a6ac507a2a707ced6dee5d76285dd49725db977de83d9702c628c974136610cf3565b806105cf61032c60017f5dd2e3b890564a8f99f7f203f226a27a8aa59aee19a4ece5cf5eaa77ab91f662610cf3565b6060600080856001600160a01b03168560405161069c9190610d38565b600060405180830381855af49150503d80600081146106d7576040519150601f19603f3d011682016040523d82523d6000602084013e6106dc565b606091505b50915091506106ed868383876107a3565b9695505050505050565b341561025057600080fd5b61070b83610824565b6000825111806107185750805b156107295761072783836103fe565b505b505050565b7f7e644d79422f17c01e4894b5f4f588d331ebfa28653d42ae832dc59e38c9798f61075761043b565b604080516001600160a01b03928316815291841660208301520160405180910390a16102f381610864565b600061031f6108f0565b600061079782610918565b80519091508060208301f35b6060831561081257825160000361080b576001600160a01b0385163b61080b5760405162461bcd60e51b815260206004820152601d60248201527f416464726573733a2063616c6c20746f206e6f6e2d636f6e74726163740000006044820152606401610237565b508161081c565b61081c8383610a9a565b949350505050565b61082d81610ac4565b6040516001600160a01b038216907fbc7cd75a20ee27fd9adebab32041f755214dbc6bffa90cc0225b39da2e5c2d3b90600090a250565b6001600160a01b0381166108c95760405162461bcd60e51b815260206004820152602660248201527f455243313936373a206e65772061646d696e20697320746865207a65726f206160448201526564647265737360d01b6064820152608401610237565b807fb53127684a568b3173ae13b9f8a6016e243e63b6e8ee1178d6a717850b5d61036105cf565b60007f360894a13ba1a3210667c828492db98dca3e2076cc3735a920a3ca505d382bbc61045f565b6060610922610b58565b1561097357600061096a836000368080601f0160208091040260200160405190810160405280939291908181526020018383808284376000920191909152506103fe92505050565b9150610a959050565b600061097d6105f0565b604051631bf8659f60e21b815290915034906001600160a01b03831690636fe1967c906109b590339060009036908790600401610d54565b600060405180830381600087803b1580156109cf57600080fd5b505af11580156109e3573d6000803e3d6000fd5b505050506000610a2a856000368080601f0160208091040260200160405190810160405280939291908181526020018383808284376000920191909152506103fe92505050565b9350506040516393163a9160e01b81526001600160a01b038316906393163a9190610a6090339060009036908790600401610d54565b600060405180830381600087803b158015610a7a57600080fd5b505af1158015610a8e573d6000803e3d6000fd5b5050505050505b919050565b815115610aaa5781518083602001fd5b8060405162461bcd60e51b81526004016102379190610d9e565b6001600160a01b0381163b610b315760405162461bcd60e51b815260206004820152602d60248201527f455243313936373a206e657720696d706c656d656e746174696f6e206973206e60448201526c1bdd08184818dbdb9d1c9858dd609a1b6064820152608401610237565b807f360894a13ba1a3210667c828492db98dca3e2076cc3735a920a3ca505d382bbc6105cf565b6000306001600160a01b0316631e8545ff6040518163ffffffff1660e01b8152600401600060405180830381600087803b158015610b9557600080fd5b505af1925050508015610ba6575060015b610bb05750600190565b50600090565b6001600160a01b03811681146102f357600080fd5b600060208284031215610bdd57600080fd5b8135610be881610bb6565b9392505050565b60008085851115610bff57600080fd5b83861115610c0c57600080fd5b5050820193919092039150565b634e487b7160e01b600052604160045260246000fd5b60008060408385031215610c4257600080fd5b8235610c4d81610bb6565b9150602083013567ffffffffffffffff80821115610c6a57600080fd5b818501915085601f830112610c7e57600080fd5b813581811115610c9057610c90610c19565b604051601f8201601f19908116603f01168101908382118183101715610cb857610cb8610c19565b81604052828152886020848701011115610cd157600080fd5b8260208601602083013760006020848301015280955050505050509250929050565b8181038181111561042657634e487b7160e01b600052601160045260246000fd5b60005b83811015610d2f578181015183820152602001610d17565b50506000910152565b60008251610d4a818460208701610d14565b9190910192915050565b6001600160a01b038516815260606020820181905281018390528284608083013760006080848301015260006080601f19601f860116830101905082604083015295945050505050565b6020815260008251806020840152610dbd816040850160208701610d14565b601f01601f1916919091016040019291505056fe416464726573733a206c6f772d6c6576656c2064656c65676174652063616c6c206661696c6564a2646970667358221220c66706b22b1a55378d9e63cfdcead78b096224830ea560c517de90f23d97632764736f6c63430008110033b53127684a568b3173ae13b9f8a6016e243e63b6e8ee1178d6a717850b5d6103416464726573733a206c6f772d6c6576656c2064656c65676174652063616c6c206661696c6564","opcodes":"PUSH1 0x80 PUSH1 0x40 MSTORE PUSH1 0x40 MLOAD PUSH3 0x1535 CODESIZE SUB DUP1 PUSH3 0x1535 DUP4 CODECOPY DUP2 ADD PUSH1 0x40 DUP2 SWAP1 MSTORE PUSH3 0x26 SWAP2 PUSH3 0x535 JUMP JUMPDEST DUP5 DUP5 DUP5 DUP3 DUP2 PUSH3 0x39 DUP3 DUP3 PUSH1 0x0 PUSH3 0x71 JUMP JUMPDEST POP PUSH3 0x47 SWAP1 POP DUP3 PUSH3 0xAE JUMP JUMPDEST POP POP POP PUSH3 0x5B DUP3 PUSH3 0x109 PUSH1 0x20 SHL PUSH1 0x20 SHR JUMP JUMPDEST PUSH3 0x66 DUP2 PUSH3 0x170 JUMP JUMPDEST POP POP POP POP POP PUSH3 0x6B0 JUMP JUMPDEST PUSH3 0x7C DUP4 PUSH3 0x1A2 JUMP JUMPDEST PUSH1 0x0 DUP3 MLOAD GT DUP1 PUSH3 0x8A JUMPI POP DUP1 JUMPDEST ISZERO PUSH3 0xA9 JUMPI PUSH3 0xA7 DUP4 DUP4 PUSH3 0x1E4 PUSH1 0x20 SHL PUSH3 0x3FE OR PUSH1 0x20 SHR JUMP JUMPDEST POP JUMPDEST POP POP POP JUMP JUMPDEST PUSH32 0x7E644D79422F17C01E4894B5F4F588D331EBFA28653D42AE832DC59E38C9798F PUSH3 0xD9 PUSH3 0x215 JUMP JUMPDEST PUSH1 0x40 DUP1 MLOAD PUSH1 0x1 PUSH1 0x1 PUSH1 0xA0 SHL SUB SWAP3 DUP4 AND DUP2 MSTORE SWAP2 DUP5 AND PUSH1 0x20 DUP4 ADD MSTORE ADD PUSH1 0x40 MLOAD DUP1 SWAP2 SUB SWAP1 LOG1 PUSH3 0x106 DUP2 PUSH3 0x24E JUMP JUMPDEST POP JUMP JUMPDEST DUP1 PUSH3 0x14F PUSH3 0x13B PUSH1 0x1 PUSH32 0x5DD2E3B890564A8F99F7F203F226A27A8AA59AEE19A4ECE5CF5EAA77AB91F662 PUSH3 0x63B JUMP JUMPDEST PUSH1 0x0 SHL PUSH3 0x2E2 PUSH1 0x20 SHL PUSH3 0x32C OR PUSH1 0x20 SHR JUMP JUMPDEST DUP1 SLOAD PUSH1 0x1 PUSH1 0x1 PUSH1 0xA0 SHL SUB NOT AND PUSH1 0x1 PUSH1 0x1 PUSH1 0xA0 SHL SUB SWAP3 SWAP1 SWAP3 AND SWAP2 SWAP1 SWAP2 OR SWAP1 SSTORE POP JUMP JUMPDEST DUP1 PUSH3 0x14F PUSH3 0x13B PUSH1 0x1 PUSH32 0x29982A6AC507A2A707CED6DEE5D76285DD49725DB977DE83D9702C628C974136 PUSH3 0x63B JUMP JUMPDEST PUSH3 0x1AD DUP2 PUSH3 0x2E5 JUMP JUMPDEST PUSH1 0x40 MLOAD PUSH1 0x1 PUSH1 0x1 PUSH1 0xA0 SHL SUB DUP3 AND SWAP1 PUSH32 0xBC7CD75A20EE27FD9ADEBAB32041F755214DBC6BFFA90CC0225B39DA2E5C2D3B SWAP1 PUSH1 0x0 SWAP1 LOG2 POP JUMP JUMPDEST PUSH1 0x60 PUSH3 0x20C DUP4 DUP4 PUSH1 0x40 MLOAD DUP1 PUSH1 0x60 ADD PUSH1 0x40 MSTORE DUP1 PUSH1 0x27 DUP2 MSTORE PUSH1 0x20 ADD PUSH3 0x150E PUSH1 0x27 SWAP2 CODECOPY PUSH3 0x399 JUMP JUMPDEST SWAP1 POP JUMPDEST SWAP3 SWAP2 POP POP JUMP JUMPDEST PUSH1 0x0 PUSH3 0x23F PUSH1 0x0 DUP1 MLOAD PUSH1 0x20 PUSH3 0x14EE DUP4 CODECOPY DUP2 MLOAD SWAP2 MSTORE PUSH1 0x0 SHL PUSH3 0x2E2 PUSH1 0x20 SHL PUSH3 0x32C OR PUSH1 0x20 SHR JUMP JUMPDEST SLOAD PUSH1 0x1 PUSH1 0x1 PUSH1 0xA0 SHL SUB AND SWAP2 SWAP1 POP JUMP JUMPDEST PUSH1 0x1 PUSH1 0x1 PUSH1 0xA0 SHL SUB DUP2 AND PUSH3 0x2B9 JUMPI PUSH1 0x40 MLOAD PUSH3 0x461BCD PUSH1 0xE5 SHL DUP2 MSTORE PUSH1 0x20 PUSH1 0x4 DUP3 ADD MSTORE PUSH1 0x26 PUSH1 0x24 DUP3 ADD MSTORE PUSH32 0x455243313936373A206E65772061646D696E20697320746865207A65726F2061 PUSH1 0x44 DUP3 ADD MSTORE PUSH6 0x646472657373 PUSH1 0xD0 SHL PUSH1 0x64 DUP3 ADD MSTORE PUSH1 0x84 ADD JUMPDEST PUSH1 0x40 MLOAD DUP1 SWAP2 SUB SWAP1 REVERT JUMPDEST DUP1 PUSH3 0x14F PUSH1 0x0 DUP1 MLOAD PUSH1 0x20 PUSH3 0x14EE DUP4 CODECOPY DUP2 MLOAD SWAP2 MSTORE PUSH1 0x0 SHL PUSH3 0x2E2 PUSH1 0x20 SHL PUSH3 0x32C OR PUSH1 0x20 SHR JUMP JUMPDEST SWAP1 JUMP JUMPDEST PUSH3 0x2FB DUP2 PUSH3 0x418 PUSH1 0x20 SHL PUSH3 0x42C OR PUSH1 0x20 SHR JUMP JUMPDEST PUSH3 0x35F JUMPI PUSH1 0x40 MLOAD PUSH3 0x461BCD PUSH1 0xE5 SHL DUP2 MSTORE PUSH1 0x20 PUSH1 0x4 DUP3 ADD MSTORE PUSH1 0x2D PUSH1 0x24 DUP3 ADD MSTORE PUSH32 0x455243313936373A206E657720696D706C656D656E746174696F6E206973206E PUSH1 0x44 DUP3 ADD MSTORE PUSH13 0x1BDD08184818DBDB9D1C9858DD PUSH1 0x9A SHL PUSH1 0x64 DUP3 ADD MSTORE PUSH1 0x84 ADD PUSH3 0x2B0 JUMP JUMPDEST DUP1 PUSH3 0x14F PUSH32 0x360894A13BA1A3210667C828492DB98DCA3E2076CC3735A920A3CA505D382BBC PUSH1 0x0 SHL PUSH3 0x2E2 PUSH1 0x20 SHL PUSH3 0x32C OR PUSH1 0x20 SHR JUMP JUMPDEST PUSH1 0x60 PUSH1 0x0 DUP1 DUP6 PUSH1 0x1 PUSH1 0x1 PUSH1 0xA0 SHL SUB AND DUP6 PUSH1 0x40 MLOAD PUSH3 0x3B8 SWAP2 SWAP1 PUSH3 0x65D JUMP JUMPDEST PUSH1 0x0 PUSH1 0x40 MLOAD DUP1 DUP4 SUB DUP2 DUP6 GAS DELEGATECALL SWAP2 POP POP RETURNDATASIZE DUP1 PUSH1 0x0 DUP2 EQ PUSH3 0x3F5 JUMPI PUSH1 0x40 MLOAD SWAP2 POP PUSH1 0x1F NOT PUSH1 0x3F RETURNDATASIZE ADD AND DUP3 ADD PUSH1 0x40 MSTORE RETURNDATASIZE DUP3 MSTORE RETURNDATASIZE PUSH1 0x0 PUSH1 0x20 DUP5 ADD RETURNDATACOPY PUSH3 0x3FA JUMP JUMPDEST PUSH1 0x60 SWAP2 POP JUMPDEST POP SWAP1 SWAP3 POP SWAP1 POP PUSH3 0x40E DUP7 DUP4 DUP4 DUP8 PUSH3 0x427 JUMP JUMPDEST SWAP7 SWAP6 POP POP POP POP POP POP JUMP JUMPDEST PUSH1 0x1 PUSH1 0x1 PUSH1 0xA0 SHL SUB AND EXTCODESIZE ISZERO ISZERO SWAP1 JUMP JUMPDEST PUSH1 0x60 DUP4 ISZERO PUSH3 0x49B JUMPI DUP3 MLOAD PUSH1 0x0 SUB PUSH3 0x493 JUMPI PUSH1 0x1 PUSH1 0x1 PUSH1 0xA0 SHL SUB DUP6 AND EXTCODESIZE PUSH3 0x493 JUMPI PUSH1 0x40 MLOAD PUSH3 0x461BCD PUSH1 0xE5 SHL DUP2 MSTORE PUSH1 0x20 PUSH1 0x4 DUP3 ADD MSTORE PUSH1 0x1D PUSH1 0x24 DUP3 ADD MSTORE PUSH32 0x416464726573733A2063616C6C20746F206E6F6E2D636F6E7472616374000000 PUSH1 0x44 DUP3 ADD MSTORE PUSH1 0x64 ADD PUSH3 0x2B0 JUMP JUMPDEST POP DUP2 PUSH3 0x4A7 JUMP JUMPDEST PUSH3 0x4A7 DUP4 DUP4 PUSH3 0x4AF JUMP JUMPDEST SWAP5 SWAP4 POP POP POP POP JUMP JUMPDEST DUP2 MLOAD ISZERO PUSH3 0x4C0 JUMPI DUP2 MLOAD DUP1 DUP4 PUSH1 0x20 ADD REVERT JUMPDEST DUP1 PUSH1 0x40 MLOAD PUSH3 0x461BCD PUSH1 0xE5 SHL DUP2 MSTORE PUSH1 0x4 ADD PUSH3 0x2B0 SWAP2 SWAP1 PUSH3 0x67B JUMP JUMPDEST DUP1 MLOAD PUSH1 0x1 PUSH1 0x1 PUSH1 0xA0 SHL SUB DUP2 AND DUP2 EQ PUSH3 0x4F4 JUMPI PUSH1 0x0 DUP1 REVERT JUMPDEST SWAP2 SWAP1 POP JUMP JUMPDEST PUSH4 0x4E487B71 PUSH1 0xE0 SHL PUSH1 0x0 MSTORE PUSH1 0x41 PUSH1 0x4 MSTORE PUSH1 0x24 PUSH1 0x0 REVERT JUMPDEST PUSH1 0x0 JUMPDEST DUP4 DUP2 LT ISZERO PUSH3 0x52C JUMPI DUP2 DUP2 ADD MLOAD DUP4 DUP3 ADD MSTORE PUSH1 0x20 ADD PUSH3 0x512 JUMP JUMPDEST POP POP PUSH1 0x0 SWAP2 ADD MSTORE JUMP JUMPDEST PUSH1 0x0 DUP1 PUSH1 0x0 DUP1 PUSH1 0x0 PUSH1 0xA0 DUP7 DUP9 SUB SLT ISZERO PUSH3 0x54E JUMPI PUSH1 0x0 DUP1 REVERT JUMPDEST PUSH3 0x559 DUP7 PUSH3 0x4DC JUMP JUMPDEST SWAP5 POP PUSH3 0x569 PUSH1 0x20 DUP8 ADD PUSH3 0x4DC JUMP JUMPDEST PUSH1 0x40 DUP8 ADD MLOAD SWAP1 SWAP5 POP PUSH1 0x1 PUSH1 0x1 PUSH1 0x40 SHL SUB DUP1 DUP3 GT ISZERO PUSH3 0x587 JUMPI PUSH1 0x0 DUP1 REVERT JUMPDEST DUP2 DUP9 ADD SWAP2 POP DUP9 PUSH1 0x1F DUP4 ADD SLT PUSH3 0x59C JUMPI PUSH1 0x0 DUP1 REVERT JUMPDEST DUP2 MLOAD DUP2 DUP2 GT ISZERO PUSH3 0x5B1 JUMPI PUSH3 0x5B1 PUSH3 0x4F9 JUMP JUMPDEST PUSH1 0x40 MLOAD PUSH1 0x1F DUP3 ADD PUSH1 0x1F NOT SWAP1 DUP2 AND PUSH1 0x3F ADD AND DUP2 ADD SWAP1 DUP4 DUP3 GT DUP2 DUP4 LT OR ISZERO PUSH3 0x5DC JUMPI PUSH3 0x5DC PUSH3 0x4F9 JUMP JUMPDEST DUP2 PUSH1 0x40 MSTORE DUP3 DUP2 MSTORE DUP12 PUSH1 0x20 DUP5 DUP8 ADD ADD GT ISZERO PUSH3 0x5F6 JUMPI PUSH1 0x0 DUP1 REVERT JUMPDEST PUSH3 0x609 DUP4 PUSH1 0x20 DUP4 ADD PUSH1 0x20 DUP9 ADD PUSH3 0x50F JUMP JUMPDEST DUP1 SWAP8 POP POP POP POP POP POP PUSH3 0x61F PUSH1 0x60 DUP8 ADD PUSH3 0x4DC JUMP JUMPDEST SWAP2 POP PUSH3 0x62F PUSH1 0x80 DUP8 ADD PUSH3 0x4DC JUMP JUMPDEST SWAP1 POP SWAP3 SWAP6 POP SWAP3 SWAP6 SWAP1 SWAP4 POP JUMP JUMPDEST DUP2 DUP2 SUB DUP2 DUP2 GT ISZERO PUSH3 0x20F JUMPI PUSH4 0x4E487B71 PUSH1 0xE0 SHL PUSH1 0x0 MSTORE PUSH1 0x11 PUSH1 0x4 MSTORE PUSH1 0x24 PUSH1 0x0 REVERT JUMPDEST PUSH1 0x0 DUP3 MLOAD PUSH3 0x671 DUP2 DUP5 PUSH1 0x20 DUP8 ADD PUSH3 0x50F JUMP JUMPDEST SWAP2 SWAP1 SWAP2 ADD SWAP3 SWAP2 POP POP JUMP JUMPDEST PUSH1 0x20 DUP2 MSTORE PUSH1 0x0 DUP3 MLOAD DUP1 PUSH1 0x20 DUP5 ADD MSTORE PUSH3 0x69C DUP2 PUSH1 0x40 DUP6 ADD PUSH1 0x20 DUP8 ADD PUSH3 0x50F JUMP JUMPDEST PUSH1 0x1F ADD PUSH1 0x1F NOT AND SWAP2 SWAP1 SWAP2 ADD PUSH1 0x40 ADD SWAP3 SWAP2 POP POP JUMP JUMPDEST PUSH2 0xE2E DUP1 PUSH3 0x6C0 PUSH1 0x0 CODECOPY PUSH1 0x0 RETURN INVALID PUSH1 0x80 PUSH1 0x40 MSTORE PUSH1 0x4 CALLDATASIZE LT PUSH2 0x4E JUMPI PUSH1 0x0 CALLDATALOAD PUSH1 0xE0 SHR DUP1 PUSH4 0x1E8545FF EQ PUSH2 0x65 JUMPI DUP1 PUSH4 0x664F285F EQ PUSH2 0x7A JUMPI DUP1 PUSH4 0xC22A4A85 EQ PUSH2 0x9A JUMPI DUP1 PUSH4 0xF05C8582 EQ PUSH2 0xCB JUMPI DUP1 PUSH4 0xFD9E1060 EQ PUSH2 0xE0 JUMPI PUSH2 0x5D JUMP JUMPDEST CALLDATASIZE PUSH2 0x5D JUMPI PUSH2 0x5B PUSH2 0x100 JUMP JUMPDEST STOP JUMPDEST PUSH2 0x5B PUSH2 0x100 JUMP JUMPDEST CALLVALUE DUP1 ISZERO PUSH2 0x71 JUMPI PUSH1 0x0 DUP1 REVERT JUMPDEST POP PUSH2 0x5B PUSH2 0x252 JUMP JUMPDEST CALLVALUE DUP1 ISZERO PUSH2 0x86 JUMPI PUSH1 0x0 DUP1 REVERT JUMPDEST POP PUSH2 0x5B PUSH2 0x95 CALLDATASIZE PUSH1 0x4 PUSH2 0xBCB JUMP JUMPDEST PUSH2 0x27D JUMP JUMPDEST CALLVALUE DUP1 ISZERO PUSH2 0xA6 JUMPI PUSH1 0x0 DUP1 REVERT JUMPDEST POP PUSH2 0xAF PUSH2 0x2FE JUMP JUMPDEST PUSH1 0x40 MLOAD PUSH1 0x1 PUSH1 0x1 PUSH1 0xA0 SHL SUB SWAP1 SWAP2 AND DUP2 MSTORE PUSH1 0x20 ADD PUSH1 0x40 MLOAD DUP1 SWAP2 SUB SWAP1 RETURN JUMPDEST CALLVALUE DUP1 ISZERO PUSH2 0xD7 JUMPI PUSH1 0x0 DUP1 REVERT JUMPDEST POP PUSH2 0xAF PUSH2 0x32F JUMP JUMPDEST CALLVALUE DUP1 ISZERO PUSH2 0xEC JUMPI PUSH1 0x0 DUP1 REVERT JUMPDEST POP PUSH2 0x5B PUSH2 0xFB CALLDATASIZE PUSH1 0x4 PUSH2 0xBCB JUMP JUMPDEST PUSH2 0x388 JUMP JUMPDEST PUSH2 0x108 PUSH2 0x43B JUMP JUMPDEST PUSH1 0x1 PUSH1 0x1 PUSH1 0xA0 SHL SUB AND CALLER SUB PUSH2 0x248 JUMPI PUSH1 0x60 PUSH1 0x1 PUSH1 0x1 PUSH1 0xE0 SHL SUB NOT PUSH1 0x0 CALLDATALOAD AND PUSH4 0x64D3180D PUSH1 0xE1 SHL DUP2 ADD PUSH2 0x143 JUMPI PUSH2 0x13C PUSH2 0x46E JUMP JUMPDEST SWAP2 POP PUSH2 0x240 JUMP JUMPDEST PUSH4 0x587086BD PUSH1 0xE1 SHL PUSH1 0x1 PUSH1 0x1 PUSH1 0xE0 SHL SUB NOT DUP3 AND ADD PUSH2 0x163 JUMPI PUSH2 0x13C PUSH2 0x4C5 JUMP JUMPDEST PUSH4 0x70D7C69 PUSH1 0xE4 SHL PUSH1 0x1 PUSH1 0x1 PUSH1 0xE0 SHL SUB NOT DUP3 AND ADD PUSH2 0x183 JUMPI PUSH2 0x13C PUSH2 0x50B JUMP JUMPDEST PUSH3 0x1EB96F PUSH1 0xE6 SHL PUSH1 0x1 PUSH1 0x1 PUSH1 0xE0 SHL SUB NOT DUP3 AND ADD PUSH2 0x1A2 JUMPI PUSH2 0x13C PUSH2 0x53C JUMP JUMPDEST PUSH4 0xA39F25E5 PUSH1 0xE0 SHL PUSH1 0x1 PUSH1 0x1 PUSH1 0xE0 SHL SUB NOT DUP3 AND ADD PUSH2 0x1C2 JUMPI PUSH2 0x13C PUSH2 0x57C JUMP JUMPDEST PUSH1 0x40 MLOAD PUSH3 0x461BCD PUSH1 0xE5 SHL DUP2 MSTORE PUSH1 0x20 PUSH1 0x4 DUP3 ADD MSTORE PUSH1 0x42 PUSH1 0x24 DUP3 ADD MSTORE PUSH32 0x5472616E73706172656E745570677261646561626C6550726F78793A2061646D PUSH1 0x44 DUP3 ADD MSTORE PUSH32 0x696E2063616E6E6F742066616C6C6261636B20746F2070726F78792074617267 PUSH1 0x64 DUP3 ADD MSTORE PUSH2 0x195D PUSH1 0xF2 SHL PUSH1 0x84 DUP3 ADD MSTORE PUSH1 0xA4 ADD JUMPDEST PUSH1 0x40 MLOAD DUP1 SWAP2 SUB SWAP1 REVERT JUMPDEST DUP2 MLOAD PUSH1 0x20 DUP4 ADD RETURN JUMPDEST PUSH2 0x250 PUSH2 0x590 JUMP JUMPDEST JUMP JUMPDEST PUSH1 0x40 MLOAD PUSH32 0x6832E49ADBB4121C72B63AAD2AAFE3E3A25B5E7624A192B19E60A513DE6F9570 SWAP1 PUSH1 0x0 SWAP1 LOG1 JUMP JUMPDEST PUSH2 0x285 PUSH2 0x43B JUMP JUMPDEST PUSH1 0x1 PUSH1 0x1 PUSH1 0xA0 SHL SUB AND CALLER SUB PUSH2 0x2F6 JUMPI PUSH1 0x1 PUSH1 0x1 PUSH1 0xA0 SHL SUB DUP2 AND PUSH2 0x2EA JUMPI PUSH1 0x40 MLOAD PUSH3 0x461BCD PUSH1 0xE5 SHL DUP2 MSTORE PUSH1 0x20 PUSH1 0x4 DUP3 ADD MSTORE PUSH1 0x1E PUSH1 0x24 DUP3 ADD MSTORE PUSH32 0x4669726577616C6C436F6E73756D65723A207A65726F20616464726573730000 PUSH1 0x44 DUP3 ADD MSTORE PUSH1 0x64 ADD PUSH2 0x237 JUMP JUMPDEST PUSH2 0x2F3 DUP2 PUSH2 0x5A0 JUMP JUMPDEST POP JUMP JUMPDEST PUSH2 0x2F3 PUSH2 0x100 JUMP JUMPDEST PUSH1 0x0 PUSH2 0x308 PUSH2 0x43B JUMP JUMPDEST PUSH1 0x1 PUSH1 0x1 PUSH1 0xA0 SHL SUB AND CALLER SUB PUSH2 0x324 JUMPI PUSH2 0x31F PUSH2 0x5F0 JUMP JUMPDEST SWAP1 POP SWAP1 JUMP JUMPDEST PUSH2 0x32C PUSH2 0x100 JUMP JUMPDEST SWAP1 JUMP JUMPDEST PUSH1 0x0 DUP1 PUSH2 0x33A PUSH2 0x5F0 JUMP JUMPDEST SWAP1 POP PUSH1 0x0 PUSH2 0x346 PUSH2 0x43B JUMP JUMPDEST SWAP1 POP CALLER PUSH1 0x1 PUSH1 0x1 PUSH1 0xA0 SHL SUB DUP4 AND EQ DUP1 PUSH2 0x367 JUMPI POP CALLER PUSH1 0x1 PUSH1 0x1 PUSH1 0xA0 SHL SUB DUP3 AND EQ JUMPDEST ISZERO PUSH2 0x37B JUMPI PUSH2 0x374 PUSH2 0x620 JUMP JUMPDEST SWAP3 POP POP POP SWAP1 JUMP JUMPDEST PUSH2 0x383 PUSH2 0x100 JUMP JUMPDEST POP POP SWAP1 JUMP JUMPDEST PUSH2 0x390 PUSH2 0x43B JUMP JUMPDEST PUSH1 0x1 PUSH1 0x1 PUSH1 0xA0 SHL SUB AND CALLER SUB PUSH2 0x2F6 JUMPI PUSH1 0x1 PUSH1 0x1 PUSH1 0xA0 SHL SUB DUP2 AND PUSH2 0x3F5 JUMPI PUSH1 0x40 MLOAD PUSH3 0x461BCD PUSH1 0xE5 SHL DUP2 MSTORE PUSH1 0x20 PUSH1 0x4 DUP3 ADD MSTORE PUSH1 0x1E PUSH1 0x24 DUP3 ADD MSTORE PUSH32 0x4669726577616C6C436F6E73756D65723A207A65726F20616464726573730000 PUSH1 0x44 DUP3 ADD MSTORE PUSH1 0x64 ADD PUSH2 0x237 JUMP JUMPDEST PUSH2 0x2F3 DUP2 PUSH2 0x650 JUMP JUMPDEST PUSH1 0x60 PUSH2 0x423 DUP4 DUP4 PUSH1 0x40 MLOAD DUP1 PUSH1 0x60 ADD PUSH1 0x40 MSTORE DUP1 PUSH1 0x27 DUP2 MSTORE PUSH1 0x20 ADD PUSH2 0xDD2 PUSH1 0x27 SWAP2 CODECOPY PUSH2 0x67F JUMP JUMPDEST SWAP1 POP JUMPDEST SWAP3 SWAP2 POP POP JUMP JUMPDEST PUSH1 0x1 PUSH1 0x1 PUSH1 0xA0 SHL SUB AND EXTCODESIZE ISZERO ISZERO SWAP1 JUMP JUMPDEST PUSH1 0x0 PUSH32 0xB53127684A568B3173AE13B9F8A6016E243E63B6E8EE1178D6A717850B5D6103 JUMPDEST SLOAD PUSH1 0x1 PUSH1 0x1 PUSH1 0xA0 SHL SUB AND SWAP2 SWAP1 POP JUMP JUMPDEST PUSH1 0x60 PUSH2 0x478 PUSH2 0x6F7 JUMP JUMPDEST PUSH1 0x0 PUSH2 0x487 CALLDATASIZE PUSH1 0x4 DUP2 DUP5 PUSH2 0xBEF JUMP JUMPDEST DUP2 ADD SWAP1 PUSH2 0x494 SWAP2 SWAP1 PUSH2 0xBCB JUMP JUMPDEST SWAP1 POP PUSH2 0x4B1 DUP2 PUSH1 0x40 MLOAD DUP1 PUSH1 0x20 ADD PUSH1 0x40 MSTORE DUP1 PUSH1 0x0 DUP2 MSTORE POP PUSH1 0x0 PUSH2 0x702 JUMP JUMPDEST POP POP PUSH1 0x40 DUP1 MLOAD PUSH1 0x20 DUP2 ADD SWAP1 SWAP2 MSTORE PUSH1 0x0 DUP2 MSTORE SWAP1 JUMP JUMPDEST PUSH1 0x60 PUSH1 0x0 DUP1 PUSH2 0x4D7 CALLDATASIZE PUSH1 0x4 DUP2 DUP5 PUSH2 0xBEF JUMP JUMPDEST DUP2 ADD SWAP1 PUSH2 0x4E4 SWAP2 SWAP1 PUSH2 0xC2F JUMP JUMPDEST SWAP2 POP SWAP2 POP PUSH2 0x4F4 DUP3 DUP3 PUSH1 0x1 PUSH2 0x702 JUMP JUMPDEST PUSH1 0x40 MLOAD DUP1 PUSH1 0x20 ADD PUSH1 0x40 MSTORE DUP1 PUSH1 0x0 DUP2 MSTORE POP SWAP3 POP POP POP SWAP1 JUMP JUMPDEST PUSH1 0x60 PUSH2 0x515 PUSH2 0x6F7 JUMP JUMPDEST PUSH1 0x0 PUSH2 0x524 CALLDATASIZE PUSH1 0x4 DUP2 DUP5 PUSH2 0xBEF JUMP JUMPDEST DUP2 ADD SWAP1 PUSH2 0x531 SWAP2 SWAP1 PUSH2 0xBCB JUMP JUMPDEST SWAP1 POP PUSH2 0x4B1 DUP2 PUSH2 0x72E JUMP JUMPDEST PUSH1 0x60 PUSH2 0x546 PUSH2 0x6F7 JUMP JUMPDEST PUSH1 0x0 PUSH2 0x550 PUSH2 0x43B JUMP JUMPDEST PUSH1 0x40 DUP1 MLOAD PUSH1 0x1 PUSH1 0x1 PUSH1 0xA0 SHL SUB DUP4 AND PUSH1 0x20 DUP3 ADD MSTORE SWAP2 SWAP3 POP ADD PUSH1 0x40 MLOAD PUSH1 0x20 DUP2 DUP4 SUB SUB DUP2 MSTORE SWAP1 PUSH1 0x40 MSTORE SWAP2 POP POP SWAP1 JUMP JUMPDEST PUSH1 0x60 PUSH2 0x586 PUSH2 0x6F7 JUMP JUMPDEST PUSH1 0x0 PUSH2 0x550 PUSH2 0x782 JUMP JUMPDEST PUSH2 0x250 PUSH2 0x59B PUSH2 0x782 JUMP JUMPDEST PUSH2 0x78C JUMP JUMPDEST DUP1 PUSH2 0x5CF PUSH2 0x32C PUSH1 0x1 PUSH32 0x29982A6AC507A2A707CED6DEE5D76285DD49725DB977DE83D9702C628C974136 PUSH2 0xCF3 JUMP JUMPDEST DUP1 SLOAD PUSH1 0x1 PUSH1 0x1 PUSH1 0xA0 SHL SUB NOT AND PUSH1 0x1 PUSH1 0x1 PUSH1 0xA0 SHL SUB SWAP3 SWAP1 SWAP3 AND SWAP2 SWAP1 SWAP2 OR SWAP1 SSTORE POP JUMP JUMPDEST PUSH1 0x0 PUSH2 0x45F PUSH2 0x32C PUSH1 0x1 PUSH32 0x5DD2E3B890564A8F99F7F203F226A27A8AA59AEE19A4ECE5CF5EAA77AB91F662 PUSH2 0xCF3 JUMP JUMPDEST PUSH1 0x0 PUSH2 0x45F PUSH2 0x32C PUSH1 0x1 PUSH32 0x29982A6AC507A2A707CED6DEE5D76285DD49725DB977DE83D9702C628C974136 PUSH2 0xCF3 JUMP JUMPDEST DUP1 PUSH2 0x5CF PUSH2 0x32C PUSH1 0x1 PUSH32 0x5DD2E3B890564A8F99F7F203F226A27A8AA59AEE19A4ECE5CF5EAA77AB91F662 PUSH2 0xCF3 JUMP JUMPDEST PUSH1 0x60 PUSH1 0x0 DUP1 DUP6 PUSH1 0x1 PUSH1 0x1 PUSH1 0xA0 SHL SUB AND DUP6 PUSH1 0x40 MLOAD PUSH2 0x69C SWAP2 SWAP1 PUSH2 0xD38 JUMP JUMPDEST PUSH1 0x0 PUSH1 0x40 MLOAD DUP1 DUP4 SUB DUP2 DUP6 GAS DELEGATECALL SWAP2 POP POP RETURNDATASIZE DUP1 PUSH1 0x0 DUP2 EQ PUSH2 0x6D7 JUMPI PUSH1 0x40 MLOAD SWAP2 POP PUSH1 0x1F NOT PUSH1 0x3F RETURNDATASIZE ADD AND DUP3 ADD PUSH1 0x40 MSTORE RETURNDATASIZE DUP3 MSTORE RETURNDATASIZE PUSH1 0x0 PUSH1 0x20 DUP5 ADD RETURNDATACOPY PUSH2 0x6DC JUMP JUMPDEST PUSH1 0x60 SWAP2 POP JUMPDEST POP SWAP2 POP SWAP2 POP PUSH2 0x6ED DUP7 DUP4 DUP4 DUP8 PUSH2 0x7A3 JUMP JUMPDEST SWAP7 SWAP6 POP POP POP POP POP POP JUMP JUMPDEST CALLVALUE ISZERO PUSH2 0x250 JUMPI PUSH1 0x0 DUP1 REVERT JUMPDEST PUSH2 0x70B DUP4 PUSH2 0x824 JUMP JUMPDEST PUSH1 0x0 DUP3 MLOAD GT DUP1 PUSH2 0x718 JUMPI POP DUP1 JUMPDEST ISZERO PUSH2 0x729 JUMPI PUSH2 0x727 DUP4 DUP4 PUSH2 0x3FE JUMP JUMPDEST POP JUMPDEST POP POP POP JUMP JUMPDEST PUSH32 0x7E644D79422F17C01E4894B5F4F588D331EBFA28653D42AE832DC59E38C9798F PUSH2 0x757 PUSH2 0x43B JUMP JUMPDEST PUSH1 0x40 DUP1 MLOAD PUSH1 0x1 PUSH1 0x1 PUSH1 0xA0 SHL SUB SWAP3 DUP4 AND DUP2 MSTORE SWAP2 DUP5 AND PUSH1 0x20 DUP4 ADD MSTORE ADD PUSH1 0x40 MLOAD DUP1 SWAP2 SUB SWAP1 LOG1 PUSH2 0x2F3 DUP2 PUSH2 0x864 JUMP JUMPDEST PUSH1 0x0 PUSH2 0x31F PUSH2 0x8F0 JUMP JUMPDEST PUSH1 0x0 PUSH2 0x797 DUP3 PUSH2 0x918 JUMP JUMPDEST DUP1 MLOAD SWAP1 SWAP2 POP DUP1 PUSH1 0x20 DUP4 ADD RETURN JUMPDEST PUSH1 0x60 DUP4 ISZERO PUSH2 0x812 JUMPI DUP3 MLOAD PUSH1 0x0 SUB PUSH2 0x80B JUMPI PUSH1 0x1 PUSH1 0x1 PUSH1 0xA0 SHL SUB DUP6 AND EXTCODESIZE PUSH2 0x80B JUMPI PUSH1 0x40 MLOAD PUSH3 0x461BCD PUSH1 0xE5 SHL DUP2 MSTORE PUSH1 0x20 PUSH1 0x4 DUP3 ADD MSTORE PUSH1 0x1D PUSH1 0x24 DUP3 ADD MSTORE PUSH32 0x416464726573733A2063616C6C20746F206E6F6E2D636F6E7472616374000000 PUSH1 0x44 DUP3 ADD MSTORE PUSH1 0x64 ADD PUSH2 0x237 JUMP JUMPDEST POP DUP2 PUSH2 0x81C JUMP JUMPDEST PUSH2 0x81C DUP4 DUP4 PUSH2 0xA9A JUMP JUMPDEST SWAP5 SWAP4 POP POP POP POP JUMP JUMPDEST PUSH2 0x82D DUP2 PUSH2 0xAC4 JUMP JUMPDEST PUSH1 0x40 MLOAD PUSH1 0x1 PUSH1 0x1 PUSH1 0xA0 SHL SUB DUP3 AND SWAP1 PUSH32 0xBC7CD75A20EE27FD9ADEBAB32041F755214DBC6BFFA90CC0225B39DA2E5C2D3B SWAP1 PUSH1 0x0 SWAP1 LOG2 POP JUMP JUMPDEST PUSH1 0x1 PUSH1 0x1 PUSH1 0xA0 SHL SUB DUP2 AND PUSH2 0x8C9 JUMPI PUSH1 0x40 MLOAD PUSH3 0x461BCD PUSH1 0xE5 SHL DUP2 MSTORE PUSH1 0x20 PUSH1 0x4 DUP3 ADD MSTORE PUSH1 0x26 PUSH1 0x24 DUP3 ADD MSTORE PUSH32 0x455243313936373A206E65772061646D696E20697320746865207A65726F2061 PUSH1 0x44 DUP3 ADD MSTORE PUSH6 0x646472657373 PUSH1 0xD0 SHL PUSH1 0x64 DUP3 ADD MSTORE PUSH1 0x84 ADD PUSH2 0x237 JUMP JUMPDEST DUP1 PUSH32 0xB53127684A568B3173AE13B9F8A6016E243E63B6E8EE1178D6A717850B5D6103 PUSH2 0x5CF JUMP JUMPDEST PUSH1 0x0 PUSH32 0x360894A13BA1A3210667C828492DB98DCA3E2076CC3735A920A3CA505D382BBC PUSH2 0x45F JUMP JUMPDEST PUSH1 0x60 PUSH2 0x922 PUSH2 0xB58 JUMP JUMPDEST ISZERO PUSH2 0x973 JUMPI PUSH1 0x0 PUSH2 0x96A DUP4 PUSH1 0x0 CALLDATASIZE DUP1 DUP1 PUSH1 0x1F ADD PUSH1 0x20 DUP1 SWAP2 DIV MUL PUSH1 0x20 ADD PUSH1 0x40 MLOAD SWAP1 DUP2 ADD PUSH1 0x40 MSTORE DUP1 SWAP4 SWAP3 SWAP2 SWAP1 DUP2 DUP2 MSTORE PUSH1 0x20 ADD DUP4 DUP4 DUP1 DUP3 DUP5 CALLDATACOPY PUSH1 0x0 SWAP3 ADD SWAP2 SWAP1 SWAP2 MSTORE POP PUSH2 0x3FE SWAP3 POP POP POP JUMP JUMPDEST SWAP2 POP PUSH2 0xA95 SWAP1 POP JUMP JUMPDEST PUSH1 0x0 PUSH2 0x97D PUSH2 0x5F0 JUMP JUMPDEST PUSH1 0x40 MLOAD PUSH4 0x1BF8659F PUSH1 0xE2 SHL DUP2 MSTORE SWAP1 SWAP2 POP CALLVALUE SWAP1 PUSH1 0x1 PUSH1 0x1 PUSH1 0xA0 SHL SUB DUP4 AND SWAP1 PUSH4 0x6FE1967C SWAP1 PUSH2 0x9B5 SWAP1 CALLER SWAP1 PUSH1 0x0 SWAP1 CALLDATASIZE SWAP1 DUP8 SWAP1 PUSH1 0x4 ADD PUSH2 0xD54 JUMP JUMPDEST PUSH1 0x0 PUSH1 0x40 MLOAD DUP1 DUP4 SUB DUP2 PUSH1 0x0 DUP8 DUP1 EXTCODESIZE ISZERO DUP1 ISZERO PUSH2 0x9CF JUMPI PUSH1 0x0 DUP1 REVERT JUMPDEST POP GAS CALL ISZERO DUP1 ISZERO PUSH2 0x9E3 JUMPI RETURNDATASIZE PUSH1 0x0 DUP1 RETURNDATACOPY RETURNDATASIZE PUSH1 0x0 REVERT JUMPDEST POP POP POP POP PUSH1 0x0 PUSH2 0xA2A DUP6 PUSH1 0x0 CALLDATASIZE DUP1 DUP1 PUSH1 0x1F ADD PUSH1 0x20 DUP1 SWAP2 DIV MUL PUSH1 0x20 ADD PUSH1 0x40 MLOAD SWAP1 DUP2 ADD PUSH1 0x40 MSTORE DUP1 SWAP4 SWAP3 SWAP2 SWAP1 DUP2 DUP2 MSTORE PUSH1 0x20 ADD DUP4 DUP4 DUP1 DUP3 DUP5 CALLDATACOPY PUSH1 0x0 SWAP3 ADD SWAP2 SWAP1 SWAP2 MSTORE POP PUSH2 0x3FE SWAP3 POP POP POP JUMP JUMPDEST SWAP4 POP POP PUSH1 0x40 MLOAD PUSH4 0x93163A91 PUSH1 0xE0 SHL DUP2 MSTORE PUSH1 0x1 PUSH1 0x1 PUSH1 0xA0 SHL SUB DUP4 AND SWAP1 PUSH4 0x93163A91 SWAP1 PUSH2 0xA60 SWAP1 CALLER SWAP1 PUSH1 0x0 SWAP1 CALLDATASIZE SWAP1 DUP8 SWAP1 PUSH1 0x4 ADD PUSH2 0xD54 JUMP JUMPDEST PUSH1 0x0 PUSH1 0x40 MLOAD DUP1 DUP4 SUB DUP2 PUSH1 0x0 DUP8 DUP1 EXTCODESIZE ISZERO DUP1 ISZERO PUSH2 0xA7A JUMPI PUSH1 0x0 DUP1 REVERT JUMPDEST POP GAS CALL ISZERO DUP1 ISZERO PUSH2 0xA8E JUMPI RETURNDATASIZE PUSH1 0x0 DUP1 RETURNDATACOPY RETURNDATASIZE PUSH1 0x0 REVERT JUMPDEST POP POP POP POP POP POP JUMPDEST SWAP2 SWAP1 POP JUMP JUMPDEST DUP2 MLOAD ISZERO PUSH2 0xAAA JUMPI DUP2 MLOAD DUP1 DUP4 PUSH1 0x20 ADD REVERT JUMPDEST DUP1 PUSH1 0x40 MLOAD PUSH3 0x461BCD PUSH1 0xE5 SHL DUP2 MSTORE PUSH1 0x4 ADD PUSH2 0x237 SWAP2 SWAP1 PUSH2 0xD9E JUMP JUMPDEST PUSH1 0x1 PUSH1 0x1 PUSH1 0xA0 SHL SUB DUP2 AND EXTCODESIZE PUSH2 0xB31 JUMPI PUSH1 0x40 MLOAD PUSH3 0x461BCD PUSH1 0xE5 SHL DUP2 MSTORE PUSH1 0x20 PUSH1 0x4 DUP3 ADD MSTORE PUSH1 0x2D PUSH1 0x24 DUP3 ADD MSTORE PUSH32 0x455243313936373A206E657720696D706C656D656E746174696F6E206973206E PUSH1 0x44 DUP3 ADD MSTORE PUSH13 0x1BDD08184818DBDB9D1C9858DD PUSH1 0x9A SHL PUSH1 0x64 DUP3 ADD MSTORE PUSH1 0x84 ADD PUSH2 0x237 JUMP JUMPDEST DUP1 PUSH32 0x360894A13BA1A3210667C828492DB98DCA3E2076CC3735A920A3CA505D382BBC PUSH2 0x5CF JUMP JUMPDEST PUSH1 0x0 ADDRESS PUSH1 0x1 PUSH1 0x1 PUSH1 0xA0 SHL SUB AND PUSH4 0x1E8545FF PUSH1 0x40 MLOAD DUP2 PUSH4 0xFFFFFFFF AND PUSH1 0xE0 SHL DUP2 MSTORE PUSH1 0x4 ADD PUSH1 0x0 PUSH1 0x40 MLOAD DUP1 DUP4 SUB DUP2 PUSH1 0x0 DUP8 DUP1 EXTCODESIZE ISZERO DUP1 ISZERO PUSH2 0xB95 JUMPI PUSH1 0x0 DUP1 REVERT JUMPDEST POP GAS CALL SWAP3 POP POP POP DUP1 ISZERO PUSH2 0xBA6 JUMPI POP PUSH1 0x1 JUMPDEST PUSH2 0xBB0 JUMPI POP PUSH1 0x1 SWAP1 JUMP JUMPDEST POP PUSH1 0x0 SWAP1 JUMP JUMPDEST PUSH1 0x1 PUSH1 0x1 PUSH1 0xA0 SHL SUB DUP2 AND DUP2 EQ PUSH2 0x2F3 JUMPI PUSH1 0x0 DUP1 REVERT JUMPDEST PUSH1 0x0 PUSH1 0x20 DUP3 DUP5 SUB SLT ISZERO PUSH2 0xBDD JUMPI PUSH1 0x0 DUP1 REVERT JUMPDEST DUP2 CALLDATALOAD PUSH2 0xBE8 DUP2 PUSH2 0xBB6 JUMP JUMPDEST SWAP4 SWAP3 POP POP POP JUMP JUMPDEST PUSH1 0x0 DUP1 DUP6 DUP6 GT ISZERO PUSH2 0xBFF JUMPI PUSH1 0x0 DUP1 REVERT JUMPDEST DUP4 DUP7 GT ISZERO PUSH2 0xC0C JUMPI PUSH1 0x0 DUP1 REVERT JUMPDEST POP POP DUP3 ADD SWAP4 SWAP2 SWAP1 SWAP3 SUB SWAP2 POP JUMP JUMPDEST PUSH4 0x4E487B71 PUSH1 0xE0 SHL PUSH1 0x0 MSTORE PUSH1 0x41 PUSH1 0x4 MSTORE PUSH1 0x24 PUSH1 0x0 REVERT JUMPDEST PUSH1 0x0 DUP1 PUSH1 0x40 DUP4 DUP6 SUB SLT ISZERO PUSH2 0xC42 JUMPI PUSH1 0x0 DUP1 REVERT JUMPDEST DUP3 CALLDATALOAD PUSH2 0xC4D DUP2 PUSH2 0xBB6 JUMP JUMPDEST SWAP2 POP PUSH1 0x20 DUP4 ADD CALLDATALOAD PUSH8 0xFFFFFFFFFFFFFFFF DUP1 DUP3 GT ISZERO PUSH2 0xC6A JUMPI PUSH1 0x0 DUP1 REVERT JUMPDEST DUP2 DUP6 ADD SWAP2 POP DUP6 PUSH1 0x1F DUP4 ADD SLT PUSH2 0xC7E JUMPI PUSH1 0x0 DUP1 REVERT JUMPDEST DUP2 CALLDATALOAD DUP2 DUP2 GT ISZERO PUSH2 0xC90 JUMPI PUSH2 0xC90 PUSH2 0xC19 JUMP JUMPDEST PUSH1 0x40 MLOAD PUSH1 0x1F DUP3 ADD PUSH1 0x1F NOT SWAP1 DUP2 AND PUSH1 0x3F ADD AND DUP2 ADD SWAP1 DUP4 DUP3 GT DUP2 DUP4 LT OR ISZERO PUSH2 0xCB8 JUMPI PUSH2 0xCB8 PUSH2 0xC19 JUMP JUMPDEST DUP2 PUSH1 0x40 MSTORE DUP3 DUP2 MSTORE DUP9 PUSH1 0x20 DUP5 DUP8 ADD ADD GT ISZERO PUSH2 0xCD1 JUMPI PUSH1 0x0 DUP1 REVERT JUMPDEST DUP3 PUSH1 0x20 DUP7 ADD PUSH1 0x20 DUP4 ADD CALLDATACOPY PUSH1 0x0 PUSH1 0x20 DUP5 DUP4 ADD ADD MSTORE DUP1 SWAP6 POP POP POP POP POP POP SWAP3 POP SWAP3 SWAP1 POP JUMP JUMPDEST DUP2 DUP2 SUB DUP2 DUP2 GT ISZERO PUSH2 0x426 JUMPI PUSH4 0x4E487B71 PUSH1 0xE0 SHL PUSH1 0x0 MSTORE PUSH1 0x11 PUSH1 0x4 MSTORE PUSH1 0x24 PUSH1 0x0 REVERT JUMPDEST PUSH1 0x0 JUMPDEST DUP4 DUP2 LT ISZERO PUSH2 0xD2F JUMPI DUP2 DUP2 ADD MLOAD DUP4 DUP3 ADD MSTORE PUSH1 0x20 ADD PUSH2 0xD17 JUMP JUMPDEST POP POP PUSH1 0x0 SWAP2 ADD MSTORE JUMP JUMPDEST PUSH1 0x0 DUP3 MLOAD PUSH2 0xD4A DUP2 DUP5 PUSH1 0x20 DUP8 ADD PUSH2 0xD14 JUMP JUMPDEST SWAP2 SWAP1 SWAP2 ADD SWAP3 SWAP2 POP POP JUMP JUMPDEST PUSH1 0x1 PUSH1 0x1 PUSH1 0xA0 SHL SUB DUP6 AND DUP2 MSTORE PUSH1 0x60 PUSH1 0x20 DUP3 ADD DUP2 SWAP1 MSTORE DUP2 ADD DUP4 SWAP1 MSTORE DUP3 DUP5 PUSH1 0x80 DUP4 ADD CALLDATACOPY PUSH1 0x0 PUSH1 0x80 DUP5 DUP4 ADD ADD MSTORE PUSH1 0x0 PUSH1 0x80 PUSH1 0x1F NOT PUSH1 0x1F DUP7 ADD AND DUP4 ADD ADD SWAP1 POP DUP3 PUSH1 0x40 DUP4 ADD MSTORE SWAP6 SWAP5 POP POP POP POP POP JUMP JUMPDEST PUSH1 0x20 DUP2 MSTORE PUSH1 0x0 DUP3 MLOAD DUP1 PUSH1 0x20 DUP5 ADD MSTORE PUSH2 0xDBD DUP2 PUSH1 0x40 DUP6 ADD PUSH1 0x20 DUP8 ADD PUSH2 0xD14 JUMP JUMPDEST PUSH1 0x1F ADD PUSH1 0x1F NOT AND SWAP2 SWAP1 SWAP2 ADD PUSH1 0x40 ADD SWAP3 SWAP2 POP POP JUMP INVALID COINBASE PUSH5 0x6472657373 GASPRICE KECCAK256 PUSH13 0x6F772D6C6576656C2064656C65 PUSH8 0x6174652063616C6C KECCAK256 PUSH7 0x61696C6564A264 PUSH10 0x70667358221220C66706 0xB2 0x2B BYTE SSTORE CALLDATACOPY DUP14 SWAP15 PUSH4 0xCFDCEAD7 DUP12 MULMOD PUSH3 0x24830E 0xA5 PUSH1 0xC5 OR 0xDE SWAP1 CALLCODE RETURNDATASIZE SWAP8 PUSH4 0x2764736F PUSH13 0x63430008110033B53127684A56 DUP12 BALANCE PUSH20 0xAE13B9F8A6016E243E63B6E8EE1178D6A717850B 0x5D PUSH2 0x341 PUSH5 0x6472657373 GASPRICE KECCAK256 PUSH13 0x6F772D6C6576656C2064656C65 PUSH8 0x6174652063616C6C KECCAK256 PUSH7 0x61696C65640000 "},"methodIdentifiers":{"changeFirewall(address)":"fd9e1060","changeFirewallAdmin(address)":"664f285f","firewall()":"c22a4a85","firewallAdmin()":"f05c8582","staticCallCheck()":"1e8545ff"}},"storageLayout":{"storage":[],"types":null}}}}