{
  "_format": "hh-sol-artifact-1",
  "contractName": "ApprovedCallsPolicy",
  "sourceName": "contracts/policies/ApprovedCallsPolicy.sol",
  "abi": [
    {
      "anonymous": false,
      "inputs": [
        {
          "indexed": true,
          "internalType": "address",
          "name": "previousOwner",
          "type": "address"
        },
        {
          "indexed": true,
          "internalType": "address",
          "name": "newOwner",
          "type": "address"
        }
      ],
      "name": "OwnershipTransferred",
      "type": "event"
    },
    {
      "inputs": [
        {
          "internalType": "bytes32[]",
          "name": "_callHashes",
          "type": "bytes32[]"
        }
      ],
      "name": "approveCalls",
      "outputs": [],
      "stateMutability": "nonpayable",
      "type": "function"
    },
    {
      "inputs": [
        {
          "internalType": "uint256",
          "name": "",
          "type": "uint256"
        }
      ],
      "name": "callHashes",
      "outputs": [
        {
          "internalType": "bytes32",
          "name": "",
          "type": "bytes32"
        }
      ],
      "stateMutability": "view",
      "type": "function"
    },
    {
      "inputs": [],
      "name": "owner",
      "outputs": [
        {
          "internalType": "address",
          "name": "",
          "type": "address"
        }
      ],
      "stateMutability": "view",
      "type": "function"
    },
    {
      "inputs": [
        {
          "internalType": "address",
          "name": "",
          "type": "address"
        },
        {
          "internalType": "address",
          "name": "",
          "type": "address"
        },
        {
          "internalType": "bytes",
          "name": "",
          "type": "bytes"
        },
        {
          "internalType": "uint256",
          "name": "",
          "type": "uint256"
        }
      ],
      "name": "postExecution",
      "outputs": [],
      "stateMutability": "nonpayable",
      "type": "function"
    },
    {
      "inputs": [
        {
          "internalType": "address",
          "name": "consumer",
          "type": "address"
        },
        {
          "internalType": "address",
          "name": "sender",
          "type": "address"
        },
        {
          "internalType": "bytes",
          "name": "data",
          "type": "bytes"
        },
        {
          "internalType": "uint256",
          "name": "value",
          "type": "uint256"
        }
      ],
      "name": "preExecution",
      "outputs": [],
      "stateMutability": "nonpayable",
      "type": "function"
    },
    {
      "inputs": [],
      "name": "renounceOwnership",
      "outputs": [],
      "stateMutability": "nonpayable",
      "type": "function"
    },
    {
      "inputs": [
        {
          "internalType": "address",
          "name": "newOwner",
          "type": "address"
        }
      ],
      "name": "transferOwnership",
      "outputs": [],
      "stateMutability": "nonpayable",
      "type": "function"
    }
  ],
  "bytecode": "0x608060405234801561001057600080fd5b5061001a3361001f565b61006f565b600080546001600160a01b038381166001600160a01b0319831681178455604051919092169283917f8be0079c531659141344cd1fd0a4f28419497f9722a3daafe3b4186f6b6457e09190a35050565b61070b8061007e6000396000f3fe608060405234801561001057600080fd5b506004361061007d5760003560e01c806394b131911161005b57806394b13191146100cd578063c6d4328b146100e0578063d9739cda146100f5578063f2fde38b1461010857600080fd5b806350f9b92e14610082578063715018a6146100a85780638da5cb5b146100b2575b600080fd5b6100956100903660046104b7565b61011b565b6040519081526020015b60405180910390f35b6100b061013c565b005b6000546040516001600160a01b03909116815260200161009f565b6100b06100db3660046104d0565b610150565b6100b06100ee366004610561565b5050505050565b6100b0610103366004610561565b610169565b6100b06101163660046105f7565b6102f8565b6001818154811061012b57600080fd5b600091825260209091200154905081565b610144610371565b61014e60006103cb565b565b610158610371565b61016460018383610457565b505050565b7f5240afa92511149d1ea75355dd533487007d2505fa7bfdceab11878262a081b6546100ee576001546101f25760405162461bcd60e51b815260206004820152602660248201527f417070726f76656443616c6c73506f6c6963793a2063616c6c2068617368657360448201526520656d70747960d01b60648201526084015b60405180910390fd5b600061023886863287878080601f01602080910402602001604051908101604052809392919081815260200183838082843760009201919091525089925061041b915050565b6001805491925060009161024d908290610619565b8154811061025d5761025d610640565b906000526020600020015490508082146102c85760405162461bcd60e51b815260206004820152602660248201527f417070726f76656443616c6c73506f6c6963793a20696e76616c69642063616c6044820152650d840d0c2e6d60d31b60648201526084016101e9565b60018054806102d9576102d9610656565b6001900381819060005260206000200160009055905550505050505050565b610300610371565b6001600160a01b0381166103655760405162461bcd60e51b815260206004820152602660248201527f4f776e61626c653a206e6577206f776e657220697320746865207a65726f206160448201526564647265737360d01b60648201526084016101e9565b61036e816103cb565b50565b6000546001600160a01b0316331461014e5760405162461bcd60e51b815260206004820181905260248201527f4f776e61626c653a2063616c6c6572206973206e6f7420746865206f776e657260448201526064016101e9565b600080546001600160a01b038381166001600160a01b0319831681178455604051919092169283917f8be0079c531659141344cd1fd0a4f28419497f9722a3daafe3b4186f6b6457e09190a35050565b6000858585858560405160200161043695949392919061066c565b60405160208183030381529060405280519060200120905095945050505050565b828054828255906000526020600020908101928215610492579160200282015b82811115610492578235825591602001919060010190610477565b5061049e9291506104a2565b5090565b5b8082111561049e57600081556001016104a3565b6000602082840312156104c957600080fd5b5035919050565b600080602083850312156104e357600080fd5b823567ffffffffffffffff808211156104fb57600080fd5b818501915085601f83011261050f57600080fd5b81358181111561051e57600080fd5b8660208260051b850101111561053357600080fd5b60209290920196919550909350505050565b80356001600160a01b038116811461055c57600080fd5b919050565b60008060008060006080868803121561057957600080fd5b61058286610545565b945061059060208701610545565b9350604086013567ffffffffffffffff808211156105ad57600080fd5b818801915088601f8301126105c157600080fd5b8135818111156105d057600080fd5b8960208285010111156105e257600080fd5b96999598505060200195606001359392505050565b60006020828403121561060957600080fd5b61061282610545565b9392505050565b8181038181111561063a57634e487b7160e01b600052601160045260246000fd5b92915050565b634e487b7160e01b600052603260045260246000fd5b634e487b7160e01b600052603160045260246000fd5b60006bffffffffffffffffffffffff19808860601b168352808760601b166014840152808660601b16602884015250835160005b818110156106bd576020818701810151603c8684010152016106a0565b50603c920191820192909252605c019594505050505056fea2646970667358221220f540f38d6c40900357fbf3f8be7952a611bb7f5442a8e181a4e7d2e99bd462ef64736f6c63430008110033",
  "linkReferences": {},
  "deployedLinkReferences": {}
}