{
  "_format": "hh-sol-artifact-1",
  "contractName": "FirewallTransparentUpgradeableProxy",
  "sourceName": "contracts/proxy/FirewallTransparentUpgradeableProxy.sol",
  "abi": [
    {
      "inputs": [
        {
          "internalType": "address",
          "name": "_logic",
          "type": "address"
        },
        {
          "internalType": "address",
          "name": "admin_",
          "type": "address"
        },
        {
          "internalType": "bytes",
          "name": "_data",
          "type": "bytes"
        },
        {
          "internalType": "address",
          "name": "_firewall",
          "type": "address"
        },
        {
          "internalType": "address",
          "name": "_firewallAdmin",
          "type": "address"
        }
      ],
      "stateMutability": "payable",
      "type": "constructor"
    },
    {
      "anonymous": false,
      "inputs": [
        {
          "indexed": false,
          "internalType": "address",
          "name": "previousAdmin",
          "type": "address"
        },
        {
          "indexed": false,
          "internalType": "address",
          "name": "newAdmin",
          "type": "address"
        }
      ],
      "name": "AdminChanged",
      "type": "event"
    },
    {
      "anonymous": false,
      "inputs": [
        {
          "indexed": true,
          "internalType": "address",
          "name": "beacon",
          "type": "address"
        }
      ],
      "name": "BeaconUpgraded",
      "type": "event"
    },
    {
      "anonymous": false,
      "inputs": [],
      "name": "StaticCallCheck",
      "type": "event"
    },
    {
      "anonymous": false,
      "inputs": [
        {
          "indexed": true,
          "internalType": "address",
          "name": "implementation",
          "type": "address"
        }
      ],
      "name": "Upgraded",
      "type": "event"
    },
    {
      "stateMutability": "payable",
      "type": "fallback"
    },
    {
      "inputs": [
        {
          "internalType": "address",
          "name": "_firewall",
          "type": "address"
        }
      ],
      "name": "changeFirewall",
      "outputs": [],
      "stateMutability": "nonpayable",
      "type": "function"
    },
    {
      "inputs": [
        {
          "internalType": "address",
          "name": "_firewallAdmin",
          "type": "address"
        }
      ],
      "name": "changeFirewallAdmin",
      "outputs": [],
      "stateMutability": "nonpayable",
      "type": "function"
    },
    {
      "inputs": [],
      "name": "firewall",
      "outputs": [
        {
          "internalType": "address",
          "name": "",
          "type": "address"
        }
      ],
      "stateMutability": "nonpayable",
      "type": "function"
    },
    {
      "inputs": [],
      "name": "firewallAdmin",
      "outputs": [
        {
          "internalType": "address",
          "name": "",
          "type": "address"
        }
      ],
      "stateMutability": "nonpayable",
      "type": "function"
    },
    {
      "inputs": [],
      "name": "staticCallCheck",
      "outputs": [],
      "stateMutability": "nonpayable",
      "type": "function"
    },
    {
      "stateMutability": "payable",
      "type": "receive"
    }
  ],
  "bytecode": "0x60806040526040516200153538038062001535833981016040819052620000269162000535565b8484848281620000398282600062000071565b5062000047905082620000ae565b5050506200005b826200010960201b60201c565b620000668162000170565b5050505050620006b0565b6200007c83620001a2565b6000825111806200008a5750805b15620000a957620000a78383620001e460201b620003fe1760201c565b505b505050565b7f7e644d79422f17c01e4894b5f4f588d331ebfa28653d42ae832dc59e38c9798f620000d962000215565b604080516001600160a01b03928316815291841660208301520160405180910390a162000106816200024e565b50565b806200014f6200013b60017f5dd2e3b890564a8f99f7f203f226a27a8aa59aee19a4ece5cf5eaa77ab91f6626200063b565b60001b620002e260201b6200032c1760201c565b80546001600160a01b0319166001600160a01b039290921691909117905550565b806200014f6200013b60017f29982a6ac507a2a707ced6dee5d76285dd49725db977de83d9702c628c9741366200063b565b620001ad81620002e5565b6040516001600160a01b038216907fbc7cd75a20ee27fd9adebab32041f755214dbc6bffa90cc0225b39da2e5c2d3b90600090a250565b60606200020c83836040518060600160405280602781526020016200150e6027913962000399565b90505b92915050565b60006200023f600080516020620014ee83398151915260001b620002e260201b6200032c1760201c565b546001600160a01b0316919050565b6001600160a01b038116620002b95760405162461bcd60e51b815260206004820152602660248201527f455243313936373a206e65772061646d696e20697320746865207a65726f206160448201526564647265737360d01b60648201526084015b60405180910390fd5b806200014f600080516020620014ee83398151915260001b620002e260201b6200032c1760201c565b90565b620002fb816200041860201b6200042c1760201c565b6200035f5760405162461bcd60e51b815260206004820152602d60248201527f455243313936373a206e657720696d706c656d656e746174696f6e206973206e60448201526c1bdd08184818dbdb9d1c9858dd609a1b6064820152608401620002b0565b806200014f7f360894a13ba1a3210667c828492db98dca3e2076cc3735a920a3ca505d382bbc60001b620002e260201b6200032c1760201c565b6060600080856001600160a01b031685604051620003b891906200065d565b600060405180830381855af49150503d8060008114620003f5576040519150601f19603f3d011682016040523d82523d6000602084013e620003fa565b606091505b5090925090506200040e8683838762000427565b9695505050505050565b6001600160a01b03163b151590565b606083156200049b57825160000362000493576001600160a01b0385163b620004935760405162461bcd60e51b815260206004820152601d60248201527f416464726573733a2063616c6c20746f206e6f6e2d636f6e74726163740000006044820152606401620002b0565b5081620004a7565b620004a78383620004af565b949350505050565b815115620004c05781518083602001fd5b8060405162461bcd60e51b8152600401620002b091906200067b565b80516001600160a01b0381168114620004f457600080fd5b919050565b634e487b7160e01b600052604160045260246000fd5b60005b838110156200052c57818101518382015260200162000512565b50506000910152565b600080600080600060a086880312156200054e57600080fd5b6200055986620004dc565b94506200056960208701620004dc565b60408701519094506001600160401b03808211156200058757600080fd5b818801915088601f8301126200059c57600080fd5b815181811115620005b157620005b1620004f9565b604051601f8201601f19908116603f01168101908382118183101715620005dc57620005dc620004f9565b816040528281528b6020848701011115620005f657600080fd5b620006098360208301602088016200050f565b80975050505050506200061f60608701620004dc565b91506200062f60808701620004dc565b90509295509295909350565b818103818111156200020f57634e487b7160e01b600052601160045260246000fd5b60008251620006718184602087016200050f565b9190910192915050565b60208152600082518060208401526200069c8160408501602087016200050f565b601f01601f19169190910160400192915050565b610e2e80620006c06000396000f3fe60806040526004361061004e5760003560e01c80631e8545ff14610065578063664f285f1461007a578063c22a4a851461009a578063f05c8582146100cb578063fd9e1060146100e05761005d565b3661005d5761005b610100565b005b61005b610100565b34801561007157600080fd5b5061005b610252565b34801561008657600080fd5b5061005b610095366004610bcb565b61027d565b3480156100a657600080fd5b506100af6102fe565b6040516001600160a01b03909116815260200160405180910390f35b3480156100d757600080fd5b506100af61032f565b3480156100ec57600080fd5b5061005b6100fb366004610bcb565b610388565b61010861043b565b6001600160a01b031633036102485760606001600160e01b0319600035166364d3180d60e11b81016101435761013c61046e565b9150610240565b63587086bd60e11b6001600160e01b03198216016101635761013c6104c5565b63070d7c6960e41b6001600160e01b03198216016101835761013c61050b565b621eb96f60e61b6001600160e01b03198216016101a25761013c61053c565b63a39f25e560e01b6001600160e01b03198216016101c25761013c61057c565b60405162461bcd60e51b815260206004820152604260248201527f5472616e73706172656e745570677261646561626c6550726f78793a2061646d60448201527f696e2063616e6e6f742066616c6c6261636b20746f2070726f78792074617267606482015261195d60f21b608482015260a4015b60405180910390fd5b815160208301f35b610250610590565b565b6040517f6832e49adbb4121c72b63aad2aafe3e3a25b5e7624a192b19e60a513de6f957090600090a1565b61028561043b565b6001600160a01b031633036102f6576001600160a01b0381166102ea5760405162461bcd60e51b815260206004820152601e60248201527f4669726577616c6c436f6e73756d65723a207a65726f206164647265737300006044820152606401610237565b6102f3816105a0565b50565b6102f3610100565b600061030861043b565b6001600160a01b031633036103245761031f6105f0565b905090565b61032c610100565b90565b60008061033a6105f0565b9050600061034661043b565b9050336001600160a01b03831614806103675750336001600160a01b038216145b1561037b57610374610620565b9250505090565b610383610100565b505090565b61039061043b565b6001600160a01b031633036102f6576001600160a01b0381166103f55760405162461bcd60e51b815260206004820152601e60248201527f4669726577616c6c436f6e73756d65723a207a65726f206164647265737300006044820152606401610237565b6102f381610650565b60606104238383604051806060016040528060278152602001610dd26027913961067f565b90505b92915050565b6001600160a01b03163b151590565b60007fb53127684a568b3173ae13b9f8a6016e243e63b6e8ee1178d6a717850b5d61035b546001600160a01b0316919050565b60606104786106f7565b60006104873660048184610bef565b8101906104949190610bcb565b90506104b181604051806020016040528060008152506000610702565b505060408051602081019091526000815290565b60606000806104d73660048184610bef565b8101906104e49190610c2f565b915091506104f482826001610702565b604051806020016040528060008152509250505090565b60606105156106f7565b60006105243660048184610bef565b8101906105319190610bcb565b90506104b18161072e565b60606105466106f7565b600061055061043b565b604080516001600160a01b03831660208201529192500160405160208183030381529060405291505090565b60606105866106f7565b6000610550610782565b61025061059b610782565b61078c565b806105cf61032c60017f29982a6ac507a2a707ced6dee5d76285dd49725db977de83d9702c628c974136610cf3565b80546001600160a01b0319166001600160a01b039290921691909117905550565b600061045f61032c60017f5dd2e3b890564a8f99f7f203f226a27a8aa59aee19a4ece5cf5eaa77ab91f662610cf3565b600061045f61032c60017f29982a6ac507a2a707ced6dee5d76285dd49725db977de83d9702c628c974136610cf3565b806105cf61032c60017f5dd2e3b890564a8f99f7f203f226a27a8aa59aee19a4ece5cf5eaa77ab91f662610cf3565b6060600080856001600160a01b03168560405161069c9190610d38565b600060405180830381855af49150503d80600081146106d7576040519150601f19603f3d011682016040523d82523d6000602084013e6106dc565b606091505b50915091506106ed868383876107a3565b9695505050505050565b341561025057600080fd5b61070b83610824565b6000825111806107185750805b156107295761072783836103fe565b505b505050565b7f7e644d79422f17c01e4894b5f4f588d331ebfa28653d42ae832dc59e38c9798f61075761043b565b604080516001600160a01b03928316815291841660208301520160405180910390a16102f381610864565b600061031f6108f0565b600061079782610918565b80519091508060208301f35b6060831561081257825160000361080b576001600160a01b0385163b61080b5760405162461bcd60e51b815260206004820152601d60248201527f416464726573733a2063616c6c20746f206e6f6e2d636f6e74726163740000006044820152606401610237565b508161081c565b61081c8383610a9a565b949350505050565b61082d81610ac4565b6040516001600160a01b038216907fbc7cd75a20ee27fd9adebab32041f755214dbc6bffa90cc0225b39da2e5c2d3b90600090a250565b6001600160a01b0381166108c95760405162461bcd60e51b815260206004820152602660248201527f455243313936373a206e65772061646d696e20697320746865207a65726f206160448201526564647265737360d01b6064820152608401610237565b807fb53127684a568b3173ae13b9f8a6016e243e63b6e8ee1178d6a717850b5d61036105cf565b60007f360894a13ba1a3210667c828492db98dca3e2076cc3735a920a3ca505d382bbc61045f565b6060610922610b58565b1561097357600061096a836000368080601f0160208091040260200160405190810160405280939291908181526020018383808284376000920191909152506103fe92505050565b9150610a959050565b600061097d6105f0565b604051631bf8659f60e21b815290915034906001600160a01b03831690636fe1967c906109b590339060009036908790600401610d54565b600060405180830381600087803b1580156109cf57600080fd5b505af11580156109e3573d6000803e3d6000fd5b505050506000610a2a856000368080601f0160208091040260200160405190810160405280939291908181526020018383808284376000920191909152506103fe92505050565b9350506040516393163a9160e01b81526001600160a01b038316906393163a9190610a6090339060009036908790600401610d54565b600060405180830381600087803b158015610a7a57600080fd5b505af1158015610a8e573d6000803e3d6000fd5b5050505050505b919050565b815115610aaa5781518083602001fd5b8060405162461bcd60e51b81526004016102379190610d9e565b6001600160a01b0381163b610b315760405162461bcd60e51b815260206004820152602d60248201527f455243313936373a206e657720696d706c656d656e746174696f6e206973206e60448201526c1bdd08184818dbdb9d1c9858dd609a1b6064820152608401610237565b807f360894a13ba1a3210667c828492db98dca3e2076cc3735a920a3ca505d382bbc6105cf565b6000306001600160a01b0316631e8545ff6040518163ffffffff1660e01b8152600401600060405180830381600087803b158015610b9557600080fd5b505af1925050508015610ba6575060015b610bb05750600190565b50600090565b6001600160a01b03811681146102f357600080fd5b600060208284031215610bdd57600080fd5b8135610be881610bb6565b9392505050565b60008085851115610bff57600080fd5b83861115610c0c57600080fd5b5050820193919092039150565b634e487b7160e01b600052604160045260246000fd5b60008060408385031215610c4257600080fd5b8235610c4d81610bb6565b9150602083013567ffffffffffffffff80821115610c6a57600080fd5b818501915085601f830112610c7e57600080fd5b813581811115610c9057610c90610c19565b604051601f8201601f19908116603f01168101908382118183101715610cb857610cb8610c19565b81604052828152886020848701011115610cd157600080fd5b8260208601602083013760006020848301015280955050505050509250929050565b8181038181111561042657634e487b7160e01b600052601160045260246000fd5b60005b83811015610d2f578181015183820152602001610d17565b50506000910152565b60008251610d4a818460208701610d14565b9190910192915050565b6001600160a01b038516815260606020820181905281018390528284608083013760006080848301015260006080601f19601f860116830101905082604083015295945050505050565b6020815260008251806020840152610dbd816040850160208701610d14565b601f01601f1916919091016040019291505056fe416464726573733a206c6f772d6c6576656c2064656c65676174652063616c6c206661696c6564a2646970667358221220c66706b22b1a55378d9e63cfdcead78b096224830ea560c517de90f23d97632764736f6c63430008110033b53127684a568b3173ae13b9f8a6016e243e63b6e8ee1178d6a717850b5d6103416464726573733a206c6f772d6c6576656c2064656c65676174652063616c6c206661696c6564",
  "linkReferences": {},
  "deployedLinkReferences": {}
}