{
  "_format": "hh-sol-artifact-1",
  "contractName": "SampleContractUser",
  "sourceName": "contracts/test/SampleContractUser.sol",
  "abi": [
    {
      "inputs": [
        {
          "internalType": "address",
          "name": "sampleConsumer",
          "type": "address"
        }
      ],
      "name": "depositAndWithdraw",
      "outputs": [],
      "stateMutability": "payable",
      "type": "function"
    },
    {
      "stateMutability": "payable",
      "type": "receive"
    }
  ],
  "bytecode": "0x608060405234801561001057600080fd5b5061015a806100206000396000f3fe6080604052600436106100225760003560e01c8063404403351461002e57600080fd5b3661002957005b600080fd5b61004161003c3660046100f4565b610043565b005b806001600160a01b031663d0e30db0346040518263ffffffff1660e01b81526004016000604051808303818588803b15801561007e57600080fd5b505af1158015610092573d6000803e3d6000fd5b5050604051632e1a7d4d60e01b81523460048201526001600160a01b0385169350632e1a7d4d92506024019050600060405180830381600087803b1580156100d957600080fd5b505af11580156100ed573d6000803e3d6000fd5b5050505050565b60006020828403121561010657600080fd5b81356001600160a01b038116811461011d57600080fd5b939250505056fea2646970667358221220be7718e0431bd5dfe8aa094ee05d020e9bd08b2212d33bc07852f7a2f35972c964736f6c63430008110033",
  "linkReferences": {},
  "deployedLinkReferences": {}
}