{
  "_format": "hh-sol-artifact-1",
  "contractName": "BalanceChangePolicy",
  "sourceName": "contracts/policies/BalanceChangePolicy.sol",
  "abi": [
    {
      "anonymous": false,
      "inputs": [
        {
          "indexed": true,
          "internalType": "address",
          "name": "previousOwner",
          "type": "address"
        },
        {
          "indexed": true,
          "internalType": "address",
          "name": "newOwner",
          "type": "address"
        }
      ],
      "name": "OwnershipTransferred",
      "type": "event"
    },
    {
      "inputs": [
        {
          "internalType": "address",
          "name": "",
          "type": "address"
        }
      ],
      "name": "consumerLastBalance",
      "outputs": [
        {
          "internalType": "uint256",
          "name": "",
          "type": "uint256"
        }
      ],
      "stateMutability": "view",
      "type": "function"
    },
    {
      "inputs": [
        {
          "internalType": "address",
          "name": "",
          "type": "address"
        }
      ],
      "name": "consumerMaxBalanceChange",
      "outputs": [
        {
          "internalType": "uint256",
          "name": "",
          "type": "uint256"
        }
      ],
      "stateMutability": "view",
      "type": "function"
    },
    {
      "inputs": [],
      "name": "owner",
      "outputs": [
        {
          "internalType": "address",
          "name": "",
          "type": "address"
        }
      ],
      "stateMutability": "view",
      "type": "function"
    },
    {
      "inputs": [
        {
          "internalType": "address",
          "name": "consumer",
          "type": "address"
        },
        {
          "internalType": "address",
          "name": "",
          "type": "address"
        },
        {
          "internalType": "bytes",
          "name": "",
          "type": "bytes"
        },
        {
          "internalType": "uint256",
          "name": "",
          "type": "uint256"
        }
      ],
      "name": "postExecution",
      "outputs": [],
      "stateMutability": "view",
      "type": "function"
    },
    {
      "inputs": [
        {
          "internalType": "address",
          "name": "consumer",
          "type": "address"
        },
        {
          "internalType": "address",
          "name": "",
          "type": "address"
        },
        {
          "internalType": "bytes",
          "name": "",
          "type": "bytes"
        },
        {
          "internalType": "uint256",
          "name": "value",
          "type": "uint256"
        }
      ],
      "name": "preExecution",
      "outputs": [],
      "stateMutability": "nonpayable",
      "type": "function"
    },
    {
      "inputs": [],
      "name": "renounceOwnership",
      "outputs": [],
      "stateMutability": "nonpayable",
      "type": "function"
    },
    {
      "inputs": [
        {
          "internalType": "address",
          "name": "consumer",
          "type": "address"
        },
        {
          "internalType": "uint256",
          "name": "maxBalanceChange",
          "type": "uint256"
        }
      ],
      "name": "setConsumerMaxBalanceChange",
      "outputs": [],
      "stateMutability": "nonpayable",
      "type": "function"
    },
    {
      "inputs": [
        {
          "internalType": "address",
          "name": "newOwner",
          "type": "address"
        }
      ],
      "name": "transferOwnership",
      "outputs": [],
      "stateMutability": "nonpayable",
      "type": "function"
    }
  ],
  "bytecode": "0x608060405234801561001057600080fd5b5061001a3361001f565b61006f565b600080546001600160a01b038381166001600160a01b0319831681178455604051919092169283917f8be0079c531659141344cd1fd0a4f28419497f9722a3daafe3b4186f6b6457e09190a35050565b6105678061007e6000396000f3fe608060405234801561001057600080fd5b50600436106100885760003560e01c80639588126a1161005b5780639588126a146100f8578063c6d4328b14610118578063d9739cda1461012b578063f2fde38b1461013e57600080fd5b806319c887691461008d5780635d5c0b58146100a2578063715018a6146100d55780638da5cb5b146100dd575b600080fd5b6100a061009b3660046103ce565b610151565b005b6100c26100b03660046103f8565b60026020526000908152604090205481565b6040519081526020015b60405180910390f35b6100a0610175565b6000546040516001600160a01b0390911681526020016100cc565b6100c26101063660046103f8565b60016020526000908152604090205481565b6100a0610126366004610430565b610189565b6100a0610139366004610430565b610259565b6100a061014c3660046103f8565b61028f565b610159610308565b6001600160a01b03909116600090815260016020526040902055565b61017d610308565b6101876000610362565b565b6001600160a01b038416600081815260026020526040812054913190828210156101bc576101b7828461050a565b6101c6565b6101c6838361050a565b6001600160a01b0388166000908152600160205260409020549091508111156102505760405162461bcd60e51b815260206004820152603160248201527f42616c616e63654368616e6765506f6c6963793a2042616c616e6365206368616044820152701b99d948195e18d959591cc81b1a5b5a5d607a1b60648201526084015b60405180910390fd5b50505050505050565b61026d816001600160a01b0386163161050a565b6001600160a01b03909416600090815260026020526040902093909355505050565b610297610308565b6001600160a01b0381166102fc5760405162461bcd60e51b815260206004820152602660248201527f4f776e61626c653a206e6577206f776e657220697320746865207a65726f206160448201526564647265737360d01b6064820152608401610247565b61030581610362565b50565b6000546001600160a01b031633146101875760405162461bcd60e51b815260206004820181905260248201527f4f776e61626c653a2063616c6c6572206973206e6f7420746865206f776e65726044820152606401610247565b600080546001600160a01b038381166001600160a01b0319831681178455604051919092169283917f8be0079c531659141344cd1fd0a4f28419497f9722a3daafe3b4186f6b6457e09190a35050565b80356001600160a01b03811681146103c957600080fd5b919050565b600080604083850312156103e157600080fd5b6103ea836103b2565b946020939093013593505050565b60006020828403121561040a57600080fd5b610413826103b2565b9392505050565b634e487b7160e01b600052604160045260246000fd5b6000806000806080858703121561044657600080fd5b61044f856103b2565b935061045d602086016103b2565b9250604085013567ffffffffffffffff8082111561047a57600080fd5b818701915087601f83011261048e57600080fd5b8135818111156104a0576104a061041a565b604051601f8201601f19908116603f011681019083821181831017156104c8576104c861041a565b816040528281528a60208487010111156104e157600080fd5b826020860160208301376000928101602001929092525095989497509495606001359450505050565b8181038181111561052b57634e487b7160e01b600052601160045260246000fd5b9291505056fea264697066735822122061e3b78965e7f826c65c9bbcc1245c2ab207eddd17dfabbb9b79f817fa011abe64736f6c63430008110033",
  "linkReferences": {},
  "deployedLinkReferences": {}
}