{
  "_format": "hh-sol-artifact-1",
  "contractName": "FirewallConsumer",
  "sourceName": "contracts/FirewallConsumer.sol",
  "abi": [
    {
      "inputs": [
        {
          "internalType": "address",
          "name": "_firewall",
          "type": "address"
        },
        {
          "internalType": "address",
          "name": "_firewallAdmin",
          "type": "address"
        }
      ],
      "stateMutability": "nonpayable",
      "type": "constructor"
    },
    {
      "inputs": [],
      "name": "firewallAdmin",
      "outputs": [
        {
          "internalType": "address",
          "name": "",
          "type": "address"
        }
      ],
      "stateMutability": "view",
      "type": "function"
    },
    {
      "inputs": [
        {
          "internalType": "address",
          "name": "_firewall",
          "type": "address"
        }
      ],
      "name": "setFirewall",
      "outputs": [],
      "stateMutability": "nonpayable",
      "type": "function"
    },
    {
      "inputs": [
        {
          "internalType": "address",
          "name": "_firewallAdmin",
          "type": "address"
        }
      ],
      "name": "setFirewallAdmin",
      "outputs": [],
      "stateMutability": "nonpayable",
      "type": "function"
    }
  ],
  "bytecode": "0x608060405234801561001057600080fd5b506040516102fc3803806102fc83398101604081905261002f9161007c565b600080546001600160a01b039384166001600160a01b031991821617909155600180549290931691161790556100af565b80516001600160a01b038116811461007757600080fd5b919050565b6000806040838503121561008f57600080fd5b61009883610060565b91506100a660208401610060565b90509250929050565b61023e806100be6000396000f3fe608060405234801561001057600080fd5b50600436106100415760003560e01c8063734b7198146100465780638c36d02d1461005b578063f05c85821461006e575b600080fd5b610059610054366004610194565b61009d565b005b610059610069366004610194565b610148565b600154610081906001600160a01b031681565b6040516001600160a01b03909116815260200160405180910390f35b6001546001600160a01b031633146100d05760405162461bcd60e51b81526004016100c7906101c4565b60405180910390fd5b6001600160a01b0381166101265760405162461bcd60e51b815260206004820152601e60248201527f4669726577616c6c436f6e73756d65723a207a65726f2061646472657373000060448201526064016100c7565b600180546001600160a01b0319166001600160a01b0392909216919091179055565b6001546001600160a01b031633146101725760405162461bcd60e51b81526004016100c7906101c4565b600080546001600160a01b0319166001600160a01b0392909216919091179055565b6000602082840312156101a657600080fd5b81356001600160a01b03811681146101bd57600080fd5b9392505050565b60208082526024908201527f4669726577616c6c436f6e73756d65723a206e6f74206669726577616c6c20616040820152633236b4b760e11b60608201526080019056fea26469706673582212207198c6e19d3fb5a0cd29f027da3676c368abd68aad9bb0de22c588772f86699f64736f6c63430008110033",
  "linkReferences": {},
  "deployedLinkReferences": {}
}