{
  "_format": "hh-sol-artifact-1",
  "contractName": "FirewallProxyAdmin",
  "sourceName": "contracts/proxy/FirewallProxyAdmin.sol",
  "abi": [
    {
      "anonymous": false,
      "inputs": [
        {
          "indexed": true,
          "internalType": "address",
          "name": "previousOwner",
          "type": "address"
        },
        {
          "indexed": true,
          "internalType": "address",
          "name": "newOwner",
          "type": "address"
        }
      ],
      "name": "OwnershipTransferred",
      "type": "event"
    },
    {
      "inputs": [
        {
          "internalType": "contract FirewallTransparentUpgradeableProxy",
          "name": "proxy",
          "type": "address"
        },
        {
          "internalType": "address",
          "name": "newFirewall",
          "type": "address"
        }
      ],
      "name": "changeFirewall",
      "outputs": [],
      "stateMutability": "nonpayable",
      "type": "function"
    },
    {
      "inputs": [
        {
          "internalType": "contract FirewallTransparentUpgradeableProxy",
          "name": "proxy",
          "type": "address"
        },
        {
          "internalType": "address",
          "name": "newFirewallAdmin",
          "type": "address"
        }
      ],
      "name": "changeFirewallAdmin",
      "outputs": [],
      "stateMutability": "nonpayable",
      "type": "function"
    },
    {
      "inputs": [
        {
          "internalType": "contract ITransparentUpgradeableProxy",
          "name": "proxy",
          "type": "address"
        },
        {
          "internalType": "address",
          "name": "newAdmin",
          "type": "address"
        }
      ],
      "name": "changeProxyAdmin",
      "outputs": [],
      "stateMutability": "nonpayable",
      "type": "function"
    },
    {
      "inputs": [
        {
          "internalType": "contract ITransparentUpgradeableProxy",
          "name": "proxy",
          "type": "address"
        }
      ],
      "name": "getProxyAdmin",
      "outputs": [
        {
          "internalType": "address",
          "name": "",
          "type": "address"
        }
      ],
      "stateMutability": "view",
      "type": "function"
    },
    {
      "inputs": [
        {
          "internalType": "contract FirewallTransparentUpgradeableProxy",
          "name": "proxy",
          "type": "address"
        }
      ],
      "name": "getProxyFirewall",
      "outputs": [
        {
          "internalType": "address",
          "name": "",
          "type": "address"
        }
      ],
      "stateMutability": "view",
      "type": "function"
    },
    {
      "inputs": [
        {
          "internalType": "contract FirewallTransparentUpgradeableProxy",
          "name": "proxy",
          "type": "address"
        }
      ],
      "name": "getProxyFirewallAdmin",
      "outputs": [
        {
          "internalType": "address",
          "name": "",
          "type": "address"
        }
      ],
      "stateMutability": "view",
      "type": "function"
    },
    {
      "inputs": [
        {
          "internalType": "contract ITransparentUpgradeableProxy",
          "name": "proxy",
          "type": "address"
        }
      ],
      "name": "getProxyImplementation",
      "outputs": [
        {
          "internalType": "address",
          "name": "",
          "type": "address"
        }
      ],
      "stateMutability": "view",
      "type": "function"
    },
    {
      "inputs": [],
      "name": "owner",
      "outputs": [
        {
          "internalType": "address",
          "name": "",
          "type": "address"
        }
      ],
      "stateMutability": "view",
      "type": "function"
    },
    {
      "inputs": [],
      "name": "renounceOwnership",
      "outputs": [],
      "stateMutability": "nonpayable",
      "type": "function"
    },
    {
      "inputs": [
        {
          "internalType": "address",
          "name": "newOwner",
          "type": "address"
        }
      ],
      "name": "transferOwnership",
      "outputs": [],
      "stateMutability": "nonpayable",
      "type": "function"
    },
    {
      "inputs": [
        {
          "internalType": "contract ITransparentUpgradeableProxy",
          "name": "proxy",
          "type": "address"
        },
        {
          "internalType": "address",
          "name": "implementation",
          "type": "address"
        }
      ],
      "name": "upgrade",
      "outputs": [],
      "stateMutability": "nonpayable",
      "type": "function"
    },
    {
      "inputs": [
        {
          "internalType": "contract ITransparentUpgradeableProxy",
          "name": "proxy",
          "type": "address"
        },
        {
          "internalType": "address",
          "name": "implementation",
          "type": "address"
        },
        {
          "internalType": "bytes",
          "name": "data",
          "type": "bytes"
        }
      ],
      "name": "upgradeAndCall",
      "outputs": [],
      "stateMutability": "payable",
      "type": "function"
    }
  ],
  "bytecode": "0x608060405234801561001057600080fd5b5061001a3361001f565b61006f565b600080546001600160a01b038381166001600160a01b0319831681178455604051919092169283917f8be0079c531659141344cd1fd0a4f28419497f9722a3daafe3b4186f6b6457e09190a35050565b6107f78061007e6000396000f3fe6080604052600436106100a75760003560e01c806399a88ec41161006457806399a88ec414610170578063b327806f14610190578063c066202a146101b0578063c2f72978146101d0578063f2fde38b146101f0578063f3b7dead1461021057600080fd5b8063204e1c7a146100ac5780635d2eb3dc146100e8578063715018a6146101085780637eff275e1461011f5780638da5cb5b1461013f5780639623609d1461015d575b600080fd5b3480156100b857600080fd5b506100cc6100c73660046105fd565b610230565b6040516001600160a01b03909116815260200160405180910390f35b3480156100f457600080fd5b506100cc6101033660046105fd565b6102c1565b34801561011457600080fd5b5061011d6102e7565b005b34801561012b57600080fd5b5061011d61013a366004610621565b6102fb565b34801561014b57600080fd5b506000546001600160a01b03166100cc565b61011d61016b366004610670565b610363565b34801561017c57600080fd5b5061011d61018b366004610621565b6103d2565b34801561019c57600080fd5b5061011d6101ab366004610621565b610408565b3480156101bc57600080fd5b5061011d6101cb366004610621565b61043e565b3480156101dc57600080fd5b506100cc6101eb3660046105fd565b610474565b3480156101fc57600080fd5b5061011d61020b3660046105fd565b61049a565b34801561021c57600080fd5b506100cc61022b3660046105fd565b610518565b6000806000836001600160a01b031660405161025690635c60da1b60e01b815260040190565b600060405180830381855afa9150503d8060008114610291576040519150601f19603f3d011682016040523d82523d6000602084013e610296565b606091505b5091509150816102a557600080fd5b808060200190518101906102b99190610746565b949350505050565b6000806000836001600160a01b03166040516102569063782e42c160e11b815260040190565b6102ef61053e565b6102f96000610598565b565b61030361053e565b6040516308f2839760e41b81526001600160a01b038281166004830152831690638f283970906024015b600060405180830381600087803b15801561034757600080fd5b505af115801561035b573d6000803e3d6000fd5b505050505050565b61036b61053e565b60405163278f794360e11b81526001600160a01b03841690634f1ef28690349061039b9086908690600401610763565b6000604051808303818588803b1580156103b457600080fd5b505af11580156103c8573d6000803e3d6000fd5b5050505050505050565b6103da61053e565b604051631b2ce7f360e11b81526001600160a01b038281166004830152831690633659cfe69060240161032d565b61041061053e565b60405163664f285f60e01b81526001600160a01b03828116600483015283169063664f285f9060240161032d565b61044661053e565b6040516307ecf08360e51b81526001600160a01b03828116600483015283169063fd9e10609060240161032d565b6000806000836001600160a01b03166040516102569063c22a4a8560e01b815260040190565b6104a261053e565b6001600160a01b03811661050c5760405162461bcd60e51b815260206004820152602660248201527f4f776e61626c653a206e6577206f776e657220697320746865207a65726f206160448201526564647265737360d01b60648201526084015b60405180910390fd5b61051581610598565b50565b6000806000836001600160a01b0316604051610256906303e1469160e61b815260040190565b6000546001600160a01b031633146102f95760405162461bcd60e51b815260206004820181905260248201527f4f776e61626c653a2063616c6c6572206973206e6f7420746865206f776e65726044820152606401610503565b600080546001600160a01b038381166001600160a01b0319831681178455604051919092169283917f8be0079c531659141344cd1fd0a4f28419497f9722a3daafe3b4186f6b6457e09190a35050565b6001600160a01b038116811461051557600080fd5b60006020828403121561060f57600080fd5b813561061a816105e8565b9392505050565b6000806040838503121561063457600080fd5b823561063f816105e8565b9150602083013561064f816105e8565b809150509250929050565b634e487b7160e01b600052604160045260246000fd5b60008060006060848603121561068557600080fd5b8335610690816105e8565b925060208401356106a0816105e8565b9150604084013567ffffffffffffffff808211156106bd57600080fd5b818601915086601f8301126106d157600080fd5b8135818111156106e3576106e361065a565b604051601f8201601f19908116603f0116810190838211818310171561070b5761070b61065a565b8160405282815289602084870101111561072457600080fd5b8260208601602083013760006020848301015280955050505050509250925092565b60006020828403121561075857600080fd5b815161061a816105e8565b60018060a01b038316815260006020604081840152835180604085015260005b8181101561079f57858101830151858201606001528201610783565b506000606082860101526060601f19601f83011685010192505050939250505056fea26469706673582212207a7e9e76651f76d46764f4f55f6aac1962eee90e8940aa610f9a3f6faf5da1ae64736f6c63430008110033",
  "linkReferences": {},
  "deployedLinkReferences": {}
}