{
  "_format": "hh-sol-artifact-1",
  "contractName": "AllowlistPolicy",
  "sourceName": "contracts/policies/AllowlistPolicy.sol",
  "abi": [
    {
      "anonymous": false,
      "inputs": [
        {
          "indexed": true,
          "internalType": "address",
          "name": "previousOwner",
          "type": "address"
        },
        {
          "indexed": true,
          "internalType": "address",
          "name": "newOwner",
          "type": "address"
        }
      ],
      "name": "OwnershipTransferred",
      "type": "event"
    },
    {
      "inputs": [
        {
          "internalType": "address",
          "name": "",
          "type": "address"
        },
        {
          "internalType": "address",
          "name": "",
          "type": "address"
        }
      ],
      "name": "consumerAllowlist",
      "outputs": [
        {
          "internalType": "bool",
          "name": "",
          "type": "bool"
        }
      ],
      "stateMutability": "view",
      "type": "function"
    },
    {
      "inputs": [],
      "name": "owner",
      "outputs": [
        {
          "internalType": "address",
          "name": "",
          "type": "address"
        }
      ],
      "stateMutability": "view",
      "type": "function"
    },
    {
      "inputs": [
        {
          "internalType": "address",
          "name": "",
          "type": "address"
        },
        {
          "internalType": "address",
          "name": "",
          "type": "address"
        },
        {
          "internalType": "bytes",
          "name": "",
          "type": "bytes"
        },
        {
          "internalType": "uint256",
          "name": "",
          "type": "uint256"
        }
      ],
      "name": "postExecution",
      "outputs": [],
      "stateMutability": "nonpayable",
      "type": "function"
    },
    {
      "inputs": [
        {
          "internalType": "address",
          "name": "consumer",
          "type": "address"
        },
        {
          "internalType": "address",
          "name": "sender",
          "type": "address"
        },
        {
          "internalType": "bytes",
          "name": "",
          "type": "bytes"
        },
        {
          "internalType": "uint256",
          "name": "",
          "type": "uint256"
        }
      ],
      "name": "preExecution",
      "outputs": [],
      "stateMutability": "view",
      "type": "function"
    },
    {
      "inputs": [],
      "name": "renounceOwnership",
      "outputs": [],
      "stateMutability": "nonpayable",
      "type": "function"
    },
    {
      "inputs": [
        {
          "internalType": "address",
          "name": "consumer",
          "type": "address"
        },
        {
          "internalType": "address",
          "name": "account",
          "type": "address"
        },
        {
          "internalType": "bool",
          "name": "status",
          "type": "bool"
        }
      ],
      "name": "setConsumerAllowlist",
      "outputs": [],
      "stateMutability": "nonpayable",
      "type": "function"
    },
    {
      "inputs": [
        {
          "internalType": "address",
          "name": "newOwner",
          "type": "address"
        }
      ],
      "name": "transferOwnership",
      "outputs": [],
      "stateMutability": "nonpayable",
      "type": "function"
    }
  ],
  "bytecode": "0x608060405234801561001057600080fd5b5061001a3361001f565b61006f565b600080546001600160a01b038381166001600160a01b0319831681178455604051919092169283917f8be0079c531659141344cd1fd0a4f28419497f9722a3daafe3b4186f6b6457e09190a35050565b6104c08061007e6000396000f3fe608060405234801561001057600080fd5b506004361061007d5760003560e01c8063c6d4328b1161005b578063c6d4328b146100ea578063cce122a3146100ff578063d9739cda14610112578063f2fde38b1461012557600080fd5b8063011c10f814610082578063715018a6146100c55780638da5cb5b146100cf575b600080fd5b6100b0610090366004610353565b600160209081526000928352604080842090915290825290205460ff1681565b60405190151581526020015b60405180910390f35b6100cd610138565b005b6000546040516001600160a01b0390911681526020016100bc565b6100cd6100f8366004610386565b5050505050565b6100cd61010d36600461041c565b61014c565b6100cd610120366004610386565b61018e565b6100cd610133366004610468565b610214565b61014061028d565b61014a60006102e7565b565b61015461028d565b6001600160a01b03928316600090815260016020908152604080832094909516825292909252919020805460ff1916911515919091179055565b6001600160a01b0380861660009081526001602090815260408083209388168352929052205460ff166100f85760405162461bcd60e51b815260206004820152602360248201527f416c6c6f776c697374506f6c6963793a2053656e646572206e6f7420616c6c6f6044820152621dd95960ea1b60648201526084015b60405180910390fd5b61021c61028d565b6001600160a01b0381166102815760405162461bcd60e51b815260206004820152602660248201527f4f776e61626c653a206e6577206f776e657220697320746865207a65726f206160448201526564647265737360d01b606482015260840161020b565b61028a816102e7565b50565b6000546001600160a01b0316331461014a5760405162461bcd60e51b815260206004820181905260248201527f4f776e61626c653a2063616c6c6572206973206e6f7420746865206f776e6572604482015260640161020b565b600080546001600160a01b038381166001600160a01b0319831681178455604051919092169283917f8be0079c531659141344cd1fd0a4f28419497f9722a3daafe3b4186f6b6457e09190a35050565b80356001600160a01b038116811461034e57600080fd5b919050565b6000806040838503121561036657600080fd5b61036f83610337565b915061037d60208401610337565b90509250929050565b60008060008060006080868803121561039e57600080fd5b6103a786610337565b94506103b560208701610337565b9350604086013567ffffffffffffffff808211156103d257600080fd5b818801915088601f8301126103e657600080fd5b8135818111156103f557600080fd5b89602082850101111561040757600080fd5b96999598505060200195606001359392505050565b60008060006060848603121561043157600080fd5b61043a84610337565b925061044860208501610337565b91506040840135801515811461045d57600080fd5b809150509250925092565b60006020828403121561047a57600080fd5b61048382610337565b939250505056fea2646970667358221220e2b9a45ad6099f03e10406943e18bf5ee3c02e48d2a2c93708907baf2d01462264736f6c63430008110033",
  "linkReferences": {},
  "deployedLinkReferences": {}
}