{
  "_format": "hh-sol-artifact-1",
  "contractName": "FirewallProxyIntercept",
  "sourceName": "contracts/proxy/FirewallProxyIntercept.sol",
  "abi": [
    {
      "inputs": [
        {
          "internalType": "address",
          "name": "_logic",
          "type": "address"
        },
        {
          "internalType": "address",
          "name": "admin_",
          "type": "address"
        },
        {
          "internalType": "bytes",
          "name": "_data",
          "type": "bytes"
        }
      ],
      "stateMutability": "payable",
      "type": "constructor"
    },
    {
      "anonymous": false,
      "inputs": [
        {
          "indexed": false,
          "internalType": "address",
          "name": "previousAdmin",
          "type": "address"
        },
        {
          "indexed": false,
          "internalType": "address",
          "name": "newAdmin",
          "type": "address"
        }
      ],
      "name": "AdminChanged",
      "type": "event"
    },
    {
      "anonymous": false,
      "inputs": [
        {
          "indexed": true,
          "internalType": "address",
          "name": "beacon",
          "type": "address"
        }
      ],
      "name": "BeaconUpgraded",
      "type": "event"
    },
    {
      "anonymous": false,
      "inputs": [],
      "name": "StaticCallCheck",
      "type": "event"
    },
    {
      "anonymous": false,
      "inputs": [
        {
          "indexed": true,
          "internalType": "address",
          "name": "implementation",
          "type": "address"
        }
      ],
      "name": "Upgraded",
      "type": "event"
    },
    {
      "stateMutability": "payable",
      "type": "fallback"
    },
    {
      "inputs": [
        {
          "internalType": "address",
          "name": "_firewall",
          "type": "address"
        }
      ],
      "name": "changeFirewall",
      "outputs": [],
      "stateMutability": "nonpayable",
      "type": "function"
    },
    {
      "inputs": [
        {
          "internalType": "address",
          "name": "_firewallAdmin",
          "type": "address"
        }
      ],
      "name": "changeFirewallAdmin",
      "outputs": [],
      "stateMutability": "nonpayable",
      "type": "function"
    },
    {
      "inputs": [],
      "name": "firewall",
      "outputs": [
        {
          "internalType": "address",
          "name": "",
          "type": "address"
        }
      ],
      "stateMutability": "nonpayable",
      "type": "function"
    },
    {
      "inputs": [],
      "name": "firewallAdmin",
      "outputs": [
        {
          "internalType": "address",
          "name": "",
          "type": "address"
        }
      ],
      "stateMutability": "nonpayable",
      "type": "function"
    },
    {
      "inputs": [
        {
          "internalType": "address",
          "name": "_firewall",
          "type": "address"
        },
        {
          "internalType": "address",
          "name": "_firewallAdmin",
          "type": "address"
        },
        {
          "internalType": "address",
          "name": "_logic",
          "type": "address"
        }
      ],
      "name": "initialize",
      "outputs": [],
      "stateMutability": "nonpayable",
      "type": "function"
    },
    {
      "inputs": [],
      "name": "staticCallCheck",
      "outputs": [],
      "stateMutability": "nonpayable",
      "type": "function"
    },
    {
      "stateMutability": "payable",
      "type": "receive"
    }
  ],
  "bytecode": "0x6080604052604051620015743803806200157483398101604081905262000026916200049d565b8282828281620000398282600062000053565b506200004790508262000090565b505050505050620005d0565b6200005e83620000eb565b6000825111806200006c5750805b156200008b576200008983836200012d60201b620004681760201c565b505b505050565b7f7e644d79422f17c01e4894b5f4f588d331ebfa28653d42ae832dc59e38c9798f620000bb6200015c565b604080516001600160a01b03928316815291841660208301520160405180910390a1620000e88162000195565b50565b620000f6816200024a565b6040516001600160a01b038216907fbc7cd75a20ee27fd9adebab32041f755214dbc6bffa90cc0225b39da2e5c2d3b90600090a250565b60606200015583836040518060600160405280602781526020016200154d60279139620002fe565b9392505050565b6000620001866000805160206200152d83398151915260001b6200037d60201b620003961760201c565b546001600160a01b0316919050565b6001600160a01b038116620002005760405162461bcd60e51b815260206004820152602660248201527f455243313936373a206e65772061646d696e20697320746865207a65726f206160448201526564647265737360d01b60648201526084015b60405180910390fd5b80620002296000805160206200152d83398151915260001b6200037d60201b620003961760201c565b80546001600160a01b0319166001600160a01b039290921691909117905550565b62000260816200038060201b620004961760201c565b620002c45760405162461bcd60e51b815260206004820152602d60248201527f455243313936373a206e657720696d706c656d656e746174696f6e206973206e60448201526c1bdd08184818dbdb9d1c9858dd609a1b6064820152608401620001f7565b80620002297f360894a13ba1a3210667c828492db98dca3e2076cc3735a920a3ca505d382bbc60001b6200037d60201b620003961760201c565b6060600080856001600160a01b0316856040516200031d91906200057d565b600060405180830381855af49150503d80600081146200035a576040519150601f19603f3d011682016040523d82523d6000602084013e6200035f565b606091505b50909250905062000373868383876200038f565b9695505050505050565b90565b6001600160a01b03163b151590565b6060831562000403578251600003620003fb576001600160a01b0385163b620003fb5760405162461bcd60e51b815260206004820152601d60248201527f416464726573733a2063616c6c20746f206e6f6e2d636f6e74726163740000006044820152606401620001f7565b50816200040f565b6200040f838362000417565b949350505050565b815115620004285781518083602001fd5b8060405162461bcd60e51b8152600401620001f791906200059b565b80516001600160a01b03811681146200045c57600080fd5b919050565b634e487b7160e01b600052604160045260246000fd5b60005b83811015620004945781810151838201526020016200047a565b50506000910152565b600080600060608486031215620004b357600080fd5b620004be8462000444565b9250620004ce6020850162000444565b60408501519092506001600160401b0380821115620004ec57600080fd5b818601915086601f8301126200050157600080fd5b81518181111562000516576200051662000461565b604051601f8201601f19908116603f0116810190838211818310171562000541576200054162000461565b816040528281528960208487010111156200055b57600080fd5b6200056e83602083016020880162000477565b80955050505050509250925092565b600082516200059181846020870162000477565b9190910192915050565b6020815260008251806020840152620005bc81604085016020870162000477565b601f01601f19169190910160400192915050565b610f4d80620005e06000396000f3fe6080604052600436106100595760003560e01c80631e8545ff14610070578063664f285f14610085578063c0c53b8b146100a5578063c22a4a85146100c5578063f05c8582146100f6578063fd9e10601461010b57610068565b366100685761006661012b565b005b61006661012b565b34801561007c57600080fd5b5061006661027d565b34801561009157600080fd5b506100666100a0366004610c9f565b6102a8565b3480156100b157600080fd5b506100666100c0366004610cc3565b610329565b3480156100d157600080fd5b506100da610368565b6040516001600160a01b03909116815260200160405180910390f35b34801561010257600080fd5b506100da610399565b34801561011757600080fd5b50610066610126366004610c9f565b6103f2565b6101336104a5565b6001600160a01b031633036102735760606001600160e01b0319600035166364d3180d60e11b810161016e576101676104d8565b915061026b565b63587086bd60e11b6001600160e01b031982160161018e5761016761052f565b63070d7c6960e41b6001600160e01b03198216016101ae57610167610575565b621eb96f60e61b6001600160e01b03198216016101cd576101676105a6565b63a39f25e560e01b6001600160e01b03198216016101ed576101676105e6565b60405162461bcd60e51b815260206004820152604260248201527f5472616e73706172656e745570677261646561626c6550726f78793a2061646d60448201527f696e2063616e6e6f742066616c6c6261636b20746f2070726f78792074617267606482015261195d60f21b608482015260a4015b60405180910390fd5b815160208301f35b61027b6105fa565b565b6040517f6832e49adbb4121c72b63aad2aafe3e3a25b5e7624a192b19e60a513de6f957090600090a1565b6102b06104a5565b6001600160a01b03163303610321576001600160a01b0381166103155760405162461bcd60e51b815260206004820152601e60248201527f4669726577616c6c436f6e73756d65723a207a65726f206164647265737300006044820152606401610262565b61031e8161060a565b50565b61031e61012b565b6103316104a5565b6001600160a01b03163303610360576103498361065a565b6103528261060a565b61035b81610689565b505050565b61035b61012b565b60006103726104a5565b6001600160a01b0316330361038e576103896106b8565b905090565b61039661012b565b90565b6000806103a46106b8565b905060006103b06104a5565b9050336001600160a01b03831614806103d15750336001600160a01b038216145b156103e5576103de6106e8565b9250505090565b6103ed61012b565b505090565b6103fa6104a5565b6001600160a01b03163303610321576001600160a01b03811661045f5760405162461bcd60e51b815260206004820152601e60248201527f4669726577616c6c436f6e73756d65723a207a65726f206164647265737300006044820152606401610262565b61031e8161065a565b606061048d8383604051806060016040528060278152602001610ef160279139610718565b90505b92915050565b6001600160a01b03163b151590565b60007fb53127684a568b3173ae13b9f8a6016e243e63b6e8ee1178d6a717850b5d61035b546001600160a01b0316919050565b60606104e2610790565b60006104f13660048184610d0e565b8101906104fe9190610c9f565b905061051b8160405180602001604052806000815250600061079b565b505060408051602081019091526000815290565b60606000806105413660048184610d0e565b81019061054e9190610d4e565b9150915061055e8282600161079b565b604051806020016040528060008152509250505090565b606061057f610790565b600061058e3660048184610d0e565b81019061059b9190610c9f565b905061051b816107c6565b60606105b0610790565b60006105ba6104a5565b604080516001600160a01b03831660208201529192500160405160208183030381529060405291505090565b60606105f0610790565b60006105ba61081a565b61027b61060561081a565b610824565b8061063961039660017f29982a6ac507a2a707ced6dee5d76285dd49725db977de83d9702c628c974136610e12565b80546001600160a01b0319166001600160a01b039290921691909117905550565b8061063961039660017f5dd2e3b890564a8f99f7f203f226a27a8aa59aee19a4ece5cf5eaa77ab91f662610e12565b8061063961039660017f9bd5d851ffb033c9f8f50d8e8a94fa51dea2039e8c5fb35e708e43441f88b513610e12565b60006104c961039660017f5dd2e3b890564a8f99f7f203f226a27a8aa59aee19a4ece5cf5eaa77ab91f662610e12565b60006104c961039660017f29982a6ac507a2a707ced6dee5d76285dd49725db977de83d9702c628c974136610e12565b6060600080856001600160a01b0316856040516107359190610e57565b600060405180830381855af49150503d8060008114610770576040519150601f19603f3d011682016040523d82523d6000602084013e610775565b606091505b509150915061078686838387610877565b9695505050505050565b341561027b57600080fd5b6107a4836108f8565b6000825111806107b15750805b1561035b576107c08383610468565b50505050565b7f7e644d79422f17c01e4894b5f4f588d331ebfa28653d42ae832dc59e38c9798f6107ef6104a5565b604080516001600160a01b03928316815291841660208301520160405180910390a161031e81610938565b60006103896109c4565b600061085461039660017f9bd5d851ffb033c9f8f50d8e8a94fa51dea2039e8c5fb35e708e43441f88b513610e12565b546001600160a01b03169050600061086b826109ec565b80519091508060208301f35b606083156108e65782516000036108df576001600160a01b0385163b6108df5760405162461bcd60e51b815260206004820152601d60248201527f416464726573733a2063616c6c20746f206e6f6e2d636f6e74726163740000006044820152606401610262565b50816108f0565b6108f08383610b6e565b949350505050565b61090181610b98565b6040516001600160a01b038216907fbc7cd75a20ee27fd9adebab32041f755214dbc6bffa90cc0225b39da2e5c2d3b90600090a250565b6001600160a01b03811661099d5760405162461bcd60e51b815260206004820152602660248201527f455243313936373a206e65772061646d696e20697320746865207a65726f206160448201526564647265737360d01b6064820152608401610262565b807fb53127684a568b3173ae13b9f8a6016e243e63b6e8ee1178d6a717850b5d6103610639565b60007f360894a13ba1a3210667c828492db98dca3e2076cc3735a920a3ca505d382bbc6104c9565b60606109f6610c2c565b15610a47576000610a3e836000368080601f01602080910402602001604051908101604052809392919081815260200183838082843760009201919091525061046892505050565b9150610b699050565b6000610a516106b8565b604051631bf8659f60e21b815290915034906001600160a01b03831690636fe1967c90610a8990339060009036908790600401610e73565b600060405180830381600087803b158015610aa357600080fd5b505af1158015610ab7573d6000803e3d6000fd5b505050506000610afe856000368080601f01602080910402602001604051908101604052809392919081815260200183838082843760009201919091525061046892505050565b9350506040516393163a9160e01b81526001600160a01b038316906393163a9190610b3490339060009036908790600401610e73565b600060405180830381600087803b158015610b4e57600080fd5b505af1158015610b62573d6000803e3d6000fd5b5050505050505b919050565b815115610b7e5781518083602001fd5b8060405162461bcd60e51b81526004016102629190610ebd565b6001600160a01b0381163b610c055760405162461bcd60e51b815260206004820152602d60248201527f455243313936373a206e657720696d706c656d656e746174696f6e206973206e60448201526c1bdd08184818dbdb9d1c9858dd609a1b6064820152608401610262565b807f360894a13ba1a3210667c828492db98dca3e2076cc3735a920a3ca505d382bbc610639565b6000306001600160a01b0316631e8545ff6040518163ffffffff1660e01b8152600401600060405180830381600087803b158015610c6957600080fd5b505af1925050508015610c7a575060015b610c845750600190565b50600090565b6001600160a01b038116811461031e57600080fd5b600060208284031215610cb157600080fd5b8135610cbc81610c8a565b9392505050565b600080600060608486031215610cd857600080fd5b8335610ce381610c8a565b92506020840135610cf381610c8a565b91506040840135610d0381610c8a565b809150509250925092565b60008085851115610d1e57600080fd5b83861115610d2b57600080fd5b5050820193919092039150565b634e487b7160e01b600052604160045260246000fd5b60008060408385031215610d6157600080fd5b8235610d6c81610c8a565b9150602083013567ffffffffffffffff80821115610d8957600080fd5b818501915085601f830112610d9d57600080fd5b813581811115610daf57610daf610d38565b604051601f8201601f19908116603f01168101908382118183101715610dd757610dd7610d38565b81604052828152886020848701011115610df057600080fd5b8260208601602083013760006020848301015280955050505050509250929050565b8181038181111561049057634e487b7160e01b600052601160045260246000fd5b60005b83811015610e4e578181015183820152602001610e36565b50506000910152565b60008251610e69818460208701610e33565b9190910192915050565b6001600160a01b038516815260606020820181905281018390528284608083013760006080848301015260006080601f19601f860116830101905082604083015295945050505050565b6020815260008251806020840152610edc816040850160208701610e33565b601f01601f1916919091016040019291505056fe416464726573733a206c6f772d6c6576656c2064656c65676174652063616c6c206661696c6564a2646970667358221220e397e3b7dfaebb3608beaf56fce0d893155d43f4e157b30cea4721f8366db27864736f6c63430008110033b53127684a568b3173ae13b9f8a6016e243e63b6e8ee1178d6a717850b5d6103416464726573733a206c6f772d6c6576656c2064656c65676174652063616c6c206661696c6564",
  "linkReferences": {},
  "deployedLinkReferences": {}
}