{
  "_format": "hh-sol-artifact-1",
  "contractName": "ApprovedCallsWithSignaturePolicy",
  "sourceName": "contracts/policies/ApprovedCallsWithSignaturePolicy.sol",
  "abi": [
    {
      "inputs": [],
      "stateMutability": "nonpayable",
      "type": "constructor"
    },
    {
      "anonymous": false,
      "inputs": [
        {
          "indexed": true,
          "internalType": "bytes32",
          "name": "role",
          "type": "bytes32"
        },
        {
          "indexed": true,
          "internalType": "bytes32",
          "name": "previousAdminRole",
          "type": "bytes32"
        },
        {
          "indexed": true,
          "internalType": "bytes32",
          "name": "newAdminRole",
          "type": "bytes32"
        }
      ],
      "name": "RoleAdminChanged",
      "type": "event"
    },
    {
      "anonymous": false,
      "inputs": [
        {
          "indexed": true,
          "internalType": "bytes32",
          "name": "role",
          "type": "bytes32"
        },
        {
          "indexed": true,
          "internalType": "address",
          "name": "account",
          "type": "address"
        },
        {
          "indexed": true,
          "internalType": "address",
          "name": "sender",
          "type": "address"
        }
      ],
      "name": "RoleGranted",
      "type": "event"
    },
    {
      "anonymous": false,
      "inputs": [
        {
          "indexed": true,
          "internalType": "bytes32",
          "name": "role",
          "type": "bytes32"
        },
        {
          "indexed": true,
          "internalType": "address",
          "name": "account",
          "type": "address"
        },
        {
          "indexed": true,
          "internalType": "address",
          "name": "sender",
          "type": "address"
        }
      ],
      "name": "RoleRevoked",
      "type": "event"
    },
    {
      "inputs": [],
      "name": "DEFAULT_ADMIN_ROLE",
      "outputs": [
        {
          "internalType": "bytes32",
          "name": "",
          "type": "bytes32"
        }
      ],
      "stateMutability": "view",
      "type": "function"
    },
    {
      "inputs": [],
      "name": "SIGNER_ROLE",
      "outputs": [
        {
          "internalType": "bytes32",
          "name": "",
          "type": "bytes32"
        }
      ],
      "stateMutability": "view",
      "type": "function"
    },
    {
      "inputs": [
        {
          "internalType": "bytes32[]",
          "name": "_callHashes",
          "type": "bytes32[]"
        },
        {
          "internalType": "uint256",
          "name": "expiration",
          "type": "uint256"
        },
        {
          "internalType": "address",
          "name": "txOrigin",
          "type": "address"
        },
        {
          "internalType": "address",
          "name": "sender",
          "type": "address"
        }
      ],
      "name": "approveCalls",
      "outputs": [],
      "stateMutability": "nonpayable",
      "type": "function"
    },
    {
      "inputs": [
        {
          "internalType": "bytes32[]",
          "name": "_callHashes",
          "type": "bytes32[]"
        },
        {
          "internalType": "uint256",
          "name": "expiration",
          "type": "uint256"
        },
        {
          "internalType": "address",
          "name": "txOrigin",
          "type": "address"
        },
        {
          "internalType": "address",
          "name": "sender",
          "type": "address"
        },
        {
          "internalType": "uint256",
          "name": "nonce",
          "type": "uint256"
        },
        {
          "internalType": "bytes",
          "name": "signature",
          "type": "bytes"
        }
      ],
      "name": "approveCallsViaSignature",
      "outputs": [],
      "stateMutability": "nonpayable",
      "type": "function"
    },
    {
      "inputs": [
        {
          "internalType": "address",
          "name": "",
          "type": "address"
        },
        {
          "internalType": "address",
          "name": "",
          "type": "address"
        },
        {
          "internalType": "uint256",
          "name": "",
          "type": "uint256"
        }
      ],
      "name": "approvedCalls",
      "outputs": [
        {
          "internalType": "bytes32",
          "name": "",
          "type": "bytes32"
        }
      ],
      "stateMutability": "view",
      "type": "function"
    },
    {
      "inputs": [
        {
          "internalType": "address",
          "name": "",
          "type": "address"
        },
        {
          "internalType": "address",
          "name": "",
          "type": "address"
        }
      ],
      "name": "approvedCallsExpiration",
      "outputs": [
        {
          "internalType": "uint256",
          "name": "",
          "type": "uint256"
        }
      ],
      "stateMutability": "view",
      "type": "function"
    },
    {
      "inputs": [
        {
          "internalType": "bytes32",
          "name": "_messageHash",
          "type": "bytes32"
        }
      ],
      "name": "getEthSignedMessageHash",
      "outputs": [
        {
          "internalType": "bytes32",
          "name": "",
          "type": "bytes32"
        }
      ],
      "stateMutability": "pure",
      "type": "function"
    },
    {
      "inputs": [
        {
          "internalType": "bytes32",
          "name": "role",
          "type": "bytes32"
        }
      ],
      "name": "getRoleAdmin",
      "outputs": [
        {
          "internalType": "bytes32",
          "name": "",
          "type": "bytes32"
        }
      ],
      "stateMutability": "view",
      "type": "function"
    },
    {
      "inputs": [
        {
          "internalType": "bytes32",
          "name": "role",
          "type": "bytes32"
        },
        {
          "internalType": "address",
          "name": "account",
          "type": "address"
        }
      ],
      "name": "grantRole",
      "outputs": [],
      "stateMutability": "nonpayable",
      "type": "function"
    },
    {
      "inputs": [
        {
          "internalType": "bytes32",
          "name": "role",
          "type": "bytes32"
        },
        {
          "internalType": "address",
          "name": "account",
          "type": "address"
        }
      ],
      "name": "hasRole",
      "outputs": [
        {
          "internalType": "bool",
          "name": "",
          "type": "bool"
        }
      ],
      "stateMutability": "view",
      "type": "function"
    },
    {
      "inputs": [
        {
          "internalType": "address",
          "name": "",
          "type": "address"
        },
        {
          "internalType": "address",
          "name": "",
          "type": "address"
        }
      ],
      "name": "nonces",
      "outputs": [
        {
          "internalType": "uint256",
          "name": "",
          "type": "uint256"
        }
      ],
      "stateMutability": "view",
      "type": "function"
    },
    {
      "inputs": [
        {
          "internalType": "address",
          "name": "",
          "type": "address"
        },
        {
          "internalType": "address",
          "name": "",
          "type": "address"
        },
        {
          "internalType": "bytes",
          "name": "",
          "type": "bytes"
        },
        {
          "internalType": "uint256",
          "name": "",
          "type": "uint256"
        }
      ],
      "name": "postExecution",
      "outputs": [],
      "stateMutability": "nonpayable",
      "type": "function"
    },
    {
      "inputs": [
        {
          "internalType": "address",
          "name": "consumer",
          "type": "address"
        },
        {
          "internalType": "address",
          "name": "sender",
          "type": "address"
        },
        {
          "internalType": "bytes",
          "name": "data",
          "type": "bytes"
        },
        {
          "internalType": "uint256",
          "name": "value",
          "type": "uint256"
        }
      ],
      "name": "preExecution",
      "outputs": [],
      "stateMutability": "nonpayable",
      "type": "function"
    },
    {
      "inputs": [
        {
          "internalType": "bytes32",
          "name": "_ethSignedMessageHash",
          "type": "bytes32"
        },
        {
          "internalType": "bytes",
          "name": "_signature",
          "type": "bytes"
        }
      ],
      "name": "recoverSigner",
      "outputs": [
        {
          "internalType": "address",
          "name": "",
          "type": "address"
        }
      ],
      "stateMutability": "pure",
      "type": "function"
    },
    {
      "inputs": [
        {
          "internalType": "bytes32",
          "name": "role",
          "type": "bytes32"
        },
        {
          "internalType": "address",
          "name": "account",
          "type": "address"
        }
      ],
      "name": "renounceRole",
      "outputs": [],
      "stateMutability": "nonpayable",
      "type": "function"
    },
    {
      "inputs": [
        {
          "internalType": "bytes32",
          "name": "role",
          "type": "bytes32"
        },
        {
          "internalType": "address",
          "name": "account",
          "type": "address"
        }
      ],
      "name": "revokeRole",
      "outputs": [],
      "stateMutability": "nonpayable",
      "type": "function"
    },
    {
      "inputs": [
        {
          "internalType": "bytes",
          "name": "sig",
          "type": "bytes"
        }
      ],
      "name": "splitSignature",
      "outputs": [
        {
          "internalType": "bytes32",
          "name": "r",
          "type": "bytes32"
        },
        {
          "internalType": "bytes32",
          "name": "s",
          "type": "bytes32"
        },
        {
          "internalType": "uint8",
          "name": "v",
          "type": "uint8"
        }
      ],
      "stateMutability": "pure",
      "type": "function"
    },
    {
      "inputs": [
        {
          "internalType": "bytes4",
          "name": "interfaceId",
          "type": "bytes4"
        }
      ],
      "name": "supportsInterface",
      "outputs": [
        {
          "internalType": "bool",
          "name": "",
          "type": "bool"
        }
      ],
      "stateMutability": "view",
      "type": "function"
    }
  ],
  "bytecode": "0x608060405234801561001057600080fd5b5061001c600033610021565b6100cd565b61002b828261002f565b5050565b6000828152602081815260408083206001600160a01b038516845290915290205460ff1661002b576000828152602081815260408083206001600160a01b03851684529091529020805460ff191660011790556100893390565b6001600160a01b0316816001600160a01b0316837f2f8788117e7eff1d82e926ec794901d17c78024a50270940304540a733656f0d60405160405180910390a45050565b611461806100dc6000396000f3fe608060405234801561001057600080fd5b50600436106101165760003560e01c8063a1ebf35d116100a2578063d17810b311610071578063d17810b3146102a0578063d547741f146102cb578063d9739cda146102de578063f80bbe8e146102f1578063fa5408011461030457600080fd5b8063a1ebf35d1461022b578063a217fddf14610252578063a7bb58031461025a578063c6d4328b1461028b57600080fd5b806336568abe116100e957806336568abe1461019c57806375d8b80c146101af57806391d14854146101c25780639333fbda146101d557806397aba7f91461020057600080fd5b806301ffc9a71461011b5780631ec0667b14610143578063248a9ca3146101585780632f2ff15d14610189575b600080fd5b61012e610129366004610def565b610317565b60405190151581526020015b60405180910390f35b610156610151366004610f24565b61034e565b005b61017b610166366004610fc5565b60009081526020819052604090206001015490565b60405190815260200161013a565b610156610197366004610fde565b610536565b6101566101aa366004610fde565b610560565b6101566101bd36600461100a565b6105de565b61012e6101d0366004610fde565b610666565b61017b6101e3366004611078565b600360209081526000928352604080842090915290825290205481565b61021361020e3660046110a2565b61068f565b6040516001600160a01b03909116815260200161013a565b61017b7fe2f4eaae4a9751e85a3e4a7b9587827a877f29914755229b07a7b2da98285f7081565b61017b600081565b61026d6102683660046110e9565b61070e565b60408051938452602084019290925260ff169082015260600161013a565b610156610299366004611126565b5050505050565b61017b6102ae366004611078565b600260209081526000928352604080842090915290825290205481565b6101566102d9366004610fde565b610782565b6101566102ec366004611126565b6107a7565b61017b6102ff3660046111bc565b6109be565b61017b610312366004610fc5565b6109fc565b60006001600160e01b03198216637965db0b60e01b148061034857506301ffc9a760e01b6001600160e01b03198316145b92915050565b6001600160a01b0380851660009081526003602090815260408083209387168352929052205482146103cd5760405162461bcd60e51b815260206004820152602f602482015260008051602061140c83398151915260448201526e3a20696e76616c6964206e6f6e636560881b60648201526084015b60405180910390fd5b60008787878787876040516020016103ea969594939291906111f8565b604051602081830303815290604052805190602001209050600061040d826109fc565b9050600061041b828561068f565b90506104477fe2f4eaae4a9751e85a3e4a7b9587827a877f29914755229b07a7b2da98285f7082610666565b61049a5760405162461bcd60e51b8152602060048201526030602482015260008051602061140c83398151915260448201526f1d1034b73b30b634b21039b4b3b732b960811b60648201526084016103c4565b6001600160a01b038088166000908152600160209081526040808320938a168352929052206104ca908b8b610d8f565b506001600160a01b038088166000908152600260209081526040808320938a168352929052208890556104fe856001611266565b6001600160a01b03978816600090815260036020908152604080832099909a1682529790975296909520959095555050505050505050565b60008281526020819052604090206001015461055181610a4f565b61055b8383610a5c565b505050565b6001600160a01b03811633146105d05760405162461bcd60e51b815260206004820152602f60248201527f416363657373436f6e74726f6c3a2063616e206f6e6c792072656e6f756e636560448201526e103937b632b9903337b91039b2b63360891b60648201526084016103c4565b6105da8282610ae0565b5050565b7fe2f4eaae4a9751e85a3e4a7b9587827a877f29914755229b07a7b2da98285f7061060881610a4f565b6001600160a01b038084166000908152600160209081526040808320938616835292905220610638908787610d8f565b50506001600160a01b0391821660009081526002602090815260408083209390941682529190915220555050565b6000918252602082815260408084206001600160a01b0393909316845291905290205460ff1690565b60008060008061069e8561070e565b6040805160008152602081018083528b905260ff8316918101919091526060810184905260808101839052929550909350915060019060a0016020604051602081039080840390855afa1580156106f9573d6000803e3d6000fd5b5050604051601f190151979650505050505050565b600080600083516041146107645760405162461bcd60e51b815260206004820152601860248201527f696e76616c6964207369676e6174757265206c656e677468000000000000000060448201526064016103c4565b50505060208101516040820151606090920151909260009190911a90565b60008281526020819052604090206001015461079d81610a4f565b61055b8383610ae0565b7f5240afa92511149d1ea75355dd533487007d2505fa7bfdceab11878262a081b654610299573260009081526001602090815260408083206001600160a01b0388168452909152902080546108485760405162461bcd60e51b8152602060048201526033602482015260008051602061140c8339815191526044820152723a2063616c6c2068617368657320656d70747960681b60648201526084016103c4565b3260009081526002602090815260408083206001600160a01b03891684529091529020544281116108bb5760405162461bcd60e51b8152602060048201526029602482015260008051602061140c8339815191526044820152680e88195e1c1a5c995960ba1b60648201526084016103c4565b600061090188883289898080601f0160208091040260200160405190810160405280939291908181526020018383808284376000920191909152508b9250610b45915050565b9050600083600185805490506109179190611279565b815481106109275761092761128c565b9060005260206000200154905080821461098d5760405162461bcd60e51b8152602060048201526033602482015260008051602061140c83398151915260448201527207440d2dcecc2d8d2c840c6c2d8d840d0c2e6d606b1b60648201526084016103c4565b8380548061099d5761099d6112a2565b60019003818190600052602060002001600090559055505050505050505050565b600160205282600052604060002060205281600052604060002081815481106109e657600080fd5b9060005260206000200160009250925050505481565b6040517f19457468657265756d205369676e6564204d6573736167653a0a3332000000006020820152603c8101829052600090605c01604051602081830303815290604052805190602001209050919050565b610a598133610b81565b50565b610a668282610666565b6105da576000828152602081815260408083206001600160a01b03851684529091529020805460ff19166001179055610a9c3390565b6001600160a01b0316816001600160a01b0316837f2f8788117e7eff1d82e926ec794901d17c78024a50270940304540a733656f0d60405160405180910390a45050565b610aea8282610666565b156105da576000828152602081815260408083206001600160a01b0385168085529252808320805460ff1916905551339285917ff6391f5c32d9c69d2a47ea670b442974b53935d1edc7fd64eb21e047a839171b9190a45050565b60008585858585604051602001610b609594939291906112dc565b60405160208183030381529060405280519060200120905095945050505050565b610b8b8282610666565b6105da57610b9881610bda565b610ba3836020610bec565b604051602001610bb4929190611335565b60408051601f198184030181529082905262461bcd60e51b82526103c4916004016113aa565b60606103486001600160a01b03831660145b60606000610bfb8360026113dd565b610c06906002611266565b67ffffffffffffffff811115610c1e57610c1e610e81565b6040519080825280601f01601f191660200182016040528015610c48576020820181803683370190505b509050600360fc1b81600081518110610c6357610c6361128c565b60200101906001600160f81b031916908160001a905350600f60fb1b81600181518110610c9257610c9261128c565b60200101906001600160f81b031916908160001a9053506000610cb68460026113dd565b610cc1906001611266565b90505b6001811115610d39576f181899199a1a9b1b9c1cb0b131b232b360811b85600f1660108110610cf557610cf561128c565b1a60f81b828281518110610d0b57610d0b61128c565b60200101906001600160f81b031916908160001a90535060049490941c93610d32816113f4565b9050610cc4565b508315610d885760405162461bcd60e51b815260206004820181905260248201527f537472696e67733a20686578206c656e67746820696e73756666696369656e7460448201526064016103c4565b9392505050565b828054828255906000526020600020908101928215610dca579160200282015b82811115610dca578235825591602001919060010190610daf565b50610dd6929150610dda565b5090565b5b80821115610dd65760008155600101610ddb565b600060208284031215610e0157600080fd5b81356001600160e01b031981168114610d8857600080fd5b60008083601f840112610e2b57600080fd5b50813567ffffffffffffffff811115610e4357600080fd5b6020830191508360208260051b8501011115610e5e57600080fd5b9250929050565b80356001600160a01b0381168114610e7c57600080fd5b919050565b634e487b7160e01b600052604160045260246000fd5b600082601f830112610ea857600080fd5b813567ffffffffffffffff80821115610ec357610ec3610e81565b604051601f8301601f19908116603f01168101908282118183101715610eeb57610eeb610e81565b81604052838152866020858801011115610f0457600080fd5b836020870160208301376000602085830101528094505050505092915050565b600080600080600080600060c0888a031215610f3f57600080fd5b873567ffffffffffffffff80821115610f5757600080fd5b610f638b838c01610e19565b909950975060208a01359650879150610f7e60408b01610e65565b9550610f8c60608b01610e65565b945060808a0135935060a08a0135915080821115610fa957600080fd5b50610fb68a828b01610e97565b91505092959891949750929550565b600060208284031215610fd757600080fd5b5035919050565b60008060408385031215610ff157600080fd5b8235915061100160208401610e65565b90509250929050565b60008060008060006080868803121561102257600080fd5b853567ffffffffffffffff81111561103957600080fd5b61104588828901610e19565b9096509450506020860135925061105e60408701610e65565b915061106c60608701610e65565b90509295509295909350565b6000806040838503121561108b57600080fd5b61109483610e65565b915061100160208401610e65565b600080604083850312156110b557600080fd5b82359150602083013567ffffffffffffffff8111156110d357600080fd5b6110df85828601610e97565b9150509250929050565b6000602082840312156110fb57600080fd5b813567ffffffffffffffff81111561111257600080fd5b61111e84828501610e97565b949350505050565b60008060008060006080868803121561113e57600080fd5b61114786610e65565b945061115560208701610e65565b9350604086013567ffffffffffffffff8082111561117257600080fd5b818801915088601f83011261118657600080fd5b81358181111561119557600080fd5b8960208285010111156111a757600080fd5b96999598505060200195606001359392505050565b6000806000606084860312156111d157600080fd5b6111da84610e65565b92506111e860208501610e65565b9150604084013590509250925092565b60006001600160fb1b0387111561120e57600080fd5b8660051b8089843791909101948552506bffffffffffffffffffffffff19606093841b811660208601529190921b166034830152604882015260680192915050565b634e487b7160e01b600052601160045260246000fd5b8082018082111561034857610348611250565b8181038181111561034857610348611250565b634e487b7160e01b600052603260045260246000fd5b634e487b7160e01b600052603160045260246000fd5b60005b838110156112d35781810151838201526020016112bb565b50506000910152565b60006bffffffffffffffffffffffff19808860601b168352808760601b166014840152808660601b16602884015250835161131e81603c8501602088016112b8565b603c920191820192909252605c0195945050505050565b7f416363657373436f6e74726f6c3a206163636f756e742000000000000000000081526000835161136d8160178501602088016112b8565b7001034b99036b4b9b9b4b733903937b6329607d1b601791840191820152835161139e8160288401602088016112b8565b01602801949350505050565b60208152600082518060208401526113c98160408501602087016112b8565b601f01601f19169190910160400192915050565b808202811582820484141761034857610348611250565b60008161140357611403611250565b50600019019056fe417070726f76656443616c6c73576974685369676e6174757265506f6c696379a26469706673582212206b84092eec47f5c05e11bf19877f5f9f7b1fa81f6354b86bda7e0853f04de1a164736f6c63430008110033",
  "linkReferences": {},
  "deployedLinkReferences": {}
}