{
  "_format": "hh-sol-artifact-1",
  "contractName": "Firewall",
  "sourceName": "contracts/Firewall.sol",
  "abi": [
    {
      "anonymous": false,
      "inputs": [
        {
          "indexed": false,
          "internalType": "uint8",
          "name": "version",
          "type": "uint8"
        }
      ],
      "name": "Initialized",
      "type": "event"
    },
    {
      "anonymous": false,
      "inputs": [
        {
          "indexed": true,
          "internalType": "address",
          "name": "previousOwner",
          "type": "address"
        },
        {
          "indexed": true,
          "internalType": "address",
          "name": "newOwner",
          "type": "address"
        }
      ],
      "name": "OwnershipTransferred",
      "type": "event"
    },
    {
      "inputs": [
        {
          "internalType": "address",
          "name": "consumer",
          "type": "address"
        },
        {
          "internalType": "address",
          "name": "policy",
          "type": "address"
        }
      ],
      "name": "addGlobalPolicy",
      "outputs": [],
      "stateMutability": "nonpayable",
      "type": "function"
    },
    {
      "inputs": [
        {
          "internalType": "address",
          "name": "consumer",
          "type": "address"
        },
        {
          "internalType": "bytes4",
          "name": "methodSig",
          "type": "bytes4"
        },
        {
          "internalType": "address",
          "name": "policy",
          "type": "address"
        }
      ],
      "name": "addPolicy",
      "outputs": [],
      "stateMutability": "nonpayable",
      "type": "function"
    },
    {
      "inputs": [
        {
          "internalType": "address",
          "name": "",
          "type": "address"
        }
      ],
      "name": "approvedPolicies",
      "outputs": [
        {
          "internalType": "bool",
          "name": "",
          "type": "bool"
        }
      ],
      "stateMutability": "view",
      "type": "function"
    },
    {
      "inputs": [
        {
          "internalType": "address",
          "name": "consumer",
          "type": "address"
        },
        {
          "internalType": "bytes4",
          "name": "methodSig",
          "type": "bytes4"
        }
      ],
      "name": "getActivePolicies",
      "outputs": [
        {
          "internalType": "address[]",
          "name": "",
          "type": "address[]"
        }
      ],
      "stateMutability": "view",
      "type": "function"
    },
    {
      "inputs": [],
      "name": "initialize",
      "outputs": [],
      "stateMutability": "nonpayable",
      "type": "function"
    },
    {
      "inputs": [],
      "name": "owner",
      "outputs": [
        {
          "internalType": "address",
          "name": "",
          "type": "address"
        }
      ],
      "stateMutability": "view",
      "type": "function"
    },
    {
      "inputs": [
        {
          "internalType": "address",
          "name": "sender",
          "type": "address"
        },
        {
          "internalType": "bytes",
          "name": "data",
          "type": "bytes"
        },
        {
          "internalType": "uint256",
          "name": "value",
          "type": "uint256"
        }
      ],
      "name": "postExecution",
      "outputs": [],
      "stateMutability": "nonpayable",
      "type": "function"
    },
    {
      "inputs": [
        {
          "internalType": "address",
          "name": "sender",
          "type": "address"
        },
        {
          "internalType": "bytes",
          "name": "data",
          "type": "bytes"
        },
        {
          "internalType": "uint256",
          "name": "value",
          "type": "uint256"
        }
      ],
      "name": "preExecution",
      "outputs": [],
      "stateMutability": "nonpayable",
      "type": "function"
    },
    {
      "inputs": [
        {
          "internalType": "address",
          "name": "consumer",
          "type": "address"
        },
        {
          "internalType": "uint256",
          "name": "policyIndex",
          "type": "uint256"
        }
      ],
      "name": "removeGlobalPolicy",
      "outputs": [],
      "stateMutability": "nonpayable",
      "type": "function"
    },
    {
      "inputs": [
        {
          "internalType": "address",
          "name": "consumer",
          "type": "address"
        },
        {
          "internalType": "bytes4",
          "name": "methodSig",
          "type": "bytes4"
        },
        {
          "internalType": "uint256",
          "name": "policyIndex",
          "type": "uint256"
        }
      ],
      "name": "removePolicy",
      "outputs": [],
      "stateMutability": "nonpayable",
      "type": "function"
    },
    {
      "inputs": [],
      "name": "renounceOwnership",
      "outputs": [],
      "stateMutability": "nonpayable",
      "type": "function"
    },
    {
      "inputs": [
        {
          "internalType": "address",
          "name": "policy",
          "type": "address"
        },
        {
          "internalType": "bool",
          "name": "status",
          "type": "bool"
        }
      ],
      "name": "setPolicyStatus",
      "outputs": [],
      "stateMutability": "nonpayable",
      "type": "function"
    },
    {
      "inputs": [
        {
          "internalType": "address",
          "name": "",
          "type": "address"
        },
        {
          "internalType": "uint256",
          "name": "",
          "type": "uint256"
        }
      ],
      "name": "subscribedGlobalPolicies",
      "outputs": [
        {
          "internalType": "address",
          "name": "",
          "type": "address"
        }
      ],
      "stateMutability": "view",
      "type": "function"
    },
    {
      "inputs": [
        {
          "internalType": "address",
          "name": "",
          "type": "address"
        },
        {
          "internalType": "bytes4",
          "name": "",
          "type": "bytes4"
        },
        {
          "internalType": "uint256",
          "name": "",
          "type": "uint256"
        }
      ],
      "name": "subscribedPolicies",
      "outputs": [
        {
          "internalType": "address",
          "name": "",
          "type": "address"
        }
      ],
      "stateMutability": "view",
      "type": "function"
    },
    {
      "inputs": [
        {
          "internalType": "address",
          "name": "newOwner",
          "type": "address"
        }
      ],
      "name": "transferOwnership",
      "outputs": [],
      "stateMutability": "nonpayable",
      "type": "function"
    }
  ],
  "bytecode": "0x608060405234801561001057600080fd5b5061167a806100206000396000f3fe608060405234801561001057600080fd5b50600436106100f55760003560e01c80638da5cb5b11610097578063bd967c7a11610066578063bd967c7a146101ff578063edf43b4614610212578063f2fde38b14610225578063fb7589941461023857600080fd5b80638da5cb5b146101a857806393163a91146101b9578063970a2bc9146101cc578063a461668b146101df57600080fd5b80637128077b116100d35780637128077b1461015a578063715018a61461016d5780638129fc1c146101755780638490a3271461017d57600080fd5b80631d10fc64146100fa5780636fe1967c1461013257806370bc76e414610147575b600080fd5b61011d610108366004611247565b60656020526000908152604090205460ff1681565b60405190151581526020015b60405180910390f35b61014561014036600461126b565b61024b565b005b6101456101553660046112f6565b610487565b610145610168366004611334565b6104ba565b61014561070a565b61014561071e565b61019061018b366004611362565b61082f565b6040516001600160a01b039091168152602001610129565b6033546001600160a01b0316610190565b6101456101c736600461126b565b610867565b6101456101da366004611362565b610a99565b6101f26101ed3660046113ab565b610bfc565b60405161012991906113e0565b61014561020d36600461142d565b610c86565b610145610220366004611476565b610ef8565b610145610233366004611247565b611071565b610190610246366004611476565b6110e7565b600061025783856114b4565b3360009081526066602090815260408083206001600160e01b0319851684528252808320805482518185028101850190935280835294955092939092918301828280156102cd57602002820191906000526020600020905b81546001600160a01b031681526001909101906020018083116102af575b50503360009081526067602090815260408083208054825181850281018501909352808352979850929690955091935090915083018282801561033957602002820191906000526020600020905b81546001600160a01b0316815260019091019060200180831161031b575b5050505050905060005b82518110156103de5782818151811061035e5761035e6114e4565b60200260200101516001600160a01b031663d9739cda338a8a8a8a6040518663ffffffff1660e01b81526004016103999594939291906114fa565b600060405180830381600087803b1580156103b357600080fd5b505af11580156103c7573d6000803e3d6000fd5b5050505080806103d690611563565b915050610343565b5060005b815181101561047d578181815181106103fd576103fd6114e4565b60200260200101516001600160a01b031663d9739cda338a8a8a8a6040518663ffffffff1660e01b81526004016104389594939291906114fa565b600060405180830381600087803b15801561045257600080fd5b505af1158015610466573d6000803e3d6000fd5b50505050808061047590611563565b9150506103e2565b5050505050505050565b61048f61112c565b6001600160a01b03919091166000908152606560205260409020805460ff1916911515919091179055565b81806001600160a01b031663f05c85826040518163ffffffff1660e01b81526004016020604051808303816000875af11580156104fb573d6000803e3d6000fd5b505050506040513d601f19601f8201168201806040525081019061051f919061157c565b6001600160a01b0316336001600160a01b0316146105585760405162461bcd60e51b815260040161054f90611599565b60405180910390fd5b6001600160a01b03821660009081526065602052604090205460ff166105c05760405162461bcd60e51b815260206004820152601d60248201527f4669726577616c6c3a20706f6c696379206e6f7420617070726f766564000000604482015260640161054f565b6001600160a01b03831660009081526067602090815260408083208054825181850281018501909352808352919290919083018282801561062a57602002820191906000526020600020905b81546001600160a01b0316815260019091019060200180831161060c575b5050505050905060005b81518110156106c95781818151811061064f5761064f6114e4565b60200260200101516001600160a01b0316846001600160a01b0316036106b75760405162461bcd60e51b815260206004820152601f60248201527f4669726577616c6c3a20706f6c69637920616c72656164792065786973747300604482015260640161054f565b806106c181611563565b915050610634565b5050506001600160a01b0391821660009081526067602090815260408220805460018101825590835291200180546001600160a01b03191691909216179055565b61071261112c565b61071c6000611186565b565b600054610100900460ff161580801561073e5750600054600160ff909116105b806107585750303b158015610758575060005460ff166001145b6107bb5760405162461bcd60e51b815260206004820152602e60248201527f496e697469616c697a61626c653a20636f6e747261637420697320616c72656160448201526d191e481a5b9a5d1a585b1a5e995960921b606482015260840161054f565b6000805460ff1916600117905580156107de576000805461ff0019166101001790555b6107e66111d8565b801561082c576000805461ff0019169055604051600181527f7f26b83ff96e1f2b6a682f133852f6798a09c465da95921460cefb38474024989060200160405180910390a15b50565b6067602052816000526040600020818154811061084b57600080fd5b6000918252602090912001546001600160a01b03169150829050565b600061087383856114b4565b3360009081526066602090815260408083206001600160e01b0319851684528252808320805482518185028101850190935280835294955092939092918301828280156108e957602002820191906000526020600020905b81546001600160a01b031681526001909101906020018083116108cb575b50503360009081526067602090815260408083208054825181850281018501909352808352979850929690955091935090915083018282801561095557602002820191906000526020600020905b81546001600160a01b03168152600190910190602001808311610937575b5050505050905060005b82518110156109fa5782818151811061097a5761097a6114e4565b60200260200101516001600160a01b031663c6d4328b338a8a8a8a6040518663ffffffff1660e01b81526004016109b59594939291906114fa565b600060405180830381600087803b1580156109cf57600080fd5b505af11580156109e3573d6000803e3d6000fd5b5050505080806109f290611563565b91505061095f565b5060005b815181101561047d57818181518110610a1957610a196114e4565b60200260200101516001600160a01b031663d9739cda338a8a8a8a6040518663ffffffff1660e01b8152600401610a549594939291906114fa565b600060405180830381600087803b158015610a6e57600080fd5b505af1158015610a82573d6000803e3d6000fd5b505050508080610a9190611563565b9150506109fe565b81806001600160a01b031663f05c85826040518163ffffffff1660e01b81526004016020604051808303816000875af1158015610ada573d6000803e3d6000fd5b505050506040513d601f19601f82011682018060405250810190610afe919061157c565b6001600160a01b0316336001600160a01b031614610b2e5760405162461bcd60e51b815260040161054f90611599565b6001600160a01b038316600090815260676020526040902080548190610b56906001906115d0565b81548110610b6657610b666114e4565b9060005260206000200160009054906101000a90046001600160a01b0316818481548110610b9657610b966114e4565b9060005260206000200160006101000a8154816001600160a01b0302191690836001600160a01b0316021790555080805480610bd457610bd46115e3565b600082815260209020810160001990810180546001600160a01b031916905501905550505050565b6001600160a01b03821660009081526066602090815260408083206001600160e01b031985168452825291829020805483518184028101840190945280845260609392830182828015610c7857602002820191906000526020600020905b81546001600160a01b03168152600190910190602001808311610c5a575b505050505090505b92915050565b82806001600160a01b031663f05c85826040518163ffffffff1660e01b81526004016020604051808303816000875af1158015610cc7573d6000803e3d6000fd5b505050506040513d601f19601f82011682018060405250810190610ceb919061157c565b6001600160a01b0316336001600160a01b031614610d1b5760405162461bcd60e51b815260040161054f90611599565b6001600160a01b03821660009081526065602052604090205460ff16610d835760405162461bcd60e51b815260206004820152601d60248201527f4669726577616c6c3a20706f6c696379206e6f7420617070726f766564000000604482015260640161054f565b6001600160a01b03841660009081526066602090815260408083206001600160e01b031987168452825280832080548251818502810185019093528083529192909190830182828015610dff57602002820191906000526020600020905b81546001600160a01b03168152600190910190602001808311610de1575b5050505050905060005b8151811015610e9e57818181518110610e2457610e246114e4565b60200260200101516001600160a01b0316846001600160a01b031603610e8c5760405162461bcd60e51b815260206004820152601f60248201527f4669726577616c6c3a20706f6c69637920616c72656164792065786973747300604482015260640161054f565b80610e9681611563565b915050610e09565b5050506001600160a01b0392831660009081526066602090815260408083206001600160e01b0319959095168352938152928120805460018101825590825292902090910180546001600160a01b03191691909216179055565b82806001600160a01b031663f05c85826040518163ffffffff1660e01b81526004016020604051808303816000875af1158015610f39573d6000803e3d6000fd5b505050506040513d601f19601f82011682018060405250810190610f5d919061157c565b6001600160a01b0316336001600160a01b031614610f8d5760405162461bcd60e51b815260040161054f90611599565b6001600160a01b03841660009081526066602090815260408083206001600160e01b031987168452909152902080548190610fca906001906115d0565b81548110610fda57610fda6114e4565b9060005260206000200160009054906101000a90046001600160a01b031681848154811061100a5761100a6114e4565b9060005260206000200160006101000a8154816001600160a01b0302191690836001600160a01b0316021790555080805480611048576110486115e3565b600082815260209020810160001990810180546001600160a01b03191690550190555050505050565b61107961112c565b6001600160a01b0381166110de5760405162461bcd60e51b815260206004820152602660248201527f4f776e61626c653a206e6577206f776e657220697320746865207a65726f206160448201526564647265737360d01b606482015260840161054f565b61082c81611186565b6066602052826000526040600020602052816000526040600020818154811061110f57600080fd5b6000918252602090912001546001600160a01b0316925083915050565b6033546001600160a01b0316331461071c5760405162461bcd60e51b815260206004820181905260248201527f4f776e61626c653a2063616c6c6572206973206e6f7420746865206f776e6572604482015260640161054f565b603380546001600160a01b038381166001600160a01b0319831681179093556040519116919082907f8be0079c531659141344cd1fd0a4f28419497f9722a3daafe3b4186f6b6457e090600090a35050565b600054610100900460ff166111ff5760405162461bcd60e51b815260040161054f906115f9565b61071c600054610100900460ff166112295760405162461bcd60e51b815260040161054f906115f9565b61071c33611186565b6001600160a01b038116811461082c57600080fd5b60006020828403121561125957600080fd5b813561126481611232565b9392505050565b6000806000806060858703121561128157600080fd5b843561128c81611232565b9350602085013567ffffffffffffffff808211156112a957600080fd5b818701915087601f8301126112bd57600080fd5b8135818111156112cc57600080fd5b8860208285010111156112de57600080fd5b95986020929092019750949560400135945092505050565b6000806040838503121561130957600080fd5b823561131481611232565b91506020830135801515811461132957600080fd5b809150509250929050565b6000806040838503121561134757600080fd5b823561135281611232565b9150602083013561132981611232565b6000806040838503121561137557600080fd5b823561138081611232565b946020939093013593505050565b80356001600160e01b0319811681146113a657600080fd5b919050565b600080604083850312156113be57600080fd5b82356113c981611232565b91506113d76020840161138e565b90509250929050565b6020808252825182820181905260009190848201906040850190845b818110156114215783516001600160a01b0316835292840192918401916001016113fc565b50909695505050505050565b60008060006060848603121561144257600080fd5b833561144d81611232565b925061145b6020850161138e565b9150604084013561146b81611232565b809150509250925092565b60008060006060848603121561148b57600080fd5b833561149681611232565b92506114a46020850161138e565b9150604084013590509250925092565b6001600160e01b031981358181169160048510156114dc5780818660040360031b1b83161692505b505092915050565b634e487b7160e01b600052603260045260246000fd5b6001600160a01b0386811682528516602082015260806040820181905281018390526000838560a0840137600060a0858401015260a0601f19601f86011683010190508260608301529695505050505050565b634e487b7160e01b600052601160045260246000fd5b6000600182016115755761157561154d565b5060010190565b60006020828403121561158e57600080fd5b815161126481611232565b6020808252601c908201527f4669726577616c6c3a206e6f7420636f6e73756d65722061646d696e00000000604082015260600190565b81810381811115610c8057610c8061154d565b634e487b7160e01b600052603160045260246000fd5b6020808252602b908201527f496e697469616c697a61626c653a20636f6e7472616374206973206e6f74206960408201526a6e697469616c697a696e6760a81b60608201526080019056fea264697066735822122052c55f58c1719140567b091276e3b277d885ef958d4226bf50266f9844a6984f64736f6c63430008110033",
  "linkReferences": {},
  "deployedLinkReferences": {}
}