{
  "_format": "hh-sol-artifact-1",
  "contractName": "SampleConsumerUpgradeable",
  "sourceName": "contracts/samples/SampleConsumerUpgradeable.sol",
  "abi": [
    {
      "anonymous": false,
      "inputs": [
        {
          "indexed": false,
          "internalType": "uint8",
          "name": "version",
          "type": "uint8"
        }
      ],
      "name": "Initialized",
      "type": "event"
    },
    {
      "anonymous": false,
      "inputs": [
        {
          "indexed": true,
          "internalType": "address",
          "name": "previousOwner",
          "type": "address"
        },
        {
          "indexed": true,
          "internalType": "address",
          "name": "newOwner",
          "type": "address"
        }
      ],
      "name": "OwnershipTransferred",
      "type": "event"
    },
    {
      "inputs": [],
      "name": "deposit",
      "outputs": [],
      "stateMutability": "payable",
      "type": "function"
    },
    {
      "inputs": [
        {
          "internalType": "address",
          "name": "",
          "type": "address"
        }
      ],
      "name": "deposits",
      "outputs": [
        {
          "internalType": "uint256",
          "name": "",
          "type": "uint256"
        }
      ],
      "stateMutability": "view",
      "type": "function"
    },
    {
      "inputs": [],
      "name": "initialize",
      "outputs": [],
      "stateMutability": "nonpayable",
      "type": "function"
    },
    {
      "inputs": [],
      "name": "owner",
      "outputs": [
        {
          "internalType": "address",
          "name": "",
          "type": "address"
        }
      ],
      "stateMutability": "view",
      "type": "function"
    },
    {
      "inputs": [],
      "name": "renounceOwnership",
      "outputs": [],
      "stateMutability": "nonpayable",
      "type": "function"
    },
    {
      "inputs": [
        {
          "internalType": "address",
          "name": "newOwner",
          "type": "address"
        }
      ],
      "name": "setOwner",
      "outputs": [],
      "stateMutability": "nonpayable",
      "type": "function"
    },
    {
      "inputs": [
        {
          "internalType": "address",
          "name": "newOwner",
          "type": "address"
        }
      ],
      "name": "transferOwnership",
      "outputs": [],
      "stateMutability": "nonpayable",
      "type": "function"
    },
    {
      "inputs": [
        {
          "internalType": "uint256",
          "name": "amount",
          "type": "uint256"
        }
      ],
      "name": "withdraw",
      "outputs": [],
      "stateMutability": "nonpayable",
      "type": "function"
    }
  ],
  "bytecode": "0x608060405234801561001057600080fd5b506106ab806100206000396000f3fe60806040526004361061007b5760003560e01c80638da5cb5b1161004e5780638da5cb5b146100ec578063d0e30db014610119578063f2fde38b14610121578063fc7e286d1461014157600080fd5b806313af4035146100805780632e1a7d4d146100a2578063715018a6146100c25780638129fc1c146100d7575b600080fd5b34801561008c57600080fd5b506100a061009b36600461059f565b61017c565b005b3480156100ae57600080fd5b506100a06100bd3660046105cf565b610190565b3480156100ce57600080fd5b506100a06101bf565b3480156100e357600080fd5b506100a06101d3565b3480156100f857600080fd5b506033546040516001600160a01b0390911681526020015b60405180910390f35b6100a06102e8565b34801561012d57600080fd5b506100a061013c36600461059f565b61030e565b34801561014d57600080fd5b5061016e61015c36600461059f565b60656020526000908152604090205481565b604051908152602001610110565b61018461037b565b61018d816103d5565b50565b33600090815260656020526040812080548392906101af9084906105fe565b9091555061018d90503382610427565b6101c761037b565b6101d160006103d5565b565b600054610100900460ff16158080156101f35750600054600160ff909116105b8061020d5750303b15801561020d575060005460ff166001145b6102755760405162461bcd60e51b815260206004820152602e60248201527f496e697469616c697a61626c653a20636f6e747261637420697320616c72656160448201526d191e481a5b9a5d1a585b1a5e995960921b60648201526084015b60405180910390fd5b6000805460ff191660011790558015610298576000805461ff0019166101001790555b6102a0610545565b801561018d576000805461ff0019169055604051600181527f7f26b83ff96e1f2b6a682f133852f6798a09c465da95921460cefb38474024989060200160405180910390a150565b3360009081526065602052604081208054349290610307908490610617565b9091555050565b61031661037b565b6001600160a01b0381166101845760405162461bcd60e51b815260206004820152602660248201527f4f776e61626c653a206e6577206f776e657220697320746865207a65726f206160448201526564647265737360d01b606482015260840161026c565b6033546001600160a01b031633146101d15760405162461bcd60e51b815260206004820181905260248201527f4f776e61626c653a2063616c6c6572206973206e6f7420746865206f776e6572604482015260640161026c565b603380546001600160a01b038381166001600160a01b0319831681179093556040519116919082907f8be0079c531659141344cd1fd0a4f28419497f9722a3daafe3b4186f6b6457e090600090a35050565b804710156104775760405162461bcd60e51b815260206004820152601d60248201527f416464726573733a20696e73756666696369656e742062616c616e6365000000604482015260640161026c565b6000826001600160a01b03168260405160006040518083038185875af1925050503d80600081146104c4576040519150601f19603f3d011682016040523d82523d6000602084013e6104c9565b606091505b50509050806105405760405162461bcd60e51b815260206004820152603a60248201527f416464726573733a20756e61626c6520746f2073656e642076616c75652c207260448201527f6563697069656e74206d61792068617665207265766572746564000000000000606482015260840161026c565b505050565b600054610100900460ff1661056c5760405162461bcd60e51b815260040161026c9061062a565b6101d1600054610100900460ff166105965760405162461bcd60e51b815260040161026c9061062a565b6101d1336103d5565b6000602082840312156105b157600080fd5b81356001600160a01b03811681146105c857600080fd5b9392505050565b6000602082840312156105e157600080fd5b5035919050565b634e487b7160e01b600052601160045260246000fd5b81810381811115610611576106116105e8565b92915050565b80820180821115610611576106116105e8565b6020808252602b908201527f496e697469616c697a61626c653a20636f6e7472616374206973206e6f74206960408201526a6e697469616c697a696e6760a81b60608201526080019056fea264697066735822122096183966d71e9929bb63b72efc0796abe941c9b23ce6bf6bc7e8921577ac50e564736f6c63430008110033",
  "linkReferences": {},
  "deployedLinkReferences": {}
}