{
  "_format": "hh-sol-artifact-1",
  "contractName": "SampleConsumer",
  "sourceName": "contracts/samples/SampleConsumer.sol",
  "abi": [
    {
      "inputs": [
        {
          "internalType": "address",
          "name": "firewall",
          "type": "address"
        }
      ],
      "stateMutability": "nonpayable",
      "type": "constructor"
    },
    {
      "anonymous": false,
      "inputs": [
        {
          "indexed": true,
          "internalType": "address",
          "name": "previousOwner",
          "type": "address"
        },
        {
          "indexed": true,
          "internalType": "address",
          "name": "newOwner",
          "type": "address"
        }
      ],
      "name": "OwnershipTransferred",
      "type": "event"
    },
    {
      "inputs": [],
      "name": "deposit",
      "outputs": [],
      "stateMutability": "payable",
      "type": "function"
    },
    {
      "inputs": [
        {
          "internalType": "address",
          "name": "",
          "type": "address"
        }
      ],
      "name": "deposits",
      "outputs": [
        {
          "internalType": "uint256",
          "name": "",
          "type": "uint256"
        }
      ],
      "stateMutability": "view",
      "type": "function"
    },
    {
      "inputs": [],
      "name": "firewallAdmin",
      "outputs": [
        {
          "internalType": "address",
          "name": "",
          "type": "address"
        }
      ],
      "stateMutability": "view",
      "type": "function"
    },
    {
      "inputs": [],
      "name": "owner",
      "outputs": [
        {
          "internalType": "address",
          "name": "",
          "type": "address"
        }
      ],
      "stateMutability": "view",
      "type": "function"
    },
    {
      "inputs": [],
      "name": "renounceOwnership",
      "outputs": [],
      "stateMutability": "nonpayable",
      "type": "function"
    },
    {
      "inputs": [
        {
          "internalType": "address",
          "name": "_firewall",
          "type": "address"
        }
      ],
      "name": "setFirewall",
      "outputs": [],
      "stateMutability": "nonpayable",
      "type": "function"
    },
    {
      "inputs": [
        {
          "internalType": "address",
          "name": "_firewallAdmin",
          "type": "address"
        }
      ],
      "name": "setFirewallAdmin",
      "outputs": [],
      "stateMutability": "nonpayable",
      "type": "function"
    },
    {
      "inputs": [
        {
          "internalType": "address",
          "name": "newOwner",
          "type": "address"
        }
      ],
      "name": "setOwner",
      "outputs": [],
      "stateMutability": "nonpayable",
      "type": "function"
    },
    {
      "inputs": [
        {
          "internalType": "address",
          "name": "newOwner",
          "type": "address"
        }
      ],
      "name": "transferOwnership",
      "outputs": [],
      "stateMutability": "nonpayable",
      "type": "function"
    },
    {
      "inputs": [
        {
          "internalType": "uint256",
          "name": "amount",
          "type": "uint256"
        }
      ],
      "name": "withdraw",
      "outputs": [],
      "stateMutability": "nonpayable",
      "type": "function"
    }
  ],
  "bytecode": "0x608060405234801561001057600080fd5b506040516109f73803806109f783398101604081905261002f916100bc565b803361003a8161006c565b600180546001600160a01b039384166001600160a01b03199182161790915560028054929093169116179055506100ec565b600080546001600160a01b038381166001600160a01b0319831681178455604051919092169283917f8be0079c531659141344cd1fd0a4f28419497f9722a3daafe3b4186f6b6457e09190a35050565b6000602082840312156100ce57600080fd5b81516001600160a01b03811681146100e557600080fd5b9392505050565b6108fc806100fb6000396000f3fe6080604052600436106100915760003560e01c80638da5cb5b116100595780638da5cb5b1461012d578063d0e30db014610164578063f05c85821461016c578063f2fde38b1461018c578063fc7e286d146101ac57600080fd5b806313af4035146100965780632e1a7d4d146100b8578063715018a6146100d8578063734b7198146100ed5780638c36d02d1461010d575b600080fd5b3480156100a257600080fd5b506100b66100b13660046107ad565b6101e7565b005b3480156100c457600080fd5b506100b66100d33660046107dd565b6102ce565b3480156100e457600080fd5b506100b6610367565b3480156100f957600080fd5b506100b66101083660046107ad565b61037b565b34801561011957600080fd5b506100b66101283660046107ad565b610426565b34801561013957600080fd5b506000546001600160a01b03165b6040516001600160a01b0390911681526020015b60405180910390f35b6100b6610472565b34801561017857600080fd5b50600254610147906001600160a01b031681565b34801561019857600080fd5b506100b66101a73660046107ad565b61056c565b3480156101b857600080fd5b506101d96101c73660046107ad565b60036020526000908152604090205481565b60405190815260200161015b565b6101ef6105e5565b600154604051631bf8659f60e21b815234916001600160a01b031690636fe1967c90610226903390600090369087906004016107f6565b600060405180830381600087803b15801561024057600080fd5b505af1158015610254573d6000803e3d6000fd5b505050506102618261063f565b6001546040516393163a9160e01b81526001600160a01b03909116906393163a9190610298903390600090369087906004016107f6565b600060405180830381600087803b1580156102b257600080fd5b505af11580156102c6573d6000803e3d6000fd5b505050505050565b600154604051631bf8659f60e21b815234916001600160a01b031690636fe1967c90610305903390600090369087906004016107f6565b600060405180830381600087803b15801561031f57600080fd5b505af1158015610333573d6000803e3d6000fd5b50503360009081526003602052604081208054869450909250610357908490610856565b909155506102619050338361068f565b61036f6105e5565b610379600061063f565b565b6002546001600160a01b031633146103ae5760405162461bcd60e51b81526004016103a59061086f565b60405180910390fd5b6001600160a01b0381166104045760405162461bcd60e51b815260206004820152601e60248201527f4669726577616c6c436f6e73756d65723a207a65726f2061646472657373000060448201526064016103a5565b600280546001600160a01b0319166001600160a01b0392909216919091179055565b6002546001600160a01b031633146104505760405162461bcd60e51b81526004016103a59061086f565b600180546001600160a01b0319166001600160a01b0392909216919091179055565b600154604051631bf8659f60e21b815234916001600160a01b031690636fe1967c906104a9903390600090369087906004016107f6565b600060405180830381600087803b1580156104c357600080fd5b505af11580156104d7573d6000803e3d6000fd5b505033600090815260036020526040812080543494509092506104fb9084906108b3565b90915550506001546040516393163a9160e01b81526001600160a01b03909116906393163a9190610537903390600090369087906004016107f6565b600060405180830381600087803b15801561055157600080fd5b505af1158015610565573d6000803e3d6000fd5b5050505050565b6105746105e5565b6001600160a01b0381166105d95760405162461bcd60e51b815260206004820152602660248201527f4f776e61626c653a206e6577206f776e657220697320746865207a65726f206160448201526564647265737360d01b60648201526084016103a5565b6105e28161063f565b50565b6000546001600160a01b031633146103795760405162461bcd60e51b815260206004820181905260248201527f4f776e61626c653a2063616c6c6572206973206e6f7420746865206f776e657260448201526064016103a5565b600080546001600160a01b038381166001600160a01b0319831681178455604051919092169283917f8be0079c531659141344cd1fd0a4f28419497f9722a3daafe3b4186f6b6457e09190a35050565b804710156106df5760405162461bcd60e51b815260206004820152601d60248201527f416464726573733a20696e73756666696369656e742062616c616e636500000060448201526064016103a5565b6000826001600160a01b03168260405160006040518083038185875af1925050503d806000811461072c576040519150601f19603f3d011682016040523d82523d6000602084013e610731565b606091505b50509050806107a85760405162461bcd60e51b815260206004820152603a60248201527f416464726573733a20756e61626c6520746f2073656e642076616c75652c207260448201527f6563697069656e74206d6179206861766520726576657274656400000000000060648201526084016103a5565b505050565b6000602082840312156107bf57600080fd5b81356001600160a01b03811681146107d657600080fd5b9392505050565b6000602082840312156107ef57600080fd5b5035919050565b6001600160a01b038516815260606020820181905281018390528284608083013760006080848301015260006080601f19601f860116830101905082604083015295945050505050565b634e487b7160e01b600052601160045260246000fd5b8181038181111561086957610869610840565b92915050565b60208082526024908201527f4669726577616c6c436f6e73756d65723a206e6f74206669726577616c6c20616040820152633236b4b760e11b606082015260800190565b808201808211156108695761086961084056fea2646970667358221220ce875917477e167eedd50983f9c3616bc8de3cf3c797ee849caa55be70614b9564736f6c63430008110033",
  "linkReferences": {},
  "deployedLinkReferences": {}
}