{
  "_format": "hh-sol-artifact-1",
  "contractName": "FirewallGuard",
  "sourceName": "contracts/gnosis-safe/FirewallGuard.sol",
  "abi": [
    {
      "inputs": [
        {
          "internalType": "address",
          "name": "_safe",
          "type": "address"
        },
        {
          "internalType": "address",
          "name": "_firewall",
          "type": "address"
        },
        {
          "internalType": "address",
          "name": "_firewallAdmin",
          "type": "address"
        },
        {
          "internalType": "uint256",
          "name": "_bypassGuardWaitTime",
          "type": "uint256"
        }
      ],
      "stateMutability": "nonpayable",
      "type": "constructor"
    },
    {
      "inputs": [],
      "name": "MAX_BYPASS_GUARD_WAIT_TIME",
      "outputs": [
        {
          "internalType": "uint256",
          "name": "",
          "type": "uint256"
        }
      ],
      "stateMutability": "view",
      "type": "function"
    },
    {
      "inputs": [
        {
          "internalType": "address",
          "name": "to",
          "type": "address"
        },
        {
          "internalType": "uint256",
          "name": "value",
          "type": "uint256"
        },
        {
          "internalType": "bytes",
          "name": "data",
          "type": "bytes"
        },
        {
          "internalType": "enum IGuard.Operation",
          "name": "operation",
          "type": "uint8"
        },
        {
          "internalType": "uint256",
          "name": "safeTxGas",
          "type": "uint256"
        },
        {
          "internalType": "uint256",
          "name": "baseGas",
          "type": "uint256"
        },
        {
          "internalType": "uint256",
          "name": "gasPrice",
          "type": "uint256"
        },
        {
          "internalType": "address",
          "name": "gasToken",
          "type": "address"
        },
        {
          "internalType": "address payable",
          "name": "refundReceiver",
          "type": "address"
        },
        {
          "internalType": "bytes",
          "name": "signatures",
          "type": "bytes"
        }
      ],
      "name": "bypassGuard",
      "outputs": [],
      "stateMutability": "nonpayable",
      "type": "function"
    },
    {
      "inputs": [
        {
          "internalType": "bytes32",
          "name": "",
          "type": "bytes32"
        }
      ],
      "name": "bypassGuardInitTime",
      "outputs": [
        {
          "internalType": "uint256",
          "name": "",
          "type": "uint256"
        }
      ],
      "stateMutability": "view",
      "type": "function"
    },
    {
      "inputs": [],
      "name": "bypassGuardWaitTime",
      "outputs": [
        {
          "internalType": "uint256",
          "name": "",
          "type": "uint256"
        }
      ],
      "stateMutability": "view",
      "type": "function"
    },
    {
      "inputs": [
        {
          "internalType": "bytes32",
          "name": "txHash",
          "type": "bytes32"
        },
        {
          "internalType": "bool",
          "name": "",
          "type": "bool"
        }
      ],
      "name": "checkAfterExecution",
      "outputs": [],
      "stateMutability": "nonpayable",
      "type": "function"
    },
    {
      "inputs": [
        {
          "internalType": "address",
          "name": "to",
          "type": "address"
        },
        {
          "internalType": "uint256",
          "name": "value",
          "type": "uint256"
        },
        {
          "internalType": "bytes",
          "name": "data",
          "type": "bytes"
        },
        {
          "internalType": "enum IGuard.Operation",
          "name": "operation",
          "type": "uint8"
        },
        {
          "internalType": "uint256",
          "name": "safeTxGas",
          "type": "uint256"
        },
        {
          "internalType": "uint256",
          "name": "baseGas",
          "type": "uint256"
        },
        {
          "internalType": "uint256",
          "name": "gasPrice",
          "type": "uint256"
        },
        {
          "internalType": "address",
          "name": "gasToken",
          "type": "address"
        },
        {
          "internalType": "address payable",
          "name": "refundReceiver",
          "type": "address"
        },
        {
          "internalType": "bytes",
          "name": "signatures",
          "type": "bytes"
        },
        {
          "internalType": "address",
          "name": "msgSender",
          "type": "address"
        }
      ],
      "name": "checkTransaction",
      "outputs": [],
      "stateMutability": "nonpayable",
      "type": "function"
    },
    {
      "inputs": [],
      "name": "firewall",
      "outputs": [
        {
          "internalType": "address",
          "name": "",
          "type": "address"
        }
      ],
      "stateMutability": "view",
      "type": "function"
    },
    {
      "inputs": [],
      "name": "firewallAdmin",
      "outputs": [
        {
          "internalType": "address",
          "name": "",
          "type": "address"
        }
      ],
      "stateMutability": "view",
      "type": "function"
    },
    {
      "inputs": [],
      "name": "safe",
      "outputs": [
        {
          "internalType": "address",
          "name": "",
          "type": "address"
        }
      ],
      "stateMutability": "view",
      "type": "function"
    },
    {
      "inputs": [
        {
          "internalType": "bytes4",
          "name": "interfaceId",
          "type": "bytes4"
        }
      ],
      "name": "supportsInterface",
      "outputs": [
        {
          "internalType": "bool",
          "name": "",
          "type": "bool"
        }
      ],
      "stateMutability": "view",
      "type": "function"
    }
  ],
  "bytecode": "0x608060405234801561001057600080fd5b50604051620011573803806200115783398101604081905261003191610167565b6001600160a01b03841661009f5760405162461bcd60e51b815260206004820152602a60248201527f4669726577616c6c47756172643a20736166652063616e6e6f74206265207a65604482015269726f206164647265737360b01b60648201526084015b60405180910390fd5b62093a808111156101065760405162461bcd60e51b815260206004820152602b60248201527f4669726577616c6c47756172643a20627970617373477561726457616974546960448201526a0daca40e8dede40d0d2ced60ab1b6064820152608401610096565b600180546001600160a01b03199081166001600160a01b03968716179091556002805482169486169490941790935560038054909316919093161790556004556101b2565b80516001600160a01b038116811461016257600080fd5b919050565b6000806000806080858703121561017d57600080fd5b6101868561014b565b93506101946020860161014b565b92506101a26040860161014b565b6060959095015193969295505050565b610f9580620001c26000396000f3fe608060405234801561001057600080fd5b506004361061009e5760003560e01c8063cb826af411610066578063cb826af414610131578063d189b0ae14610144578063d99c1a921461015c578063e76f8ae414610165578063f05c85821461018557600080fd5b806301ffc9a7146100a3578063186f0354146100cb57806375f0bb52146100f6578063932713681461010b578063c22a4a851461011e575b600080fd5b6100b66100b1366004610772565b610198565b60405190151581526020015b60405180910390f35b6001546100de906001600160a01b031681565b6040516001600160a01b0390911681526020016100c2565b610109610104366004610893565b6101cf565b005b610109610119366004610978565b61048e565b6002546100de906001600160a01b031681565b61010961013f3660046109ad565b610577565b61014e62093a8081565b6040519081526020016100c2565b61014e60045481565b61014e610173366004610a7c565b60006020819052908152604090205481565b6003546100de906001600160a01b031681565b60006001600160e01b0319821663736bd41d60e11b14806101c957506001600160e01b031982166301ffc9a760e01b145b92915050565b6001546001600160a01b031633146102025760405162461bcd60e51b81526004016101f990610a95565b60405180910390fd5b600080600160009054906101000a90046001600160a01b03166001600160a01b031663affed0e06040518163ffffffff1660e01b8152600401602060405180830381865afa158015610258573d6000803e3d6000fd5b505050506040513d601f19601f8201168201806040525081019061027c9190610ad6565b90506000600160009054906101000a90046001600160a01b03166001600160a01b031663e86637db8f8f8f8f8f8f8f8f8f60018d6102ba9190610b05565b6040518b63ffffffff1660e01b81526004016102df9a99989796959493929190610b8a565b600060405180830381865afa1580156102fc573d6000803e3d6000fd5b505050506040513d6000823e601f3d908101601f191682016040526103249190810190610c00565b80516020918201206000818152918290526040909120549093501580159250905061036957506004546000828152602081905260409020546103669190610c77565b42115b156103745750610481565b6000636a7612028d8d8d8d8d8d8d8d8d8d60405160240161039e9a99989796959493929190610c8a565b60408051601f198184030181529190526020810180516001600160e01b031660e09390931b92909217909152905060056103d88282610d93565b5082600660006101000a8154816001600160a01b0302191690836001600160a01b031602179055508b600781905550600260009054906101000a90046001600160a01b03166001600160a01b0316636fe1967c84838f6040518463ffffffff1660e01b815260040161044c93929190610e53565b600060405180830381600087803b15801561046657600080fd5b505af115801561047a573d6000803e3d6000fd5b5050505050505b5050505050505050505050565b6001546001600160a01b031633146104b85760405162461bcd60e51b81526004016101f990610a95565b600082815260208190526040902054158015906104ef57506004546000838152602081905260409020546104ec9190610c77565b42115b156105065750600090815260208190526040812055565b6002546006546007546040516393163a9160e01b81526001600160a01b03938416936393163a91936105419391169160059190600401610e87565b600060405180830381600087803b15801561055b57600080fd5b505af115801561056f573d6000803e3d6000fd5b505050505050565b6001546040805163057ff68760e51b815290516000926001600160a01b03169163affed0e09160048083019260209291908290030181865afa1580156105c1573d6000803e3d6000fd5b505050506040513d601f19601f820116820180604052508101906105e59190610ad6565b60015460405163e86637db60e01b81529192506000916001600160a01b039091169063e86637db9061062d908f908f908f908f908f908f908f908f908f908e90600401610b8a565b600060405180830381865afa15801561064a573d6000803e3d6000fd5b505050506040513d6000823e601f3d908101601f191682016040526106729190810190610c00565b805160208083019190912060008181529182905260409091205491925090156106ef5760405162461bcd60e51b815260206004820152602960248201527f4669726577616c6c47756172643a20627970617373477561726420616c726561604482015268191e4818d85b1b195960ba1b60648201526084016101f9565b60015460405163934f3a1160e01b81526001600160a01b039091169063934f3a119061072390849086908990600401610f2a565b60006040518083038186803b15801561073b57600080fd5b505afa15801561074f573d6000803e3d6000fd5b505050600091825250602081905260409020429055505050505050505050505050565b60006020828403121561078457600080fd5b81356001600160e01b03198116811461079c57600080fd5b9392505050565b80356001600160a01b03811681146107ba57600080fd5b919050565b634e487b7160e01b600052604160045260246000fd5b604051601f8201601f1916810167ffffffffffffffff811182821017156107fe576107fe6107bf565b604052919050565b600067ffffffffffffffff821115610820576108206107bf565b50601f01601f191660200190565b600082601f83011261083f57600080fd5b813561085261084d82610806565b6107d5565b81815284602083860101111561086757600080fd5b816020850160208301376000918101602001919091529392505050565b8035600281106107ba57600080fd5b60008060008060008060008060008060006101608c8e0312156108b557600080fd5b6108be8c6107a3565b9a5060208c0135995067ffffffffffffffff8060408e013511156108e157600080fd5b6108f18e60408f01358f0161082e565b99506108ff60608e01610884565b985060808d0135975060a08d0135965060c08d0135955061092260e08e016107a3565b94506109316101008e016107a3565b9350806101208e0135111561094557600080fd5b506109578d6101208e01358e0161082e565b91506109666101408d016107a3565b90509295989b509295989b9093969950565b6000806040838503121561098b57600080fd5b82359150602083013580151581146109a257600080fd5b809150509250929050565b6000806000806000806000806000806101408b8d0312156109cd57600080fd5b6109d68b6107a3565b995060208b0135985060408b013567ffffffffffffffff808211156109fa57600080fd5b610a068e838f0161082e565b9950610a1460608e01610884565b985060808d0135975060a08d0135965060c08d01359550610a3760e08e016107a3565b9450610a466101008e016107a3565b93506101208d0135915080821115610a5d57600080fd5b50610a6a8d828e0161082e565b9150509295989b9194979a5092959850565b600060208284031215610a8e57600080fd5b5035919050565b60208082526021908201527f4669726577616c6c47756172643a206f6e6c7920736166652063616e2063616c6040820152601b60fa1b606082015260800190565b600060208284031215610ae857600080fd5b5051919050565b634e487b7160e01b600052601160045260246000fd5b818103818111156101c9576101c9610aef565b60005b83811015610b33578181015183820152602001610b1b565b50506000910152565b60008151808452610b54816020860160208601610b18565b601f01601f19169290920160200192915050565b60028110610b8657634e487b7160e01b600052602160045260246000fd5b9052565b6001600160a01b038b81168252602082018b905261014060408301819052600091610bb78483018d610b3c565b9250610bc6606085018c610b68565b60808401999099525060a082019690965260c081019490945291851660e08401529093166101008201526101200191909152949350505050565b600060208284031215610c1257600080fd5b815167ffffffffffffffff811115610c2957600080fd5b8201601f81018413610c3a57600080fd5b8051610c4861084d82610806565b818152856020838501011115610c5d57600080fd5b610c6e826020830160208601610b18565b95945050505050565b808201808211156101c9576101c9610aef565b6001600160a01b038b81168252602082018b905261014060408301819052600091610cb78483018d610b3c565b9150610cc6606085018c610b68565b8960808501528860a08501528760c085015280871660e085015280861661010085015250828103610120840152610cfd8185610b3c565b9d9c50505050505050505050505050565b600181811c90821680610d2257607f821691505b602082108103610d4257634e487b7160e01b600052602260045260246000fd5b50919050565b601f821115610d8e57600081815260208120601f850160051c81016020861015610d6f5750805b601f850160051c820191505b8181101561056f57828155600101610d7b565b505050565b815167ffffffffffffffff811115610dad57610dad6107bf565b610dc181610dbb8454610d0e565b84610d48565b602080601f831160018114610df65760008415610dde5750858301515b600019600386901b1c1916600185901b17855561056f565b600085815260208120601f198616915b82811015610e2557888601518255948401946001909101908401610e06565b5085821015610e435787850151600019600388901b60f8161c191681555b5050505050600190811b01905550565b6001600160a01b0384168152606060208201819052600090610e7790830185610b3c565b9050826040830152949350505050565b60018060a01b03841681526000602060608184015260008554610ea981610d0e565b8060608701526080600180841660008114610ecb5760018114610ee557610f13565b60ff1985168984015283151560051b890183019550610f13565b8a6000528660002060005b85811015610f0b5781548b8201860152908301908801610ef0565b8a0184019650505b505050505060409390930193909352509392505050565b838152606060208201526000610f436060830185610b3c565b8281036040840152610f558185610b3c565b969550505050505056fea264697066735822122091e531884d1d6622d68d3fd3b7d676743cc96b9d46e32e72b56852ab99d8067264736f6c63430008110033",
  "linkReferences": {},
  "deployedLinkReferences": {}
}