{
  "_format": "hh-sol-artifact-1",
  "contractName": "AdminCallPolicy",
  "sourceName": "contracts/policies/AdminCallPolicy.sol",
  "abi": [
    {
      "anonymous": false,
      "inputs": [
        {
          "indexed": true,
          "internalType": "address",
          "name": "previousOwner",
          "type": "address"
        },
        {
          "indexed": true,
          "internalType": "address",
          "name": "newOwner",
          "type": "address"
        }
      ],
      "name": "OwnershipTransferred",
      "type": "event"
    },
    {
      "inputs": [
        {
          "internalType": "bytes32",
          "name": "",
          "type": "bytes32"
        }
      ],
      "name": "adminCallHashApprovalTimestamp",
      "outputs": [
        {
          "internalType": "uint256",
          "name": "",
          "type": "uint256"
        }
      ],
      "stateMutability": "view",
      "type": "function"
    },
    {
      "inputs": [
        {
          "internalType": "bytes32",
          "name": "_callHash",
          "type": "bytes32"
        }
      ],
      "name": "approveCall",
      "outputs": [],
      "stateMutability": "nonpayable",
      "type": "function"
    },
    {
      "inputs": [],
      "name": "expirationTime",
      "outputs": [
        {
          "internalType": "uint256",
          "name": "",
          "type": "uint256"
        }
      ],
      "stateMutability": "view",
      "type": "function"
    },
    {
      "inputs": [],
      "name": "owner",
      "outputs": [
        {
          "internalType": "address",
          "name": "",
          "type": "address"
        }
      ],
      "stateMutability": "view",
      "type": "function"
    },
    {
      "inputs": [
        {
          "internalType": "address",
          "name": "",
          "type": "address"
        },
        {
          "internalType": "address",
          "name": "",
          "type": "address"
        },
        {
          "internalType": "bytes",
          "name": "",
          "type": "bytes"
        },
        {
          "internalType": "uint256",
          "name": "",
          "type": "uint256"
        }
      ],
      "name": "postExecution",
      "outputs": [],
      "stateMutability": "nonpayable",
      "type": "function"
    },
    {
      "inputs": [
        {
          "internalType": "address",
          "name": "consumer",
          "type": "address"
        },
        {
          "internalType": "address",
          "name": "sender",
          "type": "address"
        },
        {
          "internalType": "bytes",
          "name": "data",
          "type": "bytes"
        },
        {
          "internalType": "uint256",
          "name": "value",
          "type": "uint256"
        }
      ],
      "name": "preExecution",
      "outputs": [],
      "stateMutability": "nonpayable",
      "type": "function"
    },
    {
      "inputs": [],
      "name": "renounceOwnership",
      "outputs": [],
      "stateMutability": "nonpayable",
      "type": "function"
    },
    {
      "inputs": [
        {
          "internalType": "uint256",
          "name": "_expirationTime",
          "type": "uint256"
        }
      ],
      "name": "setExpirationTime",
      "outputs": [],
      "stateMutability": "nonpayable",
      "type": "function"
    },
    {
      "inputs": [
        {
          "internalType": "address",
          "name": "newOwner",
          "type": "address"
        }
      ],
      "name": "transferOwnership",
      "outputs": [],
      "stateMutability": "nonpayable",
      "type": "function"
    }
  ],
  "bytecode": "0x60806040526201518060015534801561001757600080fd5b5061002133610026565b610076565b600080546001600160a01b038381166001600160a01b0319831681178455604051919092169283917f8be0079c531659141344cd1fd0a4f28419497f9722a3daafe3b4186f6b6457e09190a35050565b6105dc806100856000396000f3fe608060405234801561001057600080fd5b50600436106100935760003560e01c8063c0cc365d11610066578063c0cc365d14610103578063c6d4328b14610116578063d9739cda1461012b578063da284dcc1461013e578063f2fde38b1461014757600080fd5b806317d83c0b1461009857806350f46a8f146100cb578063715018a6146100e05780638da5cb5b146100e8575b600080fd5b6100b86100a6366004610429565b60026020526000908152604090205481565b6040519081526020015b60405180910390f35b6100de6100d9366004610429565b61015a565b005b6100de610175565b6000546040516001600160a01b0390911681526020016100c2565b6100de610111366004610429565b610189565b6100de61012436600461045e565b5050505050565b6100de61013936600461045e565b610196565b6100b860015481565b6100de6101553660046104f4565b6102ca565b610162610343565b6000908152600260205260409020429055565b61017d610343565b610187600061039d565b565b610191610343565b600155565b60006101dc86863287878080601f0160208091040260200160405190810160405280939291908181526020018383808284376000920191909152508992506103ed915050565b60008181526002602052604090205490915061024a5760405162461bcd60e51b815260206004820152602260248201527f41646d696e43616c6c506f6c6963793a2043616c6c206e6f7420617070726f76604482015261195960f21b60648201526084015b60405180910390fd5b600154600082815260026020526040902054429161026791610516565b116102b45760405162461bcd60e51b815260206004820152601d60248201527f41646d696e43616c6c506f6c6963793a2043616c6c20657870697265640000006044820152606401610241565b6000908152600260205260408120555050505050565b6102d2610343565b6001600160a01b0381166103375760405162461bcd60e51b815260206004820152602660248201527f4f776e61626c653a206e6577206f776e657220697320746865207a65726f206160448201526564647265737360d01b6064820152608401610241565b6103408161039d565b50565b6000546001600160a01b031633146101875760405162461bcd60e51b815260206004820181905260248201527f4f776e61626c653a2063616c6c6572206973206e6f7420746865206f776e65726044820152606401610241565b600080546001600160a01b038381166001600160a01b0319831681178455604051919092169283917f8be0079c531659141344cd1fd0a4f28419497f9722a3daafe3b4186f6b6457e09190a35050565b6000858585858560405160200161040895949392919061053d565b60405160208183030381529060405280519060200120905095945050505050565b60006020828403121561043b57600080fd5b5035919050565b80356001600160a01b038116811461045957600080fd5b919050565b60008060008060006080868803121561047657600080fd5b61047f86610442565b945061048d60208701610442565b9350604086013567ffffffffffffffff808211156104aa57600080fd5b818801915088601f8301126104be57600080fd5b8135818111156104cd57600080fd5b8960208285010111156104df57600080fd5b96999598505060200195606001359392505050565b60006020828403121561050657600080fd5b61050f82610442565b9392505050565b8082018082111561053757634e487b7160e01b600052601160045260246000fd5b92915050565b60006bffffffffffffffffffffffff19808860601b168352808760601b166014840152808660601b16602884015250835160005b8181101561058e576020818701810151603c868401015201610571565b50603c920191820192909252605c019594505050505056fea2646970667358221220b930a81cfe7048e706f53495d3a7b880782b356068e7c12e84eba83f8e1e47cb64736f6c63430008110033",
  "linkReferences": {},
  "deployedLinkReferences": {}
}